:020000040800F2
:100000000050002035900008F54A0008F74A000823
:10001000F94A0008FB4A0008FD4A000800000000F9
:10002000000000000000000000000000FF4A00087F
:10003000014B000800000000034B0008054B0008BE
:100040007D9000087D9000087D9000081D4B000801
:100050007D9000087D9000087D9000083D4B0008D1
:100060007D9000087D9000087D9000087D9000083C
:100070007D9000087D9000087D9000087D9000082C
:100080007D9000087D9000087D9000087D9000081C
:100090000D4B00087D9000087D9000087D900008C1
:1000A0007D9000087D9000087D9000087D900008FC
:1000B0007D9000084D4B00087D9000087D90000861
:1000C0007D9000087D9000087D9000087D900008DC
:1000D0007D9000087D9000087D9000087D900008CC
:1000E0007D9000082D4B00087D9000087D90000851
:1000F0007D9000087D9000087D9000087D900008AC
:100100007D9000087D9000087D9000087D9000089B
:100110007D9000087D9000087D9000087D9000088B
:100120007D9000087D9000087D9000087D9000087B
:1001300000000000000000000000000000000000BF
:1001400000000000000000000000000000000000AF
:10015000000000000000000000000000000000009F
:10016000000000000000000000000000000000008F
:10017000000000000000000000000000000000007F
:10018000000000000000000000000000000000006F
:10019000000000000000000000000000000000005F
:1001A000000000000000000000000000000000004F
:1001B000000000000000000000000000000000003F
:1001C000000000000000000000000000000000002F
:1001D000000000000000000000000000000000001F
:0401E0005FF8E0F1F3
:1001E80010B5054C237833B9044B13B10448AFF369
:1001F80000800123237010BDB80300200000000018
:1002080074D2000808B5034B1BB103490348AFF388
:10021800008008BD00000000BC03002074D2000864
:10022800034613F8012B002AFBD1181A013870472E
:1002380010F8012B11F8013B012A28BF9A42F7D088
:10024800D01A704781F0004102E000BF83F00043FC
:1002580030B54FEA41044FEA430594EA050F08BF59
:1002680090EA020F1FBF54EA000C55EA020C7FEA1D
:10027800645C7FEA655C00F0E2804FEA5454D4EB9A
:100288005555B8BF6D420CDD2C4480EA020281EA64
:10029800030382EA000083EA010180EA020281EA9C
:1002A8000303362D88BF30BD11F0004F4FEA0131EE
:1002B8004FF4801C4CEA113102D0404261EB4101FD
:1002C80013F0004F4FEA03334CEA133302D0524283
:1002D80063EB430394EA050F00F0A780A4F101043F
:1002E800D5F1200E0DDB02FA0EFC22FA05F2801879
:1002F80041F1000103FA0EF2801843FA05F359415F
:100308000EE0A5F120050EF1200E012A03FA0EFCDD
:1003180028BF4CF0020C43FA05F3C01851EBE37107
:1003280001F0004507D54FF0000EDCF1000C7EEB24
:1003380000006EEB0101B1F5801F1BD3B1F5001F62
:100348000CD349085FEA30004FEA3C0C04F1010481
:100358004FEA445212F5800F80F09A80BCF1004FAA
:1003680008BF5FEA500C50F1000041EB045141EA2C
:10037800050130BD5FEA4C0C404141EB010111F42D
:10038800801FA4F10104E9D191F0000F04BF0146D8
:100398000020B1FA81F308BF2033A3F10B03B3F1B6
:1003A80020020CDA0C3208DD02F1140CC2F10C0246
:1003B80001FA0CF021FA02F10CE002F11402D8BFA4
:1003C800C2F1200C01FA02F120FA0CFCDCBF41EA70
:1003D8000C019040E41AA2BF01EB0451294330BD3F
:1003E8006FEA04041F3C1CDA0C340EDC04F114041C
:1003F800C4F1200220FA04F001FA02F340EA0300F3
:1004080021FA04F345EA030130BDC4F10C04C4F138
:10041800200220FA02F001FA04F340EA0300294618
:1004280030BD21FA04F0294630BD94F0000F83F462
:10043800801306BF81F480110134013D4EE77FEA45
:10044800645C18BF7FEA655C29D094EA050F08BF91
:1004580090EA020F05D054EA000C04BF1946104672
:1004680030BD91EA030F1EBF0021002030BD5FEAB6
:10047800545C05D14000494128BF41F0004130BDDE
:1004880014F580043CBF01F5801130BD01F0004532
:1004980045F0FE4141F470014FF0000030BD7FEAA5
:1004A800645C1ABF194610467FEA655C1CBF0B46A0
:1004B800024650EA013406BF52EA033591EA030FB7
:1004C80041F4002130BD00BF90F0000F04BF0021AF
:1004D800704730B54FF4806404F132044FF00005E2
:1004E8004FF0000150E700BF90F0000F04BF00215B
:1004F800704730B54FF4806404F1320410F00045C1
:1005080048BF40424FF000013EE700BF42004FEABB
:10051800E2014FEA31014FEA02701FBF12F07F4338
:1005280093F07F4F81F06051704732F07F4208BFEF
:10053800704793F07F4F04BF41F40021704730B5F6
:100548004FF4607401F0004521F000411CE700BF42
:1005580050EA010208BF704730B54FF000050AE0C5
:1005680050EA010208BF704730B511F0004502D5C6
:10057800404261EB41014FF4806404F132045FEAC8
:10058800915C3FF4D8AE4FF003025FEADC0C18BF71
:1005980003325FEADC0C18BF033202EBDC02C2F163
:1005A800200300FA03FC20FA02F001FA03FE40EAF5
:1005B8000E0021FA02F11444BDE600BF70B54FF0F9
:1005C800FF0C4CF4E06C1CEA11541DBF1CEA1355D7
:1005D80094EA0C0F95EA0C0F00F0DEF82C4481EA3F
:1005E800030621EA4C5123EA4C5350EA013518BF5F
:1005F80052EA033541F4801143F4801338D0A0FB4C
:1006080002CE4FF00005E1FB02E506F00042E0FBF8
:1006180003E54FF00006E1FB03569CF0000F18BFFE
:100628004EF0010EA4F1FF04B6F5007F64F54074A6
:1006380004D25FEA4E0E6D4146EB060642EAC62139
:1006480041EA55514FEAC52040EA5E504FEACE2EA6
:10065800B4F1FD0C88BFBCF5E06F1ED8BEF1004FA9
:1006680008BF5FEA500E50F1000041EB045170BD25
:1006780006F0004646EA010140EA020081EA030169
:10068800B4EB5C04C2BFD4EB0C0541EA045170BD65
:1006980041F480114FF0000E013C00F3AB8014F1DF
:1006A800360FDEBF002001F0004170BDC4F1000428
:1006B800203C35DA0C341BDC04F11404C4F12005A9
:1006C80000FA05F320FA04F001FA05F240EA020004
:1006D80001F0004221F0004110EBD37021FA04F63A
:1006E80042EB06015EEA430E08BF20EAD37070BDF4
:1006F800C4F10C04C4F1200500FA04F320FA05F053
:1007080001FA04F240EA020001F0004110EBD37054
:1007180041F100015EEA430E08BF20EAD37070BDC4
:10072800C4F1200500FA05F24EEA020E20FA04F39D
:1007380001FA05F243EA020321FA04F001F000414C
:1007480021FA04F220EA020000EBD3705EEA430EBD
:1007580008BF20EAD37070BD94F0000F0FD101F0EC
:100768000046400041EB010111F4801F08BF013C25
:10077800F7D041EA060195F0000F18BF704703F063
:100788000046520043EB030313F4801F08BF013DEA
:10079800F7D043EA0603704794EA0C0F0CEA1355A6
:1007A80018BF95EA0C0F0CD050EA410618BF52EA60
:1007B8004306D1D181EA030101F000414FF0000066
:1007C80070BD50EA410606BF1046194652EA430674
:1007D80019D094EA0C0F02D150EA013613D195EAE8
:1007E8000C0F05D152EA03361CBF104619460AD130
:1007F80081EA030101F0004141F0FE4141F470013A
:100808004FF0000070BD41F0FE4141F4780170BD29
:1008180070B54FF0FF0C4CF4E06C1CEA11541DBF8E
:100828001CEA135594EA0C0F95EA0C0F00F0A7F890
:10083800A4EB050481EA030E52EA03354FEA0131BD
:1008480000F088804FEA03334FF0805545EA1313D0
:1008580043EA12634FEA022245EA111545EA106598
:100868004FEA00260EF000419D4208BF964244F12F
:10087800FD0404F5407402D25B084FEA3202B61A4E
:1008880065EB03055B084FEA32024FF480104FF422
:10089800002CB6EB020E75EB030E22BFB61A754696
:1008A80040EA0C005B084FEA3202B6EB020E75EB29
:1008B800030E22BFB61A754640EA5C005B084FEA91
:1008C8003202B6EB020E75EB030E22BFB61A75465E
:1008D80040EA9C005B084FEA3202B6EB020E75EB69
:1008E800030E22BFB61A754640EADC0055EA060E2A
:1008F80018D04FEA051545EA16754FEA06164FEA6D
:10090800C30343EA52734FEAC2025FEA1C1CC0D118
:1009180011F4801F0BD141EA00014FF000004FF0A5
:10092800004CB6E711F4801F04BF01430020B4F166
:10093800FD0C88BFBCF5E06F3FF6AFAEB5EB030C1E
:1009480004BFB6EB020C5FEA500C50F1000041EB1B
:10095800045170BD0EF0004E4EEA113114EB5C04E8
:10096800C2BFD4EB0C0541EA045170BD41F48011BB
:100978004FF0000E013C90E645EA060E8DE60CEAC3
:10098800135594EA0C0F08BF95EA0C0F3FF43BAFE0
:1009980094EA0C0F0AD150EA01347FF434AF95EA97
:1009A8000C0F7FF425AF104619462CE795EA0C0F7B
:1009B80006D152EA03353FF4FDAE1046194622E748
:1009C80050EA410618BF52EA43067FF4C5AE50EA22
:1009D80041047FF40DAF52EA43057FF4EBAE12E712
:1009E8004FF0FF3C06E000BF4FF0010C02E000BFF3
:1009F8004FF0010C4DF804CD4FEA410C7FEA6C5CD6
:100A08004FEA430C18BF7FEA6C5C1BD001B050EA78
:100A1800410C0CBF52EA430C91EA030F02BF90EA63
:100A2800020F0020704710F1000F91EA030F58BF22
:100A3800994208BF90422CBFD8176FEAE37040F084
:100A4800010070474FEA410C7FEA6C5C02D150EA22
:100A5800013C07D14FEA430C7FEA6C5CD6D152EADD
:100A6800033CD3D05DF8040B704700BF84461046A2
:100A780062468C461946634600E000BF01B5FFF7A1
:100A8800B7FF002848BF10F1000F01BD4DF808ED71
:100A9800FFF7F4FF0CBF012000205DF808FB00BF42
:100AA8004DF808EDFFF7EAFF34BF012000205DF89C
:100AB80008FB00BF4DF808EDFFF7E0FF94BF0120E9
:100AC80000205DF808FB00BF4DF808EDFFF7CEFFEA
:100AD80094BF012000205DF808FB00BF4DF808ED29
:100AE800FFF7C4FF34BF012000205DF808FB00BFFA
:100AF8004FEA410C7FEA6C5C02D150EA013C0AD112
:100B08004FEA430C7FEA6C5C02D152EA033C02D103
:100B18004FF0000070474FF0010070474FEA410264
:100B280012F5001215D211D56FF47873B3EB625237
:100B380012D94FEAC12343F0004343EA505311F05E
:100B4800004F23FA02F018BF404270474FF00000F0
:100B5800704750EA013005D111F0004008BF6FF02E
:100B6800004070474FF00000704700BF7BB972B972
:100B78000029BEBF00204FF0004106E008BF002852
:100B88001CBF6FF000414FF0FF3000F0A7B9ADF186
:100B9800080C6DE904CE002909DB002B1ADB00F0F4
:100BA80035F8DDF804E0DDE9022304B0704740427F
:100BB80061EB4101002B1BDB00F028F8DDF804E0B5
:100BC800DDE9022304B0404261EB4101524263EB8C
:100BD80043037047524263EB430300F017F8DDF814
:100BE80004E0DDE9022304B0404261EB41017047B3
:100BF800524263EB430300F009F8DDF804E0DDE955
:100C0800022304B0524263EB430370472DE9F047D7
:100C18008C460446089E002B40F086808A42154682
:100C280048D9B2FA82F24AB1C2F1200701FA02F3B6
:100C380020FA07F7954047EA030C94404FEA154E0F
:100C4800BCFBFEF71FFA85F80EFB17C307FB08F974
:100C5800210C41EA0343994509D9EB1807F1FF3103
:100C680080F0E180994540F2DE80023F2B44A3EBFF
:100C78000903B3FBFEF00EFB103300FB08F1A4B22E
:100C880044EA0344A14209D92C1900F1FF3380F04A
:100C9800C880A14240F2C58002382C4440EA07408F
:100CA8000027641A1EB10023D440C6E90043394620
:100CB800BDE8F087002A54D0B2FA82F2002A40F048
:100CC800B4800127491B4FEA15481FFA85F9B1FB83
:100CD800F8FE08FB1E1109FB0EF04FEA144C4CEA13
:100CE8000143984207D9EB180EF1FF3102D298421E
:100CF80000F2EB808E461B1AB3FBF8F008FB1033AA
:100D080009FB00F9A4B244EA0344A14507D92C1908
:100D180000F1FF3302D2A14500F2DB801846A4EBB4
:100D2800090440EA0E40BDE78B4208D9002E75D071
:100D38000027C6E9000138463946BDE8F087B3FA0E
:100D480083F77FB98B4202D3824200F2BC80841AB7
:100D580061EB030301209C46002EA8D0C6E9004C95
:100D6800A5E7FFDEC7F12005BB4022FA05FC4CEAE7
:100D7800030C21FA05F44FEA1C4EB4FBFEF91FFAE6
:100D88008CF80EFB194420FA05F3B94009FB08FA60
:100D980019430B0C43EA0444A24502FA07F200FA8D
:100DA80007F30BD91CEB040409F1FF3080F08980AC
:100DB800A24540F28680A9F102096444A4EB0A0422
:100DC800B4FBFEF00EFB104400FB08FA89B241EABE
:100DD8000444A24508D91CEB040400F1FF316CD28D
:100DE800A2456AD90238644440EA0940A0FB028956
:100DF800A4EB0A044C454146CE4655D352D0002EAA
:100E08006AD05A1A64EB0E0404FA05F522FA07F3BD
:100E1800FC401D43C6E90054002748E737463046E2
:100E280045E718463AE70F4621E79540C2F1200307
:100E380021FA03F04FEA1548B0FBF8F71FFA85F9D5
:100E480008FB170E24FA03FC914007FB09FA4CEA49
:100E58000101080C40EA0E40824504FA02F407D961
:100E6800281807F1FF332AD2824528D9023F28449F
:100E7800A0EB0A00B0FBF8FC08FB1C000CFB09F314
:100E880089B241EA00418B4208D969180CF1FF3058
:100E980011D28B420FD9ACF1020C2944C91A4CEA81
:100EA800074714E74345AAD2B8EB020169EB0C02E5
:100EB80001389646A3E78446F0E7084694E71F46BC
:100EC800D6E781467AE7384646E7AEF1020E2B446C
:100ED80011E702382C4422E73746E8E6704700BF9E
:100EE8004B2901D00020704708B532B101224021BA
:100EF800054806F0D0F9012008BD0022402102482B
:100F080006F0C9F90120F7E70008014030B583B0C1
:100F1800182919D014461D4619291DD0172902D0A1
:100F2800002003B030BD6CB115F8013B8DF80730D7
:100F3800013CE4B2642301220DF107010A4805F0DF
:100F48001DF8F0E70120ECE701221021074806F020
:100F5800A2F900BF0120E4E700BF002210210348E6
:100F680006F099F90120DCE77C0C0020000801401C
:100F780008B5024809F036F908BD00BFC4D2000818
:100F880000B597B000230E93119307930893099324
:100F98000A930B9301930293039304930593069387
:100FA8000D230C934FF480320D920123109312936A
:100FB8000F930223139314924FF4E01315930CA884
:100FC80005F010FB60BB0F23079302210891002353
:100FD80009934FF480620A920B9307A805F02AFD43
:100FE80008BB11230193002306934FF480730293E7
:100FF80001A805F003FEC8B905F0EAFD0D4BA3FBF7
:101008000030800906F0B2F9042006F0C5F9002284
:1010180011464FF0FF3006F069F917B05DF804FB90
:10102800FFF7A6FFCFE7FFF7A3FFDAE7FFF7A0FF79
:10103800E2E700BFD34D621070B505F085FAFFF7FF
:101048009FFF00F083F803F0DBFA03F041FB304C1C
:1010580001224FF40041204606F01DF900F00CF97A
:101068002C4E2D4B2D4A2E49304607F027F9304695
:1010780007F085FF0021304607F088FF0022402155
:10108800204606F008F90A2005F082FA01224021DC
:10109800204606F000F900F029F94FF4FA7005F03F
:1010A80077FA00F011FE00F05FFD03F0D3F903F0CA
:1010B80031FA00F0E9F905F065FA054605F062FA3B
:1010C8000446304607F0DFF803F0EEFA09E005F0D1
:1010D80059FA04460BE00F4807F0E2F805F052FA17
:1010E800054605F04FFA001BB0F57A7FEFD800F0FF
:1010F8004FFA01F06DF800F0CDFD03F071F90948E1
:1011080005F02BF805F03EFA401B6428E9D9E2E720
:1011180000080140600A0020E90E0008150F0008C9
:1011280078E20008D40C002008B50138012806D858
:101138000B461146184603F0C3FCC0B208BD07F0C1
:101148009BFF092303604FF0FF30F7E72DE9F041DB
:1011580086B000240294039404940594184B9A6969
:1011680042F004029A619B6903F004030193019B16
:10117800144D01224FF40041284606F08CF84FF434
:10118800004302930126039604944FF00208CDF819
:10119800148002A9284605F083FF5027029703967A
:1011A8000494CDF8148002A9284605F079FF324648
:1011B8003946284606F06FF806B0BDE8F08100BF52
:1011C8000010024000080140642804D800EB8000A9
:1011D8004300014A53637047002C014008B50A20B8
:1011E800FFF7F2FF08BD000008B5024B5878FFF77B
:1011F800EBFF08BD3C0B00200268094B9A4200D067
:10120800704782B003F564439A6942F400629A61B8
:101218009B6903F400630193019B02B0704700BF10
:10122800002C014000B587B0002302930393049378
:10123800059302680E4B9A4202D007B05DF804FB92
:1012480003F564439A6942F004029A619B6903F0CA
:1012580004030193019B4FF48073029302230393C9
:101268000123059302A9034805F01AFFE5E700BF2B
:10127800002C01400008014010B51948194B0360C3
:1012880011234360002383604FF47A72C2600361C4
:101298004361836105F048F8C8B9134960230B60BE
:1012A8004FF496734B6000228A60CA600A614A61F3
:1012B8008A610B4805F08AF860B9094C2046FFF7A7
:1012C800B1FF0021204605F0FDF830B910BDFFF749
:1012D8004FFEE2E7FFF74CFEEFE7FFF749FEF5E7C1
:1012E800FC0A0020002C0140E00A002010B582B062
:1012F800084A1378084C5168019152780092DB082B
:1013080000221146204606F049FF204606F0C8FF95
:1013180002B010BD6CD30008600A0020F8B5184B65
:10132800184C0FCB84E80F0006F088F8164B002401
:101338001C60164A9A600122DA60BCB1144B134A49
:101348001A6000242C2C17D824F00305114F104ED6
:1013580031687A5900232144022006F0C7F8EA5977
:101368003368E3589A4209D10434EBE70A4906483E
:1013780006F02EF90134E0E706F07AF8F8BD00BF70
:10138800780B00204C0B0020D803002000F0010847
:10139800D40300203C0B0020E803002070B5174E52
:1013A8003446174D0FCD0FC40FCD0FC495E8070075
:1013B80084E80700B26A134B9A4200D170BD3446E4
:1013C80020220021304607F093FF32237370012357
:1013D800B370F3704FF49673F38040F2D243738185
:1013E80040F2BC43B381074BB362074B2034186803
:1013F800596803C4FFF792FFE0E700BF3C0B0020E9
:1014080000F00108AB55FF005C0C002070B51B4CC8
:101418000621204605F03CFE05040521204605F07E
:1014280037FE2843164D68600821204605F030FE37
:1014380006040721204605F02BFE3043A8600A2148
:10144800204605F025FE06040921204605F020FE69
:101458003043E8600221204605F01AFE4BF6BB3304
:10146800984200D170BD074B0FCB85E80F004BF6B3
:10147800BB320221014805F003FEF3E7680C0020A7
:10148800780B00204C0B002008B5FFF787FFFFF70B
:10149800BDFF0B4B9B7883B1FFF7A0FE084B587834
:1014A800FFF792FE00F006F900F036FB02F0D2FFDB
:1014B80005F068F8034B186008BDFFF795FEEDE7E7
:1014C8003C0B0020780B0020044B0122DA70044901
:1014D800098959605A7200229A727047680B002075
:1014E8003C0B0020034B0022DA705A605A721A72C1
:1014F800DA727047680B002008B5194B5B8840F218
:10150800011293420BD040F20112934217D1144BAF
:101518005B68A3B1124B00221A729A7218E0104A43
:101528005268002AEFD10E4BDA709A701A70DA728C
:101538005A729A7205F026F80A4B186008E005F00E
:1015480021F8084B1B68C01A4EF66023984200D851
:1015580008BD02F035FF05F015F8024B1860F7E7F3
:10156800680B00208C0B002000220BE0D31C9B0092
:1015780003F1804303F5D843044931F81210196088
:10158800013292B2072AF1D9704700BF780B0020C8
:1015980008B504F0F7FF344B1B68C01AB0F57A7F22
:1015A8002CD3324A13780133DBB213701E2B02D9C5
:1015B800134600221A702C4AD3680133D3602C4A90
:1015C800934201D9284BDA602A4B5B7A1BB1264A31
:1015D800536801335360274B9B7A1BB1224A9368A7
:1015E80001339360234B5A8840F201139A421CD06E
:1015F80004F0C8FF1C4B1860FFF7B6FFFFF77CFF2D
:1016080002F0EEFE1C4B1B8873B91C4B1B79012B97
:1016180017D0022B1BD0154B1B780E2B1DD9184841
:1016280006F031FE00F082FA08BD124A5368013B09
:101638005360002BDCD15360124A13600F4A1381A8
:10164800D6E70F4806F01FFE00F02EF9ECE70C482D
:1016580006F019FE00F06AFAE6E7094806F013FEFC
:1016680000F022F9E0E700BF780B0020880B00208B
:10167800001EF8BB680B0020EC0300203C0B002088
:10168800600A0020E40B002010B5094C0121204617
:1016980007F0EAF980231F220021204607F0AEF95F
:1016A800402300224121204607F0C3F910BD00BFA6
:1016B800600A002008B5044806F0E5FD04F062FF62
:1016C800024B586008BD00BF600A0020900B002044
:1016D80030B583B00546134C1349204607F0E6F8A9
:1016E800124B21220921204607F0A2F86DB1104AB9
:1016F80013785168019152780092DB082122002169
:10170800204606F04BFD03B030BD0A4A13785168F5
:10171800019152780092DB0821220021014806F04D
:101728003DFDF0E7600A0020CC4501089CD8000880
:10173800FCD3000874D3000838B505460E4C0F4991
:10174800204607F0B3F80E4B07221221204607F077
:101758006FF80C49204607F0A9F835B90A4B1A2248
:101768000C21204607F064F838BD084B1A220C21DA
:10177800014807F05DF8F7E7600A0020CC4501084A
:10178800A4D8000800F70008ACD80008B4D80008AE
:1017980030B583B00546154C1549204607F086F844
:1017A800144B21224B21204607F042F8124B1B789C
:1017B8002B420DD0114A137851680191527800924A
:1017C800DB0826224421204606F0E8FC03B030BDA1
:1017D8000B4A13785168019152780092DB0826224F
:1017E8004421024806F0DAFCF0E700BF600A002056
:1017F800CC45010898D80008900B00201CD300089D
:10180800CCD2000830B583B005461F4C1F4920468E
:1018180007F04CF81E4B21226921204607F008F8F2
:10182800E5B10021204607F01FF91A49204607F0C4
:101838003DF8194D6A681949684608F0FBFC6B4683
:1018480036226821204606F0F3FF0121204607F0E2
:101858000BF96B68ABB90022EA7212E00A4C104926
:10186800204607F023F80021204607F0FDF80D4B2D
:1018780036226621204606F0DBFF0121204607F0CC
:10188800F3F803B030BD00BF600A0020CC45010862
:1018980084D80008582E0108680B00208CD800084E
:1018A8006428010894D8000810B504F06BFE144BA6
:1018B8005B68C01AC82810D9114A1378DB43137023
:1018C80053780133DBB253700A2B02D91346002236
:1018D8005A7004F057FE0A4B58600A4806F0D3FCC9
:1018E800094C207AFFF7F4FE607AFFF725FFA07A0B
:1018F800FFF74EFFE07AFFF785FFFFF7C5FE10BD43
:10190800900B0020600A0020680B002010B586B0FC
:10191800214B93F9073013F0010F33D01E4A92F987
:10192800063092F905201D4903A808F083FC1C4CD9
:101938001C49204606F0BAFF0021204607F094F81B
:1019480003AB0E220121204606F072FF012120463A
:1019580007F08AF81449204606F0A8FF0E4AB2F9A3
:101968000030009392F9023092F903200F4903A83E
:1019780008F060FC03AB1B220721204606F058FF45
:1019880006B010BD044A92F9063092F905200849BC
:1019980003A808F04FFCCAE75C0C0020BCD800087C
:1019A800600A0020483F0108E80B0108DCD800085D
:1019B800CCD8000830B583B00546134C13492046EF
:1019C80006F074FF124B28220221204606F030FF51
:1019D8000021204607F048F82A460E49684608F0D4
:1019E80029FC6B4628221921204606F021FF0121F7
:1019F800204607F039F8084B28223721204606F000
:101A080017FF03B030BD00BF600A002090FC00083B
:101A180004D900080CD9000814D9000830B583B0DF
:101A28000546134C1349204606F040FF124B32225C
:101A38000221204606F0FCFE0021204607F014F89B
:101A48002A460E49684608F0F5FB6B4632221921F2
:101A5800204606F0EDFE0121204607F005F8084B68
:101A680032223721204606F0E3FE03B030BD00BF26
:101A7800600A002090FC0008ECD800080CD9000887
:101A880014D9000830B583B00546134C13492046D5
:101A980006F00CFF124B3C220221204606F0C8FE3D
:101AA8000021204606F0E0FF2A460E49684608F065
:101AB800C1FB6B463C221921204606F0B9FE0121E4
:101AC800204606F0D1FF084B3C223721204606F07D
:101AD800AFFE03B030BD00BF600A002090FC0008D4
:101AE800F4D80008FCD8000814D9000810B5094C2F
:101AF8000121204606F0B8FF80231F22002120463E
:101B080006F07CFF402300224121204606F091FF89
:101B180010BD00BF600A002010B5034C00232370DD
:101B280004F030FD606010BD980B002038B5FFF759
:101B3800DDFFFFF7EBFE0A4D68680A4CA4FB003096
:101B4800C00AFFF737FFA868A4FB0030C00AFFF7F8
:101B580065FFE868A4FB0030C00AFFF793FF38BDB3
:101B6800780B0020C5B3A2912DE9F04387B000247B
:101B780004941D4B9A6942F010029A619A6902F026
:101B880010020092009A9A6942F008029A619B69D1
:101B980003F008030193019B4FF03C08CDF808803F
:101BA8004FF00109CDF80C90022505950F4F02A9B9
:101BB800384605F075FA4FF470760296CDF80C9019
:101BC800049405950A4D02A9284605F069FA2246AB
:101BD8004146384605F05FFB22463146284605F067
:101BE8005AFB07B0BDE8F08300100240000C01402A
:101BF8000010014008B528B101220421044805F06D
:101C08004AFB08BD00220421014805F044FBF8E71F
:101C1800000C014008B528B101220821044805F04C
:101C28003AFB08BD00220821014805F034FBF8E71B
:101C3800000C014008B528B101221021044805F024
:101C48002AFB08BD00221021014805F024FBF8E713
:101C5800000C014008B590B10C4B1B78012B02D940
:101C6800022B06D008BD01222021094805F013FBEC
:101C7800F8E701222021064805F00DFBF2E70022D3
:101C88002021034805F007FBECE700BF3C0B0020D0
:101C9800000C014010B5074C207AFFF7ABFF607AC3
:101CA800FFF7B8FF207BFFF7C5FFA07AFFF7D2FF49
:101CB80010BD00BF680B0020016042600123037261
:101CC80000234372C372704770B586B00024039432
:101CD80004940594184B9A6942F010029A619B6922
:101CE80003F010030193019B4FF4705302930123F7
:101CF800049302A9114805F0D3F9114E114D22465B
:101D080031462846FFF7D8FF2246314605F10C0038
:101D1800FFF7D2FF2246314605F11800FFF7CCFF46
:101D28002246314605F12400FFF7C6FF04F02AFCDD
:101D3800054B186006B070BD00100240001001404D
:101D4800E51F0008A40B0020E00B002010B5044696
:101D5800032810D8DFE800F03F0229554FF48051DE
:101D68003C4805F091FAC0B904EB44039A003A4B99
:101D7800134400225A72620022449100364B0B44ED
:101D88005A7A1B7A9A425CD0334A0A44D37A01338E
:101D9800DBB2D372052B4AD010BD04EB44039A0082
:101DA8002D4B134401225A72E5E74FF4006129488C
:101DB80005F06AFA38B904EB44039A00264B134439
:101DC80000225A72D7E704EB44039A00224B1344CB
:101DD80001225A72CFE74FF480611E4805F054FA89
:101DE80038B904EB44039A001B4B134400225A727F
:101DF800C1E704EB44039A00174B134401225A72BB
:101E0800B9E74FF40051134805F03EFA38B904EB2E
:101E180044039A00104B134400225A72ABE704EBB8
:101E280044039A000C4B134401225A72A3E70A494F
:101E38006300181982000A44507A10720023D37282
:101E4800AAE704EB4404A200034B13440022DA720D
:101E5800A2E700BF00100140A40B00202DE9F843C1
:101E680005468846002428E0DFF86891484606F0D1
:101E78000AFA5149484606F019FD0021484606F07D
:101E8800F3FD4E4B642202FB043702373846FEF757
:101E9800C7F9C0F116035B0803EB430359003B463F
:101EA8000C2201F0FE01484606F0C2FC012148461A
:101EB80006F0DAFD71E00134E4B2112C77D840481D
:101EC80004F04BF92746642303FB04F33B4AD35A37
:101ED800AB42F0D1642303FB0423DE6D002EEAD06D
:101EE800B5F5807F08D0B5F5007F05D0B5F5407F02
:101EF80002D0B5F5806FB7D1DFF8D890484606F024
:101F0800C2F92D49484606F0D1FC0021484606F0A2
:101F1800ABFD2C4B0C221821484606F089FC012108
:101F2800484606F0A1FD254A642303FB072702372C
:101F38003946002007F064F8034618220A2148466B
:101F480006F076FC3946012007F05AF803462422A9
:101F58000A21484606F06CFC3946022007F050F882
:101F6800034630220A21484606F062FC394603201F
:101F780007F046F803463C220A21484606F058FC7A
:101F8800114B1B78013303EB43039A000F4B02F00C
:101F9800FC020121484606F04BFC0D490D4806F0AD
:101FA80085FC41462046B0470B4B1D8001E005F4F7
:101FB8007F40BDE8F88300BFE01201082CD9000873
:101FC800D40C002018D900080000002028D90008E7
:101FD8000C040108600A0020EE03002008B503285D
:101FE8001BD8DFE800F0834102B7734B41F27072EF
:101FF8001A80724B1B8883B1B3F5807F0ED0B3F57E
:10200800007F0BD0B3F5407F08D0B3F5806F1CD0AC
:1020180001466A4B1888FFF721FF08BD68490A780E
:102028000132D2B20A70042AF2D90A46012111708B
:1020380003F580739BB2614A1380B3F5806FE7D9CB
:1020480013464FF480721A80E2E75D4A1378013331
:10205800DBB21370012BDBD9134601221A70574BE0
:102068004FF480721A80D3E7534B41F270721A8092
:10207800524B1B88002BD0D0B3F5807F0ED0B3F520
:10208800007F0BD0B3F5407F08D0B3F5806F1ED02A
:1020980001464A4B1888FFF7E1FEBEE748490A782F
:1020A800013AD2B20A70002AF2D10A46042111700C
:1020B800A3F580739BB2414A1380FF2BE8D81346DF
:1020C8004FF480621A803E4B01221A70E0E73C4AC6
:1020D8001378013BDBB21370002BD9D113460422CD
:1020E8001A70364B4FF440721A80D1E7334B1B8875
:1020F80093B9344A138801339BB21380012B8CD9CE
:10210800134600221A804FF480732C4A138001462C
:102118001846FFF7A3FE80E7B3F5807F08D0B3F534
:10212800007F05D0B3F5407F02D0B3F5806F0CD1A6
:10213800234A1078184480B2204B18801E4BC822BE
:102148001A80FF21FFF78AFE67E701461846FFF766
:1021580085FE62E7194B1B88E3B1B3F5807F0DD08C
:10216800B3F5007F0AD0B3F5407F07D0B3F5806F91
:1021780004D003F47F43114A138005E00F4B00227B
:102188001A800F4B01221A7001460C4B1888FFF772
:1021980065FE42E70C4AD37ADB43DBB2D3723BB12C
:1021A800FFF792F9094B00221A7002F0EFF834E7B2
:1021B800FFF798F9F6E700BFF0030020EC030020D2
:1021C80000000020F4030020680B0020880B00208A
:1021D80038B504F0D7F9454B1B68C01A04286BD8EA
:1021E80038BD434B1B88002B34D1424A1388013336
:1021F8009BB21380642B2DD9134600221A804FF40A
:1022080080703B4B18802146FFF728FE22E03A48B1
:1022180003F0A3FF05EB45029300384AD358204644
:10222800984705EB45039A00344B13441B7A012B5E
:1022380033D00134E4B2032C40D82046FFF786FDA2
:10224800254604EB44039A002C4B13441B7A0BB924
:10225800002CC6D005EB45039A00284B13441B7A83
:10226800002BDED1254B13449B7A002BD9D123496F
:102278008B1801209872224B41F2707018808A588E
:10228800204B9A42C3D005EB4502930000221D491A
:102298001A481844FFF710FDC3E7184B13449B7AFC
:1022A800012BC6D10022134B1A8005EB4505A90066
:1022B800124B0B449A72BCE70024BCE7104B1B88F6
:1022C80013B1013B0E4A13800D4B1B8813B9084B01
:1022D80000221A800C4B1B8813B1013B0A4A138059
:1022E80004F050F9014B18607AE700BFE00B0020BA
:1022F800EC030020F4030020D40C0020A40B0020E1
:10230800F2030020E51F0008F003002000207047BA
:10231800034B044A1168526819605A6000207047DC
:10232800480C00205C0C00200020704700207047FB
:1023380000207047F0B583B005460C465A220021AC
:102348009C4806F0D5FF642000FB05F09A4B1D5A07
:102358009A4B1B889D4202D0994B00221A80012C6F
:1023680023D0022C7DD03CB9954B1B88042B00F25E
:10237800D1800133924A1380924C9349204606F04B
:1023880095FA42F2F13324220521204606F0EAF9B3
:102398008B4B1B88052B00F20A81DFE813F0CE0077
:1023A80025016A01A501E0012502854B1B88052B43
:1023B800D7D8DFE803F003101D2A3744834B93F97D
:1023C8000530162B03DC0133804A5371C9E77F4B74
:1023D80000225A71C5E77D4B93F906303A2B03DC8E
:1023E80001337A4A9371BCE7784B00229A71B8E7B7
:1023F800764B93F907303A2B03DC0133734AD371D8
:10240800AFE7724B0022DA71ABE7704B93F90330F8
:102418001E2B03DC01336D4AD370A2E76B4B0022FD
:10242800DA709EE7694B93F902300B2B03DC01331A
:10243800664A937095E7654B00229A7091E7634B63
:10244800B3F9003040F63202934203DC01335F4AAD
:10245800138086E75D4B6FF01C021A7007225A70D2
:102468007FE7574B1B88052B3FF67DAFDFE803F06E
:10247800030F1B273441554B93F905301BB1013B22
:10248800524A53716FE7514B17225A716BE74F4B02
:1024980093F906301BB1013B4C4A937163E74B4BF0
:1024A8003B229A715FE7494B93F907301BB1013B17
:1024B800464AD37157E7454B3B22DA7153E7434B02
:1024C80093F90330012B03DD013B404AD3704AE7FF
:1024D8003E4B1F22DA7046E73C4B93F90230012B42
:1024E80003DD013B394A93703DE7384B0C229A7063
:1024F80039E7364BB3F9003040F2E372934203DD1B
:10250800013B324A13802EE7304B33221A700822DF
:102518005A7028E72E482D4B1A685B6802604360A2
:102528004379073B4371072101F0DAFF294B3C222D
:102538003021244806F07CF91EE7224C2649204623
:1025480006F0B4F90021204606F08EFA1F4F194E06
:1025580097F905202149304607F06CFE33462422BE
:102568001146204606F064F90121204606F07CFA5F
:1025780097F9073097F906201949304607F05AFEAF
:10258800334624223021204606F052F9B7F90030AC
:10259800009397F9023097F903201249304607F063
:1025A80049FE334630221E21204606F041F92846CE
:1025B80003B0F0BDEC0B00202CD90008EE0300207E
:1025C800A00B0020600A002094480108480C002055
:1025D8005C0C002060E10008E01201088CD80008BB
:1025E80098E1000868E100089D4E9E49304606F0D3
:1025F8005DF99D4F9D4C97F905209D49204607F0B0
:1026080019FE234624221146304606F011F900210E
:10261800304606F029FA97F906209649204607F031
:1026280009FE234624223621304606F001F901210D
:10263800304606F019FA97F907208F49204607F027
:10264800F9FD234624224221304606F0F1F8B7F975
:102658000030009397F9023097F903208749204604
:1026680007F0E8FD234630221E21304606F0E0F848
:102678009DE77B4C7B49204606F018F97A4F7B4E44
:1026880097F9063097F905207D49304607F0D2FDC5
:10269800334624221146204606F0CAF80021204677
:1026A80006F0E2F997F907207249304607F0C2FDB3
:1026B800334624224821204606F0BAF80121204654
:1026C80006F0D2F9B7F90030009397F9023097F97C
:1026D80003206A49304607F0ADFD334630221E21FB
:1026E800204606F0A5F862E75D4C5E49204606F0F4
:1026F800DDF85D4F97F907305C4E009397F9063087
:1027080097F905205F49304607F094FD33462422A7
:102718001146204606F08CF80021204606F0A4F960
:1027280097F903205349304607F084FD3346302299
:102738001E21204606F07CF80121204606F094F977
:10274800B7F9003097F902204F49304607F072FD7B
:10275800334630222A21204606F06AF827E7404E01
:102768004049304606F0A2F83F4F97F907303F4CF2
:10277800009397F9063097F905204249204607F05B
:1027880059FD234624221146304606F051F897F9A0
:1027980003203E49204607F04DFD234630221E21E6
:1027A800304606F045F80021304606F05DF997F905
:1027B80002203049204607F03DFD234630221146CD
:1027C800304606F035F80121304606F04DF9B7F9E4
:1027D80000202F49204607F02DFD234630223C21BA
:1027E800304606F025F8E2E61D4C1E49204606F064
:1027F8005DF81D4F97F907301C4E009397F9063086
:1028080097F905201F49304607F014FD3346242266
:102818001146204606F00CF897F9023097F9032084
:102828001C49304607F006FD334630221E2120465B
:1028380005F0FEFF0021204606F016F9B7F9002042
:102848001549304607F0F6FC33463022422120462F
:1028580005F0EEFF0121204606F006F9A7E600BFC5
:10286800600A0020E0120108480C0020EC0B002050
:1028780078E100088CD8000880E1000868E10008C9
:1028880088E1000894E100086CE10008A4E1000870
:10289800ACE10008B4E100080CD90008F8B5054619
:1028A8000C465A2200217D4806F022FD642000FBD8
:1028B80005F07B4B1D5A7B4B1B889D4212D07A4BEF
:1028C80019897A4B19607A4B00221A80794BA3FB3D
:1028D8000123DB08784A137003EB83035A008A1A32
:1028E800764B1A70012C2AD0022C45D034B9704B83
:1028F8001B88002B5BD101336D4A13806C4B1B88FE
:10290800002B7BD0012B00F0A1806D4E6D4C314621
:10291800204605F0CBFF42F2F73324221921204646
:1029280005F020FF3146204605F0C0FF42F2F6339D
:1029380024225021204605F015FF2846F8BD5C4B9F
:102948001B884BB1012BCFD15C4B1B78082B0FD8C0
:1029580001335A4A1370C7E7574B1B78082B03D823
:102968000133554A1370BFE7534B00221A70BBE777
:10297800524B00221A70B7E74D4B1B8843B1012B0D
:10298800B4D14E4B1B7873B1013B4C4A1370ADE781
:10299800494B1B781BB1013B474A1370A6E7464BCE
:1029A80009221A70A2E7454B09221A709EE7424B8A
:1029B8001B7803EB83035A00404B1B7813443B4AB4
:1029C8001360394A1381FEF7A9FC3E4C3E49204664
:1029D80005F06CFF3D4B3C223021204605F028FFD6
:1029E8003B4B5B7A13B93A4B01225A72384B1B7B2B
:1029F800002B83D1364B01221A737FE7314C3549BE
:102A0800204605F053FF0021204606F02DF8324FEE
:102A1800224E294B1A783946304607F00BFC3346CC
:102A280024223221204605F003FF0121204606F02A
:102A38001BF8224B1A783946304607F0FBFB334621
:102A480024223E21204605F0F3FE5EE71D4C214975
:102A5800204605F02BFF204F104E174B1A783946A9
:102A6800304607F0E7FB334624223221204605F0A2
:102A7800DFFE0021204605F0F7FF104B1A78394693
:102A8800304607F0D7FB334624223E21204605F086
:102A9800CFFE0121204605F0E7FF36E7EC0B0020CA
:102AA8002CD90008EE0300203C0B0020E40B00208A
:102AB800A00B0020CDCCCCCC510C0020500C002019
:102AC80094480108600A0020E012010860E100084B
:102AD800680B002094E60008FCE00008F8B50546FD
:102AE8000C465A2200213F4806F002FC642000FBF5
:102AF80005F03D4B1E5A3D4B1B889E4203D03C4B74
:102B0800DA783C4B1A60022C2BD0012C34D0394B8C
:102B18001B68002B3BD0374B1B68012B44D0364D2C
:102B28003649284605F0C2FE2E4F3846FDF778FB99
:102B3800C0F11601324B1E2201F0FE01284605F0B5
:102B480077FE3846FDF76CFBC0F116012D4B2D22A0
:102B580001F0FE01284605F06BFE002C31D030460E
:102B6800F8BD244B1B681BB90133224A1360CCE71C
:102B7800204B00221A60C8E71E4B1B681BB1013BA3
:102B88001C4A1360C3E71B4B01221A60BFE71A4DAA
:102B98001D49284605F08AFE42F213731E220421BD
:102BA800284605F0DFFDB6E7134D1749284605F01E
:102BB8007DFE42F213732D220421284605F0D2FD32
:102BC800ADE70C4B1A780A4BDA70FEF7A7FB0F49F2
:102BD800284605F06BFE0E4B3C223021284605F0B6
:102BE80027FEBCE7EC0B00202CD90008EE030020E0
:102BF8003C0B0020E40B0020600A0020AC1C0108FC
:102C080048E1000854E1000894480108E01201086E
:102C180060E10008F8B504460D465A2200214E48E6
:102C280006F066FB642000FB04F04C4B1F5A4C4B2B
:102C38001B889F4203D04B4B1A794B4B1A60022DCD
:102C48003BD0012D45D0484B1B68002B4CD0464B40
:102C58001B68012B55D0444B1B68022B5ED0434C9C
:102C68004349204605F022FE3B4E3046FDF7D8FA90
:102C7800C0F116013F4B1C2201F0FE01204605F071
:102C8800D7FD3046FDF7CCFAC0F116013A4B2822A1
:102C980001F0FE01204605F0CBFD3046FDF7C0FAF5
:102CA800C0F11601354B342201F0FE01204605F033
:102CB800BFFD002D3FD03846F8BD2B4B1B68012BBC
:102CC80003D9294B00221A60BBE70133264A136057
:102CD800B7E7254B1B681BB1013B234A1360B2E7DA
:102CE800214B02221A60AEE7204C2549204605F008
:102CF800DDFD42F213731C220421204605F032FD4B
:102D0800A5E71A4C1E49204605F0D0FD42F2137380
:102D180028220421204605F025FD9CE7134C18497C
:102D2800204605F0C3FD42F21373342204212046E5
:102D380005F018FD93E70C4B1A780A4B1A71FEF749
:102D4800EDFA0B49204605F0B1FD0E4B3E2230212D
:102D5800204605F06DFDAEE7EC0B00202CD90008ED
:102D6800EE0300203C0B0020E40B0020600A00204A
:102D7800E012010884D8000830E100083CE10008AE
:102D88009448010860E100082DE9F04182B004464A
:102D98000D465A2200213F4806F0AAFA642000FB9B
:102DA80004F03D4B33F800803C4B1B88984503D01A
:102DB8003B4B5A783B4B1A603B4C3C49204605F04C
:102DC80075FD4FF4185324220521204605F0CAFC4E
:102DD800012D3FD0022D45D0324F3878FEF7F4F957
:102DE800314C0A2300933B7818221421204605F021
:102DF800FCF92E49204605F059FD42F2EC33302209
:102E08002821204605F0AEFC42F2EB3330224D215A
:102E1800204605F0A7FC1F4E3A682549304607F0C2
:102E280009FA2449204605F041FD3046FDF7F8F936
:102E3800C0F11600400800EB400041003346302244
:102E480001F0FE01204605F0F3FC9DB1404602B0BA
:102E5800BDE8F081134B1B68632BBBD80133114AC3
:102E68001360B7E70F4B1B68002BB5D0013B0D4A29
:102E78001360B1E73A780A4B5A70FEF74FFA0D49DA
:102E8800204605F013FD0C4B3C223021204605F06E
:102E9800CFFCDBE7EC0B00202CD90008EE03002068
:102EA8003C0B0020E40B0020600A00209448010835
:102EB80028E10008E012010860E10008F8B50546BD
:102EC8000C465A220021414806F012FA642000FB01
:102ED80005F03F4B1E5A3F4B1B889E4203D03E4B8A
:102EE8009A783E4B1A60022C2BD0012C34D03B4BE5
:102EF8001B68002B3BD0394B1B68012B46D0384D43
:102F08003849284605F0D2FC304F3846FDF788F995
:102F1800C0F11601344B1E2201F0FE01284605F0CF
:102F280087FC3846FDF77CF9C0F116012F4B2D229E
:102F380001F0FE01284605F07BFC002C35D0304618
:102F4800F8BD264B1B681BB90133244A1360CCE734
:102F5800224B00221A60C8E7204B1B681BB1013BBB
:102F68001E4A1360C3E71D4B01221A60BFE71C4DC0
:102F78001F49284605F09AFC42F213731E220421C9
:102F8800284605F0EFFBFEF72FF9B4E7144D184972
:102F9800284605F08BFC42F213732D2204212846A3
:102FA80005F0E0FBFEF71AF9A9E70C4B1A780A4B73
:102FB8009A70FEF7B3F90F49284605F077FC0E4BD7
:102FC8003C223021284605F033FCB8E7EC0B002002
:102FD8002CD90008EE0300203C0B0020E40B002055
:102FE800600A0020AC1C010808E1000818E100088C
:102FF80094480108E012010860E10008F8B50446A9
:103008000F465A220021284806F072F9642000FB76
:1030180004F0264B1E5A264B1B889E4202D0254B95
:1030280000221A60244B5B68244A934205D94FF466
:10303800616202FB03F3204A5360214C2149204678
:1030480005F034FC42F2F03336223721204605F0F1
:1030580089FB194B5A681C4BA3FB0232124DD20A4A
:103068001A49284607F0E6F81949204605F01EFCDB
:10307800184B18220C21204605F0DAFB2846FDF7EC
:10308800CFF8C0F11600400800EB400041002B4685
:10309800242201F0FE01204605F0CAFB0FB130469C
:1030A800F8BDFEF73BF9FAE7EC0B00202CD9000835
:1030B800EE030020E40B0020780B0020FF502502CF
:1030C800600A002094480108C5B3A291F8E10008FD
:1030D800E012010804E20008F8B504460F465A2237
:1030E8000021284806F004F9642000FB04F0264B70
:1030F8001E5A264B1B889E4202D0254B00221A607E
:10310800244B9B68244A934205D94FF4616202FB21
:1031180003F3204A9360214C2149204605F0C6FB61
:1031280042F2F03336223721204605F01BFB194BBB
:103138009A681C4BA3FB0232124DD20A1A49284640
:1031480007F078F81949204605F0B0FB184B18220B
:103158000621204605F06CFB2846FDF761F8C0F112
:103168001600400800EB400041002B46242201F0E5
:10317800FE01204605F05CFB0FB13046F8BDFEF7B6
:10318800CDF8FAE7EC0B00202CD90008EE0300205C
:10319800E40B0020780B0020FF502502600A002075
:1031A80094480108C5B3A291F8E10008E0120108AB
:1031B800C0E10008F8B504460F465A220021284805
:1031C80006F096F8642000FB04F0264B1E5A264BA6
:1031D8001B889E4202D0254B00221A60244BDB68D4
:1031E800244A934205D94FF4616202FB03F3204A53
:1031F800D360214C2149204605F058FB42F2F033B8
:1032080036223721204605F0ADFA194BDA681C4BF7
:10321800A3FB0232124DD20A1A49284607F00AF8CF
:103228001949204605F042FB184B18220621204672
:1032380005F0FEFA2846FCF7F3FFC0F11600400837
:1032480000EB400041002B46242201F0FE012046FD
:1032580005F0EEFA0FB13046F8BDFEF75FF8FAE771
:10326800EC0B00202CD90008EE030020E40B002012
:10327800780B0020FF297515600A00209448010882
:10328800C5B3A291D4E10008E0120108E0E100080A
:103298002DE9F04182B005460C465A2200219B4890
:1032A80006F026F8642000FB05F0994B1D5A994B4F
:1032B8001B889D420CD00023974A1360974A1380BD
:1032C800974A1370974A1370974A1370974A137066
:1032D80034B9924B1B88022B1DD801338F4A1380B7
:1032E800012C77D0022C00F0AD80914C91492046FA
:1032F80005F0DCFA904B18221221204605F098FAC6
:10330800864B1B88032B00F2FD80DFE813F0D0000A
:1033180025015B019101824B1B78824A1178642256
:1033280002FB01F24FF47A7101FB03237F4A127802
:1033380002EB820251000B447B4A12781344764A0E
:1033480013607E4A528993421BD0704F3846FCF76F
:1033580067FFC0F11600400800EB40004100744EC2
:103368003B46242201F0FE01304605F061FA744B19
:1033780030221221304605F05BFA684B00221A8091
:10338800AEE7704B00225A60FEF7EEF8FDF7C6FF75
:103398005E4E3046FCF744FFC0F11600400800EBD3
:1033A80040004100DFF888813346242201F0FE0105
:1033B800404605F03DFA644F0FCF30607160B2604F
:1033C800F36038683061614B30221221404605F0C5
:1033D8002FFA85E7514B1B88032B83D8DFE803F0CE
:1033E800020E1A264E4B1B78082B03D801334C4A81
:1033F800137077E74A4B00221A7073E7494B1B7822
:10340800082B03D80133474A13706BE7454B00225A
:103418001A7067E7454B1B78082B03D80133434ADA
:1034280013705FE73F4B00221A705BE73E4B1B7837
:10343800082B03D801333C4A137053E73A4B002258
:103448001A704FE7354B1B88032B3FF64EAFDFE86A
:1034580003F0020D1823324B1B781BB1013B304A95
:10346800137042E72E4B09221A703EE72D4B1B784A
:103478001BB1013B2B4A137037E72A4B09221A70FC
:1034880033E72A4B1B781BB1013B284A13702CE702
:10349800264B09221A7028E7234B1B781BB1013BE6
:1034A800214A137021E7204B09221A701DE7204C8E
:1034B8002049204605F0FAF90021204605F0D4FA03
:1034C800124E174B1A782249304606F0B3FE33469F
:1034D80024223021204605F0ABF90121204605F0D1
:1034E800C3FA114B1B780093104B1B780D4A1278C6
:1034F8001849304606F09EFE3346242236212046DF
:1035080005F096F9284602B0BDE8F081EC0B0020E2
:103518002CD90008EE030020E40B0020A00B0020AB
:10352800520C0020E80B0020500C0020510C002009
:10353800600A0020E0120108E8E000083C0B0020C7
:10354800D8E00008780B0020B0E00008C4E00008CC
:10355800FCE00008F8E000084B4C4C49204605F018
:10356800A5F94B4F4B4E4C4B1A783946304606F06E
:1035780061FE334624223021204605F059F9002106
:10358800204605F071FA454B1A783946304606F060
:1035980051FE334624223621204605F049F90121FF
:1035A800204605F061FA3E4B1B783E4A12783E49A8
:1035B800304606F03FFE334624223C21204605F0E3
:1035C80037F99FE7304C3149204605F06FF9314E05
:1035D800324B1B78304A12783349304606F02AFEBF
:1035E800334624223021204605F022F900212046C6
:1035F80005F03AFA264F2B4B1A783946304606F032
:1036080019FE334624223C21204605F011F90121F8
:10361800204605F029FA224B1A783946304606F03A
:1036280009FE334624224221204605F001F969E7C4
:10363800154C1649204605F039F9164E194B1B78DA
:103648000093164B1B78144A12781849304606F036
:10365800F1FD334624223021204605F0E9F8002107
:10366800204605F001FA0E4B1A780949304606F053
:10367800E1FD334624224221204605F0D9F80121F4
:10368800204605F0F1F93DE7600A0020E012010844
:10369800FCE00008EC0B0020520C0020E80B002096
:1036A800500C0020510C002000E10008F8E0000850
:1036B8002DE9F04182B005460C465A2200219C486B
:1036C80005F016FE642000FB05F09A4B1D5A9A4B34
:1036D8001B889D420CD00023984A1360984A138097
:1036E800984A1370984A1370984A1370984A13703E
:1036F80034B9934B1B88022B1DD80133904A138091
:10370800012C79D0022C00F0AF80924C92492046CF
:1037180005F0CCF8914B18221221204605F088F8C4
:10372800874B1B88032B00F2FF80DFE813F0D200E1
:1037380027015D019301834B1B78834A117864222A
:1037480002FB01F24FF47A7101FB0323804A1278DD
:1037580002EB820251000B447C4A12781344774AE8
:1037680013607F4A528993421BD0714F3846FCF749
:1037780057FDC0F11600400800EB40004100754EAF
:103788003B46242201F0FE01304605F051F8754B06
:1037980030221221304605F04BF8694B00221A807E
:1037A800AEE7714B00229A60FDF7DEFEFDF7B6FD2D
:1037B8005F4E3046FCF734FDC0F11600400800EBC0
:1037C80040004100DFF88C813346242201F0FE01DD
:1037D800404605F02DF8654F0FCF30607160B2603C
:1037E800F36038683061BB88B382614B30220C21AA
:1037F800404605F01DF883E7514B1B88032B81D801
:10380800DFE803F0020E1A264E4B1B78082B03D86C
:1038180001334C4A137075E74A4B00221A7071E75E
:10382800494B1B78082B03D80133474A137069E7C3
:10383800454B00221A7065E7454B1B78082B03D8C7
:103848000133434A13705DE73F4B00221A7059E772
:103858003E4B1B78082B03D801333C4A137051E7C1
:103868003A4B00221A704DE7354B1B88032B3FF665
:103878004CAFDFE803F0020D1823324B1B781BB165
:10388800013B304A137040E72E4B09221A703CE77F
:103898002D4B1B781BB1013B2B4A137035E72A4B84
:1038A80009221A7031E72A4B1B781BB1013B284AC1
:1038B80013702AE7264B09221A7026E7234B1B7838
:1038C8001BB1013B214A13701FE7204B09221A70D4
:1038D8001BE7204C2049204604F0E8FF0021204641
:1038E80005F0C2F8124E174B1A782249304606F0F6
:1038F800A1FC334624223021204604F099FF0121FF
:10390800204605F0B1F8114B1B780093104B1B783B
:103918000D4A12781849304606F08CFC33462422AA
:103928003621204604F084FF284602B0BDE8F08125
:10393800EC0B00202CD90008EE030020E40B00203B
:10394800A00B0020520C0020E80B0020500C002097
:10395800510C0020600A0020E0120108E8E000088D
:103968003C0B0020D8E00008780B002060E000083D
:1039780078E00008FCE00008F8E000084B4C4C49EF
:10398800204604F093FF4B4F4B4E4C4B1A78394668
:10399800304606F04FFC334624223021204604F0FE
:1039A80047FF0021204605F05FF8454B1A78394655
:1039B800304606F03FFC334624223621204604F0E8
:1039C80037FF0121204605F04FF83E4B1B783E4A51
:1039D80012783E49304606F02DFC334624223C211D
:1039E800204604F025FF9FE7304C3149204604F07B
:1039F8005DFF314E324B1B78304A127833493046DE
:103A080006F018FC334624223021204604F010FF2B
:103A18000021204605F028F8264F2B4B1A78394606
:103A2800304606F007FC334624223C21204604F0A9
:103A3800FFFE0121204605F017F8224B1A78394677
:103A4800304606F0F7FB334624224221204604F094
:103A5800EFFE69E7154C1649204604F027FF164E7D
:103A6800194B1B780093164B1B78144A1278184987
:103A7800304606F0DFFB334624223021204604F08E
:103A8800D7FE0021204604F0EFFF0E4B1A780949B3
:103A9800304606F0CFFB334624224221204604F06C
:103AA800C7FE0121204604F0DFFF3DE7600A002041
:103AB800E0120108FCE00008EC0B0020520C00208A
:103AC800E80B0020500C0020510C002000E10008F9
:103AD800F8E000082DE9F04182B005460C465A226C
:103AE80000219B4805F004FC642000FB05F0994B7D
:103AF8001D5A994B1B889D420CD00023974A13608E
:103B0800974A1380974A1370974A1370974A13700D
:103B1800974A137034B9924B1B88022B1DD8013376
:103B28008F4A1380012C77D0022C00F0AD80914C85
:103B38009149204604F0BAFE904B182212212046E3
:103B480004F076FE864B1B88032B00F2FD80DFE82D
:103B580013F0D00025015B019101824B1B78824A4A
:103B68001178642202FB01F24FF47A7101FB0323FE
:103B78007F4A127802EB820251000B447B4A12788A
:103B88001344764A13607E4A528993421BD0704F81
:103B98003846FCF745FBC0F11600400800EB400032
:103BA8004100744E3B46242201F0FE01304604F0E9
:103BB8003FFE744B30221221304604F039FE684B28
:103BC80000221A80AEE7704B0022DA60FDF7CCFCC9
:103BD800FDF7A4FB5E4E3046FCF722FBC0F1160051
:103BE800400800EB40004100DFF88881334624227A
:103BF80001F0FE01404604F01BFE644F0FCF306019
:103C08007160B260F3603B883382614B30221821C7
:103C1800404604F00DFE85E7514B1B88032B83D8E3
:103C2800DFE803F0020E1A264E4B1B78082B03D848
:103C380001334C4A137077E74A4B00221A7073E736
:103C4800494B1B78082B03D80133474A13706BE79D
:103C5800454B00221A7067E7454B1B78082B03D8A1
:103C68000133434A13705FE73F4B00221A705BE74A
:103C78003E4B1B78082B03D801333C4A137053E79B
:103C88003A4B00221A704FE7354B1B88032B3FF63F
:103C98004EAFDFE803F0020D1823324B1B781BB13F
:103CA800013B304A137042E72E4B09221A703EE757
:103CB8002D4B1B781BB1013B2B4A137037E72A4B5E
:103CC80009221A7033E72A4B1B781BB1013B284A9B
:103CD80013702CE7264B09221A7028E7234B1B7810
:103CE8001BB1013B214A137021E7204B09221A70AE
:103CF8001DE7204C2049204604F0D8FD002120462D
:103D080004F0B2FE124E174B1A782249304606F0DC
:103D180091FA334624223021204604F089FD0121FE
:103D2800204604F0A1FE114B1B780093104B1B7822
:103D38000D4A12781849304606F07CFA3346242298
:103D48003621204604F074FD284602B0BDE8F08113
:103D5800EC0B00202CD90008EE030020E40B002017
:103D6800A00B0020520C0020E80B0020500C002073
:103D7800510C0020600A0020E0120108E8E0000869
:103D88003C0B0020D8E00008780B00208CE00008ED
:103D9800A0E00008FCE00008F8E000084B4C4C49A3
:103DA800204604F083FD4B4F4B4E4C4B1A78394656
:103DB800304606F03FFA334624223021204604F0EC
:103DC80037FD0021204604F04FFE454B1A7839464E
:103DD800304606F02FFA334624223621204604F0D6
:103DE80027FD0121204604F03FFE3E4B1B783E4A4A
:103DF80012783E49304606F01DFA334624223C210B
:103E0800204604F015FD9FE7304C3149204604F068
:103E18004DFD314E324B1B78304A127833493046CB
:103E280006F008FA334624223021204604F000FD2B
:103E38000021204604F018FE264F2B4B1A783946ED
:103E4800304606F0F7F9334624223C21204604F098
:103E5800EFFC0121204604F007FE224B1A78394670
:103E6800304606F0E7F9334624224221204604F082
:103E7800DFFC69E7154C1649204604F017FD164E7D
:103E8800194B1B780093164B1B78144A1278184963
:103E9800304606F0CFF9334624223021204604F07C
:103EA800C7FC0021204604F0DFFD0E4B1A780949B3
:103EB800304606F0BFF9334624224221204604F05A
:103EC800B7FC0121204604F0CFFD3DE7600A002041
:103ED800E0120108FCE00008EC0B0020520C002066
:103EE800E80B0020500C0020510C002000E10008D5
:103EF800F8E000082DE9F04182B005460C465A2248
:103F080000219F4805F0F4F9642303FB05F39D4A5B
:103F1800D25A9D4B1B889A4215D000239B4A1360A6
:103F28009B4A13809B4A13709B4A13709B4A1370D9
:103F38009B4A13709B4E9C4A03CA306071609B4A2F
:103F480013709B4A137044B9994B1B782BB9984B43
:103F580001221A708E4B00221A80954B1B781BB1D8
:103F6800631E9BB2012B25D9904B1B7833B334B910
:103F7800874B1B88022B58D80133854A1380012CA4
:103F880000F08F80022C00F0C5808A4C8A492046B8
:103F980004F08CFC894B18221221204604F048FCBE
:103FA8007B4B1B88032B38D8DFE813F0180144013A
:103FB8007A01B0017D4B01221A70D5E7DFF818822B
:103FC8007C4E4146304604F071FC764CB4F9003022
:103FD8006B4F009394F9023094F9032078493846DE
:103FE80006F028F93B4620221221304604F020FC36
:103FF80094F90730009394F9063094F90520714933
:10400800384606F017F94146304604F04FFC3B4667
:1040180030221221304604F00BFC642000FB05F02E
:10402800584B185A02B0BDE8F0815A4B1B785A4ACF
:104038001178642202FB01F24FF47A7101FB032329
:10404800574A127802EB820251000B44534A127805
:1040580013444E4A13605C4A928993420ED0554EDF
:104068005549304604F022FC584B30221221304684
:1040780004F0DEFB464B00221A8080E7544A4A4B84
:104088001068516803C3FDF749F94A4E4A4930465A
:1040980004F00CFC4F4B30220021304604F0C8FBE2
:1040A8006DE73B4B1B88032B3FF66CAFDFE803F053
:1040B800020E1A26374B1B78082B03D80133354AD2
:1040C80013705FE7334B00221A705BE7324B1B78A3
:1040D800082B03D80133304A137053E72E4B0022C4
:1040E8001A704FE72E4B1B78082B03D801332C4A44
:1040F800137047E7284B00221A7043E7274B1B78B9
:10410800082B03D80133254A13703BE7234B0022C1
:104118001A7037E71E4B1B88032B3FF636AFDFE8D4
:1041280003F0020D18231B4B1B781BB1013B194AE6
:1041380013702AE7174B09221A7026E7164B1B78CB
:104148001BB1013B144A13701FE7134B09221A7065
:104158001BE7134B1B781BB1013B114A137014E783
:104168000F4B09221A7010E70C4B1B781BB1013B4F
:104178000A4A137009E7094B09221A7005E700BFBC
:10418800EC0B00202CD90008EE030020E40B0020E3
:10419800A00B0020520C0020E80B0020500C00203F
:1041A800510C0020480C00205C0B0020470C00201C
:1041B800460C0020600A0020E0120108E8E0000830
:1041C800DCD8000834E000083C0B0020D8E00008E8
:1041D8005C0C002048E00008E8340108614C6249A2
:1041E800204604F063FB0021204604F03DFC5F4EAE
:1041F8005F4B1A785F49304606F01CF83346242294
:104208003021204604F014FB0121204604F02CFC48
:10421800594B1B780093594B1B78594A12785949C6
:10422800304606F007F8334624223621204604F0AB
:10423800FFFAF2E64B4C4C49204604F037FB4D4F51
:104248004A4E4B4B1A783946304605F0F3FF334651
:1042580024223021204604F0EBFA0021204604F005
:1042680003FC474B1A783946304605F0E3FF3346DE
:1042780024223621204604F0DBFA0121204604F0EE
:10428800F3FB3D4B1B783D4A12783F49304605F019
:10429800D1FF334624223C21204604F0C9FABCE66B
:1042A800304C3149204604F001FB304E344B1B782A
:1042B8002F4A12783449304605F0BCFF3346242291
:1042C8003021204604F0B4FA0021204604F0CCFB4B
:1042D800284F2A4B1A783946304605F0ABFF33464B
:1042E80024223C21204604F0A3FA0121204604F0B0
:1042F800BBFB214B1A783946304605F09BFF334605
:1043080024224221204604F093FA86E6154C1649E9
:10431800204604F0CBFA154E184B1B780093184B27
:104328001B78134A12781749304605F083FF334645
:1043380024223021204604F07BFA0021204604F094
:1043480093FB0D4B1A780B49304605F073FF334643
:1043580024224221204604F06BFA0121204604F071
:1043680083FB5AE6600A0020E0120108EC0B0020EB
:10437800520C0020FCE00008500C0020510C0020DA
:10438800E80B0020F8E0000800E1000808B5094B38
:1043980000221A71084BDB7803B908BD01224FF4DB
:1043A8008071064802F077FF02F0ECF8014B1860C4
:1043B800F3E700BF540C00203C0B0020000C014028
:1043C80008B5054B03221A7100224FF48071034887
:1043D80002F061FF08BD00BF540C0020000C014032
:1043E80008B502F0CFF8194A1368C01A1379012BDF
:1043F80010D05AB212B1022B1AD008BD6428FCD9C9
:1044080000224FF48071124802F045FF0F4B03223F
:104418001A71F2E740F2DC539842EED900224FF4C9
:1044280080710B4802F037FF084B03221A71E4E74A
:10443800B0F57A7FE1D94FF48071054802F031FF79
:1044480002F0A0F8014B1860D7E700BF540C002019
:10445800000C014070B586B0002604960E4B9A6990
:1044680042F008029A619B6903F008030193019BDB
:104478004FF4807502950123039302230593074C9B
:1044880002A9204602F00CFE32462946204602F0D8
:1044980002FF06B070BD00BF00100240000C0140D2
:1044A80000B58BB0B0F90030A3F26C73069390F9A5
:1044B8000230013B059390F90330049390F90530DD
:1044C800039390F90630029390F9073001934FF067
:1044D800FF33099301A804F0EDFF0BB05DF804FB6E
:1044E80038B50D460A4C2268136823F0010313609F
:1044F800FFF7D6FF4FF4616101FB0501204602F08A
:1045080070FD2268136843F00103136038BD00BFD3
:10451800680C002008B502F035F81D4B18601D48DE
:104528001D4B03604FF0FF3343600023836002F0AC
:10453800E3FC88B90121174802F0AAFD4AF2A55305
:1045480098420CD1154B5A6A5B6A154B01221A60C6
:10455800104802F05DFD08BDFCF70AFDEAE71148C6
:104568006FF01C030370072343700A238370112321
:10457800C37007214171232383711423C371FFF78B
:10458800AFFF4AF2A5520121024802F079FDDFE7A8
:10459800640C0020680C0020002800400010024035
:1045A800E00442425C0C002010B582B00446009141
:1045B80000230193684604F089FD0368E3714368AA
:1045C800A37183686371C368E370836901332371DE
:1045D80003690133A370436903F26C73238002B04B
:1045E80010BD000000B583B002F0E8FC019001990D
:1045F8000248FFF7D9FF03B05DF804FB5C0C00200C
:1046080008B50E480E4B03604FF4827343600023D5
:104618008360C360036143614FF4007282612822A2
:10462800C2610362436283620A23C36201F066FCCB
:1046380000B908BDFCF79CFCFBE700BF7C0C002020
:104648000030014000B587B0002302930393049320
:1046580005930268124B9A4202D007B05DF804FB3A
:1046680003F560439A6942F480529A619A6902F4A8
:1046780080520092009A9A6942F004029A619B69FA
:1046880003F004030193019BA023029302230393E5
:104698000323059302A9034802F002FDDDE700BFEA
:1046A800003001400008014008B50748074B036087
:1046B8000323436040F6FF73836001F029FD00B9CE
:1046C80008BDFCF755FCFBE7D40C00200030004087
:1046D80008B500220F49104802F0F2FF70B90F49DF
:1046E8000D4803F004F860B90D490B4803F0CEFCFF
:1046F80050B9094803F002F848B908BDFCF738FC7E
:10470800EDE7FCF735FCEFE7FCF732FCF1E7FCF7E7
:104718002FFCF2E704000020E00C002070000020CD
:1047280054000020022805D8DFE800F00504020044
:10473800012070470220704702680E4B9A4200D051
:10474800704700B583B003F5DA33DA6942F4000242
:10475800DA61DB6903F400030193019B002211462F
:10476800142002F0C3FD142002F0F4FD03B05DF83C
:1047780004FB00BF005C004008B500F22C41D0F8F3
:104788005C0402F0D5FF08BD08B500EB4113D3F86F
:104798003C22D0F85C0402F0F9FF08BD08B500EB34
:1047A8004113DA6BD0F85C0403F026F808BD08B5AD
:1047B800D0F85C0403F0AAF808BD10B50446836875
:1047C800022B09D10121D4F85C0403F08DF8D4F848
:1047D8005C0403F06AF810BDFCF7CAFBF2E70000BE
:1047E80010B50446D0F85C0403F081F8A36923B13E
:1047F800024A136943F00603136110BD00ED00E09F
:1048080008B5D0F85C0403F07BF808BD10B5044681
:104818001D48C0F85C44C4F820021C4B0360082300
:1048280043600223836000238361C361036200F055
:10483800DDF930BB182300221146D4F8200200F01D
:1048480030FE582300228021D4F8200200F029FEEF
:10485800C02300228121D4F8200200F022FE4FF468
:10486800887300220121D4F8200200F01AFE4FF4C8
:10487800807300228221D4F8200200F012FE00206A
:1048880010BDFCF775FBD5E7040F0020005C004065
:1048980008B5D0F8200200F014FAFFF743FF08BD6E
:1048A80010B51C4613462246D0F8200200F034FA10
:1048B800FFF738FF10BD08B5D0F8200200F055FA10
:1048C800FFF730FF08BD08B5D0F8200200F094FDCE
:1048D800FFF728FF08BD08B5D0F8200200F0BAFDA0
:1048E800FFF720FF08BDD0F8203211F0800F06D165
:1048F80001F07F0103EB411191F82A02704701F0A2
:104908007F0103EB411191F82A00704708B5D0F8F0
:10491800200200F0EDF9FFF705FF08BD08B5D0F853
:10492800200200F06FFAFFF7FDFE08BD08B5D0F8C9
:10493800200200F041FAFFF7F5FE08BD08B5D0F8EF
:10494800200200F058FA08BD00487047F80300201C
:104958007047704712230B800048704720000020E2
:1049680004230B8000487047340000200023934242
:1049780016D230B40BE0373401F8134000015C0064
:10498800013400250D550133DBB2934206D2040FE2
:10499800092CF0D8303401F81340EFE730BC7047E9
:1049A8007047000038B50A4B186804331C68043394
:1049B8001B68C01800D138BD064D0822A91CFFF796
:1049C800D5FF042205F112012046FFF7CFFFF2E7D9
:1049D800E8F7FF1F3800002008B51A230B80FFF7FF
:1049E800E1FF014808BD00BF3800002008B50A46AD
:1049F80028B90549054803F0FCF9034808BD0249F0
:104A0800024803F0F6F9F8E76413002048E20008CA
:104A180010B5044C0A462146034803F0EAF920463B
:104A280010BD00BF6413002034E2000808B50A4630
:104A380028B90549054803F0DCF9034808BD0249CF
:104A4800024803F0D6F9F8E76413002018E20008DA
:104A580008B50A4628B90549054803F0CAF90348C4
:104A680008BD0249024803F0C4F9F8E764130020BE
:104A780024E20008002070470020704710B5054C5C
:104A88000146204603F011FB204603F02BFB0020D3
:104A980010BD00BFE00C002010B5064C00220649EE
:104AA800204603F0FAFA0549204603F0FEFA0020F2
:104AB80010BD00BFE00C00204C1900206415002038
:104AC800094BD3F81832D3F814320BB101207047D0
:104AD80010B50A460146044C204603F0DEFA20468B
:104AE80003F0E9FA10BD00BFE00C00207047FEE7B4
:104AF800FEE7FEE7FEE770477047704708B501F02C
:104B080035FD08BD08B5024800F0C6FB08BD00BF6A
:104B1800040F002008B5024802F090FA08BD00BF53
:104B2800680C002008B5024802F0AEF908BD00BFC5
:104B3800680C002008B5022002F0B8FB022002F041
:104B4800B4FB08BD7047000082B00E4B9A6942F072
:104B580001029A619A6902F001020092009ADA69E8
:104B680042F08052DA61DB6903F080530193019BC4
:104B7800054A536823F0E06343F00073536002B0C2
:104B8800704700BF00100240000001400268144B4B
:104B98009A4200D0704700B583B002F00DFC114B6B
:104BA800DA6942F00062DA61DB6903F000630193BD
:104BB800019B0D4B01221A6000221146032002F0CE
:104BC80095FB032002F0C6FB00221146292002F0C3
:104BD8008DFB292002F0BEFB03B05DF804FB00BF8B
:104BE80000280040001002403C044242002866D0E1
:104BF800F0B587B0044690F829345BB3032384F8F2
:104C08002934206800F074FC254655F8107B6E4660
:104C18000FCD0FC62B683360231D0ECB384600F02E
:104C280058FC0021206800F06DFC00230E2B16D8DC
:104C380004EB4312012182F8291082F82830938668
:104C4800002182F82B109163D1639A1C5201A15064
:104C58000133EBE780F82834FFF76EFDCEE7002339
:104C68000E2B13D804EB4312002182F8291282F884
:104C78002832938682F82B12C2F83812C2F83C12F6
:104C880003F112025201A1500133E9E7254655F814
:104C9800107B6E460FCD0FC62B683360231D0ECBDD
:104CA800384600F031FC002584F82450012384F8AC
:104CB8002934206800F03CFF284607B0F0BD0120E9
:104CC800704790F82834012B10D010B50446012104
:104CD80080F82814FFF73DFE206800F027FF2068C1
:104CE80000F0FEFB002084F8280410BD0220704765
:104CF80090F82834012B0DD010B50446012380F814
:104D0800283480F82410006800F00AFF002084F896
:104D1800280410BD0220704738B54DB2002D1CDBA9
:104D280001F07F04640104F50A74044401F07F0172
:104D38002170ED0F65702261E37090F82834012B23
:104D480011D00546012380F828342146006800F078
:104D5800F1FB002085F8280438BD01F07F046401C8
:104D680028340444E2E70220F6E74AB2002A1BDBB3
:104D780001F07F035B0103F50A73034401F07F012F
:104D88001970D20F5A7090F82824012A12D010B541
:104D98000446012280F828241946006800F05EFDC8
:104DA800002084F8280410BD01F07F035B0128333C
:104DB8000344E3E70220704770B501F07F056C01FA
:104DC80004F50A7101440444C4F83C2205F11202B6
:104DD8005201861883500023736084F8293284F8BE
:104DE800285225B9006800F0BFFE002070BD006899
:104DF80000F0BAFEF9E701F00F01123100EB4111A2
:104E08008888704770B501F07F056C0104F12801AE
:104E180001440444E263AA1C52018618835000230B
:104E28007360012384F8293084F8285025B9006874
:104E380000F09AFE002070BD006800F095FEF9E7CA
:104E480070B582B004460023ADF80630ADF80430E2
:104E58008DE103889BB223F4E14323F070039BB2F6
:104E680003802268B2F8503094F8281003EBC1038D
:104E7800023302EB4303D3F80034C3F3090363643A
:104E8800E26B1344E36300212046FFF787FC94F8A4
:104E98002430002B00F06B81236C002B40F06781DD
:104EA80094F82430226843F08003A2F84C300023A1
:104EB80084F824305BE1B0F8503094F8282203EBF2
:104EC800C203063300EB4303D3F80034C3F30903EA
:104ED800C4F84432B4F82C2204F22C4100F0A1FFAB
:104EE8002268138823F070031B051B0D13802046CE
:104EF800FFF742FC3BE1B4F82C22D4F83C1200F056
:104F080090FFD4F84422D4F83C321344C4F83C321D
:104F18006BE1C1F34F0311F0010F01D001339BB2D4
:104F28009B029BB2C2F800347CE130F825309BB27A
:104F3800ADF80430BDF8043013F4004F35D1BDF896
:104F4800043013F0800F00F01281226832F8253007
:104F58009BB223F4E14323F070039BB222F825307F
:104F680004EB451393F83230002B40F0B2802068F0
:104F7800B0F8503004EB451292F8282003EBC20336
:104F8800023300EB4303D3F80034C3F30903AA1C2C
:104F980004EB42125360002B00F0C98004EB45116A
:104FA8008A8DC96B00F0CBFDC1E030F8253023F0C5
:104FB80070031B051B0D20F8253004EB451393F8EF
:104FC8003232D3B92068B0F8503004EB451292F869
:104FD800282203EBC203063300EB4303B3F8006453
:104FE800C6F3090686B304EB45113346B1F82C2203
:104FF800D1F83C1200F015FF26E0206804EB4513B9
:1050080093F8282230F8223013F4804F42D0B0F8B9
:10501800503003EBC203023300EB4303B3F80064E0
:10502800C6F3090666BB226804EB451393F82812F9
:1050380032F8213023F0F0031B051B0D43F4004325
:1050480043F0C00322F8213005F112035B01E11897
:105058004A6832444A6004EB4511D1F83C22324494
:10506800C1F83C22E3581BB1D1F838128E4228D23D
:1050780004EB451393F828122046FFF785FB5EE7FB
:1050880004EB45113346B1F82E22D1F83C1200F05A
:10509800C8FEC8E7B0F8503003EBC203063300EB94
:1050A8004303B3F80064C6F30906002EBBD004EB33
:1050B80045113346B1F83022D1F83C1200F0B1FE68
:1050C800B1E704EB451191F828122046FFF774FE6A
:1050D80035E7206804EB451393F8282030F8223090
:1050E80013F0400F00F0B480B0F8503003EBC20367
:1050F800023300EB4303D3F80034C3F30903AA1CBB
:1051080004EB42125360002B40F09B80226804EBB2
:10511800451393F8281032F8213023F0F0031B05CB
:105128001B0D43F4404343F0800322F821302268EA
:10513800B2F8503004EB451090F8281003EBC10387
:10514800023302EB4303D3F80024C2F30902AB1C79
:105158005B01E1184A60C16B0A44C263E358002B43
:1051680040F08F8090F828102046FFF717FB206842
:10517800B0F844309BB2ADF8063013F4004F00F09D
:105188008880BDF8065015F00F057FF4CEAEBDF847
:10519800063013F0100F3FF45CAE03889BB2ADF8F5
:1051A8000430BDF8043013F4006F7FF484AEBDF80A
:1051B800043013F4004FDAD0038823F070031B0582
:1051C8001B0D03802068B0F8503094F8282203EBB8
:1051D800C203063300EB4303D3F80034C3F30903D7
:1051E800C4F84432002B7FF486AE00212046FFF736
:1051F800CBFA2368B3F85020063203EB4202D4F806
:1052080038123E297FF685AEC1F34F1311F01F0FF8
:1052180001D1013B9BB26FEAC3636FEA53439BB270
:10522800C2F80034226813889BB223F4804323F029
:10523800700383F4405343F4004343F08003138026
:1052480095E704EB4511CA8DC96B00F078FC5DE762
:10525800B0F8503003EBC203063300EB4303D3F836
:105268000034C3F30903AA1C04EB42125360002B59
:105278003FF44CAF04EB45110A8EC96B00F05FFC9C
:1052880044E704EB451595F828102046FFF7BAFDCA
:105298006DE7002002B070BD10B50446006800F04C
:1052A80049FC10F4004F45D1206800F043FC10F48D
:1052B800806F43D1206800F03DFC10F4804F08D087
:1052C8002268B2F844309BB223F480439BB2A2F820
:1052D8004430206800F02EFC10F4005F08D02268EB
:1052E800B2F844309BB223F400539BB2A2F8443086
:1052F800206800F01FFC10F4805F30D1206800F0B7
:1053080019FC10F4006F49D1206800F013FC10F468
:10531800007F64D1206800F00DFC10F4807F08D075
:105328002268B2F844309BB223F480739BB2A2F88F
:10533800443010BD2046FFF783FDB5E72268B2F878
:1053480044309BB223F480639BB2A2F844302046D9
:10535800FFF733FA00212046FFF7CAFCAAE72268C4
:10536800B2F840309BB223F004039BB2A2F840305D
:105378002268B2F840309BB223F008039BB2A2F82F
:1053880040302046FFF73CFA2268B2F844309BB21E
:1053980023F480539BB2A2F84430AFE72268B2F8F6
:1053A800403043F00803A2F840302268B2F8443095
:1053B8009BB223F400639BB2A2F844302268B2F88F
:1053C800403043F00403A2F84030206800F0B2FBFC
:1053D80010F4805F98D12046FFF702FA94E722681C
:1053E800B2F844309BB223F400739BB2A2F8443065
:1053F8002046FFF7DCF98DE738B54AB2002A1BDBF7
:105408004B0103F50A73034401249C7001F07F05E6
:105418001D70D20F5A7090F82824A24218D0044662
:10542800012280F828241946006800F0F9FA4DB1E5
:10543800002084F8280438BD01F07F035B0128337D
:105448000344E1E704F22C41206800F076FBEFE723
:105458000220F0E710B54AB2002A1ADB4B0103F527
:105468000A73034400249C7001F07F011970D20F65
:105478005A7090F82824012A11D00446012280F895
:1054880028241946006800F002FB002084F828044C
:1054980010BD01F07F035B0128330344E2E70220DB
:1054A800F6E711F0800F09D001F07F01490128319A
:1054B800014442B98A728B8000207047490101F586
:1054C8000A710144F5E701228A72CB801B0C0B811B
:1054D800F2E784B001A880E80E00002004B070470D
:1054E800B0F8403043F43F43A0F840300020704704
:1054F800B0F8403023F474535B045B0CA0F84030E0
:10550800002070470020704784B038B505AC84E8A7
:105518000E000123A0F840300024A0F84040A0F875
:105528004440A0F85040FFF7DBFF2046BDE8384074
:1055380004B0704710B4CB78032B0FD8DFE803F022
:10554800026D54600A7830F822309BB223F4EC43A1
:1055580023F0700343F4007320F822300A7830F8FF
:10556800223023F0F0031B051B0D134343F40043C3
:1055780043F0800320F822308B7A002B40F0AF8074
:105588004B78002B56D08A885208B0F850300C78E7
:1055980003EBC40300EB43035200C3F800240A786A
:1055A80030F8223013F0400F0BD030F8223023F0BF
:1055B800F0031B051B0D43F4004343F0C00320F820
:1055C80022300A7830F822309BB223F4E04323F0EB
:1055D800400383F0200343F4004343F0800320F8A2
:1055E8002230002010BC70470A7830F822309BB275
:1055F80023F4EC4323F070039BB220F82230ADE78C
:105608000A7830F822309BB223F4EC4323F070037D
:1056180043F4C06320F82230A0E70A7830F822303B
:105628009BB223F4EC4323F0700343F4806320F827
:10563800223093E78A885208B0F850300C7803EB90
:10564800C403043300EB43035200C3F80024B0F84A
:1056580050300A7803EBC203063300EB43030C69AE
:105668003E2C30D9C4F34F1214F01F0F01D1013A68
:1056780092B26FEAC2626FEA524292B2C3F8002451
:105688000A7830F8223013F4804F0BD030F82230EB
:1056980023F0F0031B051B0D43F4404343F0800344
:1056A80020F822300A7830F822309BB223F4804365
:1056B80023F0700383F4405343F4004343F0800322
:1056C80020F822308DE7C4F34F0214F0010F01D007
:1056D800013292B2920292B2C3F80024D0E70A785B
:1056E80030F8223023F4F8731B051B0D43F40143F3
:1056F80043F0800320F82230CA885208B0F85030AE
:105708000C7803EBC40300EB43035200C3F80024F6
:105718000A895208B0F850300C7803EBC4030433FC
:1057280000EB43035200C3F800244B78002B4BD105
:105738000A7830F8223013F4804F0BD030F822303A
:1057480023F0F0031B051B0D43F4404343F0800393
:1057580020F822300A7830F8223013F0400F0BD0AE
:1057680030F8223023F0F0031B051B0D43F40043EF
:1057780043F0C00320F822300A7830F8223023F0B2
:10578800F0031B051B0D43F4004343F0C00320F84E
:1057980022300A7830F822309BB223F4804323F079
:1057A800700383F4405348F28004234320F82230E6
:1057B8000A7830F822309BB223F4E04323F0400308
:1057C800234320F822300CE70A7830F8223013F40B
:1057D800804F0BD030F8223023F0F0031B051B0D4F
:1057E80043F4404343F0800320F822300A7830F82D
:1057F800223013F0400F0BD030F8223023F0F003A2
:105808001B051B0D43F4004343F0C00320F822306E
:105818000A7830F8223023F0F0031B051B0D43F4FF
:10582800404343F0800320F822300B7830F82320DF
:1058380092B222F4E04222F0400248F2800422436D
:1058480020F823200A7830F822309BB223F48043D2
:1058580023F07003234320F82230C2E68B7A002B12
:1058680044D14B780BB30A7830F8223013F0400F4C
:105878000BD030F8223023F0F0031B051B0D43F446
:10588800004343F0C00320F822300A7830F8223071
:105898009BB223F4E04323F0400343F4004343F076
:1058A800800320F82230002070470A7830F8223030
:1058B80013F4804F0BD030F8223023F0F0031B058F
:1058C8001B0D43F4404343F0800320F822300A784C
:1058D80030F822309BB223F4804323F0700343F462
:1058E800004343F0800320F82230DCE710B44B7803
:1058F800002B4BD10A7830F8223013F4804F0BD0AC
:1059080030F8223023F0F0031B051B0D43F440430D
:1059180043F0800320F822300A7830F8223013F060
:10592800400F0BD030F8223023F0F0031B051B0D7D
:1059380043F4004343F0C00320F822300A7830F8DB
:10594800223023F0F0031B051B0D43F4004343F002
:10595800C00320F822300B7830F8232092B222F4CA
:10596800804222F0700248F28004224320F823206B
:105978000A7830F822309BB223F4E04323F0400346
:10598800234320F82230002010BC70470A7830F8F2
:10599800223013F4804F0BD030F8223023F0F0037C
:1059A8001B051B0D43F4404343F0800320F82230CD
:1059B8000A7830F8223013F0400F0BD030F822303C
:1059C80023F0F0031B051B0D43F4004343F0C00311
:1059D80020F822300A7830F8223023F0F0031B0533
:1059E8001B0D43F4404343F0800320F822300B782A
:1059F80030F8232092B222F4E04222F0400248F22A
:105A08008004224320F823200A7830F822309BB201
:105A180023F4804323F07003234320F82230B2E7B5
:105A28000A7892B930F822309BB223F4804323F0ED
:105A3800400383F4805383F0100343F4004343F09E
:105A4800800320F82230002070474B787BB130F873
:105A580022309BB223F4E04323F0400383F0100389
:105A680043F4004343F0800320F82230EBE730F89A
:105A780022309BB223F4804323F0700383F48053D5
:105A880043F4004343F0800320F82230DBE74B78EF
:105A98001BB30A7830F8223013F0400F0BD030F8DF
:105AA800223023F0F0031B051B0D43F4004343F0A1
:105AB800C00320F822300A7830F822309BB223F451
:105AC800E04323F0400383F0300343F4004343F002
