:020000040800F2
:1000000000500020C9940008894F00088B4F000859
:100010008D4F00088F4F0008914F0008000000002E
:10002000000000000000000000000000934F0008E6
:10003000954F000800000000974F0008994F0008F6
:10004000119500081195000811950008B14F00089E
:10005000119500081195000811950008D14F00086E
:1000600011950008119500081195000811950008D8
:1000700011950008119500081195000811950008C8
:1000800011950008119500081195000811950008B8
:10009000A14F00081195000811950008119500085E
:1000A0001195000811950008119500081195000898
:1000B00011950008E14F00081195000811950008FE
:1000C0001195000811950008119500081195000878
:1000D0001195000811950008119500081195000868
:1000E00011950008C14F00081195000811950008EE
:1000F0001195000811950008119500081195000848
:100100001195000811950008119500081195000837
:100110001195000811950008119500081195000827
:100120001195000811950008119500081195000817
:1001300000000000000000000000000000000000BF
:1001400000000000000000000000000000000000AF
:10015000000000000000000000000000000000009F
:10016000000000000000000000000000000000008F
:10017000000000000000000000000000000000007F
:10018000000000000000000000000000000000006F
:10019000000000000000000000000000000000005F
:1001A000000000000000000000000000000000004F
:1001B000000000000000000000000000000000003F
:1001C000000000000000000000000000000000002F
:1001D000000000000000000000000000000000001F
:0401E0005FF8E0F1F3
:1001E80010B5054C237833B9044B13B10448AFF369
:1001F80000800123237010BDB80300200000000018
:10020800F4D7000808B5034B1BB103490348AFF303
:10021800008008BD00000000BC030020F4D70008DF
:10022800034613F8012B002AFBD1181A013870472E
:1002380010F8012B11F8013B012A28BF9A42F7D088
:10024800D01A704781F0004102E000BF83F00043FC
:1002580030B54FEA41044FEA430594EA050F08BF59
:1002680090EA020F1FBF54EA000C55EA020C7FEA1D
:10027800645C7FEA655C00F0E2804FEA5454D4EB9A
:100288005555B8BF6D420CDD2C4480EA020281EA64
:10029800030382EA000083EA010180EA020281EA9C
:1002A8000303362D88BF30BD11F0004F4FEA0131EE
:1002B8004FF4801C4CEA113102D0404261EB4101FD
:1002C80013F0004F4FEA03334CEA133302D0524283
:1002D80063EB430394EA050F00F0A780A4F101043F
:1002E800D5F1200E0DDB02FA0EFC22FA05F2801879
:1002F80041F1000103FA0EF2801843FA05F359415F
:100308000EE0A5F120050EF1200E012A03FA0EFCDD
:1003180028BF4CF0020C43FA05F3C01851EBE37107
:1003280001F0004507D54FF0000EDCF1000C7EEB24
:1003380000006EEB0101B1F5801F1BD3B1F5001F62
:100348000CD349085FEA30004FEA3C0C04F1010481
:100358004FEA445212F5800F80F09A80BCF1004FAA
:1003680008BF5FEA500C50F1000041EB045141EA2C
:10037800050130BD5FEA4C0C404141EB010111F42D
:10038800801FA4F10104E9D191F0000F04BF0146D8
:100398000020B1FA81F308BF2033A3F10B03B3F1B6
:1003A80020020CDA0C3208DD02F1140CC2F10C0246
:1003B80001FA0CF021FA02F10CE002F11402D8BFA4
:1003C800C2F1200C01FA02F120FA0CFCDCBF41EA70
:1003D8000C019040E41AA2BF01EB0451294330BD3F
:1003E8006FEA04041F3C1CDA0C340EDC04F114041C
:1003F800C4F1200220FA04F001FA02F340EA0300F3
:1004080021FA04F345EA030130BDC4F10C04C4F138
:10041800200220FA02F001FA04F340EA0300294618
:1004280030BD21FA04F0294630BD94F0000F83F462
:10043800801306BF81F480110134013D4EE77FEA45
:10044800645C18BF7FEA655C29D094EA050F08BF91
:1004580090EA020F05D054EA000C04BF1946104672
:1004680030BD91EA030F1EBF0021002030BD5FEAB6
:10047800545C05D14000494128BF41F0004130BDDE
:1004880014F580043CBF01F5801130BD01F0004532
:1004980045F0FE4141F470014FF0000030BD7FEAA5
:1004A800645C1ABF194610467FEA655C1CBF0B46A0
:1004B800024650EA013406BF52EA033591EA030FB7
:1004C80041F4002130BD00BF90F0000F04BF0021AF
:1004D800704730B54FF4806404F132044FF00005E2
:1004E8004FF0000150E700BF90F0000F04BF00215B
:1004F800704730B54FF4806404F1320410F00045C1
:1005080048BF40424FF000013EE700BF42004FEABB
:10051800E2014FEA31014FEA02701FBF12F07F4338
:1005280093F07F4F81F06051704732F07F4208BFEF
:10053800704793F07F4F04BF41F40021704730B5F6
:100548004FF4607401F0004521F000411CE700BF42
:1005580050EA010208BF704730B54FF000050AE0C5
:1005680050EA010208BF704730B511F0004502D5C6
:10057800404261EB41014FF4806404F132045FEAC8
:10058800915C3FF4D8AE4FF003025FEADC0C18BF71
:1005980003325FEADC0C18BF033202EBDC02C2F163
:1005A800200300FA03FC20FA02F001FA03FE40EAF5
:1005B8000E0021FA02F11444BDE600BF70B54FF0F9
:1005C800FF0C4CF4E06C1CEA11541DBF1CEA1355D7
:1005D80094EA0C0F95EA0C0F00F0DEF82C4481EA3F
:1005E800030621EA4C5123EA4C5350EA013518BF5F
:1005F80052EA033541F4801143F4801338D0A0FB4C
:1006080002CE4FF00005E1FB02E506F00042E0FBF8
:1006180003E54FF00006E1FB03569CF0000F18BFFE
:100628004EF0010EA4F1FF04B6F5007F64F54074A6
:1006380004D25FEA4E0E6D4146EB060642EAC62139
:1006480041EA55514FEAC52040EA5E504FEACE2EA6
:10065800B4F1FD0C88BFBCF5E06F1ED8BEF1004FA9
:1006680008BF5FEA500E50F1000041EB045170BD25
:1006780006F0004646EA010140EA020081EA030169
:10068800B4EB5C04C2BFD4EB0C0541EA045170BD65
:1006980041F480114FF0000E013C00F3AB8014F1DF
:1006A800360FDEBF002001F0004170BDC4F1000428
:1006B800203C35DA0C341BDC04F11404C4F12005A9
:1006C80000FA05F320FA04F001FA05F240EA020004
:1006D80001F0004221F0004110EBD37021FA04F63A
:1006E80042EB06015EEA430E08BF20EAD37070BDF4
:1006F800C4F10C04C4F1200500FA04F320FA05F053
:1007080001FA04F240EA020001F0004110EBD37054
:1007180041F100015EEA430E08BF20EAD37070BDC4
:10072800C4F1200500FA05F24EEA020E20FA04F39D
:1007380001FA05F243EA020321FA04F001F000414C
:1007480021FA04F220EA020000EBD3705EEA430EBD
:1007580008BF20EAD37070BD94F0000F0FD101F0EC
:100768000046400041EB010111F4801F08BF013C25
:10077800F7D041EA060195F0000F18BF704703F063
:100788000046520043EB030313F4801F08BF013DEA
:10079800F7D043EA0603704794EA0C0F0CEA1355A6
:1007A80018BF95EA0C0F0CD050EA410618BF52EA60
:1007B8004306D1D181EA030101F000414FF0000066
:1007C80070BD50EA410606BF1046194652EA430674
:1007D80019D094EA0C0F02D150EA013613D195EAE8
:1007E8000C0F05D152EA03361CBF104619460AD130
:1007F80081EA030101F0004141F0FE4141F470013A
:100808004FF0000070BD41F0FE4141F4780170BD29
:1008180070B54FF0FF0C4CF4E06C1CEA11541DBF8E
:100828001CEA135594EA0C0F95EA0C0F00F0A7F890
:10083800A4EB050481EA030E52EA03354FEA0131BD
:1008480000F088804FEA03334FF0805545EA1313D0
:1008580043EA12634FEA022245EA111545EA106598
:100868004FEA00260EF000419D4208BF964244F12F
:10087800FD0404F5407402D25B084FEA3202B61A4E
:1008880065EB03055B084FEA32024FF480104FF422
:10089800002CB6EB020E75EB030E22BFB61A754696
:1008A80040EA0C005B084FEA3202B6EB020E75EB29
:1008B800030E22BFB61A754640EA5C005B084FEA91
:1008C8003202B6EB020E75EB030E22BFB61A75465E
:1008D80040EA9C005B084FEA3202B6EB020E75EB69
:1008E800030E22BFB61A754640EADC0055EA060E2A
:1008F80018D04FEA051545EA16754FEA06164FEA6D
:10090800C30343EA52734FEAC2025FEA1C1CC0D118
:1009180011F4801F0BD141EA00014FF000004FF0A5
:10092800004CB6E711F4801F04BF01430020B4F166
:10093800FD0C88BFBCF5E06F3FF6AFAEB5EB030C1E
:1009480004BFB6EB020C5FEA500C50F1000041EB1B
:10095800045170BD0EF0004E4EEA113114EB5C04E8
:10096800C2BFD4EB0C0541EA045170BD41F48011BB
:100978004FF0000E013C90E645EA060E8DE60CEAC3
:10098800135594EA0C0F08BF95EA0C0F3FF43BAFE0
:1009980094EA0C0F0AD150EA01347FF434AF95EA97
:1009A8000C0F7FF425AF104619462CE795EA0C0F7B
:1009B80006D152EA03353FF4FDAE1046194622E748
:1009C80050EA410618BF52EA43067FF4C5AE50EA22
:1009D80041047FF40DAF52EA43057FF4EBAE12E712
:1009E8004FF0FF3C06E000BF4FF0010C02E000BFF3
:1009F8004FF0010C4DF804CD4FEA410C7FEA6C5CD6
:100A08004FEA430C18BF7FEA6C5C1BD001B050EA78
:100A1800410C0CBF52EA430C91EA030F02BF90EA63
:100A2800020F0020704710F1000F91EA030F58BF22
:100A3800994208BF90422CBFD8176FEAE37040F084
:100A4800010070474FEA410C7FEA6C5C02D150EA22
:100A5800013C07D14FEA430C7FEA6C5CD6D152EADD
:100A6800033CD3D05DF8040B704700BF84461046A2
:100A780062468C461946634600E000BF01B5FFF7A1
:100A8800B7FF002848BF10F1000F01BD4DF808ED71
:100A9800FFF7F4FF0CBF012000205DF808FB00BF42
:100AA8004DF808EDFFF7EAFF34BF012000205DF89C
:100AB80008FB00BF4DF808EDFFF7E0FF94BF0120E9
:100AC80000205DF808FB00BF4DF808EDFFF7CEFFEA
:100AD80094BF012000205DF808FB00BF4DF808ED29
:100AE800FFF7C4FF34BF012000205DF808FB00BFFA
:100AF8004FEA410C7FEA6C5C02D150EA013C0AD112
:100B08004FEA430C7FEA6C5C02D152EA033C02D103
:100B18004FF0000070474FF0010070474FEA410264
:100B280012F5001215D211D56FF47873B3EB625237
:100B380012D94FEAC12343F0004343EA505311F05E
:100B4800004F23FA02F018BF404270474FF00000F0
:100B5800704750EA013005D111F0004008BF6FF02E
:100B6800004070474FF00000704700BF7BB972B972
:100B78000029BEBF00204FF0004106E008BF002852
:100B88001CBF6FF000414FF0FF3000F0A7B9ADF186
:100B9800080C6DE904CE002909DB002B1ADB00F0F4
:100BA80035F8DDF804E0DDE9022304B0704740427F
:100BB80061EB4101002B1BDB00F028F8DDF804E0B5
:100BC800DDE9022304B0404261EB4101524263EB8C
:100BD80043037047524263EB430300F017F8DDF814
:100BE80004E0DDE9022304B0404261EB41017047B3
:100BF800524263EB430300F009F8DDF804E0DDE955
:100C0800022304B0524263EB430370472DE9F047D7
:100C18008C460446089E002B40F086808A42154682
:100C280048D9B2FA82F24AB1C2F1200701FA02F3B6
:100C380020FA07F7954047EA030C94404FEA154E0F
:100C4800BCFBFEF71FFA85F80EFB17C307FB08F974
:100C5800210C41EA0343994509D9EB1807F1FF3103
:100C680080F0E180994540F2DE80023F2B44A3EBFF
:100C78000903B3FBFEF00EFB103300FB08F1A4B22E
:100C880044EA0344A14209D92C1900F1FF3380F04A
:100C9800C880A14240F2C58002382C4440EA07408F
:100CA8000027641A1EB10023D440C6E90043394620
:100CB800BDE8F087002A54D0B2FA82F2002A40F048
:100CC800B4800127491B4FEA15481FFA85F9B1FB83
:100CD800F8FE08FB1E1109FB0EF04FEA144C4CEA13
:100CE8000143984207D9EB180EF1FF3102D298421E
:100CF80000F2EB808E461B1AB3FBF8F008FB1033AA
:100D080009FB00F9A4B244EA0344A14507D92C1908
:100D180000F1FF3302D2A14500F2DB801846A4EBB4
:100D2800090440EA0E40BDE78B4208D9002E75D071
:100D38000027C6E9000138463946BDE8F087B3FA0E
:100D480083F77FB98B4202D3824200F2BC80841AB7
:100D580061EB030301209C46002EA8D0C6E9004C95
:100D6800A5E7FFDEC7F12005BB4022FA05FC4CEAE7
:100D7800030C21FA05F44FEA1C4EB4FBFEF91FFAE6
:100D88008CF80EFB194420FA05F3B94009FB08FA60
:100D980019430B0C43EA0444A24502FA07F200FA8D
:100DA80007F30BD91CEB040409F1FF3080F08980AC
:100DB800A24540F28680A9F102096444A4EB0A0422
:100DC800B4FBFEF00EFB104400FB08FA89B241EABE
:100DD8000444A24508D91CEB040400F1FF316CD28D
:100DE800A2456AD90238644440EA0940A0FB028956
:100DF800A4EB0A044C454146CE4655D352D0002EAA
:100E08006AD05A1A64EB0E0404FA05F522FA07F3BD
:100E1800FC401D43C6E90054002748E737463046E2
:100E280045E718463AE70F4621E79540C2F1200307
:100E380021FA03F04FEA1548B0FBF8F71FFA85F9D5
:100E480008FB170E24FA03FC914007FB09FA4CEA49
:100E58000101080C40EA0E40824504FA02F407D961
:100E6800281807F1FF332AD2824528D9023F28449F
:100E7800A0EB0A00B0FBF8FC08FB1C000CFB09F314
:100E880089B241EA00418B4208D969180CF1FF3058
:100E980011D28B420FD9ACF1020C2944C91A4CEA81
:100EA800074714E74345AAD2B8EB020169EB0C02E5
:100EB80001389646A3E78446F0E7084694E71F46BC
:100EC800D6E781467AE7384646E7AEF1020E2B446C
:100ED80011E702382C4422E73746E8E6704700BF9E
:100EE8004B2901D00020704708B532B101224021BA
:100EF800054806F01AFC012008BD002240210248DE
:100F080006F013FC0120F7E70008014030B583B074
:100F1800182919D014461D4619291DD0172902D0A1
:100F2800002003B030BD6CB115F8013B8DF80730D7
:100F3800013CE4B2642301220DF107010A4805F0DF
:100F480067FAF0E70120ECE701221021074806F0D4
:100F5800ECFB00BF0120E4E700BF0022102103489A
:100F680006F0E3FB0120DCE7A80C002000080140A4
:100F780008B5024809F080FB08BD00BF44D8000846
:100F880000B597B000230E93119307930893099324
:100F98000A930B9301930293039304930593069387
:100FA8000D230C934FF480320D920123109312936A
:100FB8000F930223139314924FF4E01315930CA884
:100FC80005F05AFD60BB0F23079302210891002307
:100FD80009934FF480620A920B9307A805F074FFF7
:100FE80008BB11230193002306934FF480730293E7
:100FF80001A806F04DF8C8B906F034F80D4BA3FB6C
:101008000030800906F0FCFB042006F00FFC0022EB
:1010180011464FF0FF3006F0B3FB17B05DF804FB44
:10102800FFF7A6FFCFE7FFF7A3FFDAE7FFF7A0FF79
:10103800E2E700BFD34D621038B505F0CFFCFFF7EB
:101048009FFF00F07DF803F025FD03F08BFD2D4C8C
:1010580001224FF40041204606F067FB00F006F934
:10106800294D2A4B2A4A2B49284607F071FB284666
:1010780008F0CFF90021284608F0D2F900224021D3
:10108800204606F052FB0A2005F0CCFC0122402144
:10109800204606F04AFB00F023F94FF4FA7005F0F9
:1010A800C1FC00F03BFE00F051FD03F0D5F903F060
:1010B8001BFC03F079FC00F0E1F905F0ADFC0446F7
:1010C80005F0AAFC284607F028FB03F037FD05E0E9
:1010D8000D4807F02FFB05F09FFC044600F05EFA70
:1010E80001F0B8F803F0ECF900F0FCFD03F0C2FBE6
:1010F800094805F07CFA05F08FFC001B6428EDD93F
:10110800E6E700BF00080140680A0020E90E000871
:10111800150F000850EA0008000D002008B5013836
:10112800012806D80B461146184603F013FFC0B233
:1011380008BD08F0EBF9092303604FF0FF30F7E72B
:101148002DE9F04186B00024029403940494059498
:10115800184B9A6942F004029A619B6903F00403F0
:101168000193019B144D01224FF40041284606F0DB
:10117800DCFA4FF4004302930126039604944FF0DF
:101188000208CDF8148002A9284606F0D3F95027A2
:10119800029703960494CDF8148002A9284606F015
:1011A800C9F932463946284606F0BFFA06B0BDE806
:1011B800F08100BF0010024000080140642804D8F4
:1011C80000EB80004300014A53637047002C014044
:1011D80008B50A20FFF7F2FF08BD000008B5024B6A
:1011E8005878FFF7EBFF08BD440B00200268094B55
:1011F8009A4200D0704782B003F564439A6942F47A
:1012080000629A619B6903F400630193019B02B039
:10121800704700BF002C014000B587B0002302933F
:1012280003930493059302680E4B9A4202D007B0C9
:101238005DF804FB03F564439A6942F004029A617D
:101248009B6903F004030193019B4FF4807302939D
:10125800022303930123059302A9034806F06AF9C0
:10126800E5E700BF002C01400008014010B519480F
:10127800194B036011234360002383604FF47A7293
:10128800C26003614361836105F098FAC8B91349E4
:1012980060230B604FF496734B6000228A60CA602B
:1012A8000A614A618A610B4805F0DAFA60B9094CAB
:1012B8002046FFF7B1FF0021204605F04DFB30B96D
:1012C80010BDFFF755FEE2E7FFF752FEEFE7FFF725
:1012D8004FFEF5E7040B0020002C0140E80A00202F
:1012E80010B582B0084A1378084C516801915278B9
:1012F8000092DB0800221146204607F099F92046A3
:1013080007F018FA02B010BDECD80008680A0020EF
:10131800F8B5184B184C0FCB84E80F0006F0D8FA34
:10132800164B00241C60164A9A600122DA60BCB190
:10133800144B134A1A6000242C2C17D824F00305E8
:10134800114F104E31687A5900232144022006F0CB
:1013580017FBEA593368E3589A4209D10434EBE79A
:101368000A49064806F07EFB0134E0E706F0CAFAAF
:10137800F8BD00BF840B0020540B0020D8030020C8
:1013880000F00108D4030020440B0020E8030020EB
:1013980070B5174E3446174D0FCD0FC40FCD0FC47F
:1013A80095E8070084E80700B26A134B9A4200D117
:1013B80070BD344620220021304608F0E3F932237C
:1013C80073700123B370F3704FF49673F38040F297
:1013D800D243738140F2BC43B381074BB362074BDE
:1013E80020341868596803C4FFF792FFE0E700BF8C
:1013F800440B002000F00108AB55FF00880C0020CA
:1014080070B51B4C0621204606F08CF80504052112
:10141800204606F087F82843164D686008212046C4
:1014280006F080F806040721204606F07BF83043D2
:10143800A8600A21204606F075F80604092120460E
:1014480006F070F83043E8600221204606F06AF89A
:101458004BF6BB33984200D170BD074B0FCB85E8E4
:101468000F004BF6BB320221014806F053F8F3E7B0
:10147800940C0020840B0020540B002008B5FFF7C3
:1014880087FFFFF7BDFF0B4B9B7883B1FFF7A0FEEB
:10149800084B5878FFF792FE00F012F900F02EFB87
:1014A80003F022FA05F0B8FA034B186008BDFFF7FD
:1014B80095FEEDE7440B0020840B0020074B01222A
:1014C800DA709B78934203D0044B0122DA73704799
:1014D800034B1A89014B9A60F6E700BF700B002096
:1014E800440B0020034B0022DA709A605A74DA73B6
:1014F800704700BF700B002008B51C4BDB78012B30
:1015080011D0012B05D1194B9B78013BDBB2012B84
:1015180020D905F081FA164B1B68C01A4EF66023D5
:1015280098421CD808BD114A9278013AD2B2012AD1
:10153800E7D80E4A9268002AE3D10C4BDA709A7009
:101548001A705A745A739A73DA7305F065FA084B6D
:101558001860E7E7054B9B68002BE3D1D9E703F058
:1015680079F905F059FA024B1860DBE7700B002097
:10157800980B002000220BE0D31C9B0003F1804352
:1015880003F5D843044931F812101960013292B2B8
:10159800072AF1D9704700BF840B002008B505F071
:1015A8003BFA334B1B68C01AB0F57A7F36D3314A01
:1015B80013780133DBB213701E2B02D913460022B5
:1015C8001A702B4AD3680133D3602B4A934201D94E
:1015D800274BDA60294B5B7B1BB1254A53680133E3
:1015E8005360264BDB7B1BB1214A93680133936020
:1015F800224BDB7863B1214A9368013B936023B99E
:1016080093601F4A13601F4A13811F4809F0BAF8F4
:1016180005F002FA164B1860FFF7ACFFFFF76CFFF6
:1016280003F028F9194B1B8873B9164B1B79012B4A
:101638000BD0022B0FD00F4B1B780E2B11D914484F
:1016480007F06BF800F064FA08BD114807F065F878
:1016580000F018F9F8E70E4807F05FF800F058FABC
:10166800F2E70B4807F059F800F00CF9ECE700BF77
:10167800840B0020940B0020001EF8BB700B002088
:10168800F00B0020440B0020F4DC0008EC030020E1
:10169800680A002010B5094C0121204607F02EFCED
:1016A80080231F220021204607F0F2FB402300225E
:1016B8004121204607F007FC10BD00BF680A002042
:1016C80008B5044807F029F805F0A6F9024B586058
:1016D80008BD00BF680A00209C0B002038B50546ED
:1016E8000E4C0F49204607F02BFB0E4B06224421D7
:1016F800204607F0E7FA0C49204607F021FB35B1F0
:101708000A4B19225421204607F0DCFA38BD084B51
:1017180019224C21014807F0D5FAF7E7680A00209A
:10172800D8FE000824DD0008F04A01082CDD000876
:1017380030DD000810B5044609490A4807F000FBE7
:1017480034B1094B16220121064807F0BBFA10BD37
:10175800064B16220121034807F0B4FAF7E700BF49
:10176800D0540108680A002034DD00083CDD000878
:1017780010B5044609490A4807F0E2FA34B1094BA2
:1017880036220121064807F09DFA10BD064B362285
:101798000121034807F096FAF7E700BFD054010883
:1017A800680A002014DD00081CDD000800B583B0BD
:1017B8000F4B1B7803420ED00E4A137851680191E3
:1017C80052780092DB08262248210B4806F030FFA9
:1017D80003B05DF804FB094A137851680191527807
:1017E8000092DB0826224821034806F021FFEFE794
:1017F8009C0B00209CD80008680A00204CD80008E0
:1018080030B583B0E8B1194C0021204607F076FBCB
:101818001749204607F094FA164DAA6816496846F3
:1018280008F0C8FF6B4636226821204607F04AFABE
:101838000121204607F062FBAB68ABB900226A744D
:1018480012E00A4C0D49204607F07AFA002120469A
:1018580007F054FB0A4B36226621204607F032FA7D
:101868000121204607F04AFB03B030BD680A00207A
:101878007C330108700B00200CDD0008882D01085E
:1018880030DD000810B505F0C7F8164B5B68C01AC4
:10189800C82810D9134A1378DB43137053780133DF
:1018A800DBB253700A2B02D9134600225A7005F096
:1018B800B3F80C4B58600C4806F02FFF0B4C207BFC
:1018C800FFF70CFF607BFFF735FFA07BFFF750FFAA
:1018D800E07BFFF76BFF607CFFF792FFFFF7DAFE14
:1018E80010BD00BF9C0B0020680A0020700B002070
:1018F80010B586B0214B93F9073013F0010F33D0A0
:101908001E4A92F9063092F905201D4903A808F0ED
:1019180051FF1C4C1C49204607F012FA00212046B2
:1019280007F0ECFA03AB0E220121204607F0CAF9B2
:101938000121204607F0E2FA1449204607F000FA90
:101948000E4AB2F90030009392F9023092F903205E
:101958000F4903A808F02EFF03AB1B2207212046DE
:1019680007F0B0F906B010BD044A92F9063092F9B2
:101978000520084903A808F01DFFCAE7880C0020C5
:1019880044DD0008680A00206C4401080C110108B5
:1019980064DD000854DD000830B583B00546134CFB
:1019A8001349204607F0CCF9124B28220221204681
:1019B80007F088F90021204607F0A0FA2A460E49C8
:1019C800684608F0F7FE6B4628221921204607F0E2
:1019D80079F90121204607F091FA084B282237218E
:1019E800204607F06FF903B030BD00BF680A002039
:1019F800B40101088CDD000894DD00089CDD0008B6
:101A080030B583B00546134C1349204607F098F9C2
:101A1800124B32220221204607F054F900212046B9
:101A280007F06CFA2A460E49684608F0C3FE6B4672
:101A380032221921204607F045F90121204607F0F6
:101A48005DFA084B32223721204607F03BF903B0F4
:101A580030BD00BF680A0020B401010874DD000829
:101A680094DD00089CDD000830B583B00546134CB2
:101A78001349204607F064F9124B3C220221204604
:101A880007F020F90021204607F038FA2A460E49C7
:101A9800684608F08FFE6B463C221921204607F065
:101AA80011F90121204607F029FA084B3C22372179
:101AB800204607F007F903B030BD00BF680A0020D0
:101AC800B40101087CDD000884DD00089CDD000805
:101AD80010B5094C0121204607F010FA80231F2277
:101AE8000021204607F0D4F9402300224121204656
:101AF80007F0E9F910BD00BF680A002010B5034CD3
:101B08000023237004F088FF606010BDA40B002040
:101B180038B5FFF7DDFFFFF7EBFE0A4D68680A4CA2
:101B2800A4FB0030C00AFFF737FFA868A4FB003009
:101B3800C00AFFF765FFE868A4FB0030C00AFFF79A
:101B480093FF38BD840B0020C5B3A2912DE9F04363
:101B580087B0002404941F4B9A6942F010029A61DE
:101B68009A6902F010020092009A9A6942F00802FB
:101B78009A619B6903F008030193019B4FF03C08AD
:101B8800CDF808804FF00109CDF80C900225059595
:101B9800114F02A9384605F0CDFC4FF47076029635
:101BA800CDF80C90049405950C4D02A9284605F033
:101BB800C1FC22464146384605F0B7FD224631466B
:101BC800284605F0B2FD04F027FF054B186007B062
:101BD800BDE8F08300100240000C014000100140F5
:101BE800640A002008B528B101220421044805F040
:101BF8009CFD08BD00220421014805F096FDF8E788
:101C0800000C014008B528B101220821044805F05C
:101C18008CFD08BD00220821014805F086FDF8E783
:101C2800000C014008B528B101221021044805F034
:101C38007CFD08BD00221021014805F076FDF8E77B
:101C4800000C014008B528B101222021044805F004
:101C58006CFD08BD00222021014805F066FDF8E76B
:101C6800000C014008B5022802D000282DD008BD7C
:101C780004F0D2FE164B1B68C01AB0F57A7FF6D373
:101C8800144A136801331360042B19D9124A1378C4
:101C9800013BDBB21370114A9360012151743BB9C7
:101CA80093600D49062008700A490B609370137001
:101CB8000A4B0122DA73084B1978094808F0DCFC52
:101CC80004F0AAFE024B1860D1E7FFF70BFCCEE741
:101CD800640A0020600A002000000020700B002029
:101CE800A0DD000810B5084C207BFFF77BFF607B68
:101CF800FFF788FFA07BFFF795FFE07BFFF7A2FFC8
:101D0800A078FFF7AFFF10BD700B002001604260A4
:101D18000123037200234372C372704770B586B003
:101D28000024039404940594184B9A6942F0100215
:101D38009A619B6903F010030193019B4FF4705360
:101D480002930123049302A9114805F0F3FB114EF5
:101D5800114D224631462846FFF7D8FF2246314624
:101D680005F10C00FFF7D2FF2246314605F11800B5
:101D7800FFF7CCFF2246314605F12400FFF7C6FFE6
:101D880004F04AFE054B186006B070BD0010024012
:101D98000010014039200008B00B0020EC0B002097
:101DA80010B50446032810D8DFE800F03F02295593
:101DB8004FF480513C4805F0B1FCC0B904EB440332
:101DC8009A003A4B134400225A726200224491004E
:101DD800364B0B445A7A1B7A9A425CD0334A0A44EF
:101DE800D37A0133DBB2D372052B4AD010BD04EB92
:101DF80044039A002D4B134401225A72E5E74FF42D
:101E08000061294805F08AFC38B904EB44039A00BC
:101E1800264B134400225A72D7E704EB44039A0076
:101E2800224B134401225A72CFE74FF480611E48B7
:101E380005F074FC38B904EB44039A001B4B1344B7
:101E480000225A72C1E704EB44039A00174B13446B
:101E580001225A72B9E74FF40051134805F05EFCAD
:101E680038B904EB44039A00104B134400225A7209
:101E7800ABE704EB44039A000C4B134401225A725B
:101E8800A3E70A496300181982000A44507A1072BD
:101E98000023D372AAE704EB4404A200034B1344C3
:101EA8000022DA72A2E700BF00100140B00B002048
:101EB8002DE9F84305468846002428E0DFF86891B4
:101EC800484606F02AFC5149484606F039FF0021E9
:101ED800484607F013F84E4B642202FB04370237DA
:101EE8003846FEF79DF9C0F116035B0803EB430380
:101EF80059003B460C2201F0FE01484606F0E2FE7E
:101F08000121484606F0FAFF71E00134E4B2112CD1
:101F180077D8404804F06BFB2746642303FB04F39F
:101F28003B4AD35AAB42F0D1642303FB0423DE6D52
:101F3800002EEAD0B5F5807F08D0B5F5007F05D032
:101F4800B5F5407F02D0B5F5806FB7D1DFF8D890EE
:101F5800484606F0E2FB2D49484606F0F1FE00210E
:101F6800484606F0CBFF2C4B0C221821484606F0B9
:101F7800A9FE0121484606F0C1FF254A642303FB58
:101F8800072702373946002007F084FA034618224B
:101F98000A21484606F096FE3946012007F07AFAEB
:101FA800034624220A21484606F08CFE39460220C0
:101FB80007F070FA034630220A21484606F082FEEE
:101FC8003946032007F066FA03463C220A214846B0
:101FD80006F078FE114B1B78013303EB43039A009C
:101FE8000F4B02F0FC020121484606F06BFE0D493A
:101FF8000D4806F0A5FE41462046B0470B4B1D8014
:1020080001E005F47F40BDE8F88300BF041801082B
:1020180004DE0008000D0020F0DD000801000020AB
:1020280000DE000830090108680A0020EE030020DD
:1020380008B503281BD8DFE800F0834102B77D4BC1
:1020480041F270721A807C4B1B8883B1B3F5807F94
:102058000ED0B3F5007F0BD0B3F5407F08D0B3F5B1
:10206800806F1CD00146744B1888FFF721FF08BD0C
:1020780072490A780132D2B20A70042AF2D90A46A1
:102088000121117003F580739BB26B4A1380B3F57D
:10209800806FE7D913464FF480721A80E2E7674AE7
:1020A80013780133DBB21370012BDBD913460122FD
:1020B8001A70614B4FF480721A80D3E75D4B41F27E
:1020C80070721A805C4B1B88002BD0D0B3F5807FD0
:1020D8000ED0B3F5007F0BD0B3F5407F08D0B3F531
:1020E800806F1ED00146544B1888FFF7E1FEBEE70B
:1020F80052490A78013AD2B20A70002AF2D10A4645
:1021080004211170A3F580739BB24B4A1380FF2BF7
:10211800E8D813464FF480621A80484B01221A709F
:10212800E0E7464A1378013BDBB21370002BD9D1A4
:10213800134604221A70404B4FF440721A80D1E7BC
:102148003D4B1B8893B93E4A138801339BB21380D9
:10215800012B8CD9134600221A804FF48073364A1B
:10216800138001461846FFF7A3FE80E7B3F5807F8A
:1021780008D0B3F5007F05D0B3F5407F02D0B3F5A2
:10218800806F0CD12D4A1078184480B22A4B1880E1
:10219800284BC8221A80FF21FFF78AFE67E701460D
:1021A8001846FFF785FE62E7234B1B88E3B1B3F5BA
:1021B800807F0DD0B3F5007F0AD0B3F5407F07D0FC
:1021C800B3F5806F04D003F47F431B4A138005E006
:1021D800194B00221A80194B01221A700146164B1E
:1021E8001888FFF765FE42E7164BDB6823F07F434C
:1021F80023F0FF03144A93427FF439AF114B9B78C5
:10220800012B7FF434AF0F4A537CDB43DBB25374AA
:102218006BB1FFF753F90D4B00221A7002F000FB67
:10222800084B5A7C99780A4808F026FA1FE7FFF706
:1022380059F9F0E7F0030020EC030020010000202A
:10224800F4030020700B002000010100940B002013
:10225800C4DD000838B504F0DFFB454B1B68C01A25
:1022680004286BD838BD434B1B88002B34D1424A15
:10227800138801339BB21380642B2DD91346002297
:102288001A804FF480703B4B18802146FFF710FEF0
:1022980022E03A4804F0ABF905EB45029300384ACE
:1022A800D3582046984705EB45039A00344B13440E
:1022B8001B7A012B33D00134E4B2032C40D82046DA
:1022C800FFF76EFD254604EB44039A002C4B13449C
:1022D8001B7A0BB9002CC6D005EB45039A00284B96
:1022E80013441B7A002BDED1254B13449B7A002B19
:1022F800D9D123498B1801209872224B41F2707072
:1023080018808A58204B9A42C3D005EB45029300A7
:1023180000221D491A481844FFF7F8FCC3E7184B78
:1023280013449B7A012BC6D10022134B1A8005EB6C
:102338004505A900124B0B449A72BCE70024BCE780
:10234800104B1B8813B1013B0E4A13800D4B1B88A1
:1023580013B9084B00221A800C4B1B8813B1013BA0
:102368000A4A138004F058FB014B18607AE700BF53
:10237800EC0B0020EC030020F4030020000D0020EB
:10238800B00B0020F203002039200008F0030020E1
:1023980000207047034B044A1168526819605A605C
:1023A80000207047540C0020880C00200020704743
:1023B8000020704700207047F0B583B005460C46F2
:1023C8005A2200219C4807F0DDF9642000FB05F043
:1023D8009A4B1D5A9A4B1B889D4202D0994B00225A
:1023E8001A80012C23D0022C7DD03CB9954B1B8838
:1023F800042B00F2D1800133924A1380924C934906
:10240800204606F09DFC42F2F133242205212046A5
:1024180006F0F2FB8B4B1B88052B00F20A81DFE8E4
:1024280013F0CE0025016A01A501E0012502854BC4
:102438001B88052BD7D8DFE803F003101D2A374483
:10244800834B93F90530162B03DC0133804A537113
:10245800C9E77F4B00225A71C5E77D4B93F90630D7
:102468003A2B03DC01337A4A9371BCE7784B00229C
:102478009A71B8E7764B93F907303A2B03DC0133AE
:10248800734AD371AFE7724B0022DA71ABE7704B36
:1024980093F903301E2B03DC01336D4AD370A2E796
:1024A8006B4B0022DA709EE7694B93F902300B2BD5
:1024B80003DC0133664A937095E7654B00229A70F6
:1024C80091E7634BB3F9003040F63202934203DCE4
:1024D80001335F4A138086E75D4B6FF01C021A7068
:1024E80007225A707FE7574B1B88052B3FF67DAFB5
:1024F800DFE803F0030F1B273441554B93F90530F0
:102508001BB1013B524A53716FE7514B17225A7165
:102518006BE74F4B93F906301BB1013B4C4A937163
:1025280063E74B4B3B229A715FE7494B93F90730BE
:102538001BB1013B464AD37157E7454B3B22DA7141
:1025480053E7434B93F90330012B03DD013B404A2A
:10255800D3704AE73E4B1F22DA7046E73C4B93F9AB
:102568000230012B03DD013B394A93703DE7384BBC
:102578000C229A7039E7364BB3F9003040F2E37217
:10258800934203DD013B324A13802EE7304B33225E
:102598001A7008225A7028E72E482D4B1A685B6873
:1025A800026043604379073B4371072102F0E2F977
:1025B800294B3C223021244806F084FB1EE7224C9C
:1025C8002649204606F0BCFB0021204606F096FC72
:1025D8001F4F194E97F905202149304608F0EAF8AF
:1025E800334624221146204606F06CFB0121204682
:1025F80006F084FC97F9073097F906201949304608
:1026080008F0D8F8334624223021204606F05AFB39
:10261800B7F90030009397F9023097F9032012496F
:10262800304608F0C7F8334630221E21204606F00F
:1026380049FB284603B0F0BDF80B002004DE000873
:10264800EE030020AC0B0020680A0020FC5B0108A8
:10265800540C0020880C00205CE6000804180108CF
:102668000CDD000894E6000864E600089D4E9E49CB
:10267800304606F065FB9D4F9D4C97F905209D4916
:10268800204608F097F8234624221146304606F0E3
:1026980019FB0021304606F031FC97F906209649CF
:1026A800204608F087F8234624223621304606F0D3
:1026B80009FB0121304606F021FC97F907208F49D4
:1026C800204608F077F8234624224221304606F0B7
:1026D800F9FAB7F90030009397F9023097F9032017
:1026E8008749204608F066F8234630221E213046E6
:1026F80006F0E8FA9DE77B4C7B49204606F020FB74
:102708007A4F7B4E97F9063097F905207D49304678
:1027180008F050F8334624221146204606F0D2FA33
:102728000021204606F0EAFB97F907207249304657
:1027380008F040F8334624224821204606F0C2FA21
:102748000121204606F0DAFBB7F90030009397F92B
:10275800023097F903206A49304608F02BF83346CF
:1027680030221E21204606F0ADFA62E75D4C5E4934
:10277800204606F0E5FA5D4F97F907305C4E009366
:1027880097F9063097F905205F49304608F012F8A6
:10279800334624221146204606F094FA00212046AA
:1027A80006F0ACFB97F903205349304608F002F8CD
:1027B800334630221E21204606F084FA01212046A5
:1027C80006F09CFBB7F9003097F902204F493046D4
:1027D80007F0F0FF334630222A21204606F072FA2D
:1027E80027E7404E4049304606F0AAFA3F4F97F98E
:1027F80007303F4C009397F9063097F90520424976
:10280800204607F0D7FF234624221146304606F01B
:1028180059FA97F903203E49204607F0CBFF234693
:1028280030221E21304606F04DFA0021304606F0CF
:1028380065FB97F902203049204607F0BBFF234685
:1028480030221146304606F03DFA0121304606F0A6
:1028580055FBB7F900202F49204607F0ABFF234668
:1028680030223C21304606F02DFAE2E61D4C1E4986
:10287800204606F065FA1D4F97F907301C4E009365
:1028880097F9063097F905201F49304607F092FF5F
:10289800334624221146204606F014FA97F90230EE
:1028A80097F903201C49304607F084FF334630224D
:1028B8001E21204606F006FA0021204606F01EFBDF
:1028C800B7F900201549304607F074FF3346302227
:1028D8004221204606F0F6F90121204606F00EFBBB
:1028E800A7E600BF680A002004180108540C00205D
:1028F800F80B002074E600080CDD00087CE60008F0
:1029080064E6000884E6000890E6000868E6000827
:10291800A0E60008A8E60008B0E6000894DD000874
:10292800F8B505460C465A2200218D4806F02AFFC4
:10293800642000FB05F08B4B1D5A8B4B1B889D4276
:1029480012D08A4B19898A4B19608A4B00221A8047
:10295800894BA3FB0123DB08884A137003EB83032D
:102968005A008A1A864B1A70012C2BD0022C46D09A
:1029780034B9804B1B88002B5CD101337D4A13800E
:102988007C4B1B88002B00F09B80012B00F0C08043
:102998007C4E7D4C3146204606F0D2F942F2F733A0
:1029A80024221921204606F027F93146204606F050
:1029B800C7F942F2F63324225021204606F01CF9CA
:1029C8002846F8BD6B4B1B884BB1012BCED16C4B05
:1029D8001B78082B0FD80133694A1370C6E7674B79
:1029E8001B78082B03D80133644A1370BEE7634B86
:1029F80000221A70BAE7624B00221A70B6E75D4BE4
:102A08001B8843B1012BB3D15D4B1B7873B1013BDC
:102A18005B4A1370ACE7594B1B781BB1013B574A13
:102A28001370A5E7554B09221A70A1E7544B0922E8
:102A38001A709DE7514B1B7803EB83035A00504BE8
:102A48001B7813444A4A1360484A1381FEF760FC16
:102A58004D4C4E49204606F073F94D4B3C2230212F
:102A6800204606F02FF901214A4804F057FE0028B5
:102A780086D1022100F1804000F5883004F04EFE36
:102A880000287FF47DAF042100F1804000F58830F4
:102A980004F044FE00287FF473AF3F4B5B7B13B90F
:102AA8003D4B01225A733C4B9B7B13B93A4B012295
:102AB8009A73394B9A7B597B384807F0DDFD5FE7FD
:102AC800314C3749204606F03BF90021204606F0F4
:102AD80015FA344F224E294B1A783946304607F0FA
:102AE80069FE334624223221204606F0EBF8012104
:102AF800204606F003FA224B1A783946304607F08A
:102B080059FE334624223E21204606F0DBF83FE7F3
:102B18001D4C2349204606F013F9224F104E174B3F
:102B28001A783946304607F045FE334624223221CA
:102B3800204606F0C7F80021204606F0DFF9104BC2
:102B48001A783946304607F035FE334624223E21AE
:102B5800204606F0B7F80121204606F0CFF917E71E
:102B6800F80B002004DE0008EE030020440B0020D0
:102B7800F00B0020AC0B0020CDCCCCCC5D0C0020A1
:102B88005C0C0020FC5B0108680A0020041801089E
:102B98005CE6000800100140700B0020E0E500082A
:102BA8006CEE0008D4E50008F8B505460C465A2234
:102BB80000213F4806F0E6FD642000FB05F03D4B90
:102BC8001E5A3D4B1B889E4203D03C4BDA783C4B47
:102BD8001A60022C2BD0012C34D0394B1B68002BE7
:102BE8003BD0374B1B68012B44D0364D364928461D
:102BF80006F0A6F82E4F3846FDF712FBC0F1160175
:102C0800324B1E2201F0FE01284606F05BF83846DA
:102C1800FDF706FBC0F116012D4B2D2201F0FE0138
:102C2800284606F04FF8002C31D03046F8BD244B2A
:102C38001B681BB90133224A1360CCE7204B0022E2
:102C48001A60C8E71E4B1B681BB1013B1C4A136086
:102C5800C3E71B4B01221A60BFE71A4D1D492846DE
:102C680006F06EF842F213731E220421284605F07E
:102C7800C3FFB6E7134D1749284606F061F842F23C
:102C880013732D220421284605F0B6FFADE70C4B3F
:102C98001A780A4BDA70FEF73BFB0F49284606F014
:102CA8004FF80E4B3C223021284606F00BF8BCE7C3
:102CB800F80B002004DE0008EE030020440B00207F
:102CC800F00B0020680A0020D021010844E6000823
:102CD80050E60008FC5B0108041801085CE60008DF
:102CE800F8B504460D465A2200214E4806F04AFD22
:102CF800642000FB04F04C4B1F5A4C4B1B889F422E
:102D080003D04B4B1A794B4B1A60022D3BD0012D47
:102D180045D0484B1B68002B4CD0464B1B68012BF9
:102D280055D0444B1B68022B5ED0434C4349204688
:102D380006F006F83B4E3046FDF772FAC0F1160170
:102D48003F4B1C2201F0FE01204605F0BBFF304638
:102D5800FDF766FAC0F116013A4B282201F0FE0190
:102D6800204605F0AFFF3046FDF75AFAC0F11601CC
:102D7800354B342201F0FE01204605F0A3FF002D5B
:102D88003FD03846F8BD2B4B1B68012B03D9294B84
:102D980000221A60BBE70133264A1360B7E7254BC8
:102DA8001B681BB1013B234A1360B2E7214B022287
:102DB8001A60AEE7204C2549204605F0C1FF42F2D3
:102DC80013731C220421204605F016FFA5E71A4CB0
:102DD8001E49204605F0B4FF42F21373282204214D
:102DE800204605F009FF9CE7134C1849204605F0DA
:102DF800A7FF42F2137334220421204605F0FCFE9B
:102E080093E70C4B1A780A4B1A71FEF781FA0B49B3
:102E1800204605F095FF0E4B3E223021204605F056
:102E280051FFAEE7F80B002004DE0008EE03002097
:102E3800440B0020F00B0020680A00200418010849
:102E480024E600082CE6000838E60008FC5B0108C8
:102E58005CE600082DE9F04182B004460D465A228E
:102E680000213F4806F08EFC642000FB04F03D4B37
:102E780033F800803C4B1B88984503D03B4B5A786D
:102E88003B4B1A603B4C3C49204605F059FF4FF438
:102E9800185324220521204605F0AEFE012D3FD00F
:102EA800022D45D0324F3878FEF788F9314C0A2385
:102EB80000933B7818221421204605F0E0FB2E49A8
:102EC800204605F03DFF42F2EC333022282120460F
:102ED80005F092FE42F2EB3330224D21204605F0F8
:102EE8008BFE1F4E3A682549304607F063FC24499B
:102EF800204605F025FF3046FDF792F9C0F116008F
:102F0800400800EB400041003346302201F0FE014A
:102F1800204605F0D7FE9DB1404602B0BDE8F081DD
:102F2800134B1B68632BBBD80133114A1360B7E7F7
:102F38000F4B1B68002BB5D0013B0D4A1360B1E75E
:102F48003A780A4B5A70FEF7E3F90D49204605F026
:102F5800F7FE0C4B3C223021204605F0B3FEDBE7A0
:102F6800F80B002004DE0008EE030020440B0020CC
:102F7800F00B0020680A0020FC5B01081CE6000832
:102F8800041801085CE60008F8B505460C465A2204
:102F98000021414806F0F6FB642000FB05F03F4B9A
:102FA8001E5A3F4B1B889E4203D03E4B9A783E4B9D
:102FB8001A60022C2BD0012C34D03B4B1B68002B01
:102FC8003BD0394B1B68012B46D0384D3849284631
:102FD80005F0B6FE304F3846FDF722F9C0F116016C
:102FE800344B1E2201F0FE01284605F06BFE3846E0
:102FF800FDF716F9C0F116012F4B2D2201F0FE0145
:10300800284605F05FFE002C35D03046F8BD264B2B
:103018001B681BB90133244A1360CCE7224B0022FA
:103028001A60C8E7204B1B681BB1013B1E4A13609E
:10303800C3E71D4B01221A60BFE71C4D1F492846F4
:1030480005F07EFE42F213731E220421284605F085
:10305800D3FDFEF7C3F8B4E7144D1849284605F028
:103068006FFE42F213732D220421284605F0C4FD99
:10307800FEF7AEF8A9E70C4B1A780A4B9A70FEF7E0
:1030880047F90F49284605F05BFE0E4B3C223021DC
:10309800284605F017FEB8E7F80B002004DE000804
:1030A800EE030020440B0020F00B0020680A0020EB
:1030B800D0210108FCE500080CE60008FC5B0108CB
:1030C800041801085CE60008F8B504460F465A22C1
:1030D8000021284806F056FB642000FB04F0264B2C
:1030E8001E5A264B1B889E4202D0254B00221A608E
:1030F800244B5B68244A934205D94FF4616202FB72
:1031080003F3204A5360214C2149204605F018FE5C
:1031180042F2F03336223721204605F06DFD194B77
:103128005A681C4BA3FB0232124DD20A1A49284690
:1031380007F040FB1949204605F002FE184B1822FB
:103148000C21204605F0BEFD2846FDF769F8C0F1C0
:103158001600400800EB400041002B46242201F0F5
:10316800FE01204605F0AEFD0FB13046F8BDFEF772
:10317800CFF8FAE7F80B002004DE0008EE03002081
:10318800F00B0020840B0020FF502502680A002065
:10319800FC5B0108C5B3A291F4E600080418010815
:1031A80000E70008F8B504460F465A2200212848CF
:1031B80006F0E8FA642000FB04F0264B1E5A264B62
:1031C8001B889E4202D0254B00221A60244B9B6824
:1031D800244A934205D94FF4616202FB03F3204A63
:1031E8009360214C2149204605F0AAFD42F2F033B4
:1031F80036223721204605F0FFFC194B9A681C4BF4
:10320800A3FB0232124DD20A1A49284607F0D2FA15
:103218001949204605F094FD184B1822062120462E
:1032280005F050FD2846FCF7FBFFC0F116004008EA
:1032380000EB400041002B46242201F0FE0120460D
:1032480005F040FD0FB13046F8BDFEF761F8FAE72A
:10325800F80B002004DE0008EE030020F00B00202D
:10326800840B0020FF502502680A0020FC5B01083F
:10327800C5B3A291F4E6000804180108BCE60008EA
:10328800F8B504460F465A220021284806F07AFA73
:10329800642000FB04F0264B1E5A264B1B889E42D6
:1032A80002D0254B00221A60244BDB68244A934243
:1032B80005D94FF4616202FB03F3204AD360214C25
:1032C8002149204605F03CFD42F2F03336223721F1
:1032D800204605F091FC194BDA681C4BA3FB02321F
:1032E800124DD20A1A49284607F064FA19492046AD
:1032F80005F026FD184B18220621204605F0E2FCB1
:103308002846FCF78DFFC0F11600400800EB40008E
:1033180041002B46242201F0FE01204605F0D2FC94
:103328000FB13046F8BDFDF7F3FFFAE7F80B0020C0
:1033380004DE0008EE030020F00B0020840B0020C0
:10334800FF297515680A0020FC5B0108C5B3A29126
:10335800D0E6000804180108DCE600082DE9F04171
:1033680082B005460C465A2200219B4806F00AFA0C
:10337800642000FB05F0994B1D5A994B1B889D4210
:103388000CD00023974A1360974A1380974A13700A
:10339800974A1370974A1370974A137034B9924B2F
:1033A8001B88022B1DD801338F4A1380012C77D03C
:1033B800022C00F0AD80914C9149204605F0C0FCEC
:1033C800904B18221221204605F07CFC864B1B8866
:1033D800032B00F2FD80DFE813F0D00025015B012C
:1033E8009101824B1B78824A1178642202FB01F218
:1033F8004FF47A7101FB03237F4A127802EB8202B1
:1034080051000B447B4A12781344764A13607E4A73
:10341800528993421BD0704F3846FCF701FFC0F128
:103428001600400800EB40004100744E3B46242241
:1034380001F0FE01304605F045FC744B30221221A4
:10344800304605F03FFC684B00221A80AEE7704B0F
:1034580000225A60FEF78EF8FDF75AFF5E4E30469E
:10346800FCF7DEFEC0F11600400800EB400041000A
:10347800DFF888813346242201F0FE01404605F03A
:1034880021FC644F0FCF30607160B260F360386820
:103498003061614B30221221404605F013FC85E76C
:1034A800514B1B88032B83D8DFE803F0020E1A2642
:1034B8004E4B1B78082B03D801334C4A137077E71F
:1034C8004A4B00221A7073E7494B1B78082B03D824
:1034D8000133474A13706BE7454B00221A7067E7C0
:1034E800454B1B78082B03D80133434A13705FE719
:1034F8003F4B00221A705BE73E4B1B78082B03D822
:1035080001333C4A137053E73A4B00221A704FE7D5
:10351800354B1B88032B3FF64EAFDFE803F0020D57
:103528001823324B1B781BB1013B304A137042E71A
:103538002E4B09221A703EE72D4B1B781BB1013B1D
:103548002B4A137037E72A4B09221A7033E72A4BA4
:103558001B781BB1013B284A13702CE7264B092224
:103568001A7028E7234B1B781BB1013B214A1370C3
:1035780021E7204B09221A701DE7204C20492046DC
:1035880005F0DEFB0021204605F0B8FC124E174B73
:103598001A782249304607F00DF9334624223021A3
:1035A800204605F08FFB0121204605F0A7FC114BB2
:1035B8001B780093104B1B780D4A12781849304637
:1035C80007F0F8F8334624223621204605F07AFB26
:1035D800284602B0BDE8F081F80B002004DE0008A0
:1035E800EE030020F00B0020AC0B00205E0C002046
:1035F800F40B00205C0C00205D0C0020680A002001
:1036080004180108C0E50008440B0020B0E50008D4
:10361800840B002088E500089CE50008D4E5000834
:10362800D0E500084B4C4C49204605F089FB4B4F30
:103638004B4E4C4B1A783946304607F0BBF83346A8
:1036480024223021204605F03DFB0021204605F0CC
:1036580055FC454B1A783946304607F0ABF83346E7
:1036680024223621204605F02DFB0121204605F0B5
:1036780045FC3E4B1B783E4A12783E49304607F0DF
:1036880099F8334624223C21204605F01BFB9FE78E
:10369800304C3149204605F053FB314E324B1B78F4
:1036A800304A12783349304607F084F833462422EA
:1036B8003021204605F006FB0021204605F01EFCBF
:1036C800264F2B4B1A783946304607F073F83346A5
:1036D80024223C21204605F0F5FA0121204605F078
:1036E8000DFC224B1A783946304607F063F833460A
:1036F80024224221204605F0E5FA69E7154C1649CF
:10370800204605F01DFB164E194B1B780093164BEF
:103718001B78144A12781849304607F04BF833469C
:1037280024223021204605F0CDFA0021204605F05C
:10373800E5FB0E4B1A780949304607F03BF833464B
:1037480024224221204605F0BDFA0121204605F039
:10375800D5FB3DE7680A002004180108D4E50008F5
:10376800F80B00205E0C0020F40B00205C0C0020FD
:103778005D0C0020D8E50008D0E500082DE9F041EF
:1037880082B005460C465A2200219C4805F0FAFFF3
:10379800642000FB05F09A4B1D5A9A4B1B889D42EA
:1037A8000CD00023984A1360984A1380984A1370E3
:1037B800984A1370984A1370984A137034B9934B07
:1037C8001B88022B1DD80133904A1380012C79D015
:1037D800022C00F0AF80924C9249204605F0B0FAD6
:1037E800914B18221221204605F06CFA874B1B8852
:1037F800032B00F2FF80DFE813F0D20027015D0100
:103808009301834B1B78834A1178642202FB01F2EF
:103818004FF47A7101FB0323804A127802EB82028B
:1038280051000B447C4A12781344774A13607F4A4C
:10383800528993421BD0714F3846FCF7F1FCC0F116
:103848001600400800EB40004100754E3B4624221C
:1038580001F0FE01304605F035FA754B3022122191
:10386800304605F02FFA694B00221A80AEE7714BFB
:1038780000229A60FDF77EFEFDF74AFD5F4E304656
:10388800FCF7CEFCC0F11600400800EB40004100F8
:10389800DFF88C813346242201F0FE01404605F012
:1038A80011FA654F0FCF30607160B260F36038680D
:1038B8003061BB88B382614B30220C21404605F051
:1038C80001FA83E7514B1B88032B81D8DFE803F00B
:1038D800020E1A264E4B1B78082B03D801334C4A8C
:1038E800137075E74A4B00221A7071E7494B1B7831
:1038F800082B03D80133474A137069E7454B002268
:103908001A7065E7454B1B78082B03D80133434AE7
:1039180013705DE73F4B00221A7059E73E4B1B7846
:10392800082B03D801333C4A137051E73A4B002265
:103938001A704DE7354B1B88032B3FF64CAFDFE879
:1039480003F0020D1823324B1B781BB1013B304AA0
:10395800137040E72E4B09221A703CE72D4B1B7859
:103968001BB1013B2B4A137035E72A4B09221A7009
:1039780031E72A4B1B781BB1013B284A13702AE711
:10398800264B09221A7026E7234B1B781BB1013BF3
:10399800214A13701FE7204B09221A701BE7204C9D
:1039A8002049204605F0CCF90021204605F0A6FA6A
:1039B800124E174B1A782249304606F0FBFE334662
:1039C80024223021204605F07DF90121204605F00A
:1039D80095FA114B1B780093104B1B780D4A1278FF
:1039E8001849304606F0E6FE3346242236212046A2
:1039F80005F068F9284602B0BDE8F081F80B002010
:103A080004DE0008EE030020F00B0020AC0B0020C1
:103A18005E0C0020F40B00205C0C00205D0C0020E4
:103A2800680A002004180108C0E50008440B0020BB
:103A3800B0E50008840B002038E5000850E50008D0
:103A4800D4E50008D0E500084B4C4C49204605F069
:103A580077F94B4F4B4E4C4B1A783946304606F0A7
:103A6800A9FE334624223021204605F02BF90021F7
:103A7800204605F043FA454B1A783946304606F099
:103A880099FE334624223621204605F01BF90121F0
:103A9800204605F033FA3E4B1B783E4A12783E49E1
:103AA800304606F087FE334624223C21204605F0A6
:103AB80009F99FE7304C3149204605F041F9314E6C
:103AC800324B1B78304A12783349304606F072FE82
:103AD800334624223021204605F0F4F80021204600
:103AE80005F00CFA264F2B4B1A783946304606F06B
:103AF80061FE334624223C21204605F0E3F80121EB
:103B0800204605F0FBF9224B1A783946304606F074
:103B180051FE334624224221204605F0D3F869E7B6
:103B2800154C1649204605F00BF9164E194B1B7813
:103B38000093164B1B78144A12781849304606F041
:103B480039FE334624223021204605F0BBF80021F7
:103B5800204605F0D3F90E4B1A780949304606F08D
:103B680029FE334624224221204605F0ABF80121E4
:103B7800204605F0C3F93DE7680A0020041801084B
:103B8800D4E50008F80B00205E0C0020F40B0020A0
:103B98005C0C00205D0C0020D8E50008D0E500088A
:103BA8002DE9F04182B005460C465A2200219B4877
:103BB80005F0E8FD642000FB05F0994B1D5A994B70
:103BC8001B889D420CD00023974A1360974A1380A4
:103BD800974A1370974A1370974A1370974A13704D
:103BE80034B9924B1B88022B1DD801338F4A13809E
:103BF800012C77D0022C00F0AD80914C91492046E1
:103C080005F09EF8904B18221221204605F05AF82C
:103C1800864B1B88032B00F2FD80DFE813F0D000F1
:103C280025015B019101824B1B78824A117864223D
:103C380002FB01F24FF47A7101FB03237F4A1278E9
:103C480002EB820251000B447B4A12781344764AF5
:103C580013607E4A528993421BD0704F3846FCF756
:103C6800DFFAC0F11600400800EB40004100744E36
:103C78003B46242201F0FE01304605F023F8744B40
:103C880030221221304605F01DF8684B00221A80B8
:103C9800AEE7704B0022DA60FDF76CFCFDF738FBED
:103CA8005E4E3046FCF7BCFAC0F11600400800EB47
:103CB80040004100DFF888813346242201F0FE01EC
:103CC800404604F0FFFF644F0FCF30607160B26070
:103CD800F3603B883382614B30221821404604F060
:103CE800F1FF85E7514B1B88032B83D8DFE803F0EE
:103CF800020E1A264E4B1B78082B03D801334C4A68
:103D0800137077E74A4B00221A7073E7494B1B7808
:103D1800082B03D80133474A13706BE7454B002241
:103D28001A7067E7454B1B78082B03D80133434AC1
:103D380013705FE73F4B00221A705BE73E4B1B781E
:103D4800082B03D801333C4A137053E73A4B00223F
:103D58001A704FE7354B1B88032B3FF64EAFDFE851
:103D680003F0020D1823324B1B781BB1013B304A7C
:103D7800137042E72E4B09221A703EE72D4B1B7831
:103D88001BB1013B2B4A137037E72A4B09221A70E3
:103D980033E72A4B1B781BB1013B284A13702CE7E9
:103DA800264B09221A7028E7234B1B781BB1013BCD
:103DB800214A137021E7204B09221A701DE7204C75
:103DC8002049204604F0BCFF0021204605F096F863
:103DD800124E174B1A782249304606F0EBFC334650
:103DE80024223021204604F06DFF0121204605F0F1
:103DF80085F8114B1B780093104B1B780D4A1278ED
:103E08001849304606F0D6FC33462422362120468F
:103E180004F058FF284602B0BDE8F081F80B0020F6
:103E280004DE0008EE030020F00B0020AC0B00209D
:103E38005E0C0020F40B00205C0C00205D0C0020C0
:103E4800680A002004180108C0E50008440B002097
:103E5800B0E50008840B002064E5000878E5000858
:103E6800D4E50008D0E500084B4C4C49204604F046
:103E780067FF4B4F4B4E4C4B1A783946304606F08D
:103E880099FC334624223021204604F01BFF0021F0
:103E9800204605F033F8454B1A783946304606F087
:103EA80089FC334624223621204604F00BFF0121E9
:103EB800204605F023F83E4B1B783E4A12783E49CF
:103EC800304606F077FC334624223C21204604F095
:103ED800F9FE9FE7304C3149204604F031FF314E5E
:103EE800324B1B78304A12783349304606F062FC70
:103EF800334624223021204604F0E4FE00212046E7
:103F080004F0FCFF264F2B4B1A783946304606F052
:103F180051FC334624223C21204604F0D3FE0121E3
:103F2800204604F0EBFF224B1A783946304606F05B
:103F380041FC334624224221204604F0C3FE69E7AF
:103F4800154C1649204604F0FBFE164E194B1B78FB
:103F58000093164B1B78144A12781849304606F01D
:103F680029FC334624223021204604F0ABFE0021F0
:103F7800204604F0C3FF0E4B1A780949304606F074
:103F880019FC334624224221204604F09BFE0121DD
:103F9800204604F0B3FF3DE7680A00200418010832
:103FA800D4E50008F80B00205E0C0020F40B00207C
:103FB8005C0C00205D0C0020D8E50008D0E5000866
:103FC8002DE9F04182B005460C465A2200219F484F
:103FD80005F0D8FB642303FB05F39D4AD25A9D4B99
:103FE8001B889A4215D000239B4A13609B4A138072
:103FF8009B4A13709B4A13709B4A13709B4A137019
:104008009B4E9C4A03CA306071609B4A13709B4A5E
:10401800137044B9994B1B782BB9984B01221A702D
:104028008E4B00221A80954B1B781BB1631E9BB2E6
:10403800012B25D9904B1B7833B334B9874B1B8898
:10404800022B58D80133854A1380012C00F08F8049
:10405800022C00F0C5808A4C8A49204604F070FE84
:10406800894B18221221204604F02CFE7B4B1B881A
:10407800032B38D8DFE813F0180144017A01B001A6
:104088007D4B01221A70D5E7DFF818827C4E414635
:10409800304604F055FE764CB4F900306B4F00936F
:1040A80094F9023094F903207849384606F082FBE7
:1040B8003B4620221221304604F004FE94F90730D2
:1040C800009394F9063094F905207149384606F0B2
:1040D80071FB4146304604F033FE3B463022122144
:1040E800304604F0EFFD642000FB05F0584B185AE9
:1040F80002B0BDE8F0815A4B1B785A4A1178642205
:1041080002FB01F24FF47A7101FB0323574A12783C
:1041180002EB820251000B44534A127813444E4A70
:1041280013605C4A928993420ED0554E55493046E9
:1041380004F006FE584B30221221304604F0C2FD2E
:10414800464B00221A8080E7544A4A4B106851684F
:1041580003C3FDF7DDF84A4E4A49304604F0F0FD46
:104168004F4B30220021304604F0ACFD6DE73B4B4D
:104178001B88032B3FF66CAFDFE803F0020E1A260C
:10418800374B1B78082B03D80133354A13705FE788
:10419800334B00221A705BE7324B1B78082B03D88D
:1041A8000133304A137053E72E4B00221A704FE741
:1041B8002E4B1B78082B03D801332C4A137047E782
:1041C800284B00221A7043E7274B1B78082B03D88B
:1041D8000133254A13703BE7234B00221A7037E757
:1041E8001E4B1B88032B3FF636AFDFE803F0020DAA
:1041F80018231B4B1B781BB1013B194A13702AE784
:10420800174B09221A7026E7164B1B781BB1013B86
:10421800144A13701FE7134B09221A701BE7134B3C
:104228001B781BB1013B114A137014E70F4B09228D
:104238001A7010E70C4B1B781BB1013B0A4A13702C
:1042480009E7094B09221A7005E700BFF80B00209F
:1042580004DE0008EE030020F00B0020AC0B002069
:104268005E0C0020F40B00205C0C00205D0C00208C
:10427800540C0020640B0020530C0020520C00202A
:10428800680A002004180108C0E5000864DD000879
:104298000CE50008440B0020B0E50008880C00205D
:1042A80020E500080C3A0108614C6249204604F0F8
:1042B80047FD0021204604F021FE5F4E5F4B1A782F
:1042C8005F49304606F076FA3346242230212046EC
:1042D80004F0F8FC0121204604F010FE594B1B782D
:1042E8000093594B1B78594A12785949304606F0C1
:1042F80061FA334624223621204604F0E3FCF2E634
:104308004B4C4C49204604F01BFD4D4F4A4E4B4B3D
:104318001A783946304606F04DFA334624223021C1
:10432800204604F0CFFC0021204604F0E7FD474B6F
:104338001A783946304606F03DFA334624223621AB
:10434800204604F0BFFC0121204604F0D7FD3D4B78
:104358001B783D4A12783F49304606F02BFA33461F
:1043680024223C21204604F0ADFCBCE6304C314907
:10437800204604F0E5FC304E344B1B782F4A127867
:104388003449304606F016FA3346242230212046B6
:1043980004F098FC0021204604F0B0FD284F2A4B79
:1043A8001A783946304606F005FA334624223C216D
:1043B800204604F087FC0121204604F09FFD214B94
:1043C8001A783946304606F0F5F933462422422158
:1043D800204604F077FC86E6154C1649204604F082
:1043E800AFFC154E184B1B780093184B1B78134ADB
:1043F80012781749304606F0DDF933462422302179
:10440800204604F05FFC0021204604F077FD0D4BA8
:104418001A780B49304606F0CDF93346242242215A
:10442800204604F04FFC0121204604F067FD5AE6BF
:10443800680A002004180108F80B00205E0C002010
:10444800D4E500085C0C00205D0C0020F40B002073
:10445800D0E50008D8E5000810B584B00024019420
:1044680003943F230093012302936946114803F004
:1044780061F8114B1C70104B1B78052B0AD80E489D
:1044880000EB8302002151709170D17011710133DA
:104498000370F0E7094B00225A739A73DA731A73A0
:1044A8001A709A701A7402F0B7FA034BD86104B004
:1044B80010BD00BF00100140600C0020700B0020F0
:1044C80000B583B002F0A8FABC4BDB69C01A01281A
:1044D80002D803B05DF804FB0821B94803F01EF9BF
:1044E800D0B9B84B01221A741A7300225A739A73FE
:1044F800DA735B7C0BB1B34B5A74B24B1B780193E4
:104508000022009213460121AF4806F0B5F802F0E8
:1045180083FAAA4BD861DCE70121A94803F0FEF829
:1045280040B9022100F1804000F5883003F0F6F828
:1045380000286ED00121A24803F0F0F848B9022102
:1045480000F1804000F5883003F0E8F8002800F01A
:10455800858001219A4803F0E1F8012800F098804D
:104568000121974803F0DAF8012800F0B180012111
:10457800934803F0D3F848B9022100F1804000F5D0
:10458800883003F0CBF8002800F0C38001218C4864
:1045980003F0C4F848B9022100F1804000F58830E2
:1045A80003F0BCF8002800F0CC800121844803F017
:1045B800B5F8012800F0E1800121814803F0AEF848
:1045C80048B9022100F1804000F5883003F0A6F8D0
:1045D800012800F00B810121794803F09FF8002899
:1045E80095D1022100F1804000F5883003F096F85B
:1045F80001288CD10421724803F090F8012886D153
:10460800704B00221A7301225A73704806F0BAF8E8
:104618007DE7042100F1804000F5883003F07EF842
:10462800012887D1674B197811B11B7C012B81D1E7
:10463800644B00225A739A731A73DA7301B11A70B1
:10464800604B9B6813B15F4B00229A605D4B002260
:104658001A7419785E4806F00FF858E7042100F13B
:10466800804000F5883003F059F801287FF471AFD5
:10467800544B197801297FF46CAF00221A73012278
:104688005A739A7302229A70524805F0F5FF3EE772
:1046980002214B4803F042F800287FF461AF04215F
:1046A80000F1804000F5883003F038F801287FF4E5
:1046B80057AF444B1B78012B3FF652AF414B0022BA
:1046C8001A73012199731970434805F0D5FF1EE745
:1046D80002213B4803F022F800287FF448AF042168
:1046E80000F1804000F5883003F018F800287FF4C6
:1046F8003EAF344B1B78012B7FF439AF314B01218E
:104708001973197099730022DA73344805F0B4FFED
:10471800FDE6042100F1804000F5883002F0FEFF3C
:1047280000287FF433AF274B1A78012A7FF42EAF85
:1047380001211973997399700B46294805F09CFF5C
:10474800E5E6042100F1804000F5883002F0E6FF3C
:1047580000287FF42AAF1B4B1B78002B7FF425AF72
:10476800184A0121117300215173917392780092B4
:104778000A461C4805F080FFC9E60221104802F0ED
:10478800CDFF00287FF418AF042100F1804000F528
:10479800883002F0C3FF00287FF40EAF094B1B7866
:1047A800002B7FF409AF074B012119731970997316
:1047B8000022DA730C4805F05FFFA8E6600C0020C1
:1047C80000100140700B002014E70008BCE9000845
:1047D80068E7000884E70008D0E70008FCE700085D
:1047E80040E80008A0E8000830E90008042109486A
:1047F80002F094FF00287FF4EEAE074B19780029E9
:104808007FF4E9AE01221A735A73044805F034FFA5
:104818007DE600BF00100140700B002078E9000819
:1048280008B5094B00221A71084BDB7803B908BD9B
:1048380001224FF48071064802F077FF02F0ECF88D
:10484800014B1860F3E700BF800C0020440B0020E8
:10485800000C014008B5054B03221A7100224FF4E1
:104868008071034802F061FF08BD00BF800C002082
:10487800000C014008B502F0CFF8194A1368C01AB5
:104888001379012B10D05AB212B1022B1AD008BDDD
:104898006428FCD900224FF48071124802F045FFC9
:1048A8000F4B03221A71F2E740F2DC539842EED91B
:1048B80000224FF480710B4802F037FF084B0322A7
:1048C8001A71E4E7B0F57A7FE1D94FF480710548B1
:1048D80002F031FF02F0A0F8014B1860D7E700BFE3
:1048E800800C0020000C014070B586B000260496AC
:1048F8000E4B9A6942F008029A619B6903F008031B
:104908000193019B4FF480750295012303930223C1
:104918000593074C02A9204602F00CFE32462946B0
:10492800204602F002FF06B070BD00BF0010024032
:10493800000C014000B58BB0B0F90030A3F26C73E5
:10494800069390F90230013B059390F903300493E4
:1049580090F90530039390F90630029390F90730E7
:1049680001934FF0FF33099301A804F0EDFF0BB05A
:104978005DF804FB38B50D460A4C2268136823F02D
:1049880001031360FFF7D6FF4FF4616101FB0501D6
:10499800204602F070FD2268136843F0010313609B
:1049A80038BD00BF940C002008B502F035F81D4B47
:1049B80018601D481D4B03604FF0FF334360002310
:1049C800836002F0E3FC88B90121174802F0AAFDD0
:1049D8004AF2A55398420CD1154B5A6A5B6A154B9B
:1049E80001221A60104802F05DFD08BDFCF7C0FA0C
:1049F800EAE711486FF01C030370072343700A238A
:104A080083701123C37007214171232383711423F9
:104A1800C371FFF7AFFF4AF2A5520121024802F025
:104A280079FDDFE7900C0020940C0020002800405E
:104A380000100240E0044242880C002010B582B009
:104A48000446009100230193684604F089FD036839
:104A5800E3714368A37183686371C368E370836912
:104A68000133237103690133A370436903F26C7343
:104A7800238002B010BD000000B583B002F0E8FC4E
:104A8800019001990248FFF7D9FF03B05DF804FBD4
:104A9800880C002008B50E480E4B03604FF4827353
:104AA800436000238360C360036143614FF4007275
:104AB80082612822C2610362436283620A23C3625D
:104AC80001F066FC00B908BDFCF752FAFBE700BF2D
:104AD800A80C00200030014000B587B000230293E5
:104AE8000393049305930268124B9A4202D007B0CD
:104AF8005DF804FB03F560439A6942F480529A61B9
:104B08009A6902F480520092009A9A6942F004026B
:104B18009A619B6903F004030193019BA02302930C
:104B2800022303930323059302A9034802F002FD1D
:104B3800DDE700BF003001400008014008B5074824
:104B4800074B03600323436040F6FF73836001F063
:104B580029FD00B908BDFCF70BFAFBE7000D0020A2
:104B68000030004008B500220F49104802F0F2FF5B
:104B780070B90F490D4803F004F860B90D490B48A6
:104B880003F0CEFC50B9094803F002F848B908BD53
:104B9800FCF7EEF9EDE7FCF7EBF9EFE7FCF7E8F9DE
:104BA800F1E7FCF7E5F9F2E7040000200C0D00201E
:104BB8007000002054000020022805D8DFE800F02B
:104BC80005040200012070470220704702680E4B5E
:104BD8009A4200D0704700B583B003F5DA33DA693A
:104BE80042F40002DA61DB6903F400030193019BDC
:104BF80000221146142002F0C3FD142002F0F4FD37
:104C080003B05DF804FB00BF005C004008B500F28B
:104C18002C41D0F85C0402F0D5FF08BD08B500EBC4
:104C28004113D3F83C22D0F85C0402F0F9FF08BD28
:104C380008B500EB4113DA6BD0F85C0403F026F8F2
:104C480008BD08B5D0F85C0403F0AAF808BD10B593
:104C580004468368022B09D10121D4F85C0403F0CF
:104C68008DF8D4F85C0403F06AF810BDFCF780F9FD
:104C7800F2E7000010B50446D0F85C0403F081F8B0
:104C8800A36923B1024A136943F00603136110BDF7
:104C980000ED00E008B5D0F85C0403F07BF808BD2F
:104CA80010B504461D48C0F85C44C4F820021C4BEB
:104CB8000360082343600223836000238361C36188
:104CC800036200F0DDF930BB182300221146D4F846
:104CD800200200F030FE582300228021D4F8200260
:104CE80000F029FEC02300228121D4F8200200F020
:104CF80022FE4FF4887300220121D4F8200200F02C
:104D08001AFE4FF4807300228221D4F8200200F0AA
:104D180012FE002010BDFCF72BF9D5E7300F00205C
:104D2800005C004008B5D0F8200200F014FAFFF744
:104D380043FF08BD10B51C4613462246D0F8200292
:104D480000F034FAFFF738FF10BD08B5D0F820029C
:104D580000F055FAFFF730FF08BD08B5D0F820027B
:104D680000F094FDFFF728FF08BD08B5D0F8200231
:104D780000F0BAFDFFF720FF08BDD0F8203211F08F
:104D8800800F06D101F07F0103EB411191F82A024F
:104D9800704701F07F0103EB411191F82A00704739
:104DA80008B5D0F8200200F0EDF9FFF705FF08BDBF
:104DB80008B5D0F8200200F06FFAFFF7FDFE08BD35
:104DC80008B5D0F8200200F041FAFFF7F5FE08BD5B
:104DD80008B5D0F8200200F058FA08BD004870471E
:104DE800F80300207047704712230B800048704773
:104DF8002000002004230B80004870473400002066
:104E08000023934216D230B40BE0373401F8134034
:104E180000015C00013400250D550133DBB29342DB
:104E280006D2040F092CF0D8303401F81340EFE70C
:104E380030BC70477047000038B50A4B1868043317
:104E48001C6804331B68C01800D138BD064D082201
:104E5800A91CFFF7D5FF042205F112012046FFF730
:104E6800CFFFF2E7E8F7FF1F3800002008B51A2344
:104E78000B80FFF7E1FF014808BD00BF38000020A4
:104E880008B50A4628B90549054803F0FCF903485E
:104E980008BD0249024803F0F6F9F8E7901300202C
:104EA80020EA000810B5044C0A462146034803F0DE
:104EB800EAF9204610BD00BF901300200CEA000854
:104EC80008B50A4628B90549054803F0DCF903483E
:104ED80008BD0249024803F0D6F9F8E7901300200C
:104EE800F0E9000808B50A4628B90549054803F05D
:104EF800CAF9034808BD0249024803F0C4F9F8E7B3
:104F080090130020FCE9000800207047002070473B
:104F180010B5054C0146204603F011FB204603F06E
:104F28002BFB002010BD00BF0C0D002010B5064C57
:104F380000220649204603F0FAFA0549204603F004
:104F4800FEFA002010BD00BF0C0D002078190020CB
:104F580090150020094BD3F81832D3F814320BB14E
:104F68000120704710B50A460146044C204603F05C
:104F7800DEFA204603F0E9FA10BD00BF0C0D002050
:104F88007047FEE7FEE7FEE7FEE7704770477047A9
:104F980008B501F035FD08BD08B5024800F0C6FBAC
:104FA80008BD00BF300F002008B5024802F090FA93
:104FB80008BD00BF940C002008B5024802F0AEF905
:104FC80008BD00BF940C002008B5022002F0B8FB11
:104FD800022002F0B4FB08BD7047000082B00E4BFF
:104FE8009A6942F001029A619A6902F001020092FC
:104FF800009ADA6942F08052DA61DB6903F0805383
:105008000193019B054A536823F0E06343F0007362
:10501800536002B0704700BF00100240000001401A
:105028000268144B9A4200D0704700B583B002F072
:105038000DFC114BDA6942F00062DA61DB6903F0BA
:1050480000630193019B0D4B01221A600022114657
:10505800032002F095FB032002F0C6FB0022114654
:10506800292002F08DFB292002F0BEFB03B05DF879
:1050780004FB00BF00280040001002403C044242EC
:10508800002866D0F0B587B0044690F829345BB3A1
:10509800032384F82934206800F074FC254655F869
:1050A800107B6E460FCD0FC62B683360231D0ECBC9
:1050B800384600F058FC0021206800F06DFC002301
:1050C8000E2B16D804EB4312012182F8291082F81E
:1050D80028309386002182F82B109163D1639A1CA3
:1050E8005201A1500133EBE780F82834FFF76EFD39
:1050F800CEE700230E2B13D804EB4312002182F8CD
:10510800291282F82832938682F82B12C2F83812B4
:10511800C2F83C1203F112025201A1500133E9E72F
:10512800254655F8107B6E460FCD0FC62B683360A9
:10513800231D0ECB384600F031FC002584F824509E
:10514800012384F82934206800F03CFF284607B082
:10515800F0BD0120704790F82834012B10D010B50D
:105168000446012180F82814FFF73DFE206800F06E
:1051780027FF206800F0FEFB002084F8280410BDFB
:105188000220704790F82834012B0DD010B5044642
:10519800012380F8283480F82410006800F00AFF02
:1051A800002084F8280410BD0220704738B54DB29D
:1051B800002D1CDB01F07F04640104F50A7404442B
:1051C80001F07F012170ED0F65702261E37090F8A6
:1051D8002834012B11D00546012380F828342146B4
:1051E800006800F0F1FB002085F8280438BD01F0C4
:1051F8007F04640128340444E2E70220F6E74AB257
:10520800002A1BDB01F07F035B0103F50A730344EB
:1052180001F07F011970D20F5A7090F82824012AE2
:1052280012D010B50446012280F8282419460068D7
:1052380000F05EFD002084F8280410BD01F07F0313
:105248005B0128330344E3E70220704770B501F09F
:105258007F056C0104F50A7101440444C4F83C223A
:1052680005F112025201861883500023736084F8F6
:10527800293284F8285225B9006800F0BFFE0020C2
:1052880070BD006800F0BAFEF9E701F00F011231B5
:1052980000EB41118888704770B501F07F056C01FB
:1052A80004F1280101440444E263AA1C520186184F
:1052B800835000237360012384F8293084F8285030
:1052C80025B9006800F09AFE002070BD006800F063
:1052D80095FEF9E770B582B004460023ADF80630B4
:1052E800ADF804308DE103889BB223F4E14323F049
:1052F80070039BB203802268B2F8503094F82810EB
:1053080003EBC103023302EB4303D3F80034C3F3C6
:1053180009036364E26B1344E36300212046FFF74B
:1053280087FC94F82430002B00F06B81236C002B51
:1053380040F0678194F82430226843F08003A2F893
:105348004C30002384F824305BE1B0F8503094F8F6
:10535800282203EBC203063300EB4303D3F80034DF
:10536800C3F30903C4F84432B4F82C2204F22C41E4
:1053780000F0A1FF2268138823F070031B051B0DA2
:1053880013802046FFF742FC3BE1B4F82C22D4F806
:105398003C1200F090FFD4F84422D4F83C32134475
:1053A800C4F83C326BE1C1F34F0311F0010F01D097
:1053B80001339BB29B029BB2C2F800347CE130F807
:1053C80025309BB2ADF80430BDF8043013F4004F1B
:1053D80035D1BDF8043013F0800F00F01281226837
:1053E80032F825309BB223F4E14323F070039BB2DB
:1053F80022F8253004EB451393F83230002B40F0A7
:10540800B2802068B0F8503004EB451292F828209A
:1054180003EBC203023300EB4303D3F80034C3F3B6
:105428000903AA1C04EB42125360002B00F0C98048
:1054380004EB45118A8DC96B00F0CBFDC1E030F853
:10544800253023F070031B051B0D20F8253004EBD5
:10545800451393F83232D3B92068B0F8503004EBD2
:10546800451292F8282203EBC203063300EB4303EC
:10547800B3F80064C6F3090686B304EB4511334656
:10548800B1F82C22D1F83C1200F015FF26E0206874
:1054980004EB451393F8282230F8223013F4804F98
:1054A80042D0B0F8503003EBC203023300EB4303A1
:1054B800B3F80064C6F3090666BB226804EB45131B
:1054C80093F8281232F8213023F0F0031B051B0D46
:1054D80043F4004343F0C00322F8213005F11203DE
:1054E8005B01E1184A6832444A6004EB4511D1F87F
:1054F8003C223244C1F83C22E3581BB1D1F838129F
:105508008E4228D204EB451393F828122046FFF761
:1055180085FB5EE704EB45113346B1F82E22D1F83E
:105528003C1200F0C8FEC8E7B0F8503003EBC203E5
:10553800063300EB4303B3F80064C6F30906002EF4
:10554800BBD004EB45113346B1F83022D1F83C12F8
:1055580000F0B1FEB1E704EB451191F8281220469E
:10556800FFF774FE35E7206804EB451393F828200D
:1055780030F8223013F0400F00F0B480B0F850300B
:1055880003EBC203023300EB4303D3F80034C3F345
:105598000903AA1C04EB42125360002B40F09B80C5
:1055A800226804EB451393F8281032F8213023F0D1
:1055B800F0031B051B0D43F4404343F0800322F81E
:1055C80021302268B2F8503004EB451090F82810CA
:1055D80003EBC103023302EB4303D3F80024C2F305
:1055E8000902AB1C5B01E1184A60C16B0A44C26343
:1055F800E358002B40F08F8090F828102046FFF7E2
:1056080017FB2068B0F844309BB2ADF8063013F4AD
:10561800004F00F08880BDF8065015F00F057FF4A4
:10562800CEAEBDF8063013F0100F3FF45CAE038821
:105638009BB2ADF80430BDF8043013F4006F7FF46A
:1056480084AEBDF8043013F4004FDAD0038823F099
:1056580070031B051B0D03802068B0F8503094F8C8
:10566800282203EBC203063300EB4303D3F80034CC
:10567800C3F30903C4F84432002B7FF486AE00213B
:105688002046FFF7CBFA2368B3F85020063203EB25
:105698004202D4F838123E297FF685AEC1F34F1383
:1056A80011F01F0F01D1013B9BB26FEAC3636FEA90
:1056B80053439BB2C2F80034226813889BB223F488
:1056C800804323F0700383F4405343F4004343F0D2
:1056D8008003138095E704EB4511CA8DC96B00F070
:1056E80078FC5DE7B0F8503003EBC203063300EBFB
:1056F8004303D3F80034C3F30903AA1C04EB421292
:105708005360002B3FF44CAF04EB45110A8EC96B74
:1057180000F05FFC44E704EB451595F82810204697
:10572800FFF7BAFD6DE7002002B070BD10B5044662
:10573800006800F049FC10F4004F45D1206800F0E3
:1057480043FC10F4806F43D1206800F03DFC10F456
:10575800804F08D02268B2F844309BB223F48043CB
:105768009BB2A2F84430206800F02EFC10F4005FD1
:1057780008D02268B2F844309BB223F400539BB29D
:10578800A2F84430206800F01FFC10F4805F30D18C
:10579800206800F019FC10F4006F49D1206800F06F
:1057A80013FC10F4007F64D1206800F00DFC10F4A5
:1057B800807F08D02268B2F844309BB223F480730B
:1057C8009BB2A2F8443010BD2046FFF783FDB5E731
:1057D8002268B2F844309BB223F480639BB2A2F8EB
:1057E80044302046FFF733FA00212046FFF7CAFC71
:1057F800AAE72268B2F840309BB223F004039BB2B8
:10580800A2F840302268B2F840309BB223F0080377
:105818009BB2A2F840302046FFF73CFA2268B2F863
:1058280044309BB223F480539BB2A2F84430AFE7D4
:105838002268B2F8403043F00803A2F840302268EA
:10584800B2F844309BB223F400639BB2A2F8443010
:105858002268B2F8403043F00403A2F840302068D0
:1058680000F0B2FB10F4805F98D12046FFF702FAEF
:1058780094E72268B2F844309BB223F400739BB2D9
:10588800A2F844302046FFF7DCF98DE738B54AB274
:10589800002A1BDB4B0103F50A73034401249C70A7
:1058A80001F07F051D70D20F5A7090F82824A2428B
:1058B80018D00446012280F828241946006800F010
:1058C800F9FA4DB1002084F8280438BD01F07F03AF
:1058D8005B0128330344E1E704F22C41206800F01F
:1058E80076FBEFE70220F0E710B54AB2002A1ADB90
:1058F8004B0103F50A73034400249C7001F07F01F7
:105908001970D20F5A7090F82824012A11D0044631
:10591800012280F828241946006800F002FB0020C4
:1059280084F8280410BD01F07F035B012833034489
:10593800E2E70220F6E711F0800F09D001F07F01BD
:1059480049012831014442B98A728B80002070478E
:10595800490101F50A710144F5E701228A72CB80F9
:105968001B0C0B81F2E784B001A880E80E00002030
:1059780004B07047B0F8403043F43F43A0F84030DB
:1059880000207047B0F8403023F474535B045B0C7C
:10599800A0F84030002070470020704784B038B528
:1059A80005AC84E80E000123A0F840300024A0F8DC
:1059B8004040A0F84440A0F85040FFF7DBFF2046E5
:1059C800BDE8384004B0704710B4CB78032B0FD82B
:1059D800DFE803F0026D54600A7830F822309BB299
:1059E80023F4EC4323F0700343F4007320F82230CF
:1059F8000A7830F8223023F0F0031B051B0D1343FF
:105A080043F4004343F0800320F822308B7A002BC4
:105A180040F0AF804B78002B56D08A885208B0F8F7
:105A280050300C7803EBC40300EB43035200C3F877
:105A380000240A7830F8223013F0400F0BD030F8E9
:105A4800223023F0F0031B051B0D43F4004343F001
:105A5800C00320F822300A7830F822309BB223F4B1
:105A6800E04323F0400383F0200343F4004343F072
:105A7800800320F82230002010BC70470A7830F8E4
:105A880022309BB223F4EC4323F070039BB220F83E
:105A98002230ADE70A7830F822309BB223F4EC4389
:105AA80023F0700343F4C06320F82230A0E70A789B
:105AB80030F822309BB223F4EC4323F0700343F414
:105AC800806320F8223093E78A885208B0F8503073
