:020000040800F2
:100000000050002031940008F14E0008F34E000823
:10001000F54E0008F74E0008F94E000800000000F9
:10002000000000000000000000000000FB4E00087F
:10003000FD4E000800000000FF4E0008014F0008C0
:10004000799400087994000879940008194F000801
:10005000799400087994000879940008394F0008D1
:10006000799400087994000879940008799400083C
:10007000799400087994000879940008799400082C
:10008000799400087994000879940008799400081C
:10009000094F0008799400087994000879940008C1
:1000A00079940008799400087994000879940008FC
:1000B00079940008494F0008799400087994000861
:1000C00079940008799400087994000879940008DC
:1000D00079940008799400087994000879940008CC
:1000E00079940008294F0008799400087994000851
:1000F00079940008799400087994000879940008AC
:10010000799400087994000879940008799400089B
:10011000799400087994000879940008799400088B
:10012000799400087994000879940008799400087B
:1001300000000000000000000000000000000000BF
:1001400000000000000000000000000000000000AF
:10015000000000000000000000000000000000009F
:10016000000000000000000000000000000000008F
:10017000000000000000000000000000000000007F
:10018000000000000000000000000000000000006F
:10019000000000000000000000000000000000005F
:1001A000000000000000000000000000000000004F
:1001B000000000000000000000000000000000003F
:1001C000000000000000000000000000000000002F
:1001D000000000000000000000000000000000001F
:0401E0005FF8E0F1F3
:1001E80010B5054C237833B9044B13B10448AFF369
:1001F80000800123237010BDB80300200000000018
:100208006CD6000808B5034B1BB103490348AFF38C
:10021800008008BD00000000BC0300206CD6000868
:10022800034613F8012B002AFBD1181A013870472E
:1002380010F8012B11F8013B012A28BF9A42F7D088
:10024800D01A704781F0004102E000BF83F00043FC
:1002580030B54FEA41044FEA430594EA050F08BF59
:1002680090EA020F1FBF54EA000C55EA020C7FEA1D
:10027800645C7FEA655C00F0E2804FEA5454D4EB9A
:100288005555B8BF6D420CDD2C4480EA020281EA64
:10029800030382EA000083EA010180EA020281EA9C
:1002A8000303362D88BF30BD11F0004F4FEA0131EE
:1002B8004FF4801C4CEA113102D0404261EB4101FD
:1002C80013F0004F4FEA03334CEA133302D0524283
:1002D80063EB430394EA050F00F0A780A4F101043F
:1002E800D5F1200E0DDB02FA0EFC22FA05F2801879
:1002F80041F1000103FA0EF2801843FA05F359415F
:100308000EE0A5F120050EF1200E012A03FA0EFCDD
:1003180028BF4CF0020C43FA05F3C01851EBE37107
:1003280001F0004507D54FF0000EDCF1000C7EEB24
:1003380000006EEB0101B1F5801F1BD3B1F5001F62
:100348000CD349085FEA30004FEA3C0C04F1010481
:100358004FEA445212F5800F80F09A80BCF1004FAA
:1003680008BF5FEA500C50F1000041EB045141EA2C
:10037800050130BD5FEA4C0C404141EB010111F42D
:10038800801FA4F10104E9D191F0000F04BF0146D8
:100398000020B1FA81F308BF2033A3F10B03B3F1B6
:1003A80020020CDA0C3208DD02F1140CC2F10C0246
:1003B80001FA0CF021FA02F10CE002F11402D8BFA4
:1003C800C2F1200C01FA02F120FA0CFCDCBF41EA70
:1003D8000C019040E41AA2BF01EB0451294330BD3F
:1003E8006FEA04041F3C1CDA0C340EDC04F114041C
:1003F800C4F1200220FA04F001FA02F340EA0300F3
:1004080021FA04F345EA030130BDC4F10C04C4F138
:10041800200220FA02F001FA04F340EA0300294618
:1004280030BD21FA04F0294630BD94F0000F83F462
:10043800801306BF81F480110134013D4EE77FEA45
:10044800645C18BF7FEA655C29D094EA050F08BF91
:1004580090EA020F05D054EA000C04BF1946104672
:1004680030BD91EA030F1EBF0021002030BD5FEAB6
:10047800545C05D14000494128BF41F0004130BDDE
:1004880014F580043CBF01F5801130BD01F0004532
:1004980045F0FE4141F470014FF0000030BD7FEAA5
:1004A800645C1ABF194610467FEA655C1CBF0B46A0
:1004B800024650EA013406BF52EA033591EA030FB7
:1004C80041F4002130BD00BF90F0000F04BF0021AF
:1004D800704730B54FF4806404F132044FF00005E2
:1004E8004FF0000150E700BF90F0000F04BF00215B
:1004F800704730B54FF4806404F1320410F00045C1
:1005080048BF40424FF000013EE700BF42004FEABB
:10051800E2014FEA31014FEA02701FBF12F07F4338
:1005280093F07F4F81F06051704732F07F4208BFEF
:10053800704793F07F4F04BF41F40021704730B5F6
:100548004FF4607401F0004521F000411CE700BF42
:1005580050EA010208BF704730B54FF000050AE0C5
:1005680050EA010208BF704730B511F0004502D5C6
:10057800404261EB41014FF4806404F132045FEAC8
:10058800915C3FF4D8AE4FF003025FEADC0C18BF71
:1005980003325FEADC0C18BF033202EBDC02C2F163
:1005A800200300FA03FC20FA02F001FA03FE40EAF5
:1005B8000E0021FA02F11444BDE600BF70B54FF0F9
:1005C800FF0C4CF4E06C1CEA11541DBF1CEA1355D7
:1005D80094EA0C0F95EA0C0F00F0DEF82C4481EA3F
:1005E800030621EA4C5123EA4C5350EA013518BF5F
:1005F80052EA033541F4801143F4801338D0A0FB4C
:1006080002CE4FF00005E1FB02E506F00042E0FBF8
:1006180003E54FF00006E1FB03569CF0000F18BFFE
:100628004EF0010EA4F1FF04B6F5007F64F54074A6
:1006380004D25FEA4E0E6D4146EB060642EAC62139
:1006480041EA55514FEAC52040EA5E504FEACE2EA6
:10065800B4F1FD0C88BFBCF5E06F1ED8BEF1004FA9
:1006680008BF5FEA500E50F1000041EB045170BD25
:1006780006F0004646EA010140EA020081EA030169
:10068800B4EB5C04C2BFD4EB0C0541EA045170BD65
:1006980041F480114FF0000E013C00F3AB8014F1DF
:1006A800360FDEBF002001F0004170BDC4F1000428
:1006B800203C35DA0C341BDC04F11404C4F12005A9
:1006C80000FA05F320FA04F001FA05F240EA020004
:1006D80001F0004221F0004110EBD37021FA04F63A
:1006E80042EB06015EEA430E08BF20EAD37070BDF4
:1006F800C4F10C04C4F1200500FA04F320FA05F053
:1007080001FA04F240EA020001F0004110EBD37054
:1007180041F100015EEA430E08BF20EAD37070BDC4
:10072800C4F1200500FA05F24EEA020E20FA04F39D
:1007380001FA05F243EA020321FA04F001F000414C
:1007480021FA04F220EA020000EBD3705EEA430EBD
:1007580008BF20EAD37070BD94F0000F0FD101F0EC
:100768000046400041EB010111F4801F08BF013C25
:10077800F7D041EA060195F0000F18BF704703F063
:100788000046520043EB030313F4801F08BF013DEA
:10079800F7D043EA0603704794EA0C0F0CEA1355A6
:1007A80018BF95EA0C0F0CD050EA410618BF52EA60
:1007B8004306D1D181EA030101F000414FF0000066
:1007C80070BD50EA410606BF1046194652EA430674
:1007D80019D094EA0C0F02D150EA013613D195EAE8
:1007E8000C0F05D152EA03361CBF104619460AD130
:1007F80081EA030101F0004141F0FE4141F470013A
:100808004FF0000070BD41F0FE4141F4780170BD29
:1008180070B54FF0FF0C4CF4E06C1CEA11541DBF8E
:100828001CEA135594EA0C0F95EA0C0F00F0A7F890
:10083800A4EB050481EA030E52EA03354FEA0131BD
:1008480000F088804FEA03334FF0805545EA1313D0
:1008580043EA12634FEA022245EA111545EA106598
:100868004FEA00260EF000419D4208BF964244F12F
:10087800FD0404F5407402D25B084FEA3202B61A4E
:1008880065EB03055B084FEA32024FF480104FF422
:10089800002CB6EB020E75EB030E22BFB61A754696
:1008A80040EA0C005B084FEA3202B6EB020E75EB29
:1008B800030E22BFB61A754640EA5C005B084FEA91
:1008C8003202B6EB020E75EB030E22BFB61A75465E
:1008D80040EA9C005B084FEA3202B6EB020E75EB69
:1008E800030E22BFB61A754640EADC0055EA060E2A
:1008F80018D04FEA051545EA16754FEA06164FEA6D
:10090800C30343EA52734FEAC2025FEA1C1CC0D118
:1009180011F4801F0BD141EA00014FF000004FF0A5
:10092800004CB6E711F4801F04BF01430020B4F166
:10093800FD0C88BFBCF5E06F3FF6AFAEB5EB030C1E
:1009480004BFB6EB020C5FEA500C50F1000041EB1B
:10095800045170BD0EF0004E4EEA113114EB5C04E8
:10096800C2BFD4EB0C0541EA045170BD41F48011BB
:100978004FF0000E013C90E645EA060E8DE60CEAC3
:10098800135594EA0C0F08BF95EA0C0F3FF43BAFE0
:1009980094EA0C0F0AD150EA01347FF434AF95EA97
:1009A8000C0F7FF425AF104619462CE795EA0C0F7B
:1009B80006D152EA03353FF4FDAE1046194622E748
:1009C80050EA410618BF52EA43067FF4C5AE50EA22
:1009D80041047FF40DAF52EA43057FF4EBAE12E712
:1009E8004FF0FF3C06E000BF4FF0010C02E000BFF3
:1009F8004FF0010C4DF804CD4FEA410C7FEA6C5CD6
:100A08004FEA430C18BF7FEA6C5C1BD001B050EA78
:100A1800410C0CBF52EA430C91EA030F02BF90EA63
:100A2800020F0020704710F1000F91EA030F58BF22
:100A3800994208BF90422CBFD8176FEAE37040F084
:100A4800010070474FEA410C7FEA6C5C02D150EA22
:100A5800013C07D14FEA430C7FEA6C5CD6D152EADD
:100A6800033CD3D05DF8040B704700BF84461046A2
:100A780062468C461946634600E000BF01B5FFF7A1
:100A8800B7FF002848BF10F1000F01BD4DF808ED71
:100A9800FFF7F4FF0CBF012000205DF808FB00BF42
:100AA8004DF808EDFFF7EAFF34BF012000205DF89C
:100AB80008FB00BF4DF808EDFFF7E0FF94BF0120E9
:100AC80000205DF808FB00BF4DF808EDFFF7CEFFEA
:100AD80094BF012000205DF808FB00BF4DF808ED29
:100AE800FFF7C4FF34BF012000205DF808FB00BFFA
:100AF8004FEA410C7FEA6C5C02D150EA013C0AD112
:100B08004FEA430C7FEA6C5C02D152EA033C02D103
:100B18004FF0000070474FF0010070474FEA410264
:100B280012F5001215D211D56FF47873B3EB625237
:100B380012D94FEAC12343F0004343EA505311F05E
:100B4800004F23FA02F018BF404270474FF00000F0
:100B5800704750EA013005D111F0004008BF6FF02E
:100B6800004070474FF00000704700BF7BB972B972
:100B78000029BEBF00204FF0004106E008BF002852
:100B88001CBF6FF000414FF0FF3000F0A7B9ADF186
:100B9800080C6DE904CE002909DB002B1ADB00F0F4
:100BA80035F8DDF804E0DDE9022304B0704740427F
:100BB80061EB4101002B1BDB00F028F8DDF804E0B5
:100BC800DDE9022304B0404261EB4101524263EB8C
:100BD80043037047524263EB430300F017F8DDF814
:100BE80004E0DDE9022304B0404261EB41017047B3
:100BF800524263EB430300F009F8DDF804E0DDE955
:100C0800022304B0524263EB430370472DE9F047D7
:100C18008C460446089E002B40F086808A42154682
:100C280048D9B2FA82F24AB1C2F1200701FA02F3B6
:100C380020FA07F7954047EA030C94404FEA154E0F
:100C4800BCFBFEF71FFA85F80EFB17C307FB08F974
:100C5800210C41EA0343994509D9EB1807F1FF3103
:100C680080F0E180994540F2DE80023F2B44A3EBFF
:100C78000903B3FBFEF00EFB103300FB08F1A4B22E
:100C880044EA0344A14209D92C1900F1FF3380F04A
:100C9800C880A14240F2C58002382C4440EA07408F
:100CA8000027641A1EB10023D440C6E90043394620
:100CB800BDE8F087002A54D0B2FA82F2002A40F048
:100CC800B4800127491B4FEA15481FFA85F9B1FB83
:100CD800F8FE08FB1E1109FB0EF04FEA144C4CEA13
:100CE8000143984207D9EB180EF1FF3102D298421E
:100CF80000F2EB808E461B1AB3FBF8F008FB1033AA
:100D080009FB00F9A4B244EA0344A14507D92C1908
:100D180000F1FF3302D2A14500F2DB801846A4EBB4
:100D2800090440EA0E40BDE78B4208D9002E75D071
:100D38000027C6E9000138463946BDE8F087B3FA0E
:100D480083F77FB98B4202D3824200F2BC80841AB7
:100D580061EB030301209C46002EA8D0C6E9004C95
:100D6800A5E7FFDEC7F12005BB4022FA05FC4CEAE7
:100D7800030C21FA05F44FEA1C4EB4FBFEF91FFAE6
:100D88008CF80EFB194420FA05F3B94009FB08FA60
:100D980019430B0C43EA0444A24502FA07F200FA8D
:100DA80007F30BD91CEB040409F1FF3080F08980AC
:100DB800A24540F28680A9F102096444A4EB0A0422
:100DC800B4FBFEF00EFB104400FB08FA89B241EABE
:100DD8000444A24508D91CEB040400F1FF316CD28D
:100DE800A2456AD90238644440EA0940A0FB028956
:100DF800A4EB0A044C454146CE4655D352D0002EAA
:100E08006AD05A1A64EB0E0404FA05F522FA07F3BD
:100E1800FC401D43C6E90054002748E737463046E2
:100E280045E718463AE70F4621E79540C2F1200307
:100E380021FA03F04FEA1548B0FBF8F71FFA85F9D5
:100E480008FB170E24FA03FC914007FB09FA4CEA49
:100E58000101080C40EA0E40824504FA02F407D961
:100E6800281807F1FF332AD2824528D9023F28449F
:100E7800A0EB0A00B0FBF8FC08FB1C000CFB09F314
:100E880089B241EA00418B4208D969180CF1FF3058
:100E980011D28B420FD9ACF1020C2944C91A4CEA81
:100EA800074714E74345AAD2B8EB020169EB0C02E5
:100EB80001389646A3E78446F0E7084694E71F46BC
:100EC800D6E781467AE7384646E7AEF1020E2B446C
:100ED80011E702382C4422E73746E8E6704700BF9E
:100EE8004B2901D00020704708B532B101224021BA
:100EF800054806F0CEFB012008BD0022402102482B
:100F080006F0C7FB0120F7E70008014030B583B0C1
:100F1800182919D014461D4619291DD0172902D0A1
:100F2800002003B030BD6CB115F8013B8DF80730D7
:100F3800013CE4B2642301220DF107010A4805F0DF
:100F48001BFAF0E70120ECE701221021074806F020
:100F5800A0FB00BF0120E4E700BF002210210348E6
:100F680006F097FB0120DCE7B00C002000080140E8
:100F780008B5024809F034FB08BD00BFBCD600081C
:100F880000B597B000230E93119307930893099324
:100F98000A930B9301930293039304930593069387
:100FA8000D230C934FF480320D920123109312936A
:100FB8000F930223139314924FF4E01315930CA884
:100FC80005F00EFD60BB0F23079302210891002353
:100FD80009934FF480620A920B9307A805F028FF43
:100FE80008BB11230193002306934FF480730293E7
:100FF80001A806F001F8C8B905F0E8FF0D4BA3FBFE
:101008000030800906F0B0FB042006F0C3FB002284
:1010180011464FF0FF3006F067FB17B05DF804FB90
:10102800FFF7A6FFCFE7FFF7A3FFDAE7FFF7A0FF79
:10103800E2E700BFD34D621038B505F083FCFFF737
:101048009FFF00F07DF803F0D9FC03F03FFD2D4C25
:1010580001224FF40041204606F01BFB00F006F980
:10106800294D2A4B2A4A2B49284607F025FB2846B2
:1010780008F083F90021284608F086F9002240216B
:10108800204606F006FB0A2005F080FC01224021DC
:10109800204606F0FEFA00F023F94FF4FA7005F046
:1010A80075FC00F02FFE00F053FD03F0CFF903F0BC
:1010B800CFFB03F02DFC00F0E7F905F061FC0446D6
:1010C80005F05EFC284607F0DCFA03F0EBFC05E0CF
:1010D8000D4807F0E3FA05F053FC044600F05EFA09
:1010E80001F0ACF803F0E6F900F0F2FD03F076FB4E
:1010F800094805F030FA05F043FC001B6428EDD9D7
:10110800E6E700BF00080140600A0020E90E000879
:10111800150F00081CE60008080D002008B5013866
:10112800012806D80B461146184603F0C7FEC0B280
:1011380008BD08F09FF9092303604FF0FF30F7E777
:101148002DE9F04186B00024029403940494059498
:10115800184B9A6942F004029A619B6903F00403F0
:101168000193019B144D01224FF40041284606F0DB
:1011780090FA4FF4004302930126039604944FF02B
:101188000208CDF8148002A9284606F087F95027EE
:10119800029703960494CDF8148002A9284606F015
:1011A8007DF932463946284606F073FA06B0BDE89E
:1011B800F08100BF0010024000080140642804D8F4
:1011C80000EB80004300014A53637047002C014044
:1011D80008B50A20FFF7F2FF08BD000008B5024B6A
:1011E8005878FFF7EBFF08BD3C0B00200268094B5D
:1011F8009A4200D0704782B003F564439A6942F47A
:1012080000629A619B6903F400630193019B02B039
:10121800704700BF002C014000B587B0002302933F
:1012280003930493059302680E4B9A4202D007B0C9
:101238005DF804FB03F564439A6942F004029A617D
:101248009B6903F004030193019B4FF4807302939D
:10125800022303930123059302A9034806F01EF90C
:10126800E5E700BF002C01400008014010B519480F
:10127800194B036011234360002383604FF47A7293
:10128800C26003614361836105F04CFAC8B9134930
:1012980060230B604FF496734B6000228A60CA602B
:1012A8000A614A618A610B4805F08EFA60B9094CF7
:1012B8002046FFF7B1FF0021204605F001FB30B9B9
:1012C80010BDFFF755FEE2E7FFF752FEEFE7FFF725
:1012D8004FFEF5E7FC0A0020002C0140E00A002040
:1012E80010B582B0084A1378084C516801915278B9
:1012F8000092DB0800221146204607F04DF92046EF
:1013080007F0CCF902B010BD64D70008600A0020CD
:10131800F8B5194C194D0FCD0FC495E8030084E8B2
:10132800030006F089FA164B00241C60154A9A60DF
:101338000122DA60BCB1144B124A1A600024342C22
:1013480017D824F00305114F0F4E31687A5900233E
:101358002144022006F0C8FAEA593368E3589A4251
:1013680009D10434EBE70A49054806F02FFB01349C
:10137800E0E706F07BFAF8BD4C0B0020840B002058
:10138800D803002000F00108D40300203C0B002003
:10139800E803002070B5174E3446174D0FCD0FC423
:1013A8000FCD0FC40FCD0FC42B682360326B134BC6
:1013B8009A4200D170BD344628220021304608F0F8
:1013C80095F9322373700123B370F3704FF4967359
:1013D800F38040F2D243738140F2BC43B381074BA0
:1013E8003363074B28341868596803C4FFF790FF24
:1013F800E0E700BF3C0B002000F00108AB55FF0000
:10140800900C002070B51D4C0621204606F03EF8D1
:1014180005040521204606F039F82843184DA86030
:101428000821204606F032F806040721204606F077
:101438002DF83043E8600A21204606F027F8060414
:101448000921204606F022F830432861022120466F
:1014580006F01CF84BF6BB33984200D170BD2C4601
:10146800084D0FCD0FC495E8030084E803004BF640
:10147800BB320221014806F001F8EFE79C0C00207E
:10148800840B00204C0B002008B5FFF783FFFFF703
:10149800B9FF0B4B9B7883B1FFF79AFE084B58783E
:1014A800FFF78CFE00F00EF900F02AFB03F0D0F9EC
:1014B80005F066FA034B186008BDFFF78FFEEDE7ED
:1014C8003C0B0020840B0020034B0122DA700349F7
:1014D80009899960DA737047700B00203C0B002073
:1014E800034A0023D3709360D373024A5360704752
:1014F800700B0020840B002008B51C4BDB78012BF7
:1015080011D0012B05D1194B9B78013BDBB2012B84
:1015180020D905F035FA164B1B68C01A4EF6602321
:1015280098421CD808BD114A9278013AD2B2012AD1
:10153800E7D80E4A9268002AE3D10C4BDA709A7009
:101548001A705A745A739A73DA7305F019FA084BB9
:101558001860E7E7054B9B68002BE3D1D9E703F058
:101568002DF905F00DFA024B1860DBE7700B00202F
:10157800A00B002000220B2A0CD8D31C9B0003F1DF
:10158800804303F5D843044931F812101960013239
:1015980092B2F0E7704700BF840B002008B505F051
:1015A800EFF9354B1B68C01AB0F57A7F3AD3334A46
:1015B80013780133DBB213701E2B02D913460022B5
:1015C8001A702D4A1369013313612D4A934201D9C8
:1015D800294B1A612B4B5B7B1BB1274A936801335C
:1015E8009360284BDB7B1BB1234AD3680133D3605C
:1015F800244BDB7863B1234A9368013B936013B9AA
:10160800134600229A601F4B99681F4808F0E8FFAC
:101618001C4B987800F022FB05F0B2F9164B1860C5
:10162800FFF7A8FFFFF768FF03F0D8F8174B1B88F0
:1016380073B9174B1B79012B0BD0022B0FD00F4B13
:101648001B780E2B11D9134807F01BF800F062FA2B
:1016580008BD104807F015F800F016F9F8E70D482E
:1016680007F00FF800F056FAF2E70A4807F009F811
:1016780000F00AF9ECE700BF840B00209C0B002067
:10168800001EF8BB700B00206CDB0008EC03002088
:101698003C0B0020600A002010B5094C01212046AF
:1016A80007F0E0FB80231F220021204607F0A4FB5F
:1016B800402300224121204607F0B9FB10BD00BF9E
:1016C800600A002008B5044806F0DBFF05F058F969
:1016D800024B586008BD00BF600A0020A40B002020
:1016E80038B505460E4C0F49204607F0DDFA0E4B7B
:1016F80006224421204607F099FA0C49204607F0B3
:10170800D3FA35B10A4B19225421204607F08EFA34
:1017180038BD084B19224C21014807F087FAF7E732
:10172800600A0020A0FA000898DB0008B846010803
:10173800A0DB0008A4DB000810B5044609490A48E4
:1017480007F0B2FA34B1094B16220121064807F016
:101758006DFA10BD064B16220121034807F066FA00
:10176800F7E700BF98500108600A0020A8DB0008CE
:10177800B0DB000810B5044609490A4807F094FA96
:1017880034B1094B36220121064807F04FFA10BD43
:10179800064B36220121034807F048FAF7E700BF55
:1017A80098500108600A002088DB000890DB0008D8
:1017B80000B583B00F4B1B7803420ED00E4A137846
:1017C8005168019152780092DB08262248210B4883
:1017D80006F0E2FE03B05DF804FB094A137851688D
:1017E800019152780092DB0826224821034806F02E
:1017F800D3FEEFE7A40B002014D70008600A0020EE
:10180800C4D6000830B583B0E8B1194C0021204691
:1018180007F028FB1749204607F046FA164DAA6834
:101828001649684608F004FF6B46362268212046B0
:1018380007F0FCF90121204607F014FBAB68ABB9AF
:1018480000226A7412E00A4C0D49204607F02CFA6F
:101858000021204607F006FB0A4B36226621204667
:1018680007F0E4F90121204607F0FCFA03B030BD87
:10187800600A0020442F0108700B002080DB00085C
:1018880050290108A4DB000810B505F079F8164BBB
:101898005B68C01AC82810D9134A1378DB43137041
:1018A80053780133DBB253700A2B02D91346002256
:1018B8005A7005F065F80C4B58600C4806F0E1FECC
:1018C8000B4C207BFFF70CFF607BFFF735FFA07BFD
:1018D800FFF750FFE07BFFF76BFF607CFFF792FF9D
:1018E800FFF7DAFE10BD00BFA40B0020600A00203D
:1018F800700B002010B586B0214B93F9073013F018
:10190800010F33D01E4A92F9063092F905201D497D
:1019180003A808F08DFE1C4C1C49204607F0C4F9AA
:101928000021204607F09EFA03AB0E220121204633
:1019380007F07CF90121204607F094FA1449204663
:1019480007F0B2F90E4AB2F90030009392F902306A
:1019580092F903200F4903A808F06AFE03AB1B2283
:101968000721204607F062F906B010BD044A92F933
:10197800063092F90520084903A808F059FECAE77D
:10198800900C0020B8DB0008600A002034400108F1
:10199800D40C0108D8DB0008C8DB000830B583B0D8
:1019A8000546134C1349204607F07EF9124B2822AE
:1019B8000221204607F03AF90021204607F052FAA2
:1019C8002A460E49684608F033FE6B46282219213C
:1019D800204607F02BF90121204607F043FA084B6F
:1019E80028223721204607F021F903B030BD00BF77
:1019F800600A00207CFD000800DC000808DC000804
:101A080010DC000830B583B00546134C1349204656
:101A180007F04AF9124B32220221204607F006F954
:101A28000021204607F01EFA2A460E49684608F0AB
:101A3800FFFD6B4632221921204607F0F7F80121F5
:101A4800204607F00FFA084B32223721204607F0CC
:101A5800EDF803B030BD00BF600A00207CFD00082F
:101A6800E8DB000808DC000810DC000830B583B0AB
:101A78000546134C1349204607F016F9124B3C2231
:101A88000221204607F0D2F80021204607F0EAF9A3
:101A98002A460E49684608F0CBFD6B463C221921C0
:101AA800204607F0C3F80121204607F0DBF9084B70
:101AB8003C223721204607F0B9F803B030BD00BFFB
:101AC800600A00207CFD0008F0DB0008F8DB000855
:101AD80010DC000810B5094C0121204607F0C2F9B6
:101AE80080231F220021204607F086F94023002288
:101AF8004121204607F09BF910BD00BF600A002075
:101B080010B5034C0023237004F03AFF606010BD49
:101B1800AC0B002038B5FFF7DDFFFFF7EBFE0A4DF1
:101B2800A8680A4CA4FB0030C00AFFF737FFE86832
:101B3800A4FB0030C00AFFF765FF2869A4FB00304A
:101B4800C00AFFF793FF38BD840B0020C5B3A291EC
:101B58002DE9F04387B0002404941D4B9A6942F0A4
:101B680010029A619A6902F010020092009A9A692A
:101B780042F008029A619B6903F008030193019BF4
:101B88004FF03C08CDF808804FF00109CDF80C90D3
:101B9800022505950F4F02A9384605F07FFC4FF442
:101BA80070760296CDF80C90049405950A4D02A91A
:101BB800284605F073FC22464146384605F069FD83
:101BC80022463146284605F064FD07B0BDE8F0839B
:101BD80000100240000C01400010014008B528B177
:101BE80001220421044805F054FD08BD0022042107
:101BF800014805F04EFDF8E7000C014008B528B192
:101C080001220821044805F044FD08BD00220821EE
:101C1800014805F03EFDF8E7000C014008B528B181
:101C280001221021044805F034FD08BD00221021CE
:101C3800014805F02EFDF8E7000C014008B528B171
:101C480001222021044805F024FD08BD002220219E
:101C5800014805F01EFDF8E7000C014008B550B337
:101C6800022827D1154A536801335360EBB1144A4F
:101C780001215173042B18D9124A1378013BDBB2A6
:101C880013700F4A936051743BB993600D49062055
:101C980008700A494B6093701370094B0122DA737C
:101CA800084B1978084808F09BFC044B596807480A
:101CB80008F096FC08BDFFF713FCFBE7840B002037
:101CC800700B00200000002014DC000838DC00083D
:101CD80010B5074C207BFFF781FF607BFFF78EFF75
:101CE800A07BFFF79BFFE07BFFF7A8FF10BD00BFBD
:101CF800700B0020016042600123037200234372CD
:101D0800C372704770B586B0002403940494059498
:101D1800184B9A6942F010029A619B6903F010030C
:101D28000193019B4FF4705302930123049302A97A
:101D3800114805F0B3FB114E114D22463146284695
:101D4800FFF7D8FF2246314605F10C00FFF7D2FF16
:101D58002246314605F11800FFF7CCFF22463146EE
:101D680005F12400FFF7C6FF04F00AFE054B1860D2
:101D780006B070BD0010024000100140212000088C
:101D8800B80B0020F40B002010B50446032810D827
:101D9800DFE800F03F0229554FF480513C4805F038
:101DA80071FCC0B904EB44039A003A4B1344002277
:101DB8005A72620022449100364B0B445A7A1B7ABD
:101DC8009A425CD0334A0A44D37A0133DBB2D372E5
:101DD800052B4AD010BD04EB44039A002D4B134445
:101DE80001225A72E5E74FF40061294805F04AFCE0
:101DF80038B904EB44039A00264B134400225A7264
:101E0800D7E704EB44039A00224B134401225A7289
:101E1800CFE74FF480611E4805F034FC38B904EB75
:101E280044039A001B4B134400225A72C1E704EB87
:101E380044039A00174B134401225A72B9E74FF42E
:101E48000051134805F01EFC38B904EB44039A000E
:101E5800104B134400225A72ABE704EB44039A0078
:101E68000C4B134401225A72A3E70A49630018195C
:101E780082000A44507A10720023D372AAE704EB56
:101E88004404A200034B13440022DA72A2E700BF05
:101E980000100140B80B00202DE9F843054688469C
:101EA800002428E0DFF86891484606F0EAFB51492B
:101EB800484606F0F9FE0021484606F0D3FF4E4B8F
:101EC800642202FB043702373846FEF7A9F9C0F14D
:101ED80016035B0803EB430359003B460C2201F051
:101EE800FE01484606F0A2FE0121484606F0BAFF68
:101EF80071E00134E4B2112C77D8404804F02BFB90
:101F08002746642303FB04F33B4AD35AAB42F0D180
:101F1800642303FB0423DE6D002EEAD0B5F5807F31
:101F280008D0B5F5007F05D0B5F5407F02D0B5F5EE
:101F3800806FB7D1DFF8D890484606F0A2FB2D494C
:101F4800484606F0B1FE0021484606F08BFF2C4BB0
:101F58000C221821484606F069FE0121484606F081
:101F680081FF254A642303FB0727023739460020EF
:101F780007F044FA034618220A21484606F056FE9E
:101F88003946012007F03AFA034624220A21484636
:101F980006F04CFE3946022007F030FA034630229C
:101FA8000A21484606F042FE3946032007F026FA81
:101FB80003463C220A21484606F038FE114B1B789E
:101FC800013303EB43039A000F4B02F0FC0201219B
:101FD800484606F02BFE0D490D4806F065FE4146C1
:101FE8002046B0470B4B1D8001E005F47F40BDE85B
:101FF800F88300BFCC1301088CDC0008080D002012
:1020080078DC00080100002088DC0008F8040108DA
:10201800600A0020EE03002008B503281BD8DFE87B
:1020280000F0834102B77D4B41F270721A807C4BFD
:102038001B8883B1B3F5807F0ED0B3F5007F0BD03A
:10204800B3F5407F08D0B3F5806F1CD00146744BC0
:102058001888FFF721FF08BD72490A780132D2B209
:102068000A70042AF2D90A460121117003F5807317
:102078009BB26B4A1380B3F5806FE7D913464FF4D0
:1020880080721A80E2E7674A13780133DBB2137073
:10209800012BDBD9134601221A70614B4FF4807271
:1020A8001A80D3E75D4B41F270721A805C4B1B8833
:1020B800002BD0D0B3F5807F0ED0B3F5007F0BD0C6
:1020C800B3F5407F08D0B3F5806F1ED00146544B5E
:1020D8001888FFF7E1FEBEE752490A78013AD2B202
:1020E8000A70002AF2D10A4604211170A3F5807300
:1020F8009BB24B4A1380FF2BE8D813464FF48062FB
:102108001A80484B01221A70E0E7464A1378013BCF
:10211800DBB21370002BD9D1134604221A70404B3E
:102128004FF440721A80D1E73D4B1B8893B93E4A61
:10213800138801339BB21380012B8CD913460022DC
:102148001A804FF48073364A138001461846FFF709
:10215800A3FE80E7B3F5807F08D0B3F5007F05D0F4
:10216800B3F5407F02D0B3F5806F0CD12D4A1078BB
:10217800184480B22A4B1880284BC8221A80FF21A5
:10218800FFF78AFE67E701461846FFF785FE62E714
:10219800234B1B88E3B1B3F5807F0DD0B3F5007FE7
:1021A8000AD0B3F5407F07D0B3F5806F04D003F4AD
:1021B8007F431B4A138005E0194B00221A80194BF4
:1021C80001221A700146164B1888FFF765FE42E790
:1021D800164BDB6823F07F4323F0FF03144A934236
:1021E8007FF439AF114B9B78012B7FF434AF0F4A42
:1021F800537CDB43DBB253746BB1FFF765F90D4BCE
:1022080000221A7002F0C0FA084B5A7C99780A48E2
:1022180008F0E6F91FE7FFF763F9F0E7F00300209D
:10222800EC03002001000020F4030020700B0020C4
:10223800000101009C0B00204CDC000838B504F0BC
:102248009FFB454B1B68C01A04286BD838BD434B0D
:102258001B88002B34D1424A138801339BB2138068
:10226800642B2DD9134600221A804FF480703B4B03
:1022780018802146FFF710FE22E03A4804F06BF977
:1022880005EB45029300384AD3582046984705EB9A
:1022980045039A00344B13441B7A012B33D0013485
:1022A800E4B2032C40D82046FFF76EFD254604EB28
:1022B80044039A002C4B13441B7A0BB9002CC6D04C
:1022C80005EB45039A00284B13441B7A002BDED1FB
:1022D800254B13449B7A002BD9D123498B18012015
:1022E8009872224B41F2707018808A58204B9A429B
:1022F800C3D005EB4502930000221D491A48184433
:10230800FFF7F8FCC3E7184B13449B7A012BC6D19F
:102318000022134B1A8005EB4505A900124B0B440C
:102328009A72BCE70024BCE7104B1B8813B1013B31
:102338000E4A13800D4B1B8813B9084B00221A80D4
:102348000C4B1B8813B1013B0A4A138004F018FB9D
:10235800014B18607AE700BFF40B0020EC03002063
:10236800F4030020080D0020B80B0020F203002021
:1023780021200008F003002000207047034B044A86
:102388001168526819605A60002070475C0C002080
:10239800900C0020002070470020704700207047F4
:1023A800F0B583B005460C465A2200219C4807F038
:1023B8009DF9642000FB05F09A4B1D5A9A4B1B8827
:1023C8009D4202D0994B00221A80012C23D0022C66
:1023D8007DD03CB9954B1B88042B00F2D18001338A
:1023E800924A1380924C9349204606F05DFC42F2D3
:1023F800F13324220521204606F0B2FB8B4B1B88C3
:10240800052B00F20A81DFE813F0CE0025016A01EE
:10241800A501E0012502854B1B88052BD7D8DFE8ED
:1024280003F003101D2A3744834B93F90530162B0C
:1024380003DC0133804A5371C9E77F4B00225A718C
:10244800C5E77D4B93F906303A2B03DC01337A4A12
:102458009371BCE7784B00229A71B8E7764B93F9F1
:1024680007303A2B03DC0133734AD371AFE7724B61
:102478000022DA71ABE7704B93F903301E2B03DCB3
:1024880001336D4AD370A2E76B4B0022DA709EE7E6
:10249800694B93F902300B2B03DC0133664A9370C6
:1024A80095E7654B00229A7091E7634BB3F90030CA
:1024B80040F63202934203DC01335F4A138086E719
:1024C8005D4B6FF01C021A7007225A707FE7574B5A
:1024D8001B88052B3FF67DAFDFE803F0030F1B27B2
:1024E8003441554B93F905301BB1013B524A5371A6
:1024F8006FE7514B17225A716BE74F4B93F9063030
:102508001BB1013B4C4A937163E74B4B3B229A71D9
:102518005FE7494B93F907301BB1013B464AD3713A
:1025280057E7454B3B22DA7153E7434B93F90330A6
:10253800012B03DD013B404AD3704AE73E4B1F2283
:10254800DA7046E73C4B93F90230012B03DD013B7F
:10255800394A93703DE7384B0C229A7039E7364B6D
:10256800B3F9003040F2E372934203DD013B324A93
:1025780013802EE7304B33221A7008225A7028E74E
:102588002E482D4B1A685B68026043604379073B0D
:102598004371072102F0A2F9294B3C22302124483B
:1025A80006F044FB1EE7224C2649204606F07CFB39
:1025B8000021204606F056FC1F4F194E97F90520BA
:1025C8002149304608F034F8334624221146204683
:1025D80006F02CFB0121204606F044FC97F9073051
:1025E80097F906201949304608F022F83346242284
:1025F8003021204606F01AFBB7F90030009397F90E
:10260800023097F903201249304608F011F8334692
:1026180030221E21204606F009FB284603B0F0BDF3
:10262800000C00208CDC0008EE030020B40B002016
:10263800600A0020C45701085C0C0020900C0020A0
:1026480004E50008CC13010880DB00083CE500081D
:102658000CE500089D4E9E49304606F025FB9D4F2F
:102668009D4C97F905209D49204607F0E1FF234638
:1026780024221146304606F0D9FA0021304606F0E9
:10268800F1FB97F906209649204607F0D1FF23462B
:1026980024223621304606F0C9FA0121304606F0D8
:1026A800E1FB97F907208F49204607F0C1FF234631
:1026B80024224221304606F0B9FAB7F900300093D7
:1026C80097F9023097F903208749204607F0B0FFB1
:1026D800234630221E21304606F0A8FA9DE77B4C9F
:1026E8007B49204606F0E0FA7A4F7B4E97F9063090
:1026F80097F905207D49304607F09AFF3346242292
:102708001146204606F092FA0021204606F0AAFB60
:1027180097F907207249304607F08AFF334624228A
:102728004821204606F082FA0121204606F09AFB4D
:10273800B7F90030009397F9023097F903206A49F6
:10274800304607F075FF334630221E21204606F03A
:102758006DFA62E75D4C5E49204606F0A5FA5D4FCA
:1027680097F907305C4E009397F9063097F90520E2
:102778005F49304607F05CFF334624221146204665
:1027880006F054FA0021204606F06CFB97F9032066
:102798005349304607F04CFF334630221E2120466D
:1027A80006F044FA0121204606F05CFBB7F9003038
:1027B80097F902204F49304607F03AFF3346302256
:1027C8002A21204606F032FA27E7404E4049304693
:1027D80006F06AFA3F4F97F907303F4C009397F994
:1027E800063097F905204249204607F021FF234685
:1027F80024221146304606F019FA97F903203E497B
:10280800204607F015FF234630221E21304606F0E9
:102818000DFA0021304606F025FB97F902203049D1
:10282800204607F005FF234630221146304606F0C1
:10283800FDF90121304606F015FBB7F900202F49B4
:10284800204607F0F5FE234630223C21304606F0AC
:10285800EDF9E2E61D4C1E49204606F025FA1D4F0B
:1028680097F907301C4E009397F9063097F9052021
:102878001F49304607F0DCFE334624221146204625
:1028880006F0D4F997F9023097F903201C4930462D
:1028980007F0CEFE334630221E21204606F0C6F948
:1028A8000021204606F0DEFAB7F900201549304627
:1028B80007F0BEFE334630224221204606F0B6F924
:1028C8000121204606F0CEFAA7E600BF600A0020E4
:1028D800CC1301085C0C0020000C00201CE500084B
:1028E80080DB000824E500080CE500082CE500085A
:1028F80038E5000810E5000848E5000850E500083C
:1029080058E5000808DC0008F8B505460C465A22C8
:1029180000218F4806F0EAFE642000FB05F08D4B8D
:102928001D5A8D4B1B889D4212D08C4B19898C4B9C
:1029380019608C4B00221A808B4BA3FB0123DB0808
:102948008A4A137003EB83035A008A1A884B1A7059
:10295800012C2BD0022C46D034B9824B1B88002B7B
:102968005CD101337F4A13807E4B1B88002B00F01B
:102978009F80012B00F0C4807E4E7F4C314620465C
:1029880006F092F942F2F73324221921204606F084
:10299800E7F83146204606F087F942F2F63324225A
:1029A8005021204606F0DCF82846F8BD6D4B1B8800
:1029B8004BB1012BCED16E4B1B78082B0FD80133AE
:1029C8006B4A1370C6E7694B1B78082B03D8013391
:1029D800664A1370BEE7654B00221A70BAE7644B6B
:1029E80000221A70B6E75F4B1B8843B1012BB3D1A5
:1029F8005F4B1B7873B1013B5D4A1370ACE75B4BCF
:102A08001B781BB1013B594A1370A5E7574B0922A4
:102A18001A70A1E7564B09221A709DE7534B1B7891
:102A280003EB83035A00524B1B7813444C4A136040
:102A38004A4C2381FEF76CFC4F4E5049304606F055
:102A480033F94F4B3C223021304606F0EFF821890C
:102A58004C4807F0C5FD01214B4804F013FE00283F
:102A680082D1022100F1804000F5883004F00AFE8E
:102A780000287FF479AF042100F1804000F5883008
:102A880004F000FE00287FF46FAF404B5B7B13B966
:102A98003E4B01225A733D4B9B7B13B93B4B0122A2
:102AA8009A733A4B9A7B597B394807F099FD5BE753
:102AB800314C3849204606F0F7F80021204606F048
:102AC800D1F9354F224E294B1A783946304607F04E
:102AD800AFFD334624223221204606F0A7F8012113
:102AE800204606F0BFF9224B1A783946304607F0DF
:102AF8009FFD334624223E21204606F097F83BE707
:102B08001D4C2449204606F0CFF8234F104E174B92
:102B18001A783946304607F08BFD33462422322195
:102B2800204606F083F80021204606F09BF9104B5A
:102B38001A783946304607F07BFD334624223E2179
:102B4800204606F073F80121204606F08BF913E7BA
:102B5800000C00208CDC0008EE0300203C0B002059
:102B6800F80B0020B40B0020CDCCCCCC650C002099
:102B7800640C0020C4570108600A0020CC13010827
:102B880004E5000868E4000800100140700B00200C
:102B980088E4000834EA00085CE40008F8B5054653
:102BA8000C465A2200213F4806F0A0FD642000FB95
:102BB80005F03D4B1E5A3D4B1B889E4203D03C4BB3
:102BC800DA783C4B1A60022C2BD0012C34D0394BCC
:102BD8001B68002B3BD0374B1B68012B44D0364D6C
:102BE8003649284606F060F82E4F3846FDF718FBA0
:102BF800C0F11601324B1E2201F0FE01284606F0F4
:102C080015F83846FDF70CFBC0F116012D4B2D22A7
:102C180001F0FE01284606F009F8002C31D03046B4
:102C2800F8BD244B1B681BB90133224A1360CCE75B
:102C3800204B00221A60C8E71E4B1B681BB1013BE2
:102C48001C4A1360C3E71B4B01221A60BFE71A4DE9
:102C58001D49284606F028F842F213731E22042163
:102C6800284605F07DFFB6E7134D1749284606F0BC
:102C78001BF842F213732D220421284605F070FF39
:102C8800ADE70C4B1A780A4BDA70FEF741FB0F4997
:102C9800284606F009F80E4B3C223021284605F05C
:102CA800C5FFBCE7000C00208CDC0008EE03002008
:102CB8003C0B0020F80B0020600A0020981D01083A
:102CC800ECE40008F8E40008C4570108CC13010834
:102CD80004E50008F8B504460D465A2200214E487E
:102CE80006F004FD642000FB04F04C4B1F5A4C4BCB
:102CF8001B889F4203D04B4B1A794B4B1A60022D0D
:102D08003BD0012D45D0484B1B68002B4CD0464B7F
:102D18001B68012B55D0444B1B68022B5ED0434CDB
:102D28004349204605F0C0FF3B4E3046FDF778FA90
:102D3800C0F116013F4B1C2201F0FE01204605F0B0
:102D480075FF3046FDF76CFAC0F116013A4B2822A0
:102D580001F0FE01204605F069FF3046FDF760FAF4
:102D6800C0F11601354B342201F0FE01204605F072
:102D78005DFF002D3FD03846F8BD2B4B1B68012B5B
:102D880003D9294B00221A60BBE70133264A136096
:102D9800B7E7254B1B681BB1013B234A1360B2E719
:102DA800214B02221A60AEE7204C2549204605F047
:102DB8007BFF42F213731C220421204605F0D0FE4B
:102DC800A5E71A4C1E49204605F06EFF42F2137320
:102DD80028220421204605F0C3FE9CE7134C18491D
:102DE800204605F061FF42F2137334220421204685
:102DF80005F0B6FE93E70C4B1A780A4B1A71FEF7EA
:102E080087FA0B49204605F04FFF0E4B3E22302132
:102E1800204605F00BFFAEE7000C00208CDC000814
:102E2800EE0300203C0B0020F80B0020600A002075
:102E3800CC130108CCE40008D4E40008E0E400085E
:102E4800C457010804E500082DE9F04182B00446A2
:102E58000D465A2200213F4806F048FC642000FB3A
:102E680004F03D4B33F800803C4B1B88984503D059
:102E78003B4B5A783B4B1A603B4C3C49204605F08B
:102E880013FF4FF4185324220521204605F068FE4D
:102E9800012D3FD0022D45D0324F3878FEF78EF9FC
:102EA800314C0A2300933B7818221421204605F060
:102EB8009AFB2E49204605F0F7FE42F2EC33302209
:102EC8002821204605F04CFE42F2EB3330224D21FA
:102ED800204605F045FE1F4E3A682549304607F062
:102EE800A7FB2449204605F0DFFE3046FDF798F998
:102EF800C0F11600400800EB400041003346302284
:102F080001F0FE01204605F091FE9DB1404602B059
:102F1800BDE8F081134B1B68632BBBD80133114A02
:102F28001360B7E70F4B1B68002BB5D0013B0D4A68
:102F38001360B1E73A780A4B5A70FEF7E9F90D4980
:102F4800204605F0B1FE0C4B3C223021204605F00E
:102F58006DFEDBE7000C00208CDC0008EE0300208F
:102F68003C0B0020F80B0020600A0020C457010821
:102F7800C4E40008CC13010804E50008F8B50546C8
:102F88000C465A220021414806F0B0FB642000FBA1
:102F980005F03F4B1E5A3F4B1B889E4203D03E4BC9
:102FA8009A783E4B1A60022C2BD0012C34D03B4B24
:102FB8001B68002B3BD0394B1B68012B46D0384D82
:102FC8003849284605F070FE304F3846FDF728F995
:102FD800C0F11601344B1E2201F0FE01284605F00F
:102FE80025FE3846FDF71CF9C0F116012F4B2D229E
:102FF80001F0FE01284605F019FE002C35D03046B8
:10300800F8BD264B1B681BB90133244A1360CCE773
:10301800224B00221A60C8E7204B1B681BB1013BFA
:103028001E4A1360C3E71D4B01221A60BFE71C4DFF
:103038001F49284605F038FE42F213731E22042168
:10304800284605F08DFDFEF7C9F8B4E7144D184978
:10305800284605F029FE42F213732D220421284642
:1030680005F07EFDFEF7B4F8A9E70C4B1A780A4B79
:103078009A70FEF74DF90F49284605F015FE0E4BDC
:103088003C223021284605F0D1FDB8E7000C00208D
:103098008CDC0008EE0300203C0B0020F80B00201D
:1030A800600A0020981D0108A4E40008B4E40008A0
:1030B800C4570108CC13010804E50008F8B5044614
:1030C8000F465A220021284806F010FB642000FB16
:1030D80004F0264B1E5A264B1B889E4202D0254BD5
:1030E80000221A60244B9B68244A934205D94FF466
:1030F800616202FB03F3204A9360214C2149204678
:1031080005F0D2FD42F2F03336223721204605F091
:1031180027FD194B9A681C4BA3FB0232124DD20AA9
:103128001A49284607F084FA1949204605F0BCFDDB
:10313800184B18220C21204605F078FD2846FDF78B
:103148006FF8C0F11600400800EB400041002B4624
:10315800242201F0FE01204605F068FD0FB130463B
:10316800F8BDFEF7D5F8FAE7000C00208CDC000863
:10317800EE030020F80B0020840B0020FF502502EE
:10318800600A0020C4570108C5B3A2919CE5000855
:10319800CC130108A8E50008F8B504460F465A22E2
:1031A8000021284806F0A2FA642000FB04F0264B10
:1031B8001E5A264B1B889E4202D0254B00221A60BD
:1031C800244BDB68244A934205D94FF4616202FB21
:1031D80003F3204AD360214C2149204605F064FDC1
:1031E80042F2F03336223721204605F0B9FC194B5C
:1031F800DA681C4BA3FB0232124DD20A1A49284640
:1032080007F016FA1949204605F04EFD184B18220A
:103218000621204605F00AFD2846FDF701F8C0F111
:103228001600400800EB400041002B46242201F024
:10323800FE01204605F0FAFC0FB13046F8BDFEF756
:1032480067F8FAE7000C00208CDC0008EE03002089
:10325800F80B0020840B0020FF502502600A002094
:10326800C4570108C5B3A2919CE50008CC13010816
:1032780064E50008F8B504460F465A22002128489C
:1032880006F034FA642000FB04F0264B1E5A264B45
:103298001B889E4202D0254B00221A60244B1B69D2
:1032A800244A934205D94FF4616202FB03F3204A92
:1032B8001361214C2149204605F0F6FC42F2F03317
:1032C80036223721204605F04BFC194B1A691C4B56
:1032D800A3FB0232124DD20A1A49284607F0A8F970
:1032E8001949204605F0E0FC184B18220621204613
:1032F80005F09CFC2846FCF793FFC0F11600400837
:1033080000EB400041002B46242201F0FE0120463C
:1033180005F08CFC0FB13046F8BDFDF7F9FFFAE770
:10332800000C00208CDC0008EE030020F80B0020C5
:10333800840B0020FF297515600A0020C457010876
:10334800C5B3A29178E50008CC13010884E500080C
:103358002DE9F04182B005460C465A2200219B48CF
:1033680006F0C4F9642000FB05F0994B1D5A994BEF
:103378001B889D420CD00023974A1360974A1380FC
:10338800974A1370974A1370974A1370974A1370A5
:1033980034B9924B1B88022B1DD801338F4A1380F6
:1033A800012C77D0022C00F0AD80914C9149204639
:1033B80005F07AFC904B18221221204605F036FCC5
:1033C800864B1B88032B00F2FD80DFE813F0D0004A
:1033D80025015B019101824B1B78824A1178642296
:1033E80002FB01F24FF47A7101FB03237F4A127842
:1033F80002EB820251000B447B4A12781344764A4E
:1034080013607E4A528993421BD0704F3846FCF7AE
:1034180007FFC0F11600400800EB40004100744E61
:103428003B46242201F0FE01304605F0FFFB744BB9
:1034380030221221304605F0F9FB684B00221A8031
:10344800AEE7704B00229A60FEF794F8FDF760FF34
:103458005E4E3046FCF7E4FEC0F11600400800EB73
:1034680040004100DFF888813346242201F0FE0144
:10347800404605F0DBFB644F0FCF30607160B260EF
:10348800F36038683061614B30221221404605F004
:10349800CDFB85E7514B1B88032B83D8DFE803F06E
:1034A800020E1A264E4B1B78082B03D801334C4AC0
:1034B800137077E74A4B00221A7073E7494B1B7861
:1034C800082B03D80133474A13706BE7454B00229A
:1034D8001A7067E7454B1B78082B03D80133434A1A
:1034E80013705FE73F4B00221A705BE73E4B1B7877
:1034F800082B03D801333C4A137053E73A4B002298
:103508001A704FE7354B1B88032B3FF64EAFDFE8A9
:1035180003F0020D1823324B1B781BB1013B304AD4
:10352800137042E72E4B09221A703EE72D4B1B7889
:103538001BB1013B2B4A137037E72A4B09221A703B
:1035480033E72A4B1B781BB1013B284A13702CE741
:10355800264B09221A7028E7234B1B781BB1013B25
:10356800214A137021E7204B09221A701DE7204CCD
:103578002049204605F098FB0021204605F072FC02
:10358800124E174B1A782249304607F051F8334645
:1035980024223021204605F049FB0121204605F070
:1035A80061FC114B1B780093104B1B780D4A127865
:1035B8001849304607F03CF8334624223621204685
:1035C80005F034FB284602B0BDE8F081000C00206D
:1035D8008CDC0008EE030020F80B0020B40B002060
:1035E800660C0020FC0B0020640C0020650C0020F9
:1035F800600A0020CC13010848E400083C0B0020B6
:1036080038E40008840B002010E4000824E40008D3
:103618005CE4000858E400084B4C4C49204605F08F
:1036280043FB4B4F4B4E4C4B1A783946304606F00D
:10363800FFFF334624223021204605F0F7FA002107
:10364800204605F00FFC454B1A783946304606F0FF
:10365800EFFF334624223621204605F0E7FA012100
:10366800204605F0FFFB3E4B1B783E4A12783E4948
:10367800304606F0DDFF334624223C21204605F083
:10368800D5FA9FE7304C3149204605F00DFB314E05
:10369800324B1B78304A12783349304606F0C8FF5F
:1036A800334624223021204605F0C0FA0021204666
:1036B80005F0D8FB264F2B4B1A783946304606F0D2
:1036C800B7FF334624223C21204605F0AFFA0121FA
:1036D800204605F0C7FB224B1A783946304606F0DB
:1036E800A7FF334624224221204605F09FFA69E7C6
:1036F800154C1649204605F0D7FA164E194B1B787B
:103708000093164B1B78144A12781849304606F075
:103718008FFF334624223021204605F087FA002106
:10372800204605F09FFB0E4B1A780949304606F0F3
:103738007FFF334624224221204605F077FA0121F3
:10374800204605F08FFB3DE7600A0020CC130108F6
:103758005CE40008000C0020660C0020FC0B002034
:10376800640C0020650C002060E4000858E40008A0
:103778002DE9F04182B005460C465A2200219C48AA
:1037880005F0B4FF642000FB05F09A4B1D5A9A4BD4
:103798001B889D420CD00023984A1360984A1380D6
:1037A800984A1370984A1370984A1370984A13707D
:1037B80034B9934B1B88022B1DD80133904A1380D0
:1037C800012C79D0022C00F0AF80924C924920460F
:1037D80005F06AFA914B18221221204605F026FAC4
:1037E800874B1B88032B00F2FF80DFE813F0D20021
:1037F80027015D019301834B1B78834A117864226A
:1038080002FB01F24FF47A7101FB0323804A12781C
:1038180002EB820251000B447C4A12781344774A27
:1038280013607F4A528993421BD0714F3846FCF788
:10383800F7FCC0F11600400800EB40004100754E4F
:103848003B46242201F0FE01304605F0EFF9754BA6
:1038580030221221304605F0E9F9694B00221A801E
:10386800AEE7714B0022DA60FDF784FEFDF750FDEC
:103878005F4E3046FCF7D4FCC0F11600400800EB60
:1038880040004100DFF88C813346242201F0FE011C
:10389800404605F0CBF9654F0FCF30607160B260DC
:1038A800F36038683061BB88B382614B30220C21E9
:1038B800404605F0BBF983E7514B1B88032B81D8A1
:1038C800DFE803F0020E1A264E4B1B78082B03D8AC
:1038D80001334C4A137075E74A4B00221A7071E79E
:1038E800494B1B78082B03D80133474A137069E703
:1038F800454B00221A7065E7454B1B78082B03D807
:103908000133434A13705DE73F4B00221A7059E7B1
:103918003E4B1B78082B03D801333C4A137051E700
:103928003A4B00221A704DE7354B1B88032B3FF6A4
:103938004CAFDFE803F0020D1823324B1B781BB1A4
:10394800013B304A137040E72E4B09221A703CE7BE
:103958002D4B1B781BB1013B2B4A137035E72A4BC3
:1039680009221A7031E72A4B1B781BB1013B284A00
:1039780013702AE7264B09221A7026E7234B1B7877
:103988001BB1013B214A13701FE7204B09221A7013
:103998001BE7204C2049204605F086F900212046E7
:1039A80005F060FA124E174B1A782249304606F095
:1039B8003FFE334624223021204605F037F9012105
:1039C800204605F04FFA114B1B780093104B1B78DB
:1039D8000D4A12781849304606F02AFE334624224A
:1039E8003621204605F022F9284602B0BDE8F081CC
:1039F800000C00208CDC0008EE030020F80B0020EF
:103A0800B40B0020660C0020FC0B0020640C002086
:103A1800650C0020600A0020CC13010848E4000867
:103A28003C0B002038E40008840B0020C0E30008A9
:103A3800D8E300085CE4000858E400084B4C4C4903
:103A4800204605F031F94B4F4B4E4C4B1A7839460E
:103A5800304606F0EDFD334624223021204605F09D
:103A6800E5F80021204605F0FDF9454B1A7839465E
:103A7800304606F0DDFD334624223621204605F087
:103A8800D5F80121204605F0EDF93E4B1B783E4A5A
:103A980012783E49304606F0CBFD334624223C21BD
:103AA800204605F0C3F89FE7304C3149204605F021
:103AB800FBF8314E324B1B78304A12783349304686
:103AC80006F0B6FD334624223021204605F0AEF834
:103AD8000021204605F0C6F9264F2B4B1A783946A7
:103AE800304606F0A5FD334624223C21204605F049
:103AF8009DF80121204605F0B5F9224B1A78394680
:103B0800304606F095FD334624224221204605F032
:103B18008DF869E7154C1649204605F0C5F8164E8C
:103B2800194B1B780093164B1B78144A12781849C6
:103B3800304606F07DFD334624223021204605F02C
:103B480075F80021204605F08DF90E4B1A780949C1
:103B5800304606F06DFD334624224221204605F00A
:103B680065F80121204605F07DF93DE7600A00204F
:103B7800CC1301085CE40008000C0020660C00204F
:103B8800FC0B0020640C0020650C002060E4000899
:103B980058E400082DE9F04182B005460C465A2247
:103BA80000219B4805F0A2FD642000FB05F0994B1D
:103BB8001D5A994B1B889D420CD00023974A1360CD
:103BC800974A1380974A1370974A1370974A13704D
:103BD800974A137034B9924B1B88022B1DD80133B6
:103BE8008F4A1380012C77D0022C00F0AD80914CC5
:103BF8009149204605F058F8904B1822122120468A
:103C080005F014F8864B1B88032B00F2FD80DFE8D3
:103C180013F0D00025015B019101824B1B78824A89
:103C28001178642202FB01F24FF47A7101FB03233D
:103C38007F4A127802EB820251000B447B4A1278C9
:103C48001344764A13607E4A528993421BD0704FC0
:103C58003846FCF7E5FAC0F11600400800EB4000D2
:103C68004100744E3B46242201F0FE01304604F028
:103C7800DDFF744B30221221304604F0D7FF684B29
:103C880000221A80AEE7704B00221A61FDF772FC21
:103C9800FDF73EFB5E4E3046FCF7C2FAC0F1160057
:103CA800400800EB40004100DFF8888133462422B9
:103CB80001F0FE01404604F0B9FF644F0FCF3060B9
:103CC8007160B260F3603B883382614B3022182107
:103CD800404604F0ABFF85E7514B1B88032B83D884
:103CE800DFE803F0020E1A264E4B1B78082B03D888
:103CF80001334C4A137077E74A4B00221A7073E776
:103D0800494B1B78082B03D80133474A13706BE7DC
:103D1800454B00221A7067E7454B1B78082B03D8E0
:103D28000133434A13705FE73F4B00221A705BE789
:103D38003E4B1B78082B03D801333C4A137053E7DA
:103D48003A4B00221A704FE7354B1B88032B3FF67E
:103D58004EAFDFE803F0020D1823324B1B781BB17E
:103D6800013B304A137042E72E4B09221A703EE796
:103D78002D4B1B781BB1013B2B4A137037E72A4B9D
:103D880009221A7033E72A4B1B781BB1013B284ADA
:103D980013702CE7264B09221A7028E7234B1B784F
:103DA8001BB1013B214A137021E7204B09221A70ED
:103DB8001DE7204C2049204604F076FF00212046CC
:103DC80005F050F8124E174B1A782249304606F083
:103DD8002FFC334624223021204604F027FF0121FE
:103DE800204605F03FF8114B1B780093104B1B78C9
:103DF8000D4A12781849304606F01AFC3346242238
:103E08003621204604F012FF284602B0BDE8F081B2
:103E1800000C00208CDC0008EE030020F80B0020CA
:103E2800B40B0020660C0020FC0B0020640C002062
:103E3800650C0020600A0020CC13010848E4000843
:103E48003C0B002038E40008840B0020ECE3000859
:103E580000E400085CE4000858E400084B4C4C49B6
:103E6800204604F021FF4B4F4B4E4C4B1A783946F5
:103E7800304606F0DDFB334624223021204604F08C
:103E8800D5FE0021204604F0EDFF454B1A7839464F
:103E9800304606F0CDFB334624223621204604F076
:103EA800C5FE0121204604F0DDFF3E4B1B783E4A4B
:103EB80012783E49304606F0BBFB334624223C21AB
:103EC800204604F0B3FE9FE7304C3149204604F009
:103ED800EBFE314E324B1B78304A1278334930466C
:103EE80006F0A6FB334624223021204604F09EFE2D
:103EF8000021204604F0B6FF264F2B4B1A7839468E
:103F0800304606F095FB334624223C21204604F037
:103F18008DFE0121204604F0A5FF224B1A78394670
:103F2800304606F085FB334624224221204604F021
:103F38007DFE69E7154C1649204604F0B5FE164E7D
:103F4800194B1B780093164B1B78144A12781849A2
:103F5800304606F06DFB334624223021204604F01B
:103F680065FE0021204604F07DFF0E4B1A780949B2
:103F7800304606F05DFB334624224221204604F0F9
:103F880055FE0121204604F06DFF3DE7600A002040
:103F9800CC1301085CE40008000C0020660C00202B
:103FA800FC0B0020640C0020650C002060E4000875
:103FB80058E400082DE9F04182B005460C465A2223
:103FC80000219F4805F092FB642303FB05F39D4AFB
:103FD800D25A9D4B1B889A4215D000239B4A1360E6
:103FE8009B4A13809B4A13709B4A13709B4A137019
:103FF8009B4A13709B4E9C4A03CA306071609B4A6F
:1040080013709B4A137044B9994B1B782BB9984B82
:1040180001221A708E4B00221A80954B1B781BB117
:10402800631E9BB2012B25D9904B1B7833B334B94F
:10403800874B1B88022B58D80133854A1380012CE3
:1040480000F08F80022C00F0C5808A4C8A492046F7
:1040580004F02AFE894B18221221204604F0E6FDBE
:104068007B4B1B88032B38D8DFE813F01801440179
:104078007A01B0017D4B01221A70D5E7DFF818826A
:104088007C4E4146304604F00FFE764CB4F90030C1
:104098006B4F009394F9023094F90320784938461D
:1040A80006F0C6FA3B4620221221304604F0BEFD37
:1040B80094F90730009394F9063094F90520714972
:1040C800384606F0B5FA4146304604F0EDFD3B4669
:1040D80030221221304604F0A9FD642000FB05F0CF
:1040E800584B185A02B0BDE8F0815A4B1B785A4A0F
:1040F8001178642202FB01F24FF47A7101FB032369
:10410800574A127802EB820251000B44534A127844
:1041180013444E4A13605C4A928993420ED0554E1E
:104128005549304604F0C0FD584B30221221304624
:1041380004F07CFD464B00221A8080E7544A4A4B23
:104148001068516803C3FDF7E3F84A4E4A49304600
:1041580004F0AAFD4F4B30220021304604F066FDE2
:104168006DE73B4B1B88032B3FF66CAFDFE803F092
:10417800020E1A26374B1B78082B03D80133354A11
:1041880013705FE7334B00221A705BE7324B1B78E2
:10419800082B03D80133304A137053E72E4B002203
:1041A8001A704FE72E4B1B78082B03D801332C4A83
:1041B800137047E7284B00221A7043E7274B1B78F8
:1041C800082B03D80133254A13703BE7234B002201
:1041D8001A7037E71E4B1B88032B3FF636AFDFE814
:1041E80003F0020D18231B4B1B781BB1013B194A26
:1041F80013702AE7174B09221A7026E7164B1B780B
:104208001BB1013B144A13701FE7134B09221A70A4
:104218001BE7134B1B781BB1013B114A137014E7C2
:104228000F4B09221A7010E70C4B1B781BB1013B8E
:104238000A4A137009E7094B09221A7005E700BFFB
:10424800000C00208CDC0008EE030020F80B002096
:10425800B40B0020660C0020FC0B0020640C00202E
:10426800650C00205C0C0020640B00205B0C002017
:104278005A0C0020600A0020CC13010848E400080A
:10428800D8DB000894E300083C0B002038E4000861
:10429800900C0020A8E30008D4350108614C62495D
:1042A800204604F001FD0021204604F0DBFD5F4EAE
:1042B8005F4B1A785F49304606F0BAF93346242234
:1042C8003021204604F0B2FC0121204604F0CAFD4A
:1042D800594B1B780093594B1B78594A1278594906
:1042E800304606F0A5F9334624223621204604F04C
:1042F8009DFCF2E64B4C4C49204604F0D5FC4D4F52
:104308004A4E4B4B1A783946304606F091F93346F7
:1043180024223021204604F089FC0021204604F0A4
:10432800A1FD474B1A783946304606F081F93346E5
:1043380024223621204604F079FC0121204604F08D
:1043480091FD3D4B1B783D4A12783F49304606F0B7
:104358006FF9334624223C21204604F067FCBCE672
:10436800304C3149204604F09FFC304E344B1B78CA
:104378002F4A12783449304606F05AF93346242237
:104388003021204604F052FC0021204604F06AFD4A
:10439800284F2A4B1A783946304606F049F93346F1
:1043A80024223C21204604F041FC0121204604F04F
:1043B80059FD214B1A783946304606F039F933460B
:1043C80024224221204604F031FC86E6154C164989
:1043D800204604F069FC154E184B1B780093184BC7
:1043E8001B78134A12781749304606F021F93346EC
:1043F80024223021204604F019FC0021204604F034
:1044080031FD0D4B1A780B49304606F011F9334649
:1044180024224221204604F009FC0121204604F010
:1044280021FD5AE6600A0020CC130108000C002088
:10443800660C00205CE40008640C0020650C002079
:10444800FC0B002058E4000860E4000810B584B0B4
:104458000024019403943F230093012302936946A7
:10446800114803F01BF8114B1C70104B1B78052BDF
:104478000AD80E4800EB8302002151709170D17068
:10448800117101330370F0E7094B00225A739A73D4
:10449800DA731A731A709A701A7402F071FA034B6D
:1044A800D86104B010BD00BF00100140680C0020A6
:1044B800700B002008B502F063FAB04BDB69C01A34
:1044C800012800D808BD0821AD4803F0DBF870B911
:1044D800AC4B01221A741A7300225A739A73DA7356
:1044E8009A705A7402F04CFAA44BD861EAE7012199
:1044F800A34803F0C7F840B9022100F1804000F555
:10450800883003F0BFF800286AD001219C4803F0E6
:10451800B9F840B9022100F1804000F5883003F075
:10452800B1F800287DD00121954803F0ABF80128A7
:1045380000F08E800121924803F0A4F8012800F0D1
:10454800A48001218E4803F09DF848B9022100F1AA
:10455800804000F5883003F095F8002800F0B3801B
:104568000121874803F08EF848B9022100F1804004
:1045780000F5883003F086F8002800F0B9800121A2
:104588007F4803F07FF8012800F0C88001217C48AB
:1045980003F078F848B9022100F1804000F588302E
:1045A80003F070F8012800F0D7800121744803F067
:1045B80069F8002896D1022100F1804000F5883082
:1045C80003F060F801288DD104216D4803F05AF8F2
:1045D800012887D16B4B00221A7301225A7381E795
:1045E800042100F1804000F5883003F04BF80128E1
:1045F8008BD1644B197811B11B7C012B85D1614B90
:1046080000225A739A731A73DA7301B11A705D4BE8
:104618009B6813B15B4B00229A605A4B00221A74B4
:1046280060E7042100F1804000F5883003F02AF8A3
:1046380001287FF478AF534B1B78012B7FF473AFBD
:10464800504B00221A7301229A7302229A7049E78A
:1046580002214B4803F016F800287FF46BAF0421C1
:1046680000F1804000F5883003F00CF801287FF451
:1046780061AF444B1B78012B3FF65CAF414B0022E6
:104688001A7301229A731A702CE702213C4802F02F
:10469800F9FF00287FF455AF042100F1804000F5B0
:1046A800883002F0EFFF00287FF44BAF354B1B78C2
:1046B800012B7FF446AF334B01221A731A709A7399
:1046C8000022DA730EE7042100F1804000F58830FB
:1046D80002F0D8FF00287FF443AF2A4B1B78012B48
:1046E8007FF43EAF274B01221A739A739A70F9E64A
:1046F800042100F1804000F5883002F0C3FF002853
:104708007FF43DAF1F4B1B78002B7FF438AF1D4B58
:1047180001221A7300225A739A73E3E60221184899
:1047280002F0B0FF00287FF431AF042100F180408F
:1047380000F5883002F0A6FF00287FF427AF114B60
:104748001B78002B7FF422AF0E4B01221A731A70CC
:104758009A730022DA73C5E60421094802F092FF31
:1047680000287FF422AF074B1B78002B7FF41DAF86
:10477800044B01221A735A73B4E600BF680C002078
:1047880000100140700B002008B5094B00221A7177
:10479800084BDB7803B908BD01224FF48071064845
:1047A80002F077FF02F0ECF8014B1860F3E700BF66
:1047B800880C00203C0B0020000C014008B5054B7C
:1047C80003221A7100224FF48071034802F061FF3E
:1047D80008BD00BF880C0020000C014008B502F09D
:1047E800CFF8194A1368C01A1379012B10D05AB29E
:1047F80012B1022B1AD008BD6428FCD900224FF44C
:104808008071124802F045FF0F4B03221A71F2E73C
:1048180040F2DC539842EED900224FF480710B48E5
:1048280002F037FF084B03221A71E4E7B0F57A7FEC
:10483800E1D94FF48071054802F031FF02F0A0F889
:10484800014B1860D7E700BF880C0020000C01401E
:1048580070B586B0002604960E4B9A6942F008029D
:104868009A619B6903F008030193019B4FF48075DB
:1048780002950123039302230593074C02A92046BE
:1048880002F00CFE32462946204602F002FF06B02E
:1048980070BD00BF00100240000C014000B58BB095
:1048A800B0F90030A3F26C73069390F90230013B23
:1048B800059390F90330049390F90530039390F928
:1048C8000630029390F9073001934FF0FF330993B4
:1048D80001A804F0EDFF0BB05DF804FB38B50D46F8
:1048E8000A4C2268136823F001031360FFF7D6FF10
:1048F8004FF4616101FB0501204602F070FD22685A
:10490800136843F00103136038BD00BF9C0C0020FE
:1049180008B502F035F81D4B18601D481D4B0360A3
:104928004FF0FF3343600023836002F0E3FC88B953
:104938000121174802F0AAFD4AF2A55398420CD16A
:10494800154B5A6A5B6A154B01221A60104802F02F
:104958005DFD08BDFCF70CFBEAE711486FF01C038E
:104968000370072343700A2383701123C370072140
:104978004171232383711423C371FFF7AFFF4AF2F8
:10498800A5520121024802F079FDDFE7980C0020CA
:104998009C0C00200028004000100240E004424225
:1049A800900C002010B582B00446009100230193BA
:1049B800684604F089FD0368E3714368A37183685E
:1049C8006371C368E3708369013323710369013339
:1049D800A370436903F26C73238002B010BD00001A
:1049E80000B583B002F0E8FC019001990248FFF796
:1049F800D9FF03B05DF804FB900C002008B50E4801
:104A08000E4B03604FF48273436000238360C360DE
:104A1800036143614FF4007282612822C26103621C
:104A2800436283620A23C36201F066FC00B908BDD1
:104A3800FCF79EFAFBE700BFB00C002000300140F5
:104A480000B587B00023029303930493059302688B
:104A5800124B9A4202D007B05DF804FB03F560439D
:104A68009A6942F480529A619A6902F480520092DB
:104A7800009A9A6942F004029A619B6903F0040360
:104A88000193019BA023029302230393032305931D
:104A980002A9034802F002FDDDE700BF0030014033
:104AA8000008014008B50748074B0360032343602B
:104AB80040F6FF73836001F029FD00B908BDFCF7DB
:104AC80057FAFBE7080D00200030004008B5002227
:104AD8000F49104802F0F2FF70B90F490D4803F072
:104AE80004F860B90D490B4803F0CEFC50B90948E9
:104AF80003F002F848B908BDFCF73AFAEDE7FCF70D
:104B080037FAEFE7FCF734FAF1E7FCF731FAF2E7A6
:104B180004000020140D0020700000205400002024
:104B2800022805D8DFE800F00504020001207047DC
:104B38000220704702680E4B9A4200D0704700B5B9
:104B480083B003F5DA33DA6942F40002DA61DB692B
:104B580003F400030193019B00221146142002F084
:104B6800C3FD142002F0F4FD03B05DF804FB00BFA0
:104B7800005C004008B500F22C41D0F85C0402F05B
:104B8800D5FF08BD08B500EB4113D3F83C22D0F897
:104B98005C0402F0F9FF08BD08B500EB4113DA6BBD
:104BA800D0F85C0403F026F808BD08B5D0F85C041A
:104BB80003F0AAF808BD10B504468368022B09D192
:104BC8000121D4F85C0403F08DF8D4F85C0403F0F8
:104BD8006AF810BDFCF7CCF9F2E7000010B50446FE
:104BE800D0F85C0403F081F8A36923B1024A136981
:104BF80043F00603136110BD00ED00E008B5D0F8DE
:104C08005C0403F07BF808BD10B504461D48C0F8E5
:104C18005C44C4F820021C4B036008234360022351
:104C2800836000238361C361036200F0DDF930BB58
:104C3800182300221146D4F8200200F030FE582331
:104C480000228021D4F8200200F029FEC02300228F
:104C58008121D4F8200200F022FE4FF4887300224C
:104C68000121D4F8200200F01AFE4FF480730022CC
:104C78008221D4F8200200F012FE002010BDFCF7BB
:104C880077F9D5E7380F0020005C004008B5D0F868
:104C9800200200F014FAFFF743FF08BD10B51C46C8
:104CA80013462246D0F8200200F034FAFFF738FF06
:104CB80010BD08B5D0F8200200F055FAFFF730FF14
:104CC80008BD08B5D0F8200200F094FDFFF728FFD2
:104CD80008BD08B5D0F8200200F0BAFDFFF720FFA4
:104CE80008BDD0F8203211F0800F06D101F07F0105
:104CF80003EB411191F82A02704701F07F0103EBA1
:104D0800411191F82A00704708B5D0F8200200F048
:104D1800EDF9FFF705FF08BD08B5D0F8200200F04F
:104D28006FFAFFF7FDFE08BD08B5D0F8200200F0C5
:104D380041FAFFF7F5FE08BD08B5D0F8200200F0EB
:104D480058FA08BD00487047F803002070477047BC
:104D580012230B80004870472000002004230B809A
:104D680000487047340000200023934216D230B424
:104D78000BE0373401F8134000015C0001340025D2
:104D88000D550133DBB2934206D2040F092CF0D83B
:104D9800303401F81340EFE730BC7047704700002B
:104DA80038B50A4B186804331C6804331B68C018EC
:104DB80000D138BD064D0822A91CFFF7D5FF0422F3
:104DC80005F112012046FFF7CFFFF2E7E8F7FF1FD2
:104DD8003800002008B51A230B80FFF7E1FF0148CF
:104DE80008BD00BF3800002008B50A4628B90549A3
:104DF800054803F0FCF9034808BD0249024803F0DE
:104E0800F6F9F8E798130020ECE5000810B5044C13
:104E18000A462146034803F0EAF9204610BD00BFC0
:104E280098130020D8E5000808B50A4628B90549AE
:104E3800054803F0DCF9034808BD0249024803F0BD
:104E4800D6F9F8E798130020BCE5000808B50A462B
:104E580028B90549054803F0CAF9034808BD0249BD
:104E6800024803F0C4F9F8E798130020C8E50008E1
:104E7800002070470020704710B5054C01462046B9
:104E880003F011FB204603F02BFB002010BD00BFF0
:104E9800140D002010B5064C00220649204603F0E8
:104EA800FAFA0549204603F0FEFA002010BD00BFBB
:104EB800140D00208019002098150020094BD3F804
:104EC8001832D3F814320BB10120704710B50A46D6
:104ED8000146044C204603F0DEFA204603F0E9FAC6
:104EE80010BD00BF140D00207047FEE7FEE7FEE787
:104EF800FEE770477047704708B501F035FD08BDFB
:104F080008B5024800F0C6FB08BD00BF380F0020F6
:104F180008B5024802F090FA08BD00BF9C0C0020BA
:104F280008B5024802F0AEF908BD00BF9C0C00208D
:104F380008B5022002F0B8FB022002F0B4FB08BD5D
:104F48007047000082B00E4B9A6942F001029A61E4
:104F58009A6902F001020092009ADA6942F08052DE
:104F6800DA61DB6903F080530193019B054A5368BA
:104F780023F0E06343F00073536002B0704700BF52
:104F880000100240000001400268144B9A4200D011
:104F9800704700B583B002F00DFC114BDA6942F09E
:104FA8000062DA61DB6903F000630193019B0D4B3A
:104FB80001221A6000221146032002F095FB03200B
:104FC80002F0C6FB00221146292002F08DFB2920A1
:104FD80002F0BEFB03B05DF804FB00BF00280040F0
:104FE800001002403C044242002866D0F0B587B069
:104FF800044690F829345BB3032384F829342068E5
:1050080000F074FC254655F8107B6E460FCD0FC690
:105018002B683360231D0ECB384600F058FC002166
:10502800206800F06DFC00230E2B16D804EB431209
:10503800012182F8291082F828309386002182F80D
:105048002B109163D1639A1C5201A1500133EBE7F5
:1050580080F82834FFF76EFDCEE700230E2B13D817
:1050680004EB4312002182F8291282F82832938631
:1050780082F82B12C2F83812C2F83C1203F112025D
:105088005201A1500133E9E7254655F8107B6E46D9
:105098000FCD0FC62B683360231D0ECB384600F0AA
:1050A80031FC002584F82450012384F82934206831
:1050B80000F03CFF284607B0F0BD0120704790F88B
:1050C8002834012B10D010B50446012180F828148B
:1050D800FFF73DFE206800F027FF206800F0FEFB88
:1050E800002084F8280410BD0220704790F8283466
:1050F800012B0DD010B50446012380F8283480F820
:105108002410006800F00AFF002084F8280410BD6D
:105118000220704738B54DB2002D1CDB01F07F042A
:10512800640104F50A74044401F07F012170ED0F55
:1051380065702261E37090F82834012B11D0054680
:10514800012380F828342146006800F0F1FB002094
:1051580085F8280438BD01F07F046401283404442C
:10516800E2E70220F6E74AB2002A1BDB01F07F03E0
:105178005B0103F50A73034401F07F011970D20F34
:105188005A7090F82824012A12D010B5044601223A
:1051980080F828241946006800F05EFD002084F895
:1051A800280410BD01F07F035B0128330344E3E7C3
:1051B8000220704770B501F07F056C0104F50A7193
:1051C80001440444C4F83C2205F112025201861835
:1051D80083500023736084F8293284F8285225B953
:1051E800006800F0BFFE002070BD006800F0BAFE45
:1051F800F9E701F00F01123100EB4111888870477F
:1052080070B501F07F056C0104F1280101440444E4
:10521800E263AA1C5201861883500023736001239D
:1052280084F8293084F8285025B9006800F09AFEDF
:10523800002070BD006800F095FEF9E770B582B0F7
:1052480004460023ADF80630ADF804308DE103883C
:105258009BB223F4E14323F070039BB203802268DE
:10526800B2F8503094F8281003EBC103023302EB74
:105278004303D3F80034C3F309036364E26B1344B4
:10528800E36300212046FFF787FC94F82430002BC5
:1052980000F06B81236C002B40F0678194F8243078
:1052A800226843F08003A2F84C30002384F82430AD
:1052B8005BE1B0F8503094F8282203EBC2030633C0
:1052C80000EB4303D3F80034C3F30903C4F84432B2
:1052D800B4F82C2204F22C4100F0A1FF22681388B4
:1052E80023F070031B051B0D13802046FFF742FCBB
:1052F8003BE1B4F82C22D4F83C1200F090FFD4F82B
:105308004422D4F83C321344C4F83C326BE1C1F374
:105318004F0311F0010F01D001339BB29B029BB2E6
:10532800C2F800347CE130F825309BB2ADF8043087
:10533800BDF8043013F4004F35D1BDF8043013F034
:10534800800F00F01281226832F825309BB223F4D6
:10535800E14323F070039BB222F8253004EB451398
:1053680093F83230002B40F0B2802068B0F850300B
:1053780004EB451292F8282003EBC203023300EB3A
:105388004303D3F80034C3F30903AA1C04EB421205
:105398005360002B00F0C98004EB45118A8DC96B5E
:1053A80000F0CBFDC1E030F8253023F070031B0579
:1053B8001B0D20F8253004EB451393F83232D3B98E
:1053C8002068B0F8503004EB451292F8282203EB1D
:1053D800C203063300EB4303B3F80064C6F30906BF
:1053E80086B304EB45113346B1F82C22D1F83C12B0
:1053F80000F015FF26E0206804EB451393F82822F7
:1054080030F8223013F4804F42D0B0F8503003EB1C
:10541800C203023300EB4303B3F80064C6F3090682
:1054280066BB226804EB451393F8281232F8213042
:1054380023F0F0031B051B0D43F4004343F0C003A6
:1054480022F8213005F112035B01E1184A68324461
:105458004A6004EB4511D1F83C223244C1F83C22A1
:10546800E3581BB1D1F838128E4228D204EB451309
:1054780093F828122046FFF785FB5EE704EB4511F9
:105488003346B1F82E22D1F83C1200F0C8FEC8E726
:10549800B0F8503003EBC203063300EB4303B3F814
:1054A8000064C6F30906002EBBD004EB4511334651
:1054B800B1F83022D1F83C1200F0B1FEB1E704EBAC
:1054C800451191F828122046FFF774FE35E7206849
:1054D80004EB451393F8282030F8223013F0400FDE
:1054E80000F0B480B0F8503003EBC203023300EB95
:1054F8004303D3F80034C3F30903AA1C04EB421294
:105508005360002B40F09B80226804EB451393F80E
:10551800281032F8213023F0F0031B051B0D43F44B
:10552800404343F0800322F821302268B2F850301B
:1055380004EB451090F8281003EBC103023302EB8B
:105548004303D3F80024C2F30902AB1C5B01E11842
:105558004A60C16B0A44C263E358002B40F08F8055
:1055680090F828102046FFF717FB2068B0F8443061
:105578009BB2ADF8063013F4004F00F08880BDF8F8
:10558800065015F00F057FF4CEAEBDF8063013F0C7
:10559800100F3FF45CAE03889BB2ADF80430BDF841
:1055A800043013F4006F7FF484AEBDF8043013F4B4
:1055B800004FDAD0038823F070031B051B0D03800E
:1055C8002068B0F8503094F8282203EBC203063361
:1055D80000EB4303D3F80034C3F30903C4F844329F
:1055E800002B7FF486AE00212046FFF7CBFA236814
:1055F800B3F85020063203EB4202D4F838123E29A1
:105608007FF685AEC1F34F1311F01F0F01D1013B97
:105618009BB26FEAC3636FEA53439BB2C2F800348C
:10562800226813889BB223F4804323F0700383F429
:10563800405343F4004343F08003138095E704EBA1
:105648004511CA8DC96B00F078FC5DE7B0F85030A1
:1056580003EBC203063300EB4303D3F80034C3F370
:105668000903AA1C04EB42125360002B3FF44CAF11
:1056780004EB45110A8EC96B00F05FFC44E704EBAC
:10568800451595F828102046FFF7BAFD6DE700206C
:1056980002B070BD10B50446006800F049FC10F473
:1056A800004F45D1206800F043FC10F4806F43D1CF
:1056B800206800F03DFC10F4804F08D02268B2F852
:1056C80044309BB223F480439BB2A2F84430206854
:1056D80000F02EFC10F4005F08D02268B2F84430C5
:1056E8009BB223F400539BB2A2F84430206800F028
:1056F8001FFC10F4805F30D1206800F019FC10F412
:10570800006F49D1206800F013FC10F4007F64D1C9
:10571800206800F00DFC10F4807F08D02268B2F8F1
:1057280044309BB223F480739BB2A2F8443010BD7E
:105738002046FFF783FDB5E72268B2F844309BB2F4
:1057480023F480639BB2A2F844302046FFF733FA73
:1057580000212046FFF7CAFCAAE72268B2F84030C9
:105768009BB223F004039BB2A2F840302268B2F83F
:1057780040309BB223F008039BB2A2F84030204689
:10578800FFF73CFA2268B2F844309BB223F4805306
:105798009BB2A2F84430AFE72268B2F8403043F039
:1057A8000803A2F840302268B2F844309BB223F4D0
:1057B80000639BB2A2F844302268B2F8403043F04C
:1057C8000403A2F84030206800F0B2FB10F4805FB8
:1057D80098D12046FFF702FA94E72268B2F84430DD
:1057E8009BB223F400739BB2A2F844302046FFF723
:1057F800DCF98DE738B54AB2002A1BDB4B0103F50B
:105808000A73034401249C7001F07F051D70D20FB8
:105818005A7090F82824A24218D00446012280F831
:1058280028241946006800F0F9FA4DB1002084F8E0
:10583800280438BD01F07F035B0128330344E1E706
:1058480004F22C41206800F076FBEFE70220F0E735
:1058580010B54AB2002A1ADB4B0103F50A73034458
:1058680000249C7001F07F011970D20F5A7090F8D3
:105878002824012A11D00446012280F82824194638
:10588800006800F002FB002084F8280410BD01F035
:105898007F035B0128330344E2E70220F6E711F0B7
:1058A800800F09D001F07F0149012831014442B934
:1058B8008A728B8000207047490101F50A71014402
:1058C800F5E701228A72CB801B0C0B81F2E784B0CA
:1058D80001A880E80E00002004B07047B0F84030FE
:1058E80043F43F43A0F8403000207047B0F8403000
:1058F80023F474535B045B0CA0F84030002070471D
:105908000020704784B038B505AC84E80E00012348
:10591800A0F840300024A0F84040A0F84440A0F887
:105928005040FFF7DBFF2046BDE8384004B0704721
:1059380010B4CB78032B0FD8DFE803F0026D546066
:105948000A7830F822309BB223F4EC4323F070033A
:1059580043F4007320F822300A7830F8223023F01C
:10596800F0031B051B0D134343F4004343F080036E
:1059780020F822308B7A002B40F0AF804B78002B38
:1059880056D08A885208B0F850300C7803EBC4031C
:1059980000EB43035200C3F800240A7830F82230A1
:1059A80013F0400F0BD030F8223023F0F0031B0522
:1059B8001B0D43F4004343F0C00320F822300A785B
:1059C80030F822309BB223F4E04323F0400383F005
:1059D800200343F4004343F0800320F822300020E2
:1059E80010BC70470A7830F822309BB223F4EC439D
:1059F80023F070039BB220F82230ADE70A7830F824
:105A080022309BB223F4EC4323F0700343F4C063C9
:105A180020F82230A0E70A7830F822309BB223F42D
:105A2800EC4323F0700343F4806320F8223093E7BB
:105A38008A885208B0F850300C7803EBC40304335A
:105A480000EB43035200C3F80024B0F850300A7842
:105A580003EBC203063300EB43030C693E2C30D939
:105A6800C4F34F1214F01F0F01D1013A92B26FEA3A
:105A7800C2626FEA524292B2C3F800240A7830F840
:105A8800223013F4804F0BD030F8223023F0F0038B
:105A98001B051B0D43F4404343F0800320F82230DC
:105AA8000A7830F822309BB223F4804323F0700345
:105AB80083F4405343F4004343F0800320F822303A
:105AC8008DE7C4F34F0214F0010F01D0013292B2F6
