:020000040800F2
:1000000000500020D1930008914E0008934E000844
:10001000954E0008974E0008994E00080000000019
:100020000000000000000000000000009B4E0008DF
:100030009D4E0008000000009F4E0008A14E0008E1
:10004000199400081994000819940008B94E000882
:10005000199400081994000819940008D94E000852
:1000600019940008199400081994000819940008BC
:1000700019940008199400081994000819940008AC
:10008000199400081994000819940008199400089C
:10009000A94E000819940008199400081994000842
:1000A000199400081994000819940008199400087C
:1000B00019940008E94E00081994000819940008E2
:1000C000199400081994000819940008199400085C
:1000D000199400081994000819940008199400084C
:1000E00019940008C94E00081994000819940008D2
:1000F000199400081994000819940008199400082C
:10010000199400081994000819940008199400081B
:10011000199400081994000819940008199400080B
:1001200019940008199400081994000819940008FB
:1001300000000000000000000000000000000000BF
:1001400000000000000000000000000000000000AF
:10015000000000000000000000000000000000009F
:10016000000000000000000000000000000000008F
:10017000000000000000000000000000000000007F
:10018000000000000000000000000000000000006F
:10019000000000000000000000000000000000005F
:1001A000000000000000000000000000000000004F
:1001B000000000000000000000000000000000003F
:1001C000000000000000000000000000000000002F
:1001D000000000000000000000000000000000001F
:0401E0005FF8E0F1F3
:1001E80010B5054C237833B9044B13B10448AFF369
:1001F80000800123237010BDB80300200000000018
:10020800FCD6000808B5034B1BB103490348AFF3FC
:10021800008008BD00000000BC030020FCD60008D8
:10022800034613F8012B002AFBD1181A013870472E
:1002380010F8012B11F8013B012A28BF9A42F7D088
:10024800D01A704781F0004102E000BF83F00043FC
:1002580030B54FEA41044FEA430594EA050F08BF59
:1002680090EA020F1FBF54EA000C55EA020C7FEA1D
:10027800645C7FEA655C00F0E2804FEA5454D4EB9A
:100288005555B8BF6D420CDD2C4480EA020281EA64
:10029800030382EA000083EA010180EA020281EA9C
:1002A8000303362D88BF30BD11F0004F4FEA0131EE
:1002B8004FF4801C4CEA113102D0404261EB4101FD
:1002C80013F0004F4FEA03334CEA133302D0524283
:1002D80063EB430394EA050F00F0A780A4F101043F
:1002E800D5F1200E0DDB02FA0EFC22FA05F2801879
:1002F80041F1000103FA0EF2801843FA05F359415F
:100308000EE0A5F120050EF1200E012A03FA0EFCDD
:1003180028BF4CF0020C43FA05F3C01851EBE37107
:1003280001F0004507D54FF0000EDCF1000C7EEB24
:1003380000006EEB0101B1F5801F1BD3B1F5001F62
:100348000CD349085FEA30004FEA3C0C04F1010481
:100358004FEA445212F5800F80F09A80BCF1004FAA
:1003680008BF5FEA500C50F1000041EB045141EA2C
:10037800050130BD5FEA4C0C404141EB010111F42D
:10038800801FA4F10104E9D191F0000F04BF0146D8
:100398000020B1FA81F308BF2033A3F10B03B3F1B6
:1003A80020020CDA0C3208DD02F1140CC2F10C0246
:1003B80001FA0CF021FA02F10CE002F11402D8BFA4
:1003C800C2F1200C01FA02F120FA0CFCDCBF41EA70
:1003D8000C019040E41AA2BF01EB0451294330BD3F
:1003E8006FEA04041F3C1CDA0C340EDC04F114041C
:1003F800C4F1200220FA04F001FA02F340EA0300F3
:1004080021FA04F345EA030130BDC4F10C04C4F138
:10041800200220FA02F001FA04F340EA0300294618
:1004280030BD21FA04F0294630BD94F0000F83F462
:10043800801306BF81F480110134013D4EE77FEA45
:10044800645C18BF7FEA655C29D094EA050F08BF91
:1004580090EA020F05D054EA000C04BF1946104672
:1004680030BD91EA030F1EBF0021002030BD5FEAB6
:10047800545C05D14000494128BF41F0004130BDDE
:1004880014F580043CBF01F5801130BD01F0004532
:1004980045F0FE4141F470014FF0000030BD7FEAA5
:1004A800645C1ABF194610467FEA655C1CBF0B46A0
:1004B800024650EA013406BF52EA033591EA030FB7
:1004C80041F4002130BD00BF90F0000F04BF0021AF
:1004D800704730B54FF4806404F132044FF00005E2
:1004E8004FF0000150E700BF90F0000F04BF00215B
:1004F800704730B54FF4806404F1320410F00045C1
:1005080048BF40424FF000013EE700BF42004FEABB
:10051800E2014FEA31014FEA02701FBF12F07F4338
:1005280093F07F4F81F06051704732F07F4208BFEF
:10053800704793F07F4F04BF41F40021704730B5F6
:100548004FF4607401F0004521F000411CE700BF42
:1005580050EA010208BF704730B54FF000050AE0C5
:1005680050EA010208BF704730B511F0004502D5C6
:10057800404261EB41014FF4806404F132045FEAC8
:10058800915C3FF4D8AE4FF003025FEADC0C18BF71
:1005980003325FEADC0C18BF033202EBDC02C2F163
:1005A800200300FA03FC20FA02F001FA03FE40EAF5
:1005B8000E0021FA02F11444BDE600BF70B54FF0F9
:1005C800FF0C4CF4E06C1CEA11541DBF1CEA1355D7
:1005D80094EA0C0F95EA0C0F00F0DEF82C4481EA3F
:1005E800030621EA4C5123EA4C5350EA013518BF5F
:1005F80052EA033541F4801143F4801338D0A0FB4C
:1006080002CE4FF00005E1FB02E506F00042E0FBF8
:1006180003E54FF00006E1FB03569CF0000F18BFFE
:100628004EF0010EA4F1FF04B6F5007F64F54074A6
:1006380004D25FEA4E0E6D4146EB060642EAC62139
:1006480041EA55514FEAC52040EA5E504FEACE2EA6
:10065800B4F1FD0C88BFBCF5E06F1ED8BEF1004FA9
:1006680008BF5FEA500E50F1000041EB045170BD25
:1006780006F0004646EA010140EA020081EA030169
:10068800B4EB5C04C2BFD4EB0C0541EA045170BD65
:1006980041F480114FF0000E013C00F3AB8014F1DF
:1006A800360FDEBF002001F0004170BDC4F1000428
:1006B800203C35DA0C341BDC04F11404C4F12005A9
:1006C80000FA05F320FA04F001FA05F240EA020004
:1006D80001F0004221F0004110EBD37021FA04F63A
:1006E80042EB06015EEA430E08BF20EAD37070BDF4
:1006F800C4F10C04C4F1200500FA04F320FA05F053
:1007080001FA04F240EA020001F0004110EBD37054
:1007180041F100015EEA430E08BF20EAD37070BDC4
:10072800C4F1200500FA05F24EEA020E20FA04F39D
:1007380001FA05F243EA020321FA04F001F000414C
:1007480021FA04F220EA020000EBD3705EEA430EBD
:1007580008BF20EAD37070BD94F0000F0FD101F0EC
:100768000046400041EB010111F4801F08BF013C25
:10077800F7D041EA060195F0000F18BF704703F063
:100788000046520043EB030313F4801F08BF013DEA
:10079800F7D043EA0603704794EA0C0F0CEA1355A6
:1007A80018BF95EA0C0F0CD050EA410618BF52EA60
:1007B8004306D1D181EA030101F000414FF0000066
:1007C80070BD50EA410606BF1046194652EA430674
:1007D80019D094EA0C0F02D150EA013613D195EAE8
:1007E8000C0F05D152EA03361CBF104619460AD130
:1007F80081EA030101F0004141F0FE4141F470013A
:100808004FF0000070BD41F0FE4141F4780170BD29
:1008180070B54FF0FF0C4CF4E06C1CEA11541DBF8E
:100828001CEA135594EA0C0F95EA0C0F00F0A7F890
:10083800A4EB050481EA030E52EA03354FEA0131BD
:1008480000F088804FEA03334FF0805545EA1313D0
:1008580043EA12634FEA022245EA111545EA106598
:100868004FEA00260EF000419D4208BF964244F12F
:10087800FD0404F5407402D25B084FEA3202B61A4E
:1008880065EB03055B084FEA32024FF480104FF422
:10089800002CB6EB020E75EB030E22BFB61A754696
:1008A80040EA0C005B084FEA3202B6EB020E75EB29
:1008B800030E22BFB61A754640EA5C005B084FEA91
:1008C8003202B6EB020E75EB030E22BFB61A75465E
:1008D80040EA9C005B084FEA3202B6EB020E75EB69
:1008E800030E22BFB61A754640EADC0055EA060E2A
:1008F80018D04FEA051545EA16754FEA06164FEA6D
:10090800C30343EA52734FEAC2025FEA1C1CC0D118
:1009180011F4801F0BD141EA00014FF000004FF0A5
:10092800004CB6E711F4801F04BF01430020B4F166
:10093800FD0C88BFBCF5E06F3FF6AFAEB5EB030C1E
:1009480004BFB6EB020C5FEA500C50F1000041EB1B
:10095800045170BD0EF0004E4EEA113114EB5C04E8
:10096800C2BFD4EB0C0541EA045170BD41F48011BB
:100978004FF0000E013C90E645EA060E8DE60CEAC3
:10098800135594EA0C0F08BF95EA0C0F3FF43BAFE0
:1009980094EA0C0F0AD150EA01347FF434AF95EA97
:1009A8000C0F7FF425AF104619462CE795EA0C0F7B
:1009B80006D152EA03353FF4FDAE1046194622E748
:1009C80050EA410618BF52EA43067FF4C5AE50EA22
:1009D80041047FF40DAF52EA43057FF4EBAE12E712
:1009E8004FF0FF3C06E000BF4FF0010C02E000BFF3
:1009F8004FF0010C4DF804CD4FEA410C7FEA6C5CD6
:100A08004FEA430C18BF7FEA6C5C1BD001B050EA78
:100A1800410C0CBF52EA430C91EA030F02BF90EA63
:100A2800020F0020704710F1000F91EA030F58BF22
:100A3800994208BF90422CBFD8176FEAE37040F084
:100A4800010070474FEA410C7FEA6C5C02D150EA22
:100A5800013C07D14FEA430C7FEA6C5CD6D152EADD
:100A6800033CD3D05DF8040B704700BF84461046A2
:100A780062468C461946634600E000BF01B5FFF7A1
:100A8800B7FF002848BF10F1000F01BD4DF808ED71
:100A9800FFF7F4FF0CBF012000205DF808FB00BF42
:100AA8004DF808EDFFF7EAFF34BF012000205DF89C
:100AB80008FB00BF4DF808EDFFF7E0FF94BF0120E9
:100AC80000205DF808FB00BF4DF808EDFFF7CEFFEA
:100AD80094BF012000205DF808FB00BF4DF808ED29
:100AE800FFF7C4FF34BF012000205DF808FB00BFFA
:100AF8004FEA410C7FEA6C5C02D150EA013C0AD112
:100B08004FEA430C7FEA6C5C02D152EA033C02D103
:100B18004FF0000070474FF0010070474FEA410264
:100B280012F5001215D211D56FF47873B3EB625237
:100B380012D94FEAC12343F0004343EA505311F05E
:100B4800004F23FA02F018BF404270474FF00000F0
:100B5800704750EA013005D111F0004008BF6FF02E
:100B6800004070474FF00000704700BF7BB972B972
:100B78000029BEBF00204FF0004106E008BF002852
:100B88001CBF6FF000414FF0FF3000F0A7B9ADF186
:100B9800080C6DE904CE002909DB002B1ADB00F0F4
:100BA80035F8DDF804E0DDE9022304B0704740427F
:100BB80061EB4101002B1BDB00F028F8DDF804E0B5
:100BC800DDE9022304B0404261EB4101524263EB8C
:100BD80043037047524263EB430300F017F8DDF814
:100BE80004E0DDE9022304B0404261EB41017047B3
:100BF800524263EB430300F009F8DDF804E0DDE955
:100C0800022304B0524263EB430370472DE9F047D7
:100C18008C460446089E002B40F086808A42154682
:100C280048D9B2FA82F24AB1C2F1200701FA02F3B6
:100C380020FA07F7954047EA030C94404FEA154E0F
:100C4800BCFBFEF71FFA85F80EFB17C307FB08F974
:100C5800210C41EA0343994509D9EB1807F1FF3103
:100C680080F0E180994540F2DE80023F2B44A3EBFF
:100C78000903B3FBFEF00EFB103300FB08F1A4B22E
:100C880044EA0344A14209D92C1900F1FF3380F04A
:100C9800C880A14240F2C58002382C4440EA07408F
:100CA8000027641A1EB10023D440C6E90043394620
:100CB800BDE8F087002A54D0B2FA82F2002A40F048
:100CC800B4800127491B4FEA15481FFA85F9B1FB83
:100CD800F8FE08FB1E1109FB0EF04FEA144C4CEA13
:100CE8000143984207D9EB180EF1FF3102D298421E
:100CF80000F2EB808E461B1AB3FBF8F008FB1033AA
:100D080009FB00F9A4B244EA0344A14507D92C1908
:100D180000F1FF3302D2A14500F2DB801846A4EBB4
:100D2800090440EA0E40BDE78B4208D9002E75D071
:100D38000027C6E9000138463946BDE8F087B3FA0E
:100D480083F77FB98B4202D3824200F2BC80841AB7
:100D580061EB030301209C46002EA8D0C6E9004C95
:100D6800A5E7FFDEC7F12005BB4022FA05FC4CEAE7
:100D7800030C21FA05F44FEA1C4EB4FBFEF91FFAE6
:100D88008CF80EFB194420FA05F3B94009FB08FA60
:100D980019430B0C43EA0444A24502FA07F200FA8D
:100DA80007F30BD91CEB040409F1FF3080F08980AC
:100DB800A24540F28680A9F102096444A4EB0A0422
:100DC800B4FBFEF00EFB104400FB08FA89B241EABE
:100DD8000444A24508D91CEB040400F1FF316CD28D
:100DE800A2456AD90238644440EA0940A0FB028956
:100DF800A4EB0A044C454146CE4655D352D0002EAA
:100E08006AD05A1A64EB0E0404FA05F522FA07F3BD
:100E1800FC401D43C6E90054002748E737463046E2
:100E280045E718463AE70F4621E79540C2F1200307
:100E380021FA03F04FEA1548B0FBF8F71FFA85F9D5
:100E480008FB170E24FA03FC914007FB09FA4CEA49
:100E58000101080C40EA0E40824504FA02F407D961
:100E6800281807F1FF332AD2824528D9023F28449F
:100E7800A0EB0A00B0FBF8FC08FB1C000CFB09F314
:100E880089B241EA00418B4208D969180CF1FF3058
:100E980011D28B420FD9ACF1020C2944C91A4CEA81
:100EA800074714E74345AAD2B8EB020169EB0C02E5
:100EB80001389646A3E78446F0E7084694E71F46BC
:100EC800D6E781467AE7384646E7AEF1020E2B446C
:100ED80011E702382C4422E73746E8E6704700BF9E
:100EE8004B2901D00020704708B532B101224021BA
:100EF800054806F09EFB012008BD0022402102485B
:100F080006F097FB0120F7E70008014030B583B0F1
:100F1800182919D014461D4619291DD0172902D0A1
:100F2800002003B030BD6CB115F8013B8DF80730D7
:100F3800013CE4B2642301220DF107010A4805F0DF
:100F4800EBF9F0E70120ECE701221021074806F051
:100F580070FB00BF0120E4E700BF00221021034816
:100F680006F067FB0120DCE7B00C00200008014018
:100F780008B5024809F004FB08BD00BF4CD70008BB
:100F880000B597B000230E93119307930893099324
:100F98000A930B9301930293039304930593069387
:100FA8000D230C934FF480320D920123109312936A
:100FB8000F930223139314924FF4E01315930CA884
:100FC80005F0DEFC60BB0F23079302210891002384
:100FD80009934FF480620A920B9307A805F0F8FE74
:100FE80008BB11230193002306934FF480730293E7
:100FF80001A805F0D1FFC8B905F0B8FF0D4BA3FB58
:101008000030800906F080FB042006F093FB0022E4
:1010180011464FF0FF3006F037FB17B05DF804FBC0
:10102800FFF7A6FFCFE7FFF7A3FFDAE7FFF7A0FF79
:10103800E2E700BFD34D621038B505F053FCFFF767
:101048009FFF00F07DF803F0A9FC03F00FFD2D4C85
:1010580001224FF40041204606F0EBFA00F006F9B1
:10106800294D2A4B2A4A2B49284607F0F5FA2846E3
:1010780008F053F90021284608F056F900224021CB
:10108800204606F0D6FA0A2005F050FC012240213D
:10109800204606F0CEFA00F023F94FF4FA7005F076
:1010A80045FC00F041FE00F035FD03F0A7F903F020
:1010B8009FFB03F0FDFB00F0E7F905F031FC044667
:1010C80005F02EFC284607F0ACFA03F0BBFC05E05F
:1010D8000D4807F0B3FA05F023FC044600F052FA75
:1010E80001F0B6F803F0BEF900F004FE03F046FB89
:1010F800094805F000FA05F013FC001B6428EDD937
:10110800E6E700BF00080140600A0020E90E000879
:10111800150F0008E0E60008080D002008B50138A2
:10112800012806D80B461146184603F097FEC0B2B0
:1011380008BD08F06FF9092303604FF0FF30F7E7A7
:101148002DE9F04186B00024029403940494059498
:10115800184B9A6942F004029A619B6903F00403F0
:101168000193019B144D01224FF40041284606F0DB
:1011780060FA4FF4004302930126039604944FF05B
:101188000208CDF8148002A9284606F057F950271E
:10119800029703960494CDF8148002A9284606F015
:1011A8004DF932463946284606F043FA06B0BDE8FE
:1011B800F08100BF0010024000080140642804D8F4
:1011C80000EB80004300014A53637047002C014044
:1011D80008B50A20FFF7F2FF08BD000008B5024B6A
:1011E8005878FFF7EBFF08BD3C0B00200268094B5D
:1011F8009A4200D0704782B003F564439A6942F47A
:1012080000629A619B6903F400630193019B02B039
:10121800704700BF002C014000B587B0002302933F
:1012280003930493059302680E4B9A4202D007B0C9
:101238005DF804FB03F564439A6942F004029A617D
:101248009B6903F004030193019B4FF4807302939D
:10125800022303930123059302A9034806F0EEF83D
:10126800E5E700BF002C01400008014010B519480F
:10127800194B036011234360002383604FF47A7293
:10128800C26003614361836105F01CFAC8B9134960
:1012980060230B604FF496734B6000228A60CA602B
:1012A8000A614A618A610B4805F05EFA60B9094C27
:1012B8002046FFF7B1FF0021204605F0D1FA30B9EA
:1012C80010BDFFF755FEE2E7FFF752FEEFE7FFF725
:1012D8004FFEF5E7FC0A0020002C0140E00A002040
:1012E80010B582B0084A1378084C516801915278B9
:1012F8000092DB0800221146204607F01DF920461F
:1013080007F09CF902B010BDF4D70008600A00206D
:10131800F8B5194C194D0FCD0FC495E8030084E8B2
:10132800030006F059FA164B00241C60154A9A600F
:101338000122DA60BCB1144B124A1A600024342C22
:1013480017D824F00305114F0F4E31687A5900233E
:101358002144022006F098FAEA593368E3589A4281
:1013680009D10434EBE70A49054806F0FFFA0134CD
:10137800E0E706F04BFAF8BD4C0B0020840B002088
:10138800D803002000F00108D40300203C0B002003
:10139800E803002070B5174E3446174D0FCD0FC423
:1013A8000FCD0FC40FCD0FC42B682360326B134BC6
:1013B8009A4200D170BD344628220021304608F0F8
:1013C80065F9322373700123B370F3704FF4967389
:1013D800F38040F2D243738140F2BC43B381074BA0
:1013E8003363074B28341868596803C4FFF790FF24
:1013F800E0E700BF3C0B002000F00108AB55FF0000
:10140800900C002070B51D4C0621204606F00EF801
:1014180005040521204606F009F82843184DA86060
:101428000821204606F002F806040721204605F0A8
:10143800FDFF3043E8600A21204605F0F7FF060467
:101448000921204605F0F2FF304328610221204699
:1014580005F0ECFF4BF6BB33984200D170BD2C462B
:10146800084D0FCD0FC495E8030084E803004BF640
:10147800BB320221014805F0D1FFEFE79C0C0020A8
:10148800840B00204C0B002008B5FFF783FFFFF703
:10149800B9FF0B4B9B7883B1FFF79AFE084B58783E
:1014A800FFF78CFE00F0F0F800F00CFB03F0A0F959
:1014B80005F036FA034B186008BDFFF78FFEEDE71D
:1014C8003C0B0020840B0020034A0023D370936058
:1014D800D373024A53607047700B0020840B0020BE
:1014E80008B51C4BDB78012B11D0012B05D1194B0A
:1014F8009B78013BDBB2012B20D905F011FA164B82
:101508001B68C01A4EF6602398421CD808BD114AC1
:101518009278013AD2B2012AE7D80E4A9268002A94
:10152800E3D10C4BDA709A701A705A745A739A7322
:10153800DA7305F0F5F9084B1860E7E7054B9B6887
:10154800002BE3D1D9E703F009F905F0E9F9024BDB
:101558001860DBE7700B0020A00B002000220B2A8C
:101568000CD8D31C9B0003F1804303F5D8430449EE
:1015780031F812101960013292B2F0E7704700BFDB
:10158800840B002008B505F0CBF92D4B1B68C01A59
:10159800B0F57A7F2AD32B4A13780133DBB2137064
:1015A8001E2B02D9134600221A70254A13690133EB
:1015B8001361254A934201D9214B1A61234B5B7B66
:1015C8001BB11F4A936801339360204BDB7B1BB12F
:1015D8001B4AD3680133D3601C4B987800F020FB7A
:1015E80005F09EF9164B1860FFF7B8FFFFF778FF74
:1015F80003F0C4F8164B1B8873B9164B1B79012BE3
:101608000BD0022B0FD00F4B1B780E2B11D9124881
:1016180007F007F800F060FA08BD0F4807F001F876
:1016280000F014F9F8E70C4806F0FBFF00F054FA54
:10163800F2E7094806F0F5FF00F008F9ECE700BF0B
:10164800840B00209C0B0020001EF8BB700B0020B0
:10165800EC0300203C0B0020600A002010B5094C68
:101668000121204607F0CEFB80231F2200212046BF
:1016780007F092FB402300224121204607F0A7FBF8
:1016880010BD00BF600A002008B5044806F0C9FF75
:1016980005F046F9024B586008BD00BF600A0020FB
:1016A800A40B002038B505460E4C0F49204607F01C
:1016B800CBFA0E4B06224421204607F087FA0C4944
:1016C800204607F0C1FA35B10A4B192254212046A9
:1016D80007F07CFA38BD084B19224C21014807F065
:1016E80075FAF7E7600A002068FB000814DC0008B8
:1016F800804701081CDC000820DC000810B50446FF
:1017080009490A4807F0A0FA34B1094B1622012109
:10171800064807F05BFA10BD064B16220121034864
:1017280007F054FAF7E700BF60510108600A00208B
:1017380024DC00082CDC000810B5044609490A48D6
:1017480007F082FA34B1094B36220121064807F026
:101758003DFA10BD064B36220121034807F036FA40
:10176800F7E700BF60510108600A002004DC0008A8
:101778000CDC000800B583B00F4B1B7803420ED079
:101788000E4A13785168019152780092DB0826229C
:1017980048210B4806F0D0FE03B05DF804FB094A67
:1017A80013785168019152780092DB08262248216B
:1017B800034806F0C1FEEFE7A40B0020A4D70008F9
:1017C800600A002054D7000830B583B0E8B1194C3E
:1017D8000021204607F016FB1749204607F034FA87
:1017E800164DAA681649684608F068FF6B46362207
:1017F8006821204607F0EAF90121204607F002FB9C
:10180800AB68ABB900226A7412E00A4C0D49204655
:1018180007F01AFA0021204607F0F4FA0A4B36229C
:101828006621204607F0D2F90121204607F0EAFA9E
:1018380003B030BD600A00200C300108700B002096
:10184800FCDB0008182A010820DC000810B505F0A8
:1018580067F8164B5B68C01AC82810D9134A137862
:10186800DB43137053780133DBB253700A2B02D970
:10187800134600225A7005F053F80C4B58600C4878
:1018880006F0CFFE0B4C207BFFF70CFF607BFFF7C9
:1018980035FFA07BFFF750FFE07BFFF76BFF607C15
:1018A800FFF792FFFFF7DAFE10BD00BFA40B002080
:1018B800600A0020700B002010B586B0214B93F908
:1018C800073013F0010F33D01E4A92F9063092F90F
:1018D80005201D4903A808F0F1FE1C4C1C492046B0
:1018E80007F0B2F90021204607F08CFA03AB0E226C
:1018F8000121204607F06AF90121204607F082FA03
:101908001449204607F0A0F90E4AB2F900300093B6
:1019180092F9023092F903200F4903A808F0CEFE8D
:1019280003AB1B220721204607F050F906B010BD73
:10193800044A92F9063092F90520084903A808F0EC
:10194800BDFECAE7900C002034DC0008600A0020C5
:10195800FC4001089C0D010854DC000844DC000828
:1019680030B583B00546134C1349204607F06CF98F
:10197800124B28220221204607F028F90021204690
:1019880007F040FA2A460E49684608F097FE6B466B
:1019980028221921204607F019F90121204607F0CD
:1019A80031FA084B28223721204607F00FF903B0F7
:1019B80030BD00BF600A002044FE00087CDC00083F
:1019C80084DC00088CDC000830B583B00546134C75
:1019D8001349204607F038F9124B322202212046DB
:1019E80007F0F4F80021204607F00CFA2A460E49C1
:1019F800684608F063FE6B4632221921204607F03C
:101A0800E5F80121204607F0FDF9084B322237217D
:101A1800204607F0DBF803B030BD00BF600A0020A5
:101A280044FE000864DC000884DC00088CDC000844
:101A380030B583B00546134C1349204607F004F926
:101A4800124B3C220221204607F0C0F80021204614
:101A580007F0D8F92A460E49684608F02FFE6B466B
:101A68003C221921204607F0B1F80121204607F051
:101A7800C9F9084B3C223721204607F0A7F803B0E4
:101A880030BD00BF600A002044FE00086CDC00087E
:101A980074DC00088CDC000810B5094C01212046D4
:101AA80007F0B0F980231F220021204607F074F9BF
:101AB800402300224121204607F089F910BD00BFCC
:101AC800600A002010B5034C0023237004F028FF9F
:101AD800606010BDAC0B002038B5FFF7DDFFFFF7E5
:101AE800EBFE0A4DA8680A4CA4FB0030C00AFFF7B9
:101AF80037FFE868A4FB0030C00AFFF765FF2869D4
:101B0800A4FB0030C00AFFF793FF38BD840B002008
:101B1800C5B3A2912DE9F04387B0002404941D4B6E
:101B28009A6942F010029A619A6902F010020092D2
:101B3800009A9A6942F008029A619B6903F00803C7
:101B48000193019B4FF03C08CDF808804FF0010944
:101B5800CDF80C90022505950F4F02A9384605F0DF
:101B68006DFC4FF470760296CDF80C9004940595B0
:101B78000A4D02A9284605F061FC2246414638462E
:101B880005F057FD22463146284605F052FD07B0BC
:101B9800BDE8F08300100240000C01400010014035
:101BA80008B528B101220421044805F042FD08BD0A
:101BB80000220421014805F03CFDF8E7000C014033
:101BC80008B528B101220821044805F032FD08BDF6
:101BD80000220821014805F02CFDF8E7000C01401F
:101BE80008B528B101221021044805F022FD08BDDE
:101BF80000221021014805F01CFDF8E7000C014007
:101C080008B528B101222021044805F012FD08BDBD
:101C180000222021014805F00CFDF8E7000C0140E6
:101C280008B501282ED043B2002B54D0022828D161
:101C38002A4A536801335360022B1DD9284A0121CF
:101C48005173052B18D9274A1378013BDBB213705F
:101C5800234A936051743BB9936022490620087067
:101C68001E494B60937013701D4B0122DA731D4B94
:101C780019781D4808F084FC184B59681B4808F06F
:101C88007FFC08BD1A4B1989144A51615368013306
:101C98005360022B19D9124A01205073062B14D90C
:101CA8004B1E0E4A53610E4A936050742BB99360D1
:101CB8000A484161436093701370094B0122DA733B
:101CC800064B5969084808F05BFC044B59680748FB
:101CD80008F056FCD5E7FFF7F7FBD2E7840B0020A6
:101CE800700B00200000002090DC0008B4DC000825
:101CF8003C0B002010B5074C207BFFF751FF607BA1
:101D0800FFF75EFFA07BFFF76BFFE07BFFF778FF35
:101D180010BD00BF700B00200160426001230372F8
:101D280000234372C372704770B586B000240394D1
:101D380004940594184B9A6942F010029A619B69C1
:101D480003F010030193019B4FF470530293012396
:101D5800049302A9114805F071FB114E114D22465A
:101D680031462846FFF7D8FF2246314605F10C00D8
:101D7800FFF7D2FF2246314605F11800FFF7CCFFE6
:101D88002246314605F12400FFF7C6FF04F0C8FDDE
:101D9800054B186006B070BD0010024000100140ED
:101DA80045200008B80B0020F40B002010B50446AD
:101DB800032810D8DFE800F03F0229554FF480517E
:101DC8003C4805F02FFCC0B904EB44039A003A4B99
:101DD800134400225A72620022449100364B0B448D
:101DE8005A7A1B7A9A425CD0334A0A44D37A01332E
:101DF800DBB2D372052B4AD010BD04EB44039A0022
:101E08002D4B134401225A72E5E74FF4006129482B
:101E180005F008FC38B904EB44039A00264B134438
:101E280000225A72D7E704EB44039A00224B13446A
:101E380001225A72CFE74FF480611E4805F0F2FB89
:101E480038B904EB44039A001B4B134400225A721E
:101E5800C1E704EB44039A00174B134401225A725A
:101E6800B9E74FF40051134805F0DCFB38B904EB2F
:101E780044039A00104B134400225A72ABE704EB58
:101E880044039A000C4B134401225A72A3E70A49EF
:101E98006300181982000A44507A10720023D37222
:101EA800AAE704EB4404A200034B13440022DA72AD
:101EB800A2E700BF00100140B80B00202DE9F8434D
:101EC80005468846002428E0DFF86891484606F071
:101ED800A8FB5149484606F0B7FE0021484606F0DF
:101EE80091FF4E4B642202FB043702373846FEF757
:101EF80097F9C0F116035B0803EB430359003B460F
:101F08000C2201F0FE01484606F060FE0121484619
:101F180006F078FF71E00134E4B2112C77D840481C
:101F280004F0E9FA2746642303FB04F33B4AD35A37
:101F3800AB42F0D1642303FB0423DE6D002EEAD00C
:101F4800B5F5807F08D0B5F5007F05D0B5F5407FA1
:101F580002D0B5F5806FB7D1DFF8D890484606F0C3
:101F680060FB2D49484606F06FFE0021484606F002
:101F780049FF2C4B0C221821484606F027FE012168
:101F8800484606F03FFF254A642303FB072702372C
:101F98003946002007F002FA034618220A2148466B
:101FA80006F014FE3946012007F0F8F9034624220A
:101FB8000A21484606F00AFE3946022007F0EEF9E3
:101FC800034630220A21484606F000FE394603201F
:101FD80007F0E4F903463C220A21484606F0F6FDDC
:101FE800114B1B78013303EB43039A000F4B02F0AC
:101FF800FC020121484606F0E9FD0D490D4806F0AE
:1020080023FE41462046B0470B4B1D8001E005F4F6
:102018007F40BDE8F88300BF9414010818DD00086C
:10202800080D002004DD00080100002014DD000870
:10203800C0050108600A0020EE03002008B5032847
:102048001BD8DFE800F0834102B7784B41F2707289
:102058001A80774B1B8883B1B3F5807F0ED0B3F518
:10206800007F0BD0B3F5407F08D0B3F5806F1CD04C
:1020780001466F4B1888FFF721FF08BD6D490A78A4
:102088000132D2B20A70042AF2D90A46012111702B
:1020980003F580739BB2664A1380B3F5806FE7D966
:1020A80013464FF480721A80E2E7624A13780133CC
:1020B800DBB21370012BDBD9134601221A705C4B7B
:1020C8004FF480721A80D3E7584B41F270721A802D
:1020D800574B1B88002BD0D0B3F5807F0ED0B3F5BB
:1020E800007F0BD0B3F5407F08D0B3F5806F1ED0CA
:1020F80001464F4B1888FFF7E1FEBEE74D490A78C5
:10210800013AD2B20A70002AF2D10A4604211170AB
:10211800A3F580739BB2464A1380FF2BE8D8134679
:102128004FF480621A80434B01221A70E0E7414A5B
:102138001378013BDBB21370002BD9D1134604226C
:102148001A703B4B4FF440721A80D1E7384B1B880A
:1021580093B9394A138801339BB21380012B8CD968
:10216800134600221A804FF48073314A13800146C7
:102178001846FFF7A3FE80E7B3F5807F08D0B3F5D4
:10218800007F05D0B3F5407F02D0B3F5806F0CD146
:10219800284A1078184480B2254B1880234BC8224F
:1021A8001A80FF21FFF78AFE67E701461846FFF706
:1021B80085FE62E71E4B1B88FBB1B3F5807F0DD00F
:1021C800B3F5007F0AD0B3F5407F07D0B3F5806F31
:1021D80004D003F47F43164A138005E0144B002211
:1021E8001A80144B01221A700146114B1888FFF708
:1021F80065FE124808F04AFA3FE7114BDB6823F006
:102208007F4323F0FF030F4A93427FF436AF0C4B12
:10221800997801297FF431AF0B4B00221A70084BD3
:102228005A7C0A4808F0ACF927E700BFF003002001
:10223800EC03002001000020F4030020C8DC0008A3
:10224800700B0020000101009C0B0020D8DC000866
:1022580038B504F065FB454B1B68C01A04286BD8D9
:1022680038BD434B1B88002B34D1424A13880133B5
:102278009BB21380642B2DD9134600221A804FF489
:1022880080703B4B18802146FFF718FE22E03A4841
:1022980004F031F905EB45029300384AD35820463B
:1022A800984705EB45039A00344B13441B7A012BDE
:1022B80033D00134E4B2032C40D82046FFF776FD32
:1022C800254604EB44039A002C4B13441B7A0BB9A4
:1022D800002CC6D005EB45039A00284B13441B7A03
:1022E800002BDED1254B13449B7A002BD9D12349EF
:1022F8008B1801209872224B41F2707018808A580E
:10230800204B9A42C3D005EB4502930000221D4999
:102318001A481844FFF700FDC3E7184B13449B7A8B
:10232800012BC6D10022134B1A8005EB4505A900E5
:10233800124B0B449A72BCE70024BCE7104B1B8875
:1023480013B1013B0E4A13800D4B1B8813B9084B80
:1023580000221A800C4B1B8813B1013B0A4A1380D8
:1023680004F0DEFA014B18607AE700BFF40B002096
:10237800EC030020F4030020080D0020B80B002017
:10238800F203002045200008F003002000207047D9
:10239800034B044A1168526819605A60002070475C
:1023A8005C0C0020900C0020002070470020704733
:1023B80000207047F0B583B005460C465A2200212C
:1023C8009C4807F063F9642000FB05F09A4B1D5AFE
:1023D8009A4B1B889D4202D0994B00221A80012CEF
:1023E80023D0022C7DD03CB9954B1B88042B00F2DE
:1023F800D1800133924A1380924C9349204606F0CB
:1024080023FC42F2F13324220521204606F078FB12
:102418008B4B1B88052B00F20A81DFE813F0CE00F6
:1024280025016A01A501E0012502854B1B88052BC2
:10243800D7D8DFE803F003101D2A3744834B93F9FC
:102448000530162B03DC0133804A5371C9E77F4BF3
:1024580000225A71C5E77D4B93F906303A2B03DC0D
:1024680001337A4A9371BCE7784B00229A71B8E736
:10247800764B93F907303A2B03DC0133734AD37157
:10248800AFE7724B0022DA71ABE7704B93F9033078
:102498001E2B03DC01336D4AD370A2E76B4B00227D
:1024A800DA709EE7694B93F902300B2B03DC01339A
:1024B800664A937095E7654B00229A7091E7634BE3
:1024C800B3F9003040F63202934203DC01335F4A2D
:1024D800138086E75D4B6FF01C021A7007225A7052
:1024E8007FE7574B1B88052B3FF67DAFDFE803F0EE
:1024F800030F1B273441554B93F905301BB1013BA2
:10250800524A53716FE7514B17225A716BE74F4B81
:1025180093F906301BB1013B4C4A937163E74B4B6F
:102528003B229A715FE7494B93F907301BB1013B96
:10253800464AD37157E7454B3B22DA7153E7434B81
:1025480093F90330012B03DD013B404AD3704AE77E
:102558003E4B1F22DA7046E73C4B93F90230012BC1
:1025680003DD013B394A93703DE7384B0C229A70E2
:1025780039E7364BB3F9003040F2E372934203DD9A
:10258800013B324A13802EE7304B33221A7008225F
:102598005A7028E72E482D4B1A685B680260436022
:1025A8004379073B4371072102F068F9294B3C2224
:1025B8003021244806F00AFB1EE7224C2649204613
:1025C80006F042FB0021204606F01CFC1F4F194E66
:1025D80097F905202149304608F070F8334624223F
:1025E8001146204606F0F2FA0121204606F00AFCC0
:1025F80097F9073097F906201949304608F05EF830
:10260800334624223021204606F0E0FAB7F900309C
:10261800009397F9023097F903201249304608F0E1
:102628004DF8334630221E21204606F0CFFA2846C0
:1026380003B0F0BD000C002018DD0008EE030020F8
:10264800B40B0020600A00208C5801085C0C0020A4
:10265800900C002074E5000894140108FCDB0008C5
:10266800ACE500087CE500089D4E9E49304606F022
:10267800EBFA9D4F9D4C97F905209D49204608F09F
:102688001DF8234624221146304606F09FFA002101
:10269800304606F0B7FB97F906209649204608F021
:1026A8000DF8234624223621304606F08FFA012100
:1026B800304606F0A7FB97F907208F49204607F018
:1026C800FDFF234624224221304606F07FFAB7F95F
:1026D8000030009397F9023097F903208749204684
:1026E80007F0ECFF234630221E21304606F06EFA32
:1026F8009DE77B4C7B49204606F0A6FA7A4F7B4E35
:1027080097F9063097F905207D49304607F0D6FF3E
:10271800334624221146204606F058FA0021204666
:1027280006F070FB97F907207249304607F0C6FF9C
:10273800334624224821204606F048FA0121204643
:1027480006F060FBB7F90030009397F9023097F96B
:1027580003206A49304607F0B1FF334630221E2174
:10276800204606F033FA62E75D4C5E49204606F0E3
:102778006BFA5D4F97F907305C4E009397F9063076
:1027880097F905205F49304607F098FF3346242221
:102798001146204606F01AFA0021204606F032FBC0
:1027A80097F903205349304607F088FF3346302213
:1027B8001E21204606F00AFA0121204606F022FBD7
:1027C800B7F9003097F902204F49304607F076FFF5
:1027D800334630222A21204606F0F8F927E7404EF2
:1027E8004049304606F030FA3F4F97F907303F4CE2
:1027F800009397F9063097F905204249204607F0DB
:102808005DFF234624221146304606F0DFF997F98A
:1028180003203E49204607F051FF234630221E215F
:10282800304606F0D3F90021304606F0EBFA97F966
:1028380002203049204607F041FF23463022114646
:10284800304606F0C3F90121304606F0DBFAB7F945
:1028580000202F49204607F031FF234630223C2133
:10286800304606F0B3F9E2E61D4C1E49204606F054
:10287800EBF91D4F97F907301C4E009397F9063076
:1028880097F905201F49304607F018FF33462422E0
:102898001146204606F09AF997F9023097F9032075
:1028A8001C49304607F00AFF334630221E212046D5
:1028B80006F08CF90021204606F0A4FAB7F90020AA
:1028C8001549304607F0FAFE3346302242212046A9
:1028D80006F07CF90121204606F094FAA7E600BF2D
:1028E800600A0020941401085C0C0020000C0020F1
:1028F8008CE50008FCDB000894E500087CE500088E
:102908009CE50008A8E5000880E50008B8E500088F
:10291800C0E50008C8E5000884DC0008F8B50546ED
:102928000C465A220021794806F0B0FE642000FBCC
:1029380005F0774B1D5A774B1B889D4212D0764B7A
:102948001989764B1960764B00221A80754BA3FBC8
:102958000123DB08744A137003EB83035A008A1AB5
:10296800724B1A70012C2AD0022C45D034B96C4B0A
:102978001B88002B5BD10133694A1380684B1B8885
:10298800002B72D0012B00F09880694E694C3146BB
:10299800204606F059F942F2F7332422192120463D
:1029A80006F0AEF83146204606F04EF942F2F6330C
:1029B80024225021204606F0A3F82846F8BD584B9B
:1029C8001B884BB1012BCFD1584B1B78082B0FD844
:1029D8000133564A1370C7E7534B1B78082B03D8AB
:1029E8000133514A1370BFE74F4B00221A70BBE7FF
:1029F8004E4B00221A70B7E7494B1B8843B1012B95
:102A0800B4D14A4B1B7873B1013B484A1370ADE708
:102A1800454B1B781BB1013B434A1370A6E7424B59
:102A280009221A70A2E7414B09221A709EE73E4B11
:102A38001B7803EB83035A003C4B1B781344374A3B
:102A48001360354C2381FEF763FC3A4E3A49304611
:102A580006F0FAF8394B3C223021304606F0B6F839
:102A68002189374807F08CFD88E7324C35492046E4
:102A780006F0EAF80021204606F0C4F9324F234E4A
:102A8800294B1A783946304607F018FE3346242277
:102A98003221204606F09AF80121204606F0B2F9C4
:102AA800224B1A783946304607F008FE334624226E
:102AB8003E21204606F08AF867E71E4C2149204649
:102AC80006F0C2F8204F114E174B1A783946304697
:102AD80007F0F4FD334624223221204606F076F82A
:102AE8000021204606F08EF9104B1A7839463046F8
:102AF80007F0E4FD334624223E21204606F066F81E
:102B08000121204606F07EF93FE700BF000C0020B7
:102B180018DD0008EE0300203C0B0020F80B002015
:102B2800B40B0020CDCCCCCC650C0020640C00206C
:102B38008C580108600A00209414010874E5000804
:102B4800F4E40008FCEA0008E8E40008F8B50546E3
:102B58000C465A2200213F4806F098FD642000FBED
:102B680005F03D4B1E5A3D4B1B889E4203D03C4B03
:102B7800DA783C4B1A60022C2BD0012C34D0394B1C
:102B88001B68002B3BD0374B1B68012B44D0364DBC
:102B98003649284606F058F82E4F3846FDF740FBD0
:102BA800C0F11601324B1E2201F0FE01284606F044
:102BB8000DF83846FDF734FBC0F116012D4B2D22D8
:102BC80001F0FE01284606F001F8002C31D030460D
:102BD800F8BD244B1B681BB90133224A1360CCE7AC
:102BE800204B00221A60C8E71E4B1B681BB1013B33
:102BF8001C4A1360C3E71B4B01221A60BFE71A4D3A
:102C08001D49284606F020F842F213731E220421BB
:102C1800284605F075FFB6E7134D1749284606F014
:102C280013F842F213732D220421284605F068FF99
:102C3800ADE70C4B1A780A4BDA70FEF769FB0F49BF
:102C4800284606F001F80E4B3C223021284605F0B4
:102C5800BDFFBCE7000C002018DD0008EE030020D3
:102C68003C0B0020F80B0020600A0020601E0108C1
:102C78005CE5000868E500088C5801089414010810
:102C880074E50008F8B504460D465A2200214E485E
:102C980006F0FCFC642000FB04F04C4B1F5A4C4B24
:102CA8001B889F4203D04B4B1A794B4B1A60022D5D
:102CB8003BD0012D45D0484B1B68002B4CD0464BD0
:102CC8001B68012B55D0444B1B68022B5ED0434C2C
:102CD8004349204605F0B8FF3B4E3046FDF7A0FAC1
:102CE800C0F116013F4B1C2201F0FE01204605F001
:102CF8006DFF3046FDF794FAC0F116013A4B2822D1
:102D080001F0FE01204605F061FF3046FDF788FA24
:102D1800C0F11601354B342201F0FE01204605F0C2
:102D280055FF002D3FD03846F8BD2B4B1B68012BB3
:102D380003D9294B00221A60BBE70133264A1360E6
:102D4800B7E7254B1B681BB1013B234A1360B2E769
:102D5800214B02221A60AEE7204C2549204605F097
:102D680073FF42F213731C220421204605F0C8FEAB
:102D7800A5E71A4C1E49204605F066FF42F2137378
:102D880028220421204605F0BBFE9CE7134C184975
:102D9800204605F059FF42F21373342204212046DD
:102DA80005F0AEFE93E70C4B1A780A4B1A71FEF742
:102DB800AFFA0B49204605F047FF0E4B3E22302163
:102DC800204605F003FFAEE7000C002018DD0008E0
:102DD800EE0300203C0B0020F80B0020600A0020C6
:102DE800941401083CE5000844E5000850E5000893
:102DF8008C58010874E500082DE9F04182B00446BA
:102E08000D465A2200213F4806F040FC642000FB92
:102E180004F03D4B33F800803C4B1B88984503D0A9
:102E28003B4B5A783B4B1A603B4C3C49204605F0DB
:102E38000BFF4FF4185324220521204605F060FEAD
:102E4800012D3FD0022D45D0324F3878FEF7B6F924
:102E5800314C0A2300933B7818221421204605F0B0
:102E680092FB2E49204605F0EFFE42F2EC33302269
:102E78002821204605F044FE42F2EB3330224D2152
:102E8800204605F03DFE1F4E3A682549304607F0BA
:102E980015FC2449204605F0D7FE3046FDF7C0F959
:102EA800C0F11600400800EB4000410033463022D4
:102EB80001F0FE01204605F089FE9DB1404602B0B2
:102EC800BDE8F081134B1B68632BBBD80133114A53
:102ED8001360B7E70F4B1B68002BB5D0013B0D4AB9
:102EE8001360B1E73A780A4B5A70FEF711FA0D49A8
:102EF800204605F0A9FE0C4B3C223021204605F067
:102F080065FEDBE7000C002018DD0008EE0300205A
:102F18003C0B0020F80B0020600A00208C580108A8
:102F280034E500089414010874E50008F8B505466E
:102F38000C465A220021414806F0A8FB642000FBF9
:102F480005F03F4B1E5A3F4B1B889E4203D03E4B19
:102F58009A783E4B1A60022C2BD0012C34D03B4B74
:102F68001B68002B3BD0394B1B68012B46D0384DD2
:102F78003849284605F068FE304F3846FDF750F9C5
:102F8800C0F11601344B1E2201F0FE01284605F05F
:102F98001DFE3846FDF744F9C0F116012F4B2D22CE
:102FA80001F0FE01284605F011FE002C35D0304610
:102FB800F8BD264B1B681BB90133244A1360CCE7C4
:102FC800224B00221A60C8E7204B1B681BB1013B4B
:102FD8001E4A1360C3E71D4B01221A60BFE71C4D50
:102FE8001F49284605F030FE42F213731E220421C1
:102FF800284605F085FDFEF7F1F8B4E7144D1849A9
:10300800284605F021FE42F213732D22042128469A
:1030180005F076FDFEF7DCF8A9E70C4B1A780A4BA9
:103028009A70FEF775F90F49284605F00DFE0E4B0C
:103038003C223021284605F0C9FDB8E7000C0020E5
:1030480018DD0008EE0300203C0B0020F80B0020E0
:10305800600A0020601E010814E5000824E5000845
:103068008C5801089414010874E50008F8B5044662
:103078000F465A220021284806F008FB642000FB6E
:1030880004F0264B1E5A264B1B889E4202D0254B25
:1030980000221A60244B9B68244A934205D94FF4B6
:1030A800616202FB03F3204A9360214C21492046C8
:1030B80005F0CAFD42F2F03336223721204605F0EA
:1030C8001FFD194B9A681C4BA3FB0232124DD20A02
:1030D8001A49284607F0F2FA1949204605F0B4FDC6
:1030E800184B18220C21204605F070FD2846FDF7E4
:1030F80097F8C0F11600400800EB400041002B464D
:10310800242201F0FE01204605F060FD0FB1304693
:10311800F8BDFEF7FDF8FAE7000C002018DD0008FE
:10312800EE030020F80B0020840B0020FF5025023E
:10313800600A00208C580108C5B3A2910CE600086B
:103148009414010818E60008F8B504460F465A22F8
:103158000021284806F09AFA642000FB04F0264B68
:103168001E5A264B1B889E4202D0254B00221A600D
:10317800244BDB68244A934205D94FF4616202FB71
:1031880003F3204AD360214C2149204605F05CFD19
:1031980042F2F03336223721204605F0B1FC194BB4
:1031A800DA681C4BA3FB0232124DD20A1A49284690
:1031B80007F084FA1949204605F046FD184B1822F5
:1031C8000621204605F002FD2846FDF729F8C0F142
:1031D8001600400800EB400041002B46242201F075
:1031E800FE01204605F0F2FC0FB13046F8BDFEF7AF
:1031F8008FF8FAE7000C002018DD0008EE03002025
:10320800F80B0020840B0020FF502502600A0020E4
:103218008C580108C5B3A2910CE600089414010863
:10322800D4E50008F8B504460F465A22002128487C
:1032380006F02CFA642000FB04F0264B1E5A264B9D
:103248001B889E4202D0254B00221A60244B1B6922
:10325800244A934205D94FF4616202FB03F3204AE2
:103268001361214C2149204605F0EEFC42F2F0336F
:1032780036223721204605F043FC194B1A691C4BAE
:10328800A3FB0232124DD20A1A49284607F016FA51
:103298001949204605F0D8FC184B1822062120466B
:1032A80005F094FC2846FCF7BBFFC0F11600400867
:1032B80000EB400041002B46242201F0FE0120468D
:1032C80005F084FC0FB13046F8BDFEF721F8FAE7A7
:1032D800000C002018DD0008EE030020F80B002089
:1032E800840B0020FF297515600A00208C580108FE
:1032F800C5B3A291E8E5000894140108F4E50008B4
:103308002DE9F04182B005460C465A2200219B481F
:1033180006F0BCF9642000FB05F0994B1D5A994B47
:103328001B889D420CD00023974A1360974A13804C
:10333800974A1370974A1370974A1370974A1370F5
:1033480034B9924B1B88022B1DD801338F4A138046
:10335800012C77D0022C00F0AD80914C9149204689
:1033680005F072FC904B18221221204605F02EFC25
:10337800864B1B88032B00F2FD80DFE813F0D0009A
:1033880025015B019101824B1B78824A11786422E6
:1033980002FB01F24FF47A7101FB03237F4A127892
:1033A80002EB820251000B447B4A12781344764A9E
:1033B80013607E4A528993421BD0704F3846FCF7FF
:1033C8002FFFC0F11600400800EB40004100744E8A
:1033D8003B46242201F0FE01304605F0F7FB744B12
:1033E80030221221304605F0F1FB684B00221A808A
:1033F800AEE7704B00229A60FEF7B0F8FDF788FF41
:103408005E4E3046FCF70CFFC0F11600400800EB9A
:1034180040004100DFF888813346242201F0FE0194
:10342800404605F0D3FB644F0FCF30607160B26047
:10343800F36038683061614B30221221404605F054
:10344800C5FB85E7514B1B88032B83D8DFE803F0C6
:10345800020E1A264E4B1B78082B03D801334C4A10
:10346800137077E74A4B00221A7073E7494B1B78B1
:10347800082B03D80133474A13706BE7454B0022EA
:103488001A7067E7454B1B78082B03D80133434A6A
:1034980013705FE73F4B00221A705BE73E4B1B78C7
:1034A800082B03D801333C4A137053E73A4B0022E8
:1034B8001A704FE7354B1B88032B3FF64EAFDFE8FA
:1034C80003F0020D1823324B1B781BB1013B304A25
:1034D800137042E72E4B09221A703EE72D4B1B78DA
:1034E8001BB1013B2B4A137037E72A4B09221A708C
:1034F80033E72A4B1B781BB1013B284A13702CE792
:10350800264B09221A7028E7234B1B781BB1013B75
:10351800214A137021E7204B09221A701DE7204C1D
:103528002049204605F090FB0021204605F06AFC62
:10353800124E174B1A782249304607F0BFF8334627
:1035480024223021204605F041FB0121204605F0C8
:1035580059FC114B1B780093104B1B780D4A1278BD
:103568001849304607F0AAF8334624223621204667
:1035780005F02CFB284602B0BDE8F081000C0020C5
:1035880018DD0008EE030020F80B0020B40B002023
:10359800660C0020FC0B0020640C0020650C002049
:1035A800600A002094140108D4E400083C0B0020B1
:1035B800C4E40008840B00209CE40008B0E4000880
:1035C800E8E40008E4E400084B4C4C49204605F0C8
:1035D8003BFB4B4F4B4E4C4B1A783946304607F065
:1035E8006DF8334624223021204605F0EFFA0021F9
:1035F800204605F007FC454B1A783946304607F057
:103608005DF8334624223621204605F0DFFA0121F1
:10361800204605F0F7FB3E4B1B783E4A12783E49A0
:10362800304607F04BF8334624223C21204605F06B
:10363800CDFA9FE7304C3149204605F005FB314E65
:10364800324B1B78304A12783349304607F036F847
:10365800334624223021204605F0B8FA00212046BE
:1036680005F0D0FB264F2B4B1A783946304607F029
:1036780025F8334624223C21204605F0A7FA0121EB
:10368800204605F0BFFB224B1A783946304607F032
:1036980015F8334624224221204605F097FA69E7B7
:1036A800154C1649204605F0CFFA164E194B1B78D3
:1036B8000093164B1B78144A12781849304606F0C6
:1036C800FDFF334624223021204605F07FFA0021F1
:1036D800204605F097FB0E4B1A780949304606F04C
:1036E800EDFF334624224221204605F06FFA0121DE
:1036F800204605F087FB3DE7600A00209414010886
:10370800E8E40008000C0020660C0020FC0B0020F8
:10371800640C0020650C0020ECE40008E4E40008D8
:103728002DE9F04182B005460C465A2200219C48FA
:1037380005F0ACFF642000FB05F09A4B1D5A9A4B2C
:103748001B889D420CD00023984A1360984A138026
:10375800984A1370984A1370984A1370984A1370CD
:1037680034B9934B1B88022B1DD80133904A138020
:10377800012C79D0022C00F0AF80924C924920465F
:1037880005F062FA914B18221221204605F01EFA24
:10379800874B1B88032B00F2FF80DFE813F0D20071
:1037A80027015D019301834B1B78834A11786422BA
:1037B80002FB01F24FF47A7101FB0323804A12786D
:1037C80002EB820251000B447C4A12781344774A78
:1037D80013607F4A528993421BD0714F3846FCF7D9
:1037E8001FFDC0F11600400800EB40004100754E77
:1037F8003B46242201F0FE01304605F0E7F9754BFF
:1038080030221221304605F0E1F9694B00221A8076
:10381800AEE7714B0022DA60FDF7A0FEFDF778FDF8
:103828005F4E3046FCF7FCFCC0F11600400800EB88
:1038380040004100DFF88C813346242201F0FE016C
:10384800404605F0C3F9654F0FCF30607160B26034
:10385800F36038683061BB88B382614B30220C2139
:10386800404605F0B3F983E7514B1B88032B81D8F9
:10387800DFE803F0020E1A264E4B1B78082B03D8FC
:1038880001334C4A137075E74A4B00221A7071E7EE
:10389800494B1B78082B03D80133474A137069E753
:1038A800454B00221A7065E7454B1B78082B03D857
:1038B8000133434A13705DE73F4B00221A7059E702
:1038C8003E4B1B78082B03D801333C4A137051E751
:1038D8003A4B00221A704DE7354B1B88032B3FF6F5
:1038E8004CAFDFE803F0020D1823324B1B781BB1F5
:1038F800013B304A137040E72E4B09221A703CE70F
:103908002D4B1B781BB1013B2B4A137035E72A4B13
:1039180009221A7031E72A4B1B781BB1013B284A50
:1039280013702AE7264B09221A7026E7234B1B78C7
:103938001BB1013B214A13701FE7204B09221A7063
:103948001BE7204C2049204605F07EF9002120463F
:1039580005F058FA124E174B1A782249304606F0ED
:10396800ADFE334624223021204605F02FF90121EF
:10397800204605F047FA114B1B780093104B1B7833
:103988000D4A12781849304606F098FE334624222C
:103998003621204605F01AF9284602B0BDE8F08124
:1039A800000C002018DD0008EE030020F80B0020B2
:1039B800B40B0020660C0020FC0B0020640C0020D7
:1039C800650C0020600A002094140108D4E4000863
:1039D8003C0B0020C4E40008840B00204CE40008E1
:1039E80064E40008E8E40008E4E400084B4C4C49AF
:1039F800204605F029F94B4F4B4E4C4B1A78394667
:103A0800304606F05BFE334624223021204605F07E
:103A1800DDF80021204605F0F5F9454B1A783946BE
:103A2800304606F04BFE334624223621204605F068
:103A3800CDF80121204605F0E5F93E4B1B783E4ABA
:103A480012783E49304606F039FE334624223C219E
:103A5800204605F0BBF89FE7304C3149204605F079
:103A6800F3F8314E324B1B78304A127833493046DE
:103A780006F024FE334624223021204605F0A6F81D
:103A88000021204605F0BEF9264F2B4B1A783946FF
:103A9800304606F013FE334624223C21204605F02A
:103AA80095F80121204605F0ADF9224B1A783946E0
:103AB800304606F003FE334624224221204605F014
:103AC80085F869E7154C1649204605F0BDF8164EED
:103AD800194B1B780093164B1B78144A1278184917
:103AE800304606F0EBFD334624223021204605F00F
:103AF8006DF80021204605F085F90E4B1A78094922
:103B0800304606F0DBFD334624224221204605F0EC
:103B18005DF80121204605F075F93DE7600A0020AF
:103B280094140108E8E40008000C0020660C00204A
:103B3800FC0B0020640C0020650C0020ECE400085D
:103B4800E4E400082DE9F04182B005460C465A220B
:103B580000219B4805F09AFD642000FB05F0994B75
:103B68001D5A994B1B889D420CD00023974A13601D
:103B7800974A1380974A1370974A1370974A13709D
:103B8800974A137034B9924B1B88022B1DD8013306
:103B98008F4A1380012C77D0022C00F0AD80914C15
:103BA8009149204605F050F8904B182212212046E2
:103BB80005F00CF8864B1B88032B00F2FD80DFE82C
:103BC80013F0D00025015B019101824B1B78824ADA
:103BD8001178642202FB01F24FF47A7101FB03238E
:103BE8007F4A127802EB820251000B447B4A12781A
:103BF8001344764A13607E4A528993421BD0704F11
:103C08003846FCF70DFBC0F11600400800EB4000F9
:103C18004100744E3B46242201F0FE01304604F078
:103C2800D5FF744B30221221304604F0CFFF684B89
:103C380000221A80AEE7704B00221A61FDF78EFC55
:103C4800FDF766FB5E4E3046FCF7EAFAC0F1160057
:103C5800400800EB40004100DFF888813346242209
:103C680001F0FE01404604F0B1FF644F0FCF306011
:103C78007160B260F3603B883382614B3022182157
:103C8800404604F0A3FF85E7514B1B88032B83D8DC
:103C9800DFE803F0020E1A264E4B1B78082B03D8D8
:103CA80001334C4A137077E74A4B00221A7073E7C6
:103CB800494B1B78082B03D80133474A13706BE72D
:103CC800454B00221A7067E7454B1B78082B03D831
:103CD8000133434A13705FE73F4B00221A705BE7DA
:103CE8003E4B1B78082B03D801333C4A137053E72B
:103CF8003A4B00221A704FE7354B1B88032B3FF6CF
:103D08004EAFDFE803F0020D1823324B1B781BB1CE
:103D1800013B304A137042E72E4B09221A703EE7E6
:103D28002D4B1B781BB1013B2B4A137037E72A4BED
:103D380009221A7033E72A4B1B781BB1013B284A2A
:103D480013702CE7264B09221A7028E7234B1B789F
:103D58001BB1013B214A137021E7204B09221A703D
:103D68001DE7204C2049204604F06EFF0021204624
:103D780005F048F8124E174B1A782249304606F0DB
:103D88009DFC334624223021204604F01FFF0121E8
:103D9800204605F037F8114B1B780093104B1B7821
:103DA8000D4A12781849304606F088FC334624221A
:103DB8003621204604F00AFF284602B0BDE8F0810B
:103DC800000C002018DD0008EE030020F80B00208E
:103DD800B40B0020660C0020FC0B0020640C0020B3
:103DE800650C0020600A002094140108D4E400083F
:103DF8003C0B0020C4E40008840B002078E4000891
:103E08008CE40008E8E40008E4E400084B4C4C4962
:103E1800204604F019FF4B4F4B4E4C4B1A7839464D
:103E2800304606F04BFC334624223021204604F06D
:103E3800CDFE0021204604F0E5FF454B1A783946AF
:103E4800304606F03BFC334624223621204604F057
:103E5800BDFE0121204604F0D5FF3E4B1B783E4AAB
:103E680012783E49304606F029FC334624223C218C
:103E7800204604F0ABFE9FE7304C3149204604F061
:103E8800E3FE314E324B1B78304A127833493046C4
:103E980006F014FC334624223021204604F096FE16
:103EA8000021204604F0AEFF264F2B4B1A783946E6
:103EB800304606F003FC334624223C21204604F019
:103EC80085FE0121204604F09DFF224B1A783946D1
:103ED800304606F0F3FB334624224221204604F004
:103EE80075FE69E7154C1649204604F0ADFE164EDE
:103EF800194B1B780093164B1B78144A12781849F3
:103F0800304606F0DBFB334624223021204604F0FD
:103F18005DFE0021204604F075FF0E4B1A78094912
:103F2800304606F0CBFB334624224221204604F0DB
:103F38004DFE0121204604F065FF3DE7600A0020A0
:103F480094140108E8E40008000C0020660C002026
:103F5800FC0B0020640C0020650C0020ECE4000839
:103F6800E4E400082DE9F04182B005460C465A22E7
:103F780000219F4805F08AFB642303FB05F39D4A53
:103F8800D25A9D4B1B889A4215D000239B4A136036
:103F98009B4A13809B4A13709B4A13709B4A137069
:103FA8009B4A13709B4E9C4A03CA306071609B4ABF
:103FB80013709B4A137044B9994B1B782BB9984BD3
:103FC80001221A708E4B00221A80954B1B781BB168
:103FD800631E9BB2012B25D9904B1B7833B334B9A0
:103FE800874B1B88022B58D80133854A1380012C34
:103FF80000F08F80022C00F0C5808A4C8A49204648
:1040080004F022FE894B18221221204604F0DEFD1E
:104018007B4B1B88032B38D8DFE813F018014401C9
:104028007A01B0017D4B01221A70D5E7DFF81882BA
:104038007C4E4146304604F007FE764CB4F9003019
:104048006B4F009394F9023094F90320784938466D
:1040580006F034FB3B4620221221304604F0B6FD20
:1040680094F90730009394F9063094F905207149C2
:10407800384606F023FB4146304604F0E5FD3B4652
:1040880030221221304604F0A1FD642000FB05F027
:10409800584B185A02B0BDE8F0815A4B1B785A4A5F
:1040A8001178642202FB01F24FF47A7101FB0323B9
:1040B800574A127802EB820251000B44534A127895
:1040C80013444E4A13605C4A928993420ED0554E6F
:1040D8005549304604F0B8FD584B3022122130467D
:1040E80004F074FD464B00221A8080E7544A4A4B7C
:1040F8001068516803C3FDF70BF94A4E4A49304628
:1041080004F0A2FD4F4B30220021304604F05EFD42
:104118006DE73B4B1B88032B3FF66CAFDFE803F0E2
:10412800020E1A26374B1B78082B03D80133354A61
:1041380013705FE7334B00221A705BE7324B1B7832
:10414800082B03D80133304A137053E72E4B002253
:104158001A704FE72E4B1B78082B03D801332C4AD3
:10416800137047E7284B00221A7043E7274B1B7848
:10417800082B03D80133254A13703BE7234B002251
:104188001A7037E71E4B1B88032B3FF636AFDFE864
:1041980003F0020D18231B4B1B781BB1013B194A76
:1041A80013702AE7174B09221A7026E7164B1B785B
:1041B8001BB1013B144A13701FE7134B09221A70F5
:1041C8001BE7134B1B781BB1013B114A137014E713
:1041D8000F4B09221A7010E70C4B1B781BB1013BDF
:1041E8000A4A137009E7094B09221A7005E700BF4C
:1041F800000C002018DD0008EE030020F80B00205A
:10420800B40B0020660C0020FC0B0020640C00207E
:10421800650C00205C0C0020640B00205B0C002067
:104228005A0C0020600A002094140108D4E4000805
:1042380054DC000820E400083C0B0020C4E400081B
:10424800900C002034E400089C360108614C624957
:10425800204604F0F9FC0021204604F0D3FD5F4E0F
:104268005F4B1A785F49304606F028FA3346242215
:104278003021204604F0AAFC0121204604F0C2FDAA
:10428800594B1B780093594B1B78594A1278594956
:10429800304606F013FA334624223621204604F02D
:1042A80095FCF2E64B4C4C49204604F0CDFC4D4FB2
:1042B8004A4E4B4B1A783946304606F0FFF93346DA
:1042C80024223021204604F081FC0021204604F0FD
:1042D80099FD474B1A783946304606F0EFF93346D0
:1042E80024223621204604F071FC0121204604F0E6
:1042F80089FD3D4B1B783D4A12783F49304606F010
:10430800DDF9334624223C21204604F05FFCBCE65C
:10431800304C3149204604F097FC304E344B1B7822
:104328002F4A12783449304606F0C8F93346242219
:104338003021204604F04AFC0021204604F062FDAA
:10434800284F2A4B1A783946304606F0B7F93346D3
:1043580024223C21204604F039FC0121204604F0A7
:1043680051FD214B1A783946304606F0A7F93346F5
:1043780024224221204604F029FC86E6154C1649E1
:10438800204604F061FC154E184B1B780093184B1F
:104398001B78134A12781749304606F08FF93346CE
:1043A80024223021204604F011FC0021204604F08C
:1043B80029FD0D4B1A780B49304606F07FF9334634
:1043C80024224221204604F001FC0121204604F069
:1043D80019FD5AE6600A002094140108000C002018
:1043E800660C0020E8E40008640C0020650C00203E
:1043F800FC0B0020E4E40008ECE4000810B584B0ED
:104408000024019403943F230093012302936946F7
:10441800114803F013F8114B1C70104B1B78052B37
:104428000AD80E4800EB8302002151709170D170B8
:10443800117101330370F0E7094B00225A739A7324
:10444800DA731A731A709A701A7402F069FA034BC5
:10445800D86104B010BD00BF00100140680C0020F6
:10446800700B002000B583B002F05AFAB74BDB6935
:10447800C01A012802D803B05DF804FB0821B4482B
:1044880003F0D0F8D8B9B34B01221A741A7300227A
:104498005A739A73DA739A705B7C0BB1AD4B5A748A
:1044A800AC4B1B7801930022009213460121AA48C5
:1044B80006F066F802F034FAA44BD861DBE7012174
:1044C800A34803F0AFF840B9022100F1804000F59D
:1044D800883003F0A7F800286AD001219C4803F02F
:1044E800A1F840B9022100F1804000F5883003F0BE
:1044F80099F800287DD00121954803F093F8012808
:1045080000F08E800121924803F08CF8012800F019
:10451800A48001218E4803F085F848B9022100F1F2
:10452800804000F5883003F07DF8002800F0B38063
:104538000121874803F076F848B9022100F180404C
:1045480000F5883003F06EF8002800F0B9800121EA
:104558007F4803F067F8012800F0C88001217C48F3
:1045680003F060F848B9022100F1804000F5883076
:1045780003F058F8012800F0D7800121744803F0AF
:1045880051F8002896D1022100F1804000F58830CA
:1045980003F048F801288DD104216D4803F042F852
:1045A800012887D16B4B00221A7301225A7381E7C5
:1045B800042100F1804000F5883003F033F8012829
:1045C8008BD1644B197811B11B7C012B85D1614BC0
:1045D80000225A739A731A73DA7301B11A705D4B19
:1045E8009B6813B15B4B00229A605A4B00221A74E5
:1045F80060E7042100F1804000F5883003F012F8EC
:1046080001287FF478AF534B1B78012B7FF473AFED
:10461800504B00221A7301229A7302229A7049E7BA
:1046280002214B4802F0FEFF00287FF46BAF042103
:1046380000F1804000F5883002F0F4FF01287FF493
:1046480061AF444B1B78012B3FF65CAF414B002216
:104658001A7301229A731A702CE702213C4802F05F
:10466800E1FF00287FF455AF042100F1804000F5F8
:10467800883002F0D7FF00287FF44BAF354B1B780A
:10468800012B7FF446AF334B01221A731A709A73C9
:104698000022DA730EE7042100F1804000F588302B
:1046A80002F0C0FF00287FF443AF2A4B1B78012B90
:1046B8007FF43EAF274B01221A739A739A70F9E67A
:1046C800042100F1804000F5883002F0ABFF00289B
:1046D8007FF43DAF1F4B1B78002B7FF438AF1D4B89
:1046E80001221A7300225A739A73E3E602211848CA
:1046F80002F098FF00287FF431AF042100F18040D8
:1047080000F5883002F08EFF00287FF427AF114BA8
:104718001B78002B7FF422AF0E4B01221A731A70FC
:104728009A730022DA73C5E60421094802F07AFF79
:1047380000287FF422AF074B1B78002B7FF41DAFB6
:10474800044B01221A735A73B4E600BF680C0020A8
:1047580000100140700B00202CE6000808B5054B3E
:1047680003221A7100224FF48071034802F061FF9E
:1047780008BD00BF880C0020000C014008B502F0FD
:10478800CFF8194A1368C01A1379012B10D05AB2FE
:1047980012B1022B1AD008BD6428FCD900224FF4AC
:1047A8008071124802F045FF0F4B03221A71F2E79D
:1047B80040F2DC539842EED900224FF480710B4846
:1047C80002F037FF084B03221A71E4E7B0F57A7F4D
:1047D800E1D94FF48071054802F031FF02F0A0F8EA
:1047E800014B1860D7E700BF880C0020000C01407F
:1047F80070B586B0002604960E4B9A6942F00802FE
:104808009A619B6903F008030193019B4FF480753B
:1048180002950123039302230593074C02A920461E
:1048280002F00CFE32462946204602F002FF06B08E
:1048380070BD00BF00100240000C014000B58BB0F5
:10484800B0F90030A3F26C73069390F90230013B83
:10485800059390F90330049390F90530039390F988
:104868000630029390F9073001934FF0FF33099314
:1048780001A804F0EDFF0BB05DF804FB38B50D4658
:104888000A4C2268136823F001031360FFF7D6FF70
:104898004FF4616101FB0501204602F070FD2268BA
:1048A800136843F00103136038BD00BF9C0C00205F
:1048B80008B502F035F81D4B18601D481D4B036004
:1048C8004FF0FF3343600023836002F0E3FC88B9B4
:1048D8000121174802F0AAFD4AF2A55398420CD1CB
:1048E800154B5A6A5B6A154B01221A60104802F090
:1048F8005DFD08BDFCF73CFBEAE711486FF01C03BF
:104908000370072343700A2383701123C3700721A0
:104918004171232383711423C371FFF7AFFF4AF258
:10492800A5520121024802F079FDDFE7980C00202A
:104938009C0C00200028004000100240E004424285
:10494800900C002010B582B004460091002301931A
:10495800684604F089FD0368E3714368A3718368BE
:104968006371C368E3708369013323710369013399
:10497800A370436903F26C73238002B010BD00007A
:1049880000B583B002F0E8FC019001990248FFF7F6
:10499800D9FF03B05DF804FB900C002008B50E4861
:1049A8000E4B03604FF48273436000238360C3603F
:1049B800036143614FF4007282612822C26103627D
:1049C800436283620A23C36201F066FC00B908BD32
:1049D800FCF7CEFAFBE700BFB00C00200030014026
:1049E80000B587B0002302930393049305930268EC
:1049F800124B9A4202D007B05DF804FB03F56043FE
:104A08009A6942F480529A619A6902F4805200923B
:104A1800009A9A6942F004029A619B6903F00403C0
:104A28000193019BA023029302230393032305937D
:104A380002A9034802F002FDDDE700BF0030014093
:104A48000008014008B50748074B0360032343608B
:104A580040F6FF73836001F029FD00B908BDFCF73B
:104A680087FAFBE7080D00200030004008B5002257
:104A78000F49104802F0F2FF70B90F490D4803F0D2
:104A880004F860B90D490B4803F0CEFC50B9094849
:104A980003F002F848B908BDFCF76AFAEDE7FCF73D
:104AA80067FAEFE7FCF764FAF1E7FCF761FAF2E777
:104AB80004000020140D0020700000205400002085
:104AC800022805D8DFE800F005040200012070473D
:104AD8000220704702680E4B9A4200D0704700B51A
:104AE80083B003F5DA33DA6942F40002DA61DB698C
:104AF80003F400030193019B00221146142002F0E5
:104B0800C3FD142002F0F4FD03B05DF804FB00BF00
:104B1800005C004008B500F22C41D0F85C0402F0BB
:104B2800D5FF08BD08B500EB4113D3F83C22D0F8F7
:104B38005C0402F0F9FF08BD08B500EB4113DA6B1D
:104B4800D0F85C0403F026F808BD08B5D0F85C047A
:104B580003F0AAF808BD10B504468368022B09D1F2
:104B68000121D4F85C0403F08DF8D4F85C0403F058
:104B78006AF810BDFCF7FCF9F2E7000010B504462E
:104B8800D0F85C0403F081F8A36923B1024A1369E1
:104B980043F00603136110BD00ED00E008B5D0F83E
:104BA8005C0403F07BF808BD10B504461D48C0F846
:104BB8005C44C4F820021C4B0360082343600223B2
:104BC800836000238361C361036200F0DDF930BBB9
:104BD800182300221146D4F8200200F030FE582392
:104BE80000228021D4F8200200F029FEC0230022F0
:104BF8008121D4F8200200F022FE4FF488730022AD
:104C08000121D4F8200200F01AFE4FF4807300222C
:104C18008221D4F8200200F012FE002010BDFCF71B
:104C2800A7F9D5E7380F0020005C004008B5D0F898
:104C3800200200F014FAFFF743FF08BD10B51C4628
:104C480013462246D0F8200200F034FAFFF738FF66
:104C580010BD08B5D0F8200200F055FAFFF730FF74
:104C680008BD08B5D0F8200200F094FDFFF728FF32
:104C780008BD08B5D0F8200200F0BAFDFFF720FF04
:104C880008BDD0F8203211F0800F06D101F07F0165
:104C980003EB411191F82A02704701F07F0103EB01
:104CA800411191F82A00704708B5D0F8200200F0A9
:104CB800EDF9FFF705FF08BD08B5D0F8200200F0B0
:104CC8006FFAFFF7FDFE08BD08B5D0F8200200F026
:104CD80041FAFFF7F5FE08BD08B5D0F8200200F04C
:104CE80058FA08BD00487047F8030020704770471D
:104CF80012230B80004870472000002004230B80FB
:104D080000487047340000200023934216D230B484
:104D18000BE0373401F8134000015C000134002532
:104D28000D550133DBB2934206D2040F092CF0D89B
:104D3800303401F81340EFE730BC7047704700008B
:104D480038B50A4B186804331C6804331B68C0184C
:104D580000D138BD064D0822A91CFFF7D5FF042253
:104D680005F112012046FFF7CFFFF2E7E8F7FF1F32
:104D78003800002008B51A230B80FFF7E1FF01482F
:104D880008BD00BF3800002008B50A4628B9054903
:104D9800054803F0FCF9034808BD0249024803F03E
:104DA800F6F9F8E798130020B0E6000810B5044CAF
:104DB8000A462146034803F0EAF9204610BD00BF21
:104DC800981300209CE6000808B50A4628B905494A
:104DD800054803F0DCF9034808BD0249024803F01E
:104DE800D6F9F8E79813002080E6000808B50A46C7
:104DF80028B90549054803F0CAF9034808BD02491E
:104E0800024803F0C4F9F8E7981300208CE600087C
:104E1800002070470020704710B5054C0146204619
:104E280003F011FB204603F02BFB002010BD00BF50
:104E3800140D002010B5064C00220649204603F048
:104E4800FAFA0549204603F0FEFA002010BD00BF1B
:104E5800140D00208019002098150020094BD3F864
:104E68001832D3F814320BB10120704710B50A4636
:104E78000146044C204603F0DEFA204603F0E9FA26
:104E880010BD00BF140D00207047FEE7FEE7FEE7E7
:104E9800FEE770477047704708B501F035FD08BD5B
:104EA80008B5024800F0C6FB08BD00BF380F002057
:104EB80008B5024802F090FA08BD00BF9C0C00201B
:104EC80008B5024802F0AEF908BD00BF9C0C0020EE
:104ED80008B5022002F0B8FB022002F0B4FB08BDBE
:104EE8007047000082B00E4B9A6942F001029A6145
:104EF8009A6902F001020092009ADA6942F080523F
:104F0800DA61DB6903F080530193019B054A53681A
:104F180023F0E06343F00073536002B0704700BFB2
:104F280000100240000001400268144B9A4200D071
:104F3800704700B583B002F00DFC114BDA6942F0FE
:104F48000062DA61DB6903F000630193019B0D4B9A
:104F580001221A6000221146032002F095FB03206B
:104F680002F0C6FB00221146292002F08DFB292001
:104F780002F0BEFB03B05DF804FB00BF0028004050
:104F8800001002403C044242002866D0F0B587B0C9
:104F9800044690F829345BB3032384F82934206845
:104FA80000F074FC254655F8107B6E460FCD0FC6F1
:104FB8002B683360231D0ECB384600F058FC0021C7
:104FC800206800F06DFC00230E2B16D804EB43126A
:104FD800012182F8291082F828309386002182F86E
:104FE8002B109163D1639A1C5201A1500133EBE756
:104FF80080F82834FFF76EFDCEE700230E2B13D878
:1050080004EB4312002182F8291282F82832938691
:1050180082F82B12C2F83812C2F83C1203F11202BD
:105028005201A1500133E9E7254655F8107B6E4639
:105038000FCD0FC62B683360231D0ECB384600F00A
:1050480031FC002584F82450012384F82934206891
:1050580000F03CFF284607B0F0BD0120704790F8EB
:105068002834012B10D010B50446012180F82814EB
:10507800FFF73DFE206800F027FF206800F0FEFBE8
:10508800002084F8280410BD0220704790F82834C6
:10509800012B0DD010B50446012380F8283480F880
:1050A8002410006800F00AFF002084F8280410BDCE
:1050B8000220704738B54DB2002D1CDB01F07F048B
:1050C800640104F50A74044401F07F012170ED0FB6
:1050D80065702261E37090F82834012B11D00546E1
:1050E800012380F828342146006800F0F1FB0020F5
:1050F80085F8280438BD01F07F046401283404448D
:10510800E2E70220F6E74AB2002A1BDB01F07F0340
:105118005B0103F50A73034401F07F011970D20F94
:105128005A7090F82824012A12D010B5044601229A
:1051380080F828241946006800F05EFD002084F8F5
:10514800280410BD01F07F035B0128330344E3E723
:105158000220704770B501F07F056C0104F50A71F3
:1051680001440444C4F83C2205F112025201861895
:1051780083500023736084F8293284F8285225B9B3
:10518800006800F0BFFE002070BD006800F0BAFEA5
:10519800F9E701F00F01123100EB411188887047DF
:1051A80070B501F07F056C0104F128010144044445
:1051B800E263AA1C520186188350002373600123FE
:1051C80084F8293084F8285025B9006800F09AFE40
:1051D800002070BD006800F095FEF9E770B582B058
:1051E80004460023ADF80630ADF804308DE103889D
:1051F8009BB223F4E14323F070039BB2038022683F
:10520800B2F8503094F8281003EBC103023302EBD4
:105218004303D3F80034C3F309036364E26B134414
:10522800E36300212046FFF787FC94F82430002B25
:1052380000F06B81236C002B40F0678194F82430D8
:10524800226843F08003A2F84C30002384F824300D
:105258005BE1B0F8503094F8282203EBC203063320
:1052680000EB4303D3F80034C3F30903C4F8443212
:10527800B4F82C2204F22C4100F0A1FF2268138814
:1052880023F070031B051B0D13802046FFF742FC1B
:105298003BE1B4F82C22D4F83C1200F090FFD4F88B
:1052A8004422D4F83C321344C4F83C326BE1C1F3D5
:1052B8004F0311F0010F01D001339BB29B029BB247
:1052C800C2F800347CE130F825309BB2ADF80430E8
:1052D800BDF8043013F4004F35D1BDF8043013F095
:1052E800800F00F01281226832F825309BB223F437
:1052F800E14323F070039BB222F8253004EB4513F9
:1053080093F83230002B40F0B2802068B0F850306B
:1053180004EB451292F8282003EBC203023300EB9A
:105328004303D3F80034C3F30903AA1C04EB421265
:105338005360002B00F0C98004EB45118A8DC96BBE
:1053480000F0CBFDC1E030F8253023F070031B05D9
:105358001B0D20F8253004EB451393F83232D3B9EE
:105368002068B0F8503004EB451292F8282203EB7D
:10537800C203063300EB4303B3F80064C6F309061F
:1053880086B304EB45113346B1F82C22D1F83C1210
:1053980000F015FF26E0206804EB451393F8282257
:1053A80030F8223013F4804F42D0B0F8503003EB7D
:1053B800C203023300EB4303B3F80064C6F30906E3
:1053C80066BB226804EB451393F8281232F82130A3
:1053D80023F0F0031B051B0D43F4004343F0C00307
:1053E80022F8213005F112035B01E1184A683244C2
:1053F8004A6004EB4511D1F83C223244C1F83C2202
:10540800E3581BB1D1F838128E4228D204EB451369
:1054180093F828122046FFF785FB5EE704EB451159
:105428003346B1F82E22D1F83C1200F0C8FEC8E786
:10543800B0F8503003EBC203063300EB4303B3F874
:105448000064C6F30906002EBBD004EB45113346B1
:10545800B1F83022D1F83C1200F0B1FEB1E704EB0C
:10546800451191F828122046FFF774FE35E72068A9
:1054780004EB451393F8282030F8223013F0400F3E
:1054880000F0B480B0F8503003EBC203023300EBF5
:105498004303D3F80034C3F30903AA1C04EB4212F4
:1054A8005360002B40F09B80226804EB451393F86F
:1054B800281032F8213023F0F0031B051B0D43F4AC
:1054C800404343F0800322F821302268B2F850307C
:1054D80004EB451090F8281003EBC103023302EBEC
:1054E8004303D3F80024C2F30902AB1C5B01E118A3
:1054F8004A60C16B0A44C263E358002B40F08F80B6
:1055080090F828102046FFF717FB2068B0F84430C1
:105518009BB2ADF8063013F4004F00F08880BDF858
:10552800065015F00F057FF4CEAEBDF8063013F027
:10553800100F3FF45CAE03889BB2ADF80430BDF8A1
:10554800043013F4006F7FF484AEBDF8043013F414
:10555800004FDAD0038823F070031B051B0D03806E
:105568002068B0F8503094F8282203EBC2030633C1
:1055780000EB4303D3F80034C3F30903C4F84432FF
:10558800002B7FF486AE00212046FFF7CBFA236874
:10559800B3F85020063203EB4202D4F838123E2901
:1055A8007FF685AEC1F34F1311F01F0F01D1013BF8
:1055B8009BB26FEAC3636FEA53439BB2C2F80034ED
:1055C800226813889BB223F4804323F0700383F48A
:1055D800405343F4004343F08003138095E704EB02
:1055E8004511CA8DC96B00F078FC5DE7B0F8503002
:1055F80003EBC203063300EB4303D3F80034C3F3D1
:105608000903AA1C04EB42125360002B3FF44CAF71
:1056180004EB45110A8EC96B00F05FFC44E704EB0C
:10562800451595F828102046FFF7BAFD6DE70020CC
:1056380002B070BD10B50446006800F049FC10F4D3
:10564800004F45D1206800F043FC10F4806F43D12F
:10565800206800F03DFC10F4804F08D02268B2F8B2
:1056680044309BB223F480439BB2A2F844302068B4
:1056780000F02EFC10F4005F08D02268B2F8443025
:105688009BB223F400539BB2A2F84430206800F088
:105698001FFC10F4805F30D1206800F019FC10F472
:1056A800006F49D1206800F013FC10F4007F64D12A
:1056B800206800F00DFC10F4807F08D02268B2F852
:1056C80044309BB223F480739BB2A2F8443010BDDF
:1056D8002046FFF783FDB5E72268B2F844309BB255
:1056E80023F480639BB2A2F844302046FFF733FAD4
:1056F80000212046FFF7CAFCAAE72268B2F840302A
:105708009BB223F004039BB2A2F840302268B2F89F
:1057180040309BB223F008039BB2A2F840302046E9
:10572800FFF73CFA2268B2F844309BB223F4805366
:105738009BB2A2F84430AFE72268B2F8403043F099
:105748000803A2F840302268B2F844309BB223F430
:1057580000639BB2A2F844302268B2F8403043F0AC
:105768000403A2F84030206800F0B2FB10F4805F18
:1057780098D12046FFF702FA94E72268B2F844303D
:105788009BB223F400739BB2A2F844302046FFF783
:10579800DCF98DE738B54AB2002A1BDB4B0103F56B
:1057A8000A73034401249C7001F07F051D70D20F19
:1057B8005A7090F82824A24218D00446012280F892
:1057C80028241946006800F0F9FA4DB1002084F841
:1057D800280438BD01F07F035B0128330344E1E767
:1057E80004F22C41206800F076FBEFE70220F0E796
:1057F80010B54AB2002A1ADB4B0103F50A730344B9
:1058080000249C7001F07F011970D20F5A7090F833
:105818002824012A11D00446012280F82824194698
:10582800006800F002FB002084F8280410BD01F095
:105838007F035B0128330344E2E70220F6E711F017
:10584800800F09D001F07F0149012831014442B994
:105858008A728B8000207047490101F50A71014462
:10586800F5E701228A72CB801B0C0B81F2E784B02A
:1058780001A880E80E00002004B07047B0F840305E
:1058880043F43F43A0F8403000207047B0F8403060
:1058980023F474535B045B0CA0F84030002070477D
:1058A8000020704784B038B505AC84E80E000123A9
:1058B800A0F840300024A0F84040A0F84440A0F8E8
:1058C8005040FFF7DBFF2046BDE8384004B0704782
:1058D80010B4CB78032B0FD8DFE803F0026D5460C7
:1058E8000A7830F822309BB223F4EC4323F070039B
:1058F80043F4007320F822300A7830F8223023F07D
:10590800F0031B051B0D134343F4004343F08003CE
:1059180020F822308B7A002B40F0AF804B78002B98
:1059280056D08A885208B0F850300C7803EBC4037C
:1059380000EB43035200C3F800240A7830F8223001
:1059480013F0400F0BD030F8223023F0F0031B0582
:105958001B0D43F4004343F0C00320F822300A78BB
:1059680030F822309BB223F4E04323F0400383F065
:10597800200343F4004343F0800320F82230002042
:1059880010BC70470A7830F822309BB223F4EC43FD
:1059980023F070039BB220F82230ADE70A7830F884
:1059A80022309BB223F4EC4323F0700343F4C0632A
:1059B80020F82230A0E70A7830F822309BB223F48E
:1059C800EC4323F0700343F4806320F8223093E71C
:1059D8008A885208B0F850300C7803EBC4030433BB
:1059E80000EB43035200C3F80024B0F850300A78A3
:1059F80003EBC203063300EB43030C693E2C30D99A
:105A0800C4F34F1214F01F0F01D1013A92B26FEA9A
:105A1800C2626FEA524292B2C3F800240A7830F8A0
:105A2800223013F4804F0BD030F8223023F0F003EB
:105A38001B051B0D43F4404343F0800320F822303C
:105A48000A7830F822309BB223F4804323F07003A5
:105A580083F4405343F4004343F0800320F822309A
:105A68008DE7C4F34F0214F0010F01D0013292B256
:105A7800920292B2C3F80024D0E70A7830F82230B4
:105A880023F4F8731B051B0D43F4014343F0800313
:105A980020F82230CA885208B0F850300C7803EB4E
:105AA800C40300EB43035200C3F800240A895208D8
:105AB800B0F850300C7803EBC403043300EB430315
:105AC8005200C3F800244B78002B4BD10A7830F8E9
