:020000040800F2
:1000000000500020A9930008694E00086B4E0008BC
:100010006D4E00086F4E0008714E00080000000091
:10002000000000000000000000000000734E000807
:10003000754E000800000000774E0008794E000859
:10004000F1930008F1930008F1930008914E000825
:10005000F1930008F1930008F1930008B14E0008F5
:10006000F1930008F1930008F1930008F193000860
:10007000F1930008F1930008F1930008F193000850
:10008000F1930008F1930008F1930008F193000840
:10009000814E0008F1930008F1930008F1930008E5
:1000A000F1930008F1930008F1930008F193000820
:1000B000F1930008C14E0008F1930008F193000885
:1000C000F1930008F1930008F1930008F193000800
:1000D000F1930008F1930008F1930008F1930008F0
:1000E000F1930008A14E0008F1930008F193000875
:1000F000F1930008F1930008F1930008F1930008D0
:10010000F1930008F1930008F1930008F1930008BF
:10011000F1930008F1930008F1930008F1930008AF
:10012000F1930008F1930008F1930008F19300089F
:1001300000000000000000000000000000000000BF
:1001400000000000000000000000000000000000AF
:10015000000000000000000000000000000000009F
:10016000000000000000000000000000000000008F
:10017000000000000000000000000000000000007F
:10018000000000000000000000000000000000006F
:10019000000000000000000000000000000000005F
:1001A000000000000000000000000000000000004F
:1001B000000000000000000000000000000000003F
:1001C000000000000000000000000000000000002F
:1001D000000000000000000000000000000000001F
:0401E0005FF8E0F1F3
:1001E80010B5054C237833B9044B13B10448AFF369
:1001F80000800123237010BDB80300200000000018
:10020800D4D6000808B5034B1BB103490348AFF324
:10021800008008BD00000000BC030020D4D6000800
:10022800034613F8012B002AFBD1181A013870472E
:1002380010F8012B11F8013B012A28BF9A42F7D088
:10024800D01A704781F0004102E000BF83F00043FC
:1002580030B54FEA41044FEA430594EA050F08BF59
:1002680090EA020F1FBF54EA000C55EA020C7FEA1D
:10027800645C7FEA655C00F0E2804FEA5454D4EB9A
:100288005555B8BF6D420CDD2C4480EA020281EA64
:10029800030382EA000083EA010180EA020281EA9C
:1002A8000303362D88BF30BD11F0004F4FEA0131EE
:1002B8004FF4801C4CEA113102D0404261EB4101FD
:1002C80013F0004F4FEA03334CEA133302D0524283
:1002D80063EB430394EA050F00F0A780A4F101043F
:1002E800D5F1200E0DDB02FA0EFC22FA05F2801879
:1002F80041F1000103FA0EF2801843FA05F359415F
:100308000EE0A5F120050EF1200E012A03FA0EFCDD
:1003180028BF4CF0020C43FA05F3C01851EBE37107
:1003280001F0004507D54FF0000EDCF1000C7EEB24
:1003380000006EEB0101B1F5801F1BD3B1F5001F62
:100348000CD349085FEA30004FEA3C0C04F1010481
:100358004FEA445212F5800F80F09A80BCF1004FAA
:1003680008BF5FEA500C50F1000041EB045141EA2C
:10037800050130BD5FEA4C0C404141EB010111F42D
:10038800801FA4F10104E9D191F0000F04BF0146D8
:100398000020B1FA81F308BF2033A3F10B03B3F1B6
:1003A80020020CDA0C3208DD02F1140CC2F10C0246
:1003B80001FA0CF021FA02F10CE002F11402D8BFA4
:1003C800C2F1200C01FA02F120FA0CFCDCBF41EA70
:1003D8000C019040E41AA2BF01EB0451294330BD3F
:1003E8006FEA04041F3C1CDA0C340EDC04F114041C
:1003F800C4F1200220FA04F001FA02F340EA0300F3
:1004080021FA04F345EA030130BDC4F10C04C4F138
:10041800200220FA02F001FA04F340EA0300294618
:1004280030BD21FA04F0294630BD94F0000F83F462
:10043800801306BF81F480110134013D4EE77FEA45
:10044800645C18BF7FEA655C29D094EA050F08BF91
:1004580090EA020F05D054EA000C04BF1946104672
:1004680030BD91EA030F1EBF0021002030BD5FEAB6
:10047800545C05D14000494128BF41F0004130BDDE
:1004880014F580043CBF01F5801130BD01F0004532
:1004980045F0FE4141F470014FF0000030BD7FEAA5
:1004A800645C1ABF194610467FEA655C1CBF0B46A0
:1004B800024650EA013406BF52EA033591EA030FB7
:1004C80041F4002130BD00BF90F0000F04BF0021AF
:1004D800704730B54FF4806404F132044FF00005E2
:1004E8004FF0000150E700BF90F0000F04BF00215B
:1004F800704730B54FF4806404F1320410F00045C1
:1005080048BF40424FF000013EE700BF42004FEABB
:10051800E2014FEA31014FEA02701FBF12F07F4338
:1005280093F07F4F81F06051704732F07F4208BFEF
:10053800704793F07F4F04BF41F40021704730B5F6
:100548004FF4607401F0004521F000411CE700BF42
:1005580050EA010208BF704730B54FF000050AE0C5
:1005680050EA010208BF704730B511F0004502D5C6
:10057800404261EB41014FF4806404F132045FEAC8
:10058800915C3FF4D8AE4FF003025FEADC0C18BF71
:1005980003325FEADC0C18BF033202EBDC02C2F163
:1005A800200300FA03FC20FA02F001FA03FE40EAF5
:1005B8000E0021FA02F11444BDE600BF70B54FF0F9
:1005C800FF0C4CF4E06C1CEA11541DBF1CEA1355D7
:1005D80094EA0C0F95EA0C0F00F0DEF82C4481EA3F
:1005E800030621EA4C5123EA4C5350EA013518BF5F
:1005F80052EA033541F4801143F4801338D0A0FB4C
:1006080002CE4FF00005E1FB02E506F00042E0FBF8
:1006180003E54FF00006E1FB03569CF0000F18BFFE
:100628004EF0010EA4F1FF04B6F5007F64F54074A6
:1006380004D25FEA4E0E6D4146EB060642EAC62139
:1006480041EA55514FEAC52040EA5E504FEACE2EA6
:10065800B4F1FD0C88BFBCF5E06F1ED8BEF1004FA9
:1006680008BF5FEA500E50F1000041EB045170BD25
:1006780006F0004646EA010140EA020081EA030169
:10068800B4EB5C04C2BFD4EB0C0541EA045170BD65
:1006980041F480114FF0000E013C00F3AB8014F1DF
:1006A800360FDEBF002001F0004170BDC4F1000428
:1006B800203C35DA0C341BDC04F11404C4F12005A9
:1006C80000FA05F320FA04F001FA05F240EA020004
:1006D80001F0004221F0004110EBD37021FA04F63A
:1006E80042EB06015EEA430E08BF20EAD37070BDF4
:1006F800C4F10C04C4F1200500FA04F320FA05F053
:1007080001FA04F240EA020001F0004110EBD37054
:1007180041F100015EEA430E08BF20EAD37070BDC4
:10072800C4F1200500FA05F24EEA020E20FA04F39D
:1007380001FA05F243EA020321FA04F001F000414C
:1007480021FA04F220EA020000EBD3705EEA430EBD
:1007580008BF20EAD37070BD94F0000F0FD101F0EC
:100768000046400041EB010111F4801F08BF013C25
:10077800F7D041EA060195F0000F18BF704703F063
:100788000046520043EB030313F4801F08BF013DEA
:10079800F7D043EA0603704794EA0C0F0CEA1355A6
:1007A80018BF95EA0C0F0CD050EA410618BF52EA60
:1007B8004306D1D181EA030101F000414FF0000066
:1007C80070BD50EA410606BF1046194652EA430674
:1007D80019D094EA0C0F02D150EA013613D195EAE8
:1007E8000C0F05D152EA03361CBF104619460AD130
:1007F80081EA030101F0004141F0FE4141F470013A
:100808004FF0000070BD41F0FE4141F4780170BD29
:1008180070B54FF0FF0C4CF4E06C1CEA11541DBF8E
:100828001CEA135594EA0C0F95EA0C0F00F0A7F890
:10083800A4EB050481EA030E52EA03354FEA0131BD
:1008480000F088804FEA03334FF0805545EA1313D0
:1008580043EA12634FEA022245EA111545EA106598
:100868004FEA00260EF000419D4208BF964244F12F
:10087800FD0404F5407402D25B084FEA3202B61A4E
:1008880065EB03055B084FEA32024FF480104FF422
:10089800002CB6EB020E75EB030E22BFB61A754696
:1008A80040EA0C005B084FEA3202B6EB020E75EB29
:1008B800030E22BFB61A754640EA5C005B084FEA91
:1008C8003202B6EB020E75EB030E22BFB61A75465E
:1008D80040EA9C005B084FEA3202B6EB020E75EB69
:1008E800030E22BFB61A754640EADC0055EA060E2A
:1008F80018D04FEA051545EA16754FEA06164FEA6D
:10090800C30343EA52734FEAC2025FEA1C1CC0D118
:1009180011F4801F0BD141EA00014FF000004FF0A5
:10092800004CB6E711F4801F04BF01430020B4F166
:10093800FD0C88BFBCF5E06F3FF6AFAEB5EB030C1E
:1009480004BFB6EB020C5FEA500C50F1000041EB1B
:10095800045170BD0EF0004E4EEA113114EB5C04E8
:10096800C2BFD4EB0C0541EA045170BD41F48011BB
:100978004FF0000E013C90E645EA060E8DE60CEAC3
:10098800135594EA0C0F08BF95EA0C0F3FF43BAFE0
:1009980094EA0C0F0AD150EA01347FF434AF95EA97
:1009A8000C0F7FF425AF104619462CE795EA0C0F7B
:1009B80006D152EA03353FF4FDAE1046194622E748
:1009C80050EA410618BF52EA43067FF4C5AE50EA22
:1009D80041047FF40DAF52EA43057FF4EBAE12E712
:1009E8004FF0FF3C06E000BF4FF0010C02E000BFF3
:1009F8004FF0010C4DF804CD4FEA410C7FEA6C5CD6
:100A08004FEA430C18BF7FEA6C5C1BD001B050EA78
:100A1800410C0CBF52EA430C91EA030F02BF90EA63
:100A2800020F0020704710F1000F91EA030F58BF22
:100A3800994208BF90422CBFD8176FEAE37040F084
:100A4800010070474FEA410C7FEA6C5C02D150EA22
:100A5800013C07D14FEA430C7FEA6C5CD6D152EADD
:100A6800033CD3D05DF8040B704700BF84461046A2
:100A780062468C461946634600E000BF01B5FFF7A1
:100A8800B7FF002848BF10F1000F01BD4DF808ED71
:100A9800FFF7F4FF0CBF012000205DF808FB00BF42
:100AA8004DF808EDFFF7EAFF34BF012000205DF89C
:100AB80008FB00BF4DF808EDFFF7E0FF94BF0120E9
:100AC80000205DF808FB00BF4DF808EDFFF7CEFFEA
:100AD80094BF012000205DF808FB00BF4DF808ED29
:100AE800FFF7C4FF34BF012000205DF808FB00BFFA
:100AF8004FEA410C7FEA6C5C02D150EA013C0AD112
:100B08004FEA430C7FEA6C5C02D152EA033C02D103
:100B18004FF0000070474FF0010070474FEA410264
:100B280012F5001215D211D56FF47873B3EB625237
:100B380012D94FEAC12343F0004343EA505311F05E
:100B4800004F23FA02F018BF404270474FF00000F0
:100B5800704750EA013005D111F0004008BF6FF02E
:100B6800004070474FF00000704700BF7BB972B972
:100B78000029BEBF00204FF0004106E008BF002852
:100B88001CBF6FF000414FF0FF3000F0A7B9ADF186
:100B9800080C6DE904CE002909DB002B1ADB00F0F4
:100BA80035F8DDF804E0DDE9022304B0704740427F
:100BB80061EB4101002B1BDB00F028F8DDF804E0B5
:100BC800DDE9022304B0404261EB4101524263EB8C
:100BD80043037047524263EB430300F017F8DDF814
:100BE80004E0DDE9022304B0404261EB41017047B3
:100BF800524263EB430300F009F8DDF804E0DDE955
:100C0800022304B0524263EB430370472DE9F047D7
:100C18008C460446089E002B40F086808A42154682
:100C280048D9B2FA82F24AB1C2F1200701FA02F3B6
:100C380020FA07F7954047EA030C94404FEA154E0F
:100C4800BCFBFEF71FFA85F80EFB17C307FB08F974
:100C5800210C41EA0343994509D9EB1807F1FF3103
:100C680080F0E180994540F2DE80023F2B44A3EBFF
:100C78000903B3FBFEF00EFB103300FB08F1A4B22E
:100C880044EA0344A14209D92C1900F1FF3380F04A
:100C9800C880A14240F2C58002382C4440EA07408F
:100CA8000027641A1EB10023D440C6E90043394620
:100CB800BDE8F087002A54D0B2FA82F2002A40F048
:100CC800B4800127491B4FEA15481FFA85F9B1FB83
:100CD800F8FE08FB1E1109FB0EF04FEA144C4CEA13
:100CE8000143984207D9EB180EF1FF3102D298421E
:100CF80000F2EB808E461B1AB3FBF8F008FB1033AA
:100D080009FB00F9A4B244EA0344A14507D92C1908
:100D180000F1FF3302D2A14500F2DB801846A4EBB4
:100D2800090440EA0E40BDE78B4208D9002E75D071
:100D38000027C6E9000138463946BDE8F087B3FA0E
:100D480083F77FB98B4202D3824200F2BC80841AB7
:100D580061EB030301209C46002EA8D0C6E9004C95
:100D6800A5E7FFDEC7F12005BB4022FA05FC4CEAE7
:100D7800030C21FA05F44FEA1C4EB4FBFEF91FFAE6
:100D88008CF80EFB194420FA05F3B94009FB08FA60
:100D980019430B0C43EA0444A24502FA07F200FA8D
:100DA80007F30BD91CEB040409F1FF3080F08980AC
:100DB800A24540F28680A9F102096444A4EB0A0422
:100DC800B4FBFEF00EFB104400FB08FA89B241EABE
:100DD8000444A24508D91CEB040400F1FF316CD28D
:100DE800A2456AD90238644440EA0940A0FB028956
:100DF800A4EB0A044C454146CE4655D352D0002EAA
:100E08006AD05A1A64EB0E0404FA05F522FA07F3BD
:100E1800FC401D43C6E90054002748E737463046E2
:100E280045E718463AE70F4621E79540C2F1200307
:100E380021FA03F04FEA1548B0FBF8F71FFA85F9D5
:100E480008FB170E24FA03FC914007FB09FA4CEA49
:100E58000101080C40EA0E40824504FA02F407D961
:100E6800281807F1FF332AD2824528D9023F28449F
:100E7800A0EB0A00B0FBF8FC08FB1C000CFB09F314
:100E880089B241EA00418B4208D969180CF1FF3058
:100E980011D28B420FD9ACF1020C2944C91A4CEA81
:100EA800074714E74345AAD2B8EB020169EB0C02E5
:100EB80001389646A3E78446F0E7084694E71F46BC
:100EC800D6E781467AE7384646E7AEF1020E2B446C
:100ED80011E702382C4422E73746E8E6704700BF9E
:100EE8004B2901D00020704708B532B101224021BA
:100EF800054806F08AFB012008BD0022402102486F
:100F080006F083FB0120F7E70008014030B583B005
:100F1800182919D014461D4619291DD0172902D0A1
:100F2800002003B030BD6CB115F8013B8DF80730D7
:100F3800013CE4B2642301220DF107010A4805F0DF
:100F4800D7F9F0E70120ECE701221021074806F065
:100F58005CFB00BF0120E4E700BF0022102103482A
:100F680006F053FB0120DCE79C0C00200008014040
:100F780008B5024809F0F0FA08BD00BF24D70008F8
:100F880000B597B000230E93119307930893099324
:100F98000A930B9301930293039304930593069387
:100FA8000D230C934FF480320D920123109312936A
:100FB8000F930223139314924FF4E01315930CA884
:100FC80005F0CAFC60BB0F23079302210891002398
:100FD80009934FF480620A920B9307A805F0E4FE88
:100FE80008BB11230193002306934FF480730293E7
:100FF80001A805F0BDFFC8B905F0A4FF0D4BA3FB80
:101008000030800906F06CFB042006F07FFB00220C
:1010180011464FF0FF3006F023FB17B05DF804FBD4
:10102800FFF7A6FFCFE7FFF7A3FFDAE7FFF7A0FF79
:10103800E2E700BFD34D621070B505F03FFCFFF743
:101048009FFF00F085F803F095FC03F0FBFC314CA2
:1010580001224FF40041204606F0D7FA00F00EF9BD
:101068002D4E2E4B2E4A2F49304607F0E1FA3046D6
:1010780008F03FF90021304608F042F900224021EB
:10108800204606F0C2FA0A2005F03CFC0122402165
:10109800204606F0BAFA00F02BF94FF4FA7005F082
:1010A80031FC00F0FFFD00F045FD03F08DFB03F07F
:1010B800EBFB00F0EBF905F01FFC054605F01CFC06
:1010C8000446304607F099FA03F0A8FC09E005F059
:1010D80013FC04460BE0104807F09CFA05F00CFCE2
:1010E800054605F009FC001BB0F57A7FEFD800F043
:1010F8004FFA01F073F803F079F900F0B7FD03F047
:1011080029FB094805F0E3F905F0F6FB401B6428C4
:10111800E7D9E0E700080140600A0020E90E00086E
:10112800150F000804E90008F40C002008B5013880
:10113800012806D80B461146184603F07BFEC0B2BC
:1011480008BD08F053F9092303604FF0FF30F7E7B3
:101158002DE9F04186B00024029403940494059488
:10116800184B9A6942F004029A619B6903F00403E0
:101178000193019B144D01224FF40041284606F0CB
:1011880044FA4FF4004302930126039604944FF067
:101198000208CDF8148002A9284606F03BF950272A
:1011A800029703960494CDF8148002A9284606F005
:1011B80031F932463946284606F027FA06B0BDE826
:1011C800F08100BF0010024000080140642804D8E4
:1011D80000EB80004300014A53637047002C014034
:1011E80008B50A20FFF7F2FF08BD000008B5024B5A
:1011F8005878FFF7EBFF08BD3C0B00200268094B4D
:101208009A4200D0704782B003F564439A6942F469
:1012180000629A619B6903F400630193019B02B029
:10122800704700BF002C014000B587B0002302932F
:1012380003930493059302680E4B9A4202D007B0B9
:101248005DF804FB03F564439A6942F004029A616D
:101258009B6903F004030193019B4FF4807302938D
:10126800022303930123059302A9034806F0D2F849
:10127800E5E700BF002C01400008014010B51948FF
:10128800194B036011234360002383604FF47A7283
:10129800C26003614361836105F000FAC8B913496C
:1012A80060230B604FF496734B6000228A60CA601B
:1012B8000A614A618A610B4805F042FA60B9094C33
:1012C8002046FFF7B1FF0021204605F0B5FA30B9F6
:1012D80010BDFFF74DFEE2E7FFF74AFEEFE7FFF725
:1012E80047FEF5E7FC0A0020002C0140E00A002038
:1012F80010B582B0084A1378084C516801915278A9
:101308000092DB0800221146204607F001F920462A
:1013180007F080F902B010BDCCD70008600A0020A1
:10132800F8B5184B184C0FCB84E80F0006F040FABC
:10133800164B00241C60164A9A600122DA60BCB180
:10134800144B134A1A6000242C2C17D824F00305D8
:10135800114F104E31687A5900232144022006F0BB
:101368007FFAEA593368E3589A4209D10434EBE723
:101378000A49064806F0E6FA0134E0E706F032FAD0
:10138800F8BD00BF780B00204C0B0020D8030020CC
:1013980000F00108D40300203C0B0020E8030020E3
:1013A80070B5174E3446174D0FCD0FC40FCD0FC46F
:1013B80095E8070084E80700B26A134B9A4200D107
:1013C80070BD344620220021304608F04BF9322304
:1013D80073700123B370F3704FF49673F38040F287
:1013E800D243738140F2BC43B381074BB362074BCE
:1013F80020341868596803C4FFF792FFE0E700BF7C
:101408003C0B002000F00108AB55FF007C0C0020CD
:1014180070B51B4C0621204605F0F4FF0504052194
:10142800204605F0EFFF2843164D68600821204646
:1014380005F0E8FF06040721204605F0E3FF3043E6
:10144800A8600A21204605F0DDFF06040921204690
:1014580005F0D8FF3043E8600221204605F0D2FFAE
:101468004BF6BB33984200D170BD074B0FCB85E8D4
:101478000F004BF6BB320221014805F0BBFFF3E732
:10148800880C0020780B00204C0B002008B5FFF7D3
:1014980087FFFFF7BDFF0B4B9B7883B1FFF7A0FEDB
:1014A800084B5878FFF792FE00F0FEF800F01AFBA0
:1014B80003F08AF905F020FA034B186008BDFFF71E
:1014C80095FEEDE73C0B0020780B0020034B012232
:1014D800DA70034909895960DA727047680B00208D
:1014E8003C0B0020034B0022DA705A601A73DA7240
:1014F800704700BF680B002008B5194B5B8840F2A5
:101508000112934213D040F20112934202D1144BBC
:101518005B685BB9124B0022DA7205F0EDF9114BEA
:101528001B68C01A4EF66023984211D808BD0C4AB1
:101538005268002AE7D10A4BDA709A701A701A7347
:101548005A729A72DA7205F0D7F9064B1860EDE70D
:1015580003F0F0F805F0D0F9024B1860E6E700BF99
:10156800680B00208C0B002000220BE0D31C9B0092
:1015780003F1804303F5D843044931F81210196088
:10158800013292B2072AF1D9704700BF780B0020C8
:1015980008B505F0B1F9314B1B68C01AB0F57A7F70
:1015A80033D32F4A13780133DBB213701E2B02D9C1
:1015B800134600221A70294AD3680133D360294A96
:1015C800934201D9254BDA60274B5B7A1BB1234A3A
:1015D800536801335360244BDB7A1BB11F4A93686D
:1015E80001339360204BDB784BB11F4A5368013BB2
:1015F800536023B953601D4A13601D4A138105F0D7
:101608007BF9164B1860FFF7AFFFFFF775FF03F084
:10161800A1F8184B1B8873B9154B1B79012B0BD0FC
:10162800022B0FD00E4B1B780E2B11D9124806F047
:10163800E4FF00F061FA08BD0F4806F0DEFF00F095
:1016480015F9F8E70C4806F0D8FF00F055FAF2E76C
:10165800094806F0D2FF00F009F9ECE7780B002002
:10166800880B0020001EF8BB680B0020E40B00204C
:101678003C0B0020EC030020600A002010B5094C48
:101688000121204607F0AAFB80231F2200212046C3
:1016980007F06EFB402300224121204607F083FB20
:1016A80010BD00BF600A002008B5044806F0A5FF79
:1016B80005F022F9024B586008BD00BF600A0020FF
:1016C800900B002038B505460E4C0F49204607F010
:1016D800A7FA0E4B06224421204607F063FA0C496C
:1016E800204607F09DFA35B10A4B192254212046AD
:1016F80007F058FA38BD084B19224C21014807F069
:1017080051FAF7E7600A002088FD0008ECDB0008C2
:10171800A0490108F4DB0008F8DB000810B504460E
:1017280009490A4807F07CFA34B1094B162201210D
:10173800064807F037FA10BD064B16220121034868
:1017480007F030FAF7E700BF80530108600A00206D
:10175800FCDB000804DC000810B5044609490A4807
:1017680007F05EFA34B1094B36220121064807F02A
:1017780019FA10BD064B36220121034807F012FA68
:10178800F7E700BF80530108600A0020DCDB00088F
:10179800E4DB000800B583B00F4B1B7803420ED082
:1017A8000E4A13785168019152780092DB0826227C
:1017B80048210B4806F0ACFE03B05DF804FB094A6B
:1017C80013785168019152780092DB08262248214B
:1017D800034806F09DFEEFE7900B00207CD7000839
:1017E800600A00202CD7000830B583B0E8B1194C46
:1017F8000021204607F0F2FA1749204607F010FAB0
:10180800164D6A681649684608F044FF6B4636224A
:101818006821204607F0C6F90121204607F0DEFAC4
:101828006B68ABB900222A7312E00A4C0D492046B6
:1018380007F0F6F90021204607F0D0FA0A4B3622C5
:101848006621204607F0AEF90121204607F0C6FAC6
:1018580003B030BD600A00202C320108680B00205C
:10186800D4DB0008382C0108F8DB000810B505F0B7
:1018780043F8164B5B68C01AC82810D9134A137866
:10188800DB43137053780133DBB253700A2B02D950
:10189800134600225A7005F02FF80C4B58600C487C
:1018A80006F0ABFE0B4C207AFFF70CFF607AFFF7CF
:1018B80035FFA07AFFF750FFE07AFFF76BFF207B38
:1018C800FFF792FFFFF7DAFE10BD00BF900B002074
:1018D800600A0020680B002010B586B0214B93F9F0
:1018E800073013F0010F33D01E4A92F9063092F9EF
:1018F80005201D4903A808F0CDFE1C4C1C492046B4
:1019080007F08EF90021204607F068FA03AB0E2293
:101918000121204607F046F90121204607F05EFA2A
:101928001449204607F07CF90E4AB2F900300093BA
:1019380092F9023092F903200F4903A808F0AAFE91
:1019480003AB1B220721204607F02CF906B010BD77
:10195800044A92F9063092F90520084903A808F0CC
:1019680099FECAE77C0C00200CDC0008600A002005
:101978001C430108BC0F01082CDC00081CDC000813
:1019880030B583B00546134C1349204607F048F993
:10199800124B28220221204607F004F90021204694
:1019A80007F01CFA2A460E49684608F073FE6B4693
:1019B80028221921204607F0F5F80121204607F0D2
:1019C8000DFA084B28223721204607F0EBF803B020
:1019D80030BD00BF600A00206400010854DC000824
:1019E8005CDC000864DC000830B583B00546134CA5
:1019F8001349204607F014F9124B322202212046DF
:101A080007F0D0F80021204607F0E8F92A460E49E9
:101A1800684608F03FFE6B4632221921204607F03F
:101A2800C1F80121204607F0D9F9084B32223721A5
:101A3800204607F0B7F803B030BD00BF600A0020A9
:101A4800640001083CDC00085CDC000864DC000879
:101A580030B583B00546134C1349204607F0E0F82B
:101A6800124B3C220221204607F09CF80021204618
:101A780007F0B4F92A460E49684608F00BFE6B4693
:101A88003C221921204607F08DF80121204607F055
:101A9800A5F9084B3C223721204607F083F803B00C
:101AA80030BD00BF600A00206400010844DC000863
:101AB8004CDC000864DC000810B5094C0121204604
:101AC80007F08CF980231F220021204607F050F9E7
:101AD800402300224121204607F065F910BD00BFD0
:101AE800600A002010B5034C0023237004F004FFA3
:101AF800606010BD980B002038B5FFF7DDFFFFF7D9
:101B0800EBFE0A4D68680A4CA4FB0030C00AFFF7D8
:101B180037FFA868A4FB0030C00AFFF765FFE86834
:101B2800A4FB0030C00AFFF793FF38BD780B0020F4
:101B3800C5B3A2912DE9F04387B0002404941D4B4E
:101B48009A6942F010029A619A6902F010020092B2
:101B5800009A9A6942F008029A619B6903F00803A7
:101B68000193019B4FF03C08CDF808804FF0010924
:101B7800CDF80C90022505950F4F02A9384605F0BF
:101B880049FC4FF470760296CDF80C9004940595B4
:101B98000A4D02A9284605F03DFC22464146384632
:101BA80005F033FD22463146284605F02EFD07B0E4
:101BB800BDE8F08300100240000C01400010014015
:101BC80008B528B101220421044805F01EFD08BD0E
:101BD80000220421014805F018FDF8E7000C014037
:101BE80008B528B101220821044805F00EFD08BDFA
:101BF80000220821014805F008FDF8E7000C014023
:101C080008B528B101221021044805F0FEFC08BDE2
:101C180000221021014805F0F8FCF8E7000C01400B
:101C280008B528B101222021044805F0EEFC08BDC2
:101C380000222021014805F0E8FCF8E7000C0140EB
:101C480010B5052801D048B110BD064CA278064B46
:101C58001A81FFF73BFC01232373F5E7FFF742FCEA
:101C6800F2E700BF680B00203C0B002010B5084CC1
:101C7800207AFFF7A5FF607AFFF7B2FFA07AFFF797
:101C8800BFFFE07AFFF7CCFFA078FFF7D9FF10BDC0
:101C9800680B002001604260012303720023437235
:101CA800C372704770B586B00024039404940594F9
:101CB800184B9A6942F010029A619B6903F010036D
:101CC8000193019B4FF4705302930123049302A9DB
:101CD800114805F09FFB114E114D2246314628460A
:101CE800FFF7D8FF2246314605F10C00FFF7D2FF77
:101CF8002246314605F11800FFF7CCFF224631464F
:101D080005F12400FFF7C6FF04F0F6FD054B186047
:101D180006B070BD0010024000100140C11F00084D
:101D2800A40B0020E00B002010B50446032810D8AF
:101D3800DFE800F03F0229554FF480513C4805F098
:101D48005DFCC0B904EB44039A003A4B13440022EB
:101D58005A72620022449100364B0B445A7A1B7A1D
:101D68009A425CD0334A0A44D37A0133DBB2D37245
:101D7800052B4AD010BD04EB44039A002D4B1344A5
:101D880001225A72E5E74FF40061294805F036FC54
:101D980038B904EB44039A00264B134400225A72C4
:101DA800D7E704EB44039A00224B134401225A72EA
:101DB800CFE74FF480611E4805F020FC38B904EBEA
:101DC80044039A001B4B134400225A72C1E704EBE8
:101DD80044039A00174B134401225A72B9E74FF48F
:101DE8000051134805F00AFC38B904EB44039A0083
:101DF800104B134400225A72ABE704EB44039A00D9
:101E08000C4B134401225A72A3E70A4963001819BC
:101E180082000A44507A10720023D372AAE704EBB6
:101E28004404A200034B13440022DA72A2E700BF65
:101E380000100140A40B00202DE9F8430546884610
:101E4800002428E0DFF86891484606F0D6FB51499F
:101E5800484606F0E5FE0021484606F0BFFF4E4B17
:101E6800642202FB043702373846FEF7D9F9C0F17D
:101E780016035B0803EB430359003B460C2201F0B1
:101E8800FE01484606F08EFE0121484606F0A6FFF0
:101E980071E00134E4B2112C77D8404804F017FB04
:101EA8002746642303FB04F33B4AD35AAB42F0D1E1
:101EB800642303FB0423DE6D002EEAD0B5F5807F92
:101EC80008D0B5F5007F05D0B5F5407F02D0B5F54F
:101ED800806FB7D1DFF8D890484606F08EFB2D49C1
:101EE800484606F09DFE0021484606F077FF2C4B39
:101EF8000C221821484606F055FE0121484606F0F6
:101F08006DFF254A642303FB072702373946002063
:101F180007F030FA034618220A21484606F042FE26
:101F28003946012007F026FA034624220A214846AA
:101F380006F038FE3946022007F01CFA0346302224
:101F48000A21484606F02EFE3946032007F012FA09
:101F580003463C220A21484606F024FE114B1B7812
:101F6800013303EB43039A000F4B02F0FC020121FB
:101F7800484606F017FE0D490D4806F051FE414649
:101F88002046B0470B4B1D8001E005F47F40BDE8BB
:101F9800F88300BFB4160108A8DC0008F40C002080
:101FA80094DC000800000020A4DC0008E007010819
:101FB800600A0020EE03002008B503281BD8DFE8DC
:101FC80000F0834102B77D4B41F270721A807C4B5E
:101FD8001B8883B1B3F5807F0ED0B3F5007F0BD09B
:101FE800B3F5407F08D0B3F5806F1CD00146744B21
:101FF8001888FFF721FF08BD72490A780132D2B26A
:102008000A70042AF2D90A460121117003F5807377
:102018009BB26B4A1380B3F5806FE7D913464FF430
:1020280080721A80E2E7674A13780133DBB21370D3
:10203800012BDBD9134601221A70614B4FF48072D1
:102048001A80D3E75D4B41F270721A805C4B1B8893
:10205800002BD0D0B3F5807F0ED0B3F5007F0BD026
:10206800B3F5407F08D0B3F5806F1ED00146544BBE
:102078001888FFF7E1FEBEE752490A78013AD2B262
:102088000A70002AF2D10A4604211170A3F5807360
:102098009BB24B4A1380FF2BE8D813464FF480625B
:1020A8001A80484B01221A70E0E7464A1378013B30
:1020B800DBB21370002BD9D1134604221A70404B9F
:1020C8004FF440721A80D1E73D4B1B8893B93E4AC2
:1020D800138801339BB21380012B8CD9134600223D
:1020E8001A804FF48073364A138001461846FFF76A
:1020F800A3FE80E7B3F5807F08D0B3F5007F05D055
:10210800B3F5407F02D0B3F5806F0CD12D4A10781B
:10211800184480B22A4B1880284BC8221A80FF2105
:10212800FFF78AFE67E701461846FFF785FE62E774
:10213800234B1B88E3B1B3F5807F0DD0B3F5007F47
:102148000AD0B3F5407F07D0B3F5806F04D003F40D
:102158007F431B4A138005E0194B00221A80194B54
:1021680001221A700146164B1888FFF765FE42E7F0
:10217800164B9B6823F07F4323F0FF03144A9342D6
:102188007FF439AF114B9B78012B7FF434AF0F4AA2
:10219800137BDB43DBB213736BB1FFF797F90D4B7E
:1021A80000221A7002F0ACFA084B1A7B99780A4898
:1021B80008F0D2F91FE7FFF795F9F0E7F0030020E0
:1021C800EC03002000000020F4030020680B00202E
:1021D80000010100880B002068DC000838B504F015
:1021E8008BFB454B1B68C01A04286BD838BD434B82
:1021F8001B88002B34D1424A138801339BB21380C9
:10220800642B2DD9134600221A804FF480703B4B63
:1022180018802146FFF710FE22E03A4804F057F9EB
:1022280005EB45029300384AD3582046984705EBFA
:1022380045039A00344B13441B7A012B33D00134E5
:10224800E4B2032C40D82046FFF76EFD254604EB88
:1022580044039A002C4B13441B7A0BB9002CC6D0AC
:1022680005EB45039A00284B13441B7A002BDED15B
:10227800254B13449B7A002BD9D123498B18012075
:102288009872224B41F2707018808A58204B9A42FB
:10229800C3D005EB4502930000221D491A48184493
:1022A800FFF7F8FCC3E7184B13449B7A012BC6D100
:1022B8000022134B1A8005EB4505A900124B0B446D
:1022C8009A72BCE70024BCE7104B1B8813B1013B92
:1022D8000E4A13800D4B1B8813B9084B00221A8035
:1022E8000C4B1B8813B1013B0A4A138004F004FB12
:1022F800014B18607AE700BFE00B0020EC030020D8
:10230800F4030020F40C0020A40B0020F2030020AA
:10231800C11F0008F003002000207047034B044A47
:102328001168526819605A6000207047480C0020F4
:102338007C0C002000207047002070470020704768
:10234800F0B583B005460C465A2200219C4807F098
:1023580089F9642000FB05F09A4B1D5A9A4B1B889B
:102368009D4202D0994B00221A80012C23D0022CC6
:102378007DD03CB9954B1B88042B00F2D1800133EA
:10238800924A1380924C9349204606F049FC42F247
:10239800F13324220521204606F09EFB8B4B1B8837
:1023A800052B00F20A81DFE813F0CE0025016A014F
:1023B800A501E0012502854B1B88052BD7D8DFE84E
:1023C80003F003101D2A3744834B93F90530162B6D
:1023D80003DC0133804A5371C9E77F4B00225A71ED
:1023E800C5E77D4B93F906303A2B03DC01337A4A73
:1023F8009371BCE7784B00229A71B8E7764B93F952
:1024080007303A2B03DC0133734AD371AFE7724BC1
:102418000022DA71ABE7704B93F903301E2B03DC13
:1024280001336D4AD370A2E76B4B0022DA709EE746
:10243800694B93F902300B2B03DC0133664A937026
:1024480095E7654B00229A7091E7634BB3F900302A
:1024580040F63202934203DC01335F4A138086E779
:102468005D4B6FF01C021A7007225A707FE7574BBA
:102478001B88052B3FF67DAFDFE803F0030F1B2712
:102488003441554B93F905301BB1013B524A537106
:102498006FE7514B17225A716BE74F4B93F9063090
:1024A8001BB1013B4C4A937163E74B4B3B229A713A
:1024B8005FE7494B93F907301BB1013B464AD3719B
:1024C80057E7454B3B22DA7153E7434B93F9033007
:1024D800012B03DD013B404AD3704AE73E4B1F22E4
:1024E800DA7046E73C4B93F90230012B03DD013BE0
:1024F800394A93703DE7384B0C229A7039E7364BCE
:10250800B3F9003040F2E372934203DD013B324AF3
:1025180013802EE7304B33221A7008225A7028E7AE
:102528002E482D4B1A685B68026043604379073B6D
:102538004371072102F08EF9294B3C2230212448AF
:1025480006F030FB1EE7224C2649204606F068FBC1
:102558000021204606F042FC1F4F194E97F905202E
:102568002149304608F096F8334624221146204681
:1025780006F018FB0121204606F030FC97F90730D9
:1025880097F906201949304608F084F83346242282
:102598003021204606F006FBB7F90030009397F982
:1025A800023097F903201249304608F073F8334691
:1025B80030221E21204606F0F5FA284603B0F0BD69
:1025C800EC0B0020A8DC0008EE030020A00B002084
:1025D800600A0020AC5A0108480C00207C0C00203E
:1025E80020E50008B4160108D4DB000858E5000807
:1025F80028E500089D4E9E49304606F011FB9D4F88
:102608009D4C97F905209D49204608F043F823463C
:1026180024221146304606F0C5FA0021304606F05D
:10262800DDFB97F906209649204608F033F8234643
:1026380024223621304606F0B5FA0121304606F04C
:10264800CDFB97F907208F49204608F023F8234649
:1026580024224221304606F0A5FAB7F9003000934B
:1026680097F9023097F903208749204608F012F8B5
:10267800234630221E21304606F094FA9DE77B4C13
:102688007B49204606F0CCFA7A4F7B4E97F9063004
:1026980097F905207D49304607F0FCFF3346242290
:1026A8001146204606F07EFA0021204606F096FBE9
:1026B80097F907207249304607F0ECFF3346242289
:1026C8004821204606F06EFA0121204606F086FBD6
:1026D800B7F90030009397F9023097F903206A4957
:1026E800304607F0D7FF334630221E21204606F039
:1026F80059FA62E75D4C5E49204606F091FA5D4F53
:1027080097F907305C4E009397F9063097F9052042
:102718005F49304607F0BEFF334624221146204663
:1027280006F040FA0021204606F058FB97F90320EE
:102738005349304607F0AEFF334630221E2120466B
:1027480006F030FA0121204606F048FBB7F90030C0
:1027580097F902204F49304607F09CFF3346302254
:102768002A21204606F01EFA27E7404E4049304607
:1027780006F056FA3F4F97F907303F4C009397F908
:10278800063097F905204249204607F083FF234683
:1027980024221146304606F005FA97F903203E49EF
:1027A800204607F077FF234630221E21304606F0E8
:1027B800F9F90021304606F011FB97F9022030495B
:1027C800204607F067FF234630221146304606F0C0
:1027D800E9F90121304606F001FBB7F900202F493D
:1027E800204607F057FF234630223C21304606F0AA
:1027F800D9F9E2E61D4C1E49204606F011FA1D4F94
:1028080097F907301C4E009397F9063097F9052081
:102818001F49304607F03EFF334624221146204622
:1028280006F0C0F997F9023097F903201C493046A1
:1028380007F030FF334630221E21204606F0B2F959
:102848000021204606F0CAFAB7F90020154930469B
:1028580007F020FF334630224221204606F0A2F935
:102868000121204606F0BAFAA7E600BF600A002058
:10287800B4160108480C0020EC0B002038E50008CD
:10288800D4DB000840E5000828E5000848E5000812
:1028980054E500082CE5000864E500086CE500082C
:1028A80074E500085CDC0008F8B505460C465A22B9
:1028B80000218F4806F0D6FE642000FB05F08D4B02
:1028C8001D5A8D4B1B889D4212D08C4B19898C4BFD
:1028D80019608C4B00221A808B4BA3FB0123DB0869
:1028E8008A4A137003EB83035A008A1A884B1A70BA
:1028F800012C2BD0022C46D034B9824B1B88002BDC
:102908005CD101337F4A13807E4B1B88002B00F07B
:102918009F80012B00F0C4807E4E7F4C31462046BC
:1029280006F07EF942F2F73324221921204606F0F8
:10293800D3F83146204606F073F942F2F6332422E2
:102948005021204606F0C8F82846F8BD6D4B1B8874
:102958004BB1012BCED16E4B1B78082B0FD801330E
:102968006B4A1370C6E7694B1B78082B03D80133F1
:10297800664A1370BEE7654B00221A70BAE7644BCB
:1029880000221A70B6E75F4B1B8843B1012BB3D105
:102998005F4B1B7873B1013B5D4A1370ACE75B4B2F
:1029A8001B781BB1013B594A1370A5E7574B092205
:1029B8001A70A1E7564B09221A709DE7534B1B78F2
:1029C80003EB83035A00524B1B7813444C4A1360A1
:1029D8004A4C2381FEF7A4FC4F4E5049304606F07E
:1029E8001FF94F4B3C223021304606F0DBF8218995
:1029F8004C4807F0B1FD01214B4804F0FFFD0028C9
:102A080082D1022100F1804000F5883004F0F6FD03
:102A180000287FF479AF042100F1804000F5883068
:102A280004F0ECFD00287FF46FAF404B5B7A13B9DC
:102A38003E4B01225A723D4B9B7A13B93B4B012204
:102A48009A723A4B9A7A597A394807F085FD5BE7CA
:102A5800314C3849204606F0E3F80021204606F0BC
:102A6800BDF9354F224E294B1A783946304607F0C2
:102A780011FE334624223221204606F093F8012124
:102A8800204606F0ABF9224B1A783946304607F053
:102A980001FE334624223E21204606F083F83BE718
:102AA8001D4C2449204606F0BBF8234F104E174B07
:102AB8001A783946304607F0EDFD33462422322194
:102AC800204606F06FF80021204606F087F9104BE3
:102AD8001A783946304607F0DDFD334624223E2178
:102AE800204606F05FF80121204606F077F913E743
:102AF800EC0B0020A8DC0008EE0300203C0B0020B3
:102B0800E40B0020A00B0020CDCCCCCC510C002035
:102B1800500C0020AC5A0108600A0020B4160108C5
:102B280020E5000884E4000800100140680B00203C
:102B3800A4E400081CED000878E40008F8B5054690
:102B48000C465A2200213F4806F08CFD642000FB09
:102B580005F03D4B1E5A3D4B1B889E4203D03C4B13
:102B6800DA783C4B1A60022C2BD0012C34D0394B2C
:102B78001B68002B3BD0374B1B68012B44D0364DCC
:102B88003649284606F04CF82E4F3846FDF748FBE4
:102B9800C0F11601324B1E2201F0FE01284606F054
:102BA80001F83846FDF73CFBC0F116012D4B2D22EC
:102BB80001F0FE01284605F0F5FF002C31D0304623
:102BC800F8BD244B1B681BB90133224A1360CCE7BC
:102BD800204B00221A60C8E71E4B1B681BB1013B43
:102BE8001C4A1360C3E71B4B01221A60BFE71A4D4A
:102BF8001D49284606F014F842F213731E220421D8
:102C0800284605F069FFB6E7134D1749284606F030
:102C180007F842F213732D220421284605F05CFFC1
:102C2800ADE70C4B1A780A4BDA70FEF779FB0F49BF
:102C3800284605F0F5FF0E4B3C223021284605F0CA
:102C4800B1FFBCE7EC0B0020A8DC0008EE03002075
:102C58003C0B0020E40B0020600A002080200108C3
:102C680008E5000814E50008AC5A0108B416010884
:102C780020E50008F8B504460D465A2200214E48C2
:102C880006F0F0FC642000FB04F04C4B1F5A4C4B40
:102C98001B889F4203D04B4B1A794B4B1A60022D6D
:102CA8003BD0012D45D0484B1B68002B4CD0464BE0
:102CB8001B68012B55D0444B1B68022B5ED0434C3C
:102CC8004349204605F0ACFF3B4E3046FDF7A8FAD5
:102CD800C0F116013F4B1C2201F0FE01204605F011
:102CE80061FF3046FDF79CFAC0F116013A4B2822E5
:102CF80001F0FE01204605F055FF3046FDF790FA39
:102D0800C0F11601354B342201F0FE01204605F0D2
:102D180049FF002D3FD03846F8BD2B4B1B68012BCF
:102D280003D9294B00221A60BBE70133264A1360F6
:102D3800B7E7254B1B681BB1013B234A1360B2E779
:102D4800214B02221A60AEE7204C2549204605F0A7
:102D580067FF42F213731C220421204605F0BCFED3
:102D6800A5E71A4C1E49204605F05AFF42F2137394
:102D780028220421204605F0AFFE9CE7134C184991
:102D8800204605F04DFF42F21373342204212046F9
:102D980005F0A2FE93E70C4B1A780A4B1A71FEF75E
:102DA800BFFA0B49204605F03BFF0E4B3E2230216F
:102DB800204605F0F7FEAEE7EC0B0020A8DC000883
:102DC800EE0300203C0B0020E40B0020600A0020EA
:102DD800B4160108E8E40008F0E40008FCE4000880
:102DE800AC5A010820E500082DE9F04182B00446FC
:102DF8000D465A2200213F4806F034FC642000FBAF
:102E080004F03D4B33F800803C4B1B88984503D0B9
:102E18003B4B5A783B4B1A603B4C3C49204605F0EB
:102E2800FFFE4FF4185324220521204605F054FED6
:102E3800012D3FD0022D45D0324F3878FEF7C6F924
:102E4800314C0A2300933B7818221421204605F0C0
:102E580086FB2E49204605F0E3FE42F2EC33302291
:102E68002821204605F038FE42F2EB3330224D216E
:102E7800204605F031FE1F4E3A682549304607F0D6
:102E880009FC2449204605F0CBFE3046FDF7C8F979
:102E9800C0F11600400800EB4000410033463022E4
:102EA80001F0FE01204605F07DFE9DB1404602B0CE
:102EB800BDE8F081134B1B68632BBBD80133114A63
:102EC8001360B7E70F4B1B68002BB5D0013B0D4AC9
:102ED8001360B1E73A780A4B5A70FEF721FA0D49A8
:102EE800204605F09DFE0C4B3C223021204605F083
:102EF80059FEDBE7EC0B0020A8DC0008EE030020FD
:102F08003C0B0020E40B0020600A0020AC5A0108AA
:102F1800E0E40008B416010820E50008F8B5054605
:102F28000C465A220021414806F09CFB642000FB15
:102F380005F03F4B1E5A3F4B1B889E4203D03E4B29
:102F48009A783E4B1A60022C2BD0012C34D03B4B84
:102F58001B68002B3BD0394B1B68012B46D0384DE2
:102F68003849284605F05CFE304F3846FDF758F9D9
:102F7800C0F11601344B1E2201F0FE01284605F06F
:102F880011FE3846FDF74CF9C0F116012F4B2D22E2
:102F980001F0FE01284605F005FE002C35D030462C
:102FA800F8BD264B1B681BB90133244A1360CCE7D4
:102FB800224B00221A60C8E7204B1B681BB1013B5B
:102FC8001E4A1360C3E71D4B01221A60BFE71C4D60
:102FD8001F49284605F024FE42F213731E220421DD
:102FE800284605F079FDFEF701F9B4E7144D1849B4
:102FF800284605F015FE42F213732D2204212846B7
:1030080005F06AFDFEF7ECF8A9E70C4B1A780A4BB5
:103018009A70FEF785F90F49284605F001FE0E4B18
:103028003C223021284605F0BDFDB8E7EC0B002016
:10303800A8DC0008EE0300203C0B0020E40B002075
:10304800600A002080200108C0E40008D0E40008DD
:10305800AC5A0108B416010820E50008F8B5044682
:103068000F465A220021284806F0FCFA642000FB8B
:1030780004F0264B1E5A264B1B889E4202D0254B35
:1030880000221A60244B5B68244A934205D94FF406
:10309800616202FB03F3204A5360214C2149204618
:1030A80005F0BEFD42F2F03336223721204605F006
:1030B80013FD194B5A681C4BA3FB0232124DD20A5E
:1030C8001A49284607F0E6FA1949204605F0A8FDEE
:1030D800184B18220C21204605F064FD2846FDF700
:1030E8009FF8C0F11600400800EB400041002B4655
:1030F800242201F0FE01204605F054FD0FB13046B0
:10310800F8BDFEF70DF9FAE7EC0B0020A8DC000883
:10311800EE030020E40B0020780B0020FF5025026E
:10312800600A0020AC5A0108C5B3A291B8E50008AE
:10313800B4160108C4E50008F8B504460F465A223B
:103148000021284806F08EFA642000FB04F0264B84
:103158001E5A264B1B889E4202D0254B00221A601D
:10316800244B9B68244A934205D94FF4616202FBC1
:1031780003F3204A9360214C2149204605F050FD75
:1031880042F2F03336223721204605F0A5FC194BD0
:103198009A681C4BA3FB0232124DD20A1A492846E0
:1031A80007F078FA1949204605F03AFD184B18221D
:1031B8000621204605F0F6FC2846FDF731F8C0F157
:1031C8001600400800EB400041002B46242201F085
:1031D800FE01204605F0E6FC0FB13046F8BDFEF7CB
:1031E8009FF8FAE7EC0B0020A8DC0008EE030020AB
:1031F800E40B0020780B0020FF502502600A002015
:10320800AC5A0108C5B3A291B8E50008B416010884
:1032180080E50008F8B504460F465A2200212848E0
:1032280006F020FA642000FB04F0264B1E5A264BB9
:103238001B889E4202D0254B00221A60244BDB6873
:10324800244A934205D94FF4616202FB03F3204AF2
:10325800D360214C2149204605F0E2FC42F2F033CC
:1032680036223721204605F037FC194BDA681C4B0B
:10327800A3FB0232124DD20A1A49284607F00AFA6D
:103288001949204605F0CCFC184B18220621204687
:1032980005F088FC2846FCF7C3FFC0F1160040087B
:1032A80000EB400041002B46242201F0FE0120469D
:1032B80005F078FC0FB13046F8BDFEF731F8FAE7B3
:1032C800EC0B0020A8DC0008EE030020E40B002033
:1032D800780B0020FF297515600A0020AC5A0108F8
:1032E800C5B3A29194E50008B4160108A0E500084A
:1032F8002DE9F04182B005460C465A2200219B4830
:1033080006F0B0F9642000FB05F0994B1D5A994B63
:103318001B889D420CD00023974A1360974A13805C
:10332800974A1370974A1370974A1370974A137005
:1033380034B9924B1B88022B1DD801338F4A138056
:10334800012C77D0022C00F0AD80914C9149204699
:1033580005F066FC904B18221221204605F022FC4D
:10336800864B1B88032B00F2FD80DFE813F0D000AA
:1033780025015B019101824B1B78824A11786422F6
:1033880002FB01F24FF47A7101FB03237F4A1278A2
:1033980002EB820251000B447B4A12781344764AAE
:1033A80013607E4A528993421BD0704F3846FCF70F
:1033B80037FFC0F11600400800EB40004100744E92
:1033C8003B46242201F0FE01304605F0EBFB744B2E
:1033D80030221221304605F0E5FB684B00221A80A6
:1033E800AEE7704B00225A60FEF7BEF8FDF798FF73
:1033F8005E4E3046FCF714FFC0F11600400800EBA3
:1034080040004100DFF888813346242201F0FE01A4
:10341800404605F0C7FB644F0FCF30607160B26063
:10342800F36038683061614B30221221404605F064
:10343800B9FB85E7514B1B88032B83D8DFE803F0E2
:10344800020E1A264E4B1B78082B03D801334C4A20
:10345800137077E74A4B00221A7073E7494B1B78C1
:10346800082B03D80133474A13706BE7454B0022FA
:103478001A7067E7454B1B78082B03D80133434A7A
:1034880013705FE73F4B00221A705BE73E4B1B78D7
:10349800082B03D801333C4A137053E73A4B0022F8
:1034A8001A704FE7354B1B88032B3FF64EAFDFE80A
:1034B80003F0020D1823324B1B781BB1013B304A35
:1034C800137042E72E4B09221A703EE72D4B1B78EA
:1034D8001BB1013B2B4A137037E72A4B09221A709C
:1034E80033E72A4B1B781BB1013B284A13702CE7A2
:1034F800264B09221A7028E7234B1B781BB1013B86
:10350800214A137021E7204B09221A701DE7204C2D
:103518002049204605F084FB0021204605F05EFC8A
:10352800124E174B1A782249304607F0B3F8334643
:1035380024223021204605F035FB0121204605F0E4
:103548004DFC114B1B780093104B1B780D4A1278D9
:103558001849304607F09EF8334624223621204683
:1035680005F020FB284602B0BDE8F081EC0B0020F6
:10357800A8DC0008EE030020E40B0020A00B0020CC
:10358800520C0020E80B0020500C0020510C0020A9
:10359800600A0020B416010864E400083C0B00200F
:1035A80054E40008780B00202CE4000840E40008EC
:1035B80078E4000874E400084B4C4C49204605F0B8
:1035C8002FFB4B4F4B4E4C4B1A783946304607F081
:1035D80061F8334624223021204605F0E3FA002121
:1035E800204605F0FBFB454B1A783946304607F074
:1035F80051F8334624223621204605F0D3FA01211A
:10360800204605F0EBFB3E4B1B783E4A12783E49BC
:10361800304607F03FF8334624223C21204605F087
:10362800C1FA9FE7304C3149204605F0F9FA314E8E
:10363800324B1B78304A12783349304607F02AF863
:10364800334624223021204605F0ACFA00212046DA
:1036580005F0C4FB264F2B4B1A783946304607F045
:1036680019F8334624223C21204605F09BFA012113
:10367800204605F0B3FB224B1A783946304607F04E
:1036880009F8334624224221204605F08BFA69E7DF
:10369800154C1649204605F0C3FA164E194B1B78EF
:1036A8000093164B1B78144A12781849304606F0D6
:1036B800F1FF334624223021204605F073FA002119
:1036C800204605F08BFB0E4B1A780949304606F068
:1036D800E1FF334624224221204605F063FA012106
:1036E800204605F07BFB3DE7600A0020B416010880
:1036F80078E40008EC0B0020520C0020E80B0020B6
:10370800500C0020510C00207CE4000874E40008F0
:103718002DE9F04182B005460C465A2200219C480A
:1037280005F0A0FF642000FB05F09A4B1D5A9A4B48
:103738001B889D420CD00023984A1360984A138036
:10374800984A1370984A1370984A1370984A1370DD
:1037580034B9934B1B88022B1DD80133904A138030
:10376800012C79D0022C00F0AF80924C924920466F
:1037780005F056FA914B18221221204605F012FA4C
:10378800874B1B88032B00F2FF80DFE813F0D20081
:1037980027015D019301834B1B78834A11786422CA
:1037A80002FB01F24FF47A7101FB0323804A12787D
:1037B80002EB820251000B447C4A12781344774A88
:1037C80013607F4A528993421BD0714F3846FCF7E9
:1037D80027FDC0F11600400800EB40004100754E7F
:1037E8003B46242201F0FE01304605F0DBF9754B1B
:1037F80030221221304605F0D5F9694B00221A8093
:10380800AEE7714B00229A60FDF7AEFEFDF788FD2A
:103818005F4E3046FCF704FDC0F11600400800EB8F
:1038280040004100DFF88C813346242201F0FE017C
:10383800404605F0B7F9654F0FCF30607160B26050
:10384800F36038683061BB88B382614B30220C2149
:10385800404605F0A7F983E7514B1B88032B81D815
:10386800DFE803F0020E1A264E4B1B78082B03D80C
:1038780001334C4A137075E74A4B00221A7071E7FE
:10388800494B1B78082B03D80133474A137069E763
:10389800454B00221A7065E7454B1B78082B03D867
:1038A8000133434A13705DE73F4B00221A7059E712
:1038B8003E4B1B78082B03D801333C4A137051E761
:1038C8003A4B00221A704DE7354B1B88032B3FF605
:1038D8004CAFDFE803F0020D1823324B1B781BB105
:1038E800013B304A137040E72E4B09221A703CE71F
:1038F8002D4B1B781BB1013B2B4A137035E72A4B24
:1039080009221A7031E72A4B1B781BB1013B284A60
:1039180013702AE7264B09221A7026E7234B1B78D7
:103928001BB1013B214A13701FE7204B09221A7073
:103938001BE7204C2049204605F072F9002120465B
:1039480005F04CFA124E174B1A782249304606F009
:10395800A1FE334624223021204605F023F9012117
:10396800204605F03BFA114B1B780093104B1B784F
:103978000D4A12781849304606F08CFE3346242248
:103988003621204605F00EF9284602B0BDE8F08140
:10399800EC0B0020A8DC0008EE030020E40B00205C
:1039A800A00B0020520C0020E80B0020500C002037
:1039B800510C0020600A0020B416010864E40008D5
:1039C8003C0B002054E40008780B0020DCE30008DE
:1039D800F4E3000878E4000874E400084B4C4C4910
:1039E800204605F01DF94B4F4B4E4C4B1A78394683
:1039F800304606F04FFE334624223021204605F09B
:103A0800D1F80021204605F0E9F9454B1A783946E6
:103A1800304606F03FFE334624223621204605F084
:103A2800C1F80121204605F0D9F93E4B1B783E4AE2
:103A380012783E49304606F02DFE334624223C21BA
:103A4800204605F0AFF89FE7304C3149204605F095
:103A5800E7F8314E324B1B78304A127833493046FA
:103A680006F018FE334624223021204605F09AF845
:103A78000021204605F0B2F9264F2B4B1A7839461B
:103A8800304606F007FE334624223C21204605F046
:103A980089F80121204605F0A1F9224B1A78394608
:103AA800304606F0F7FD334624224221204605F031
:103AB80079F869E7154C1649204605F0B1F8164E15
:103AC800194B1B780093164B1B78144A1278184927
:103AD800304606F0DFFD334624223021204605F02B
:103AE80061F80021204605F079F90E4B1A7809494A
:103AF800304606F0CFFD334624224221204605F009
:103B080051F80121204605F069F93DE7600A0020D7
:103B1800B416010878E40008EC0B0020520C0020D1
:103B2800E80B0020500C0020510C00207CE4000819
:103B380074E400082DE9F04182B005460C465A228B
:103B480000219B4805F08EFD642000FB05F0994B91
:103B58001D5A994B1B889D420CD00023974A13602D
:103B6800974A1380974A1370974A1370974A1370AD
:103B7800974A137034B9924B1B88022B1DD8013316
:103B88008F4A1380012C77D0022C00F0AD80914C25
:103B98009149204605F044F8904B182212212046FE
:103BA80005F000F8864B1B88032B00F2FD80DFE848
:103BB80013F0D00025015B019101824B1B78824AEA
:103BC8001178642202FB01F24FF47A7101FB03239E
:103BD8007F4A127802EB820251000B447B4A12782A
:103BE8001344764A13607E4A528993421BD0704F21
:103BF8003846FCF715FBC0F11600400800EB400002
:103C08004100744E3B46242201F0FE01304604F088
:103C1800C9FF744B30221221304604F0C3FF684BB1
:103C280000221A80AEE7704B0022DA60FDF79CFC98
:103C3800FDF776FB5E4E3046FCF7F2FAC0F116004F
:103C4800400800EB40004100DFF888813346242219
:103C580001F0FE01404604F0A5FF644F0FCF30602D
:103C68007160B260F3603B883382614B3022182167
:103C7800404604F097FF85E7514B1B88032B83D8F8
:103C8800DFE803F0020E1A264E4B1B78082B03D8E8
:103C980001334C4A137077E74A4B00221A7073E7D6
:103CA800494B1B78082B03D80133474A13706BE73D
:103CB800454B00221A7067E7454B1B78082B03D841
:103CC8000133434A13705FE73F4B00221A705BE7EA
:103CD8003E4B1B78082B03D801333C4A137053E73B
:103CE8003A4B00221A704FE7354B1B88032B3FF6DF
:103CF8004EAFDFE803F0020D1823324B1B781BB1DF
:103D0800013B304A137042E72E4B09221A703EE7F6
:103D18002D4B1B781BB1013B2B4A137037E72A4BFD
:103D280009221A7033E72A4B1B781BB1013B284A3A
:103D380013702CE7264B09221A7028E7234B1B78AF
:103D48001BB1013B214A137021E7204B09221A704D
:103D58001DE7204C2049204604F062FF0021204640
:103D680005F03CF8124E174B1A782249304606F0F7
:103D780091FC334624223021204604F013FF012110
:103D8800204605F02BF8114B1B780093104B1B783D
:103D98000D4A12781849304606F07CFC3346242236
:103DA8003621204604F0FEFE284602B0BDE8F08128
:103DB800EC0B0020A8DC0008EE030020E40B002038
:103DC800A00B0020520C0020E80B0020500C002013
:103DD800510C0020600A0020B416010864E40008B1
:103DE8003C0B002054E40008780B002008E400088D
:103DF8001CE4000878E4000874E400084B4C4C49C3
:103E0800204604F00DFF4B4F4B4E4C4B1A78394669
:103E1800304606F03FFC334624223021204604F089
:103E2800C1FE0021204604F0D9FF454B1A783946D7
:103E3800304606F02FFC334624223621204604F073
:103E4800B1FE0121204604F0C9FF3E4B1B783E4AD3
:103E580012783E49304606F01DFC334624223C21A8
:103E6800204604F09FFE9FE7304C3149204604F07D
:103E7800D7FE314E324B1B78304A127833493046E0
:103E880006F008FC334624223021204604F08AFE3E
:103E98000021204604F0A2FF264F2B4B1A78394602
:103EA800304606F0F7FB334624223C21204604F036
:103EB80079FE0121204604F091FF224B1A783946F9
:103EC800304606F0E7FB334624224221204604F020
:103ED80069FE69E7154C1649204604F0A1FE164E06
:103EE800194B1B780093164B1B78144A1278184903
:103EF800304606F0CFFB334624223021204604F01A
:103F080051FE0021204604F069FF0E4B1A7809493A
:103F1800304606F0BFFB334624224221204604F0F7
:103F280041FE0121204604F059FF3DE7600A0020C8
:103F3800B416010878E40008EC0B0020520C0020AD
:103F4800E80B0020500C0020510C00207CE40008F5
:103F580074E400082DE9F04182B005460C465A2267
:103F680000219F4805F07EFB642303FB05F39D4A6F
:103F7800D25A9D4B1B889A4215D000239B4A136046
:103F88009B4A13809B4A13709B4A13709B4A137079
:103F98009B4A13709B4E9C4A03CA306071609B4ACF
:103FA80013709B4A137044B9994B1B782BB9984BE3
:103FB80001221A708E4B00221A80954B1B781BB178
:103FC800631E9BB2012B25D9904B1B7833B334B9B0
:103FD800874B1B88022B58D80133854A1380012C44
:103FE80000F08F80022C00F0C5808A4C8A49204658
:103FF80004F016FE894B18221221204604F0D2FD47
:104008007B4B1B88032B38D8DFE813F018014401D9
:104018007A01B0017D4B01221A70D5E7DFF81882CA
:104028007C4E4146304604F0FBFD764CB4F9003036
:104038006B4F009394F9023094F90320784938467D
:1040480006F028FB3B4620221221304604F0AAFD48
:1040580094F90730009394F9063094F905207149D2
:10406800384606F017FB4146304604F0D9FD3B467A
:1040780030221221304604F095FD642000FB05F043
:10408800584B185A02B0BDE8F0815A4B1B785A4A6F
:104098001178642202FB01F24FF47A7101FB0323C9
:1040A800574A127802EB820251000B44534A1278A5
:1040B80013444E4A13605C4A928993420ED0554E7F
:1040C8005549304604F0ACFD584B30221221304699
:1040D80004F068FD464B00221A8080E7544A4A4B98
:1040E8001068516803C3FDF71BF94A4E4A49304628
:1040F80004F096FD4F4B30220021304604F052FD6B
:104108006DE73B4B1B88032B3FF66CAFDFE803F0F2
:10411800020E1A26374B1B78082B03D80133354A71
:1041280013705FE7334B00221A705BE7324B1B7842
:10413800082B03D80133304A137053E72E4B002263
:104148001A704FE72E4B1B78082B03D801332C4AE3
:10415800137047E7284B00221A7043E7274B1B7858
:10416800082B03D80133254A13703BE7234B002261
:104178001A7037E71E4B1B88032B3FF636AFDFE874
:1041880003F0020D18231B4B1B781BB1013B194A86
:1041980013702AE7174B09221A7026E7164B1B786B
:1041A8001BB1013B144A13701FE7134B09221A7005
:1041B8001BE7134B1B781BB1013B114A137014E723
:1041C8000F4B09221A7010E70C4B1B781BB1013BEF
:1041D8000A4A137009E7094B09221A7005E700BF5C
:1041E800EC0B0020A8DC0008EE030020E40B002004
:1041F800A00B0020520C0020E80B0020500C0020DF
:10420800510C0020480C00205C0B0020470C0020BB
:10421800460C0020600A0020B416010864E4000877
:104228002CDC0008B0E300083C0B002054E4000834
:104238007C0C0020C4E30008BC380108614C6249CA
:10424800204604F0EDFC0021204604F0C7FD5F4E37
:104258005F4B1A785F49304606F01CFA3346242231
:104268003021204604F09EFC0121204604F0B6FDD2
:10427800594B1B780093594B1B78594A1278594966
:10428800304606F007FA334624223621204604F049
:1042980089FCF2E64B4C4C49204604F0C1FC4D4FDA
:1042A8004A4E4B4B1A783946304606F0F3F93346F6
:1042B80024223021204604F075FC0021204604F019
:1042C8008DFD474B1A783946304606F0E3F93346F8
:1042D80024223621204604F065FC0121204604F002
:1042E8007DFD3D4B1B783D4A12783F49304606F02C
:1042F800D1F9334624223C21204604F053FCBCE685
:10430800304C3149204604F08BFC304E344B1B783E
:104318002F4A12783449304606F0BCF93346242235
:104328003021204604F03EFC0021204604F056FDD2
:10433800284F2A4B1A783946304606F0ABF93346EF
:1043480024223C21204604F02DFC0121204604F0C3
:1043580045FD214B1A783946304606F09BF933461D
:1043680024224221204604F01DFC86E6154C1649FD
:10437800204604F055FC154E184B1B780093184B3B
:104388001B78134A12781749304606F083F93346EA
:1043980024223021204604F005FC0021204604F0A8
:1043A8001DFD0D4B1A780B49304606F073F933465C
:1043B80024224221204604F0F5FB0121204604F086
:1043C8000DFD5AE6600A0020B4160108EC0B002027
:1043D800520C002078E40008500C0020510C0020FA
:1043E800E80B002074E400087CE4000800B583B002
:1043F80002F082FAB54BDB69C01A012802D803B073
:104408005DF804FB0821B24803F0F8F880B9B14B15
:104418000121197200225A729A72DA7200921346B6
:10442800AD4806F099F802F067FAA84BD861E6E7BC
:104438000121A74803F0E2F840B9022100F18040C9
:1044480000F5883003F0DAF800286DD00121A04883
:1044580003F0D4F840B9022100F1804000F588301B
:1044680003F0CCF8002875D00121994803F0C6F86C
:10447800012800F088800121954803F0BFF8012841
:1044880000F09F800121924803F0B8F848B9022152
:1044980000F1804000F5883003F0B0F8002800F003
:1044A800AC8001218A4803F0A9F848B9022100F13B
:1044B800804000F5883003F0A1F8002800F0B580AE
:1044C8000121834803F09AF8012800F0CA800121ED
:1044D8007F4803F093F848B9022100F1804000F5C5
:1044E800883003F08BF8012800F0DC80012178483F
:1044F80003F084F8002896D1022100F1804000F5ED
:10450800883003F07BF801288DD10421704803F02E
:1045180075F8012887D16F4B00221A7201225A724E
:104528006E4806F09FF87EE7042100F1804000F510
:10453800883003F063F8012888D1664B1978002980
:1045480084D100225A729A721A72DA72644806F09A
:1045580003F868E7042100F1804000F5883003F093
:104568004DF8012880D15B4B197801297FF47CAF85
:1045780000221A7201225A729A7205229A705948B8
:1045880005F0EAFF4FE70221514803F037F8002809
:104598007FF471AF042100F1804000F5883003F00A
:1045A8002DF801287FF467AF4A4B1B78002B7FF466
:1045B80062AF484B0121997219704B4805F0CCFF46
:1045C80031E70221424803F019F800287FF45AAF76
:1045D800042100F1804000F5883003F00FF800282E
:1045E8007FF450AF3B4B0121197219709972002268
:1045F800DA723E4805F0B0FF15E7042100F180406B
:1046080000F5883002F0FAFF00287FF44AAF314BFA
:104618001A78012A7FF445AF0121197299729970AD
:104628000B46334805F098FFFDE6042100F1804071
:1046380000F5883002F0E2FF00287FF441AF254BF7
:104648001B78002B7FF43CAF224A01211172002114
:1046580051729172927800920A46264805F07CFFC2
:10466800E1E602211A4802F0C9FF00287FF42FAFC3
:10467800042100F1804000F5883002F0BFFF0028D7
:104688007FF425AF134B1B78002B7FF420AF114B21
:1046980001211972197099720022DA72164805F010
:1046A8005BFFC0E604210A4802F0A8FF00287FF457
:1046B8001DAF084B197800297FF418AF01221A7230
:1046C8005A720E4805F048FFADE600BF540C0020B2
:1046D80000100140680B0020D8E5000870E80008C9
:1046E8001CE6000838E6000884E60008B0E6000882
:1046F800F4E6000854E70008E4E700082CE800089E
:1047080008B5094B00221A71084BDB7803B908BDBC
:1047180001224FF48071064802F077FF02F0ECF8AE
:10472800014B1860F3E700BF740C00203C0B00201D
:10473800000C014008B5054B03221A7100224FF402
:104748008071034802F061FF08BD00BF740C0020AF
:10475800000C014008B502F0CFF8194A1368C01AD6
:104768001379012B10D05AB212B1022B1AD008BDFE
:104778006428FCD900224FF48071124802F045FFEA
:104788000F4B03221A71F2E740F2DC539842EED93C
:1047980000224FF480710B4802F037FF084B0322C8
:1047A8001A71E4E7B0F57A7FE1D94FF480710548D2
:1047B80002F031FF02F0A0F8014B1860D7E700BF04
:1047C800740C0020000C014070B586B000260496D9
:1047D8000E4B9A6942F008029A619B6903F008033C
:1047E8000193019B4FF480750295012303930223E3
:1047F8000593074C02A9204602F00CFE32462946D2
:10480800204602F002FF06B070BD00BF0010024053
:10481800000C014000B58BB0B0F90030A3F26C7306
:10482800069390F90230013B059390F90330049305
:1048380090F90530039390F90630029390F9073008
:1048480001934FF0FF33099301A804F0EDFF0BB07B
:104858005DF804FB38B50D460A4C2268136823F04E
:1048680001031360FFF7D6FF4FF4616101FB0501F7
:10487800204602F070FD2268136843F001031360BC
:1048880038BD00BF880C002008B502F035F81D4B74
:1048980018601D481D4B03604FF0FF334360002331
:1048A800836002F0E3FC88B90121174802F0AAFDF1
:1048B8004AF2A55398420CD1154B5A6A5B6A154BBC
:1048C80001221A60104802F05DFD08BDFCF750FB9C
:1048D800EAE711486FF01C030370072343700A23AB
:1048E80083701123C370072141712323837114231B
:1048F800C371FFF7AFFF4AF2A5520121024802F047
:1049080079FDDFE7840C0020880C00200028004097
:1049180000100240E00442427C0C002010B582B036
:104928000446009100230193684604F089FD03685A
:10493800E3714368A37183686371C368E370836933
:104948000133237103690133A370436903F26C7364
:10495800238002B010BD000000B583B002F0E8FC6F
:10496800019001990248FFF7D9FF03B05DF804FBF5
:104978007C0C002008B50E480E4B03604FF4827380
:10498800436000238360C360036143614FF4007296
:1049980082612822C2610362436283620A23C3627E
:1049A80001F066FC00B908BDFCF7E2FAFBE700BFBE
:1049B8009C0C00200030014000B587B00023029312
:1049C8000393049305930268124B9A4202D007B0EE
:1049D8005DF804FB03F560439A6942F480529A61DA
:1049E8009A6902F480520092009A9A6942F004028D
:1049F8009A619B6903F004030193019BA02302932E
:104A0800022303930323059302A9034802F002FD3E
:104A1800DDE700BF003001400008014008B5074845
:104A2800074B03600323436040F6FF73836001F084
:104A380029FD00B908BDFCF79BFAFBE7F40C002040
:104A48000030004008B500220F49104802F0F2FF7C
:104A580070B90F490D4803F004F860B90D490B48C7
:104A680003F0CEFC50B9094803F002F848B908BD74
:104A7800FCF77EFAEDE7FCF77BFAEFE7FCF778FA4C
:104A8800F1E7FCF775FAF2E704000020000D0020BA
:104A98007000002054000020022805D8DFE800F04C
:104AA80005040200012070470220704702680E4B7F
:104AB8009A4200D0704700B583B003F5DA33DA695B
:104AC80042F40002DA61DB6903F400030193019BFD
:104AD80000221146142002F0C3FD142002F0F4FD58
:104AE80003B05DF804FB00BF005C004008B500F2AD
:104AF8002C41D0F85C0402F0D5FF08BD08B500EBE6
:104B08004113D3F83C22D0F85C0402F0F9FF08BD49
:104B180008B500EB4113DA6BD0F85C0403F026F813
:104B280008BD08B5D0F85C0403F0AAF808BD10B5B4
:104B380004468368022B09D10121D4F85C0403F0F0
:104B48008DF8D4F85C0403F06AF810BDFCF710FA8D
:104B5800F2E7000010B50446D0F85C0403F081F8D1
:104B6800A36923B1024A136943F00603136110BD18
:104B780000ED00E008B5D0F85C0403F07BF808BD50
:104B880010B504461D48C0F85C44C4F820021C4B0C
:104B98000360082343600223836000238361C361A9
:104BA800036200F0DDF930BB182300221146D4F867
:104BB800200200F030FE582300228021D4F8200281
:104BC80000F029FEC02300228121D4F8200200F041
:104BD80022FE4FF4887300220121D4F8200200F04D
:104BE8001AFE4FF4807300228221D4F8200200F0CC
:104BF80012FE002010BDFCF7BBF9D5E7240F0020FA
:104C0800005C004008B5D0F8200200F014FAFFF765
:104C180043FF08BD10B51C4613462246D0F82002B3
:104C280000F034FAFFF738FF10BD08B5D0F82002BD
:104C380000F055FAFFF730FF08BD08B5D0F820029C
:104C480000F094FDFFF728FF08BD08B5D0F8200252
:104C580000F0BAFDFFF720FF08BDD0F8203211F0B0
:104C6800800F06D101F07F0103EB411191F82A0270
:104C7800704701F07F0103EB411191F82A0070475A
:104C880008B5D0F8200200F0EDF9FFF705FF08BDE0
:104C980008B5D0F8200200F06FFAFFF7FDFE08BD56
:104CA80008B5D0F8200200F041FAFFF7F5FE08BD7C
:104CB80008B5D0F8200200F058FA08BD004870473F
:104CC800F80300207047704712230B800048704794
:104CD8002000002004230B80004870473400002087
:104CE8000023934216D230B40BE0373401F8134056
:104CF80000015C00013400250D550133DBB29342FD
:104D080006D2040F092CF0D8303401F81340EFE72D
:104D180030BC70477047000038B50A4B1868043338
:104D28001C6804331B68C01800D138BD064D082222
:104D3800A91CFFF7D5FF042205F112012046FFF751
:104D4800CFFFF2E7E8F7FF1F3800002008B51A2365
:104D58000B80FFF7E1FF014808BD00BF38000020C5
:104D680008B50A4628B90549054803F0FCF903487F
:104D780008BD0249024803F0F6F9F8E78413002059
:104D8800D4E8000810B5044C0A462146034803F04D
:104D9800EAF9204610BD00BF84130020C0E80008CF
:104DA80008B50A4628B90549054803F0DCF903485F
:104DB80008BD0249024803F0D6F9F8E78413002039
:104DC800A4E8000808B50A4628B90549054803F0CB
:104DD800CAF9034808BD0249024803F0C4F9F8E7D4
:104DE80084130020B0E800080020704700207047B6
:104DF80010B5054C0146204603F011FB204603F090
:104E08002BFB002010BD00BF000D002010B5064C84
:104E180000220649204603F0FAFA0549204603F025
:104E2800FEFA002010BD00BF000D00206C19002004
:104E380084150020094BD3F81832D3F814320BB17B
:104E48000120704710B50A460146044C204603F07D
:104E5800DEFA204603F0E9FA10BD00BF000D00207D
:104E68007047FEE7FEE7FEE7FEE7704770477047CA
:104E780008B501F035FD08BD08B5024800F0C6FBCD
:104E880008BD00BF240F002008B5024802F090FAC0
:104E980008BD00BF880C002008B5024802F0AEF932
:104EA80008BD00BF880C002008B5022002F0B8FB3E
:104EB800022002F0B4FB08BD7047000082B00E4B20
:104EC8009A6942F001029A619A6902F0010200921D
:104ED800009ADA6942F08052DA61DB6903F08053A4
:104EE8000193019B054A536823F0E06343F0007384
:104EF800536002B0704700BF00100240000001403C
:104F08000268144B9A4200D0704700B583B002F093
:104F18000DFC114BDA6942F00062DA61DB6903F0DB
:104F280000630193019B0D4B01221A600022114678
:104F3800032002F095FB032002F0C6FB0022114675
:104F4800292002F08DFB292002F0BEFB03B05DF89A
:104F580004FB00BF00280040001002403C0442420D
:104F6800002866D0F0B587B0044690F829345BB3C2
:104F7800032384F82934206800F074FC254655F88A
:104F8800107B6E460FCD0FC62B683360231D0ECBEA
:104F9800384600F058FC0021206800F06DFC002322
:104FA8000E2B16D804EB4312012182F8291082F83F
:104FB80028309386002182F82B109163D1639A1CC4
:104FC8005201A1500133EBE780F82834FFF76EFD5A
:104FD800CEE700230E2B13D804EB4312002182F8EE
:104FE800291282F82832938682F82B12C2F83812D6
:104FF800C2F83C1203F112025201A1500133E9E751
:10500800254655F8107B6E460FCD0FC62B683360CA
:10501800231D0ECB384600F031FC002584F82450BF
:10502800012384F82934206800F03CFF284607B0A3
:10503800F0BD0120704790F82834012B10D010B52E
:105048000446012180F82814FFF73DFE206800F08F
:1050580027FF206800F0FEFB002084F8280410BD1C
:105068000220704790F82834012B0DD010B5044663
:10507800012380F8283480F82410006800F00AFF23
:10508800002084F8280410BD0220704738B54DB2BE
:10509800002D1CDB01F07F04640104F50A7404444C
:1050A80001F07F012170ED0F65702261E37090F8C7
:1050B8002834012B11D00546012380F828342146D5
:1050C800006800F0F1FB002085F8280438BD01F0E5
:1050D8007F04640128340444E2E70220F6E74AB278
:1050E800002A1BDB01F07F035B0103F50A7303440D
:1050F80001F07F011970D20F5A7090F82824012A04
:1051080012D010B50446012280F8282419460068F8
:1051180000F05EFD002084F8280410BD01F07F0334
:105128005B0128330344E3E70220704770B501F0C0
:105138007F056C0104F50A7101440444C4F83C225B
:1051480005F112025201861883500023736084F817
:10515800293284F8285225B9006800F0BFFE0020E3
:1051680070BD006800F0BAFEF9E701F00F011231D6
:1051780000EB41118888704770B501F07F056C011C
:1051880004F1280101440444E263AA1C5201861870
:10519800835000237360012384F8293084F8285051
:1051A80025B9006800F09AFE002070BD006800F084
:1051B80095FEF9E770B582B004460023ADF80630D5
:1051C800ADF804308DE103889BB223F4E14323F06A
:1051D80070039BB203802268B2F8503094F828100C
:1051E80003EBC103023302EB4303D3F80034C3F3E8
:1051F80009036364E26B1344E36300212046FFF76D
:1052080087FC94F82430002B00F06B81236C002B72
:1052180040F0678194F82430226843F08003A2F8B4
:105228004C30002384F824305BE1B0F8503094F817
:10523800282203EBC203063300EB4303D3F8003400
:10524800C3F30903C4F84432B4F82C2204F22C4105
:1052580000F0A1FF2268138823F070031B051B0DC3
:1052680013802046FFF742FC3BE1B4F82C22D4F827
:105278003C1200F090FFD4F84422D4F83C32134496
:10528800C4F83C326BE1C1F34F0311F0010F01D0B8
:1052980001339BB29B029BB2C2F800347CE130F828
:1052A80025309BB2ADF80430BDF8043013F4004F3C
:1052B80035D1BDF8043013F0800F00F01281226858
:1052C80032F825309BB223F4E14323F070039BB2FC
:1052D80022F8253004EB451393F83230002B40F0C8
:1052E800B2802068B0F8503004EB451292F82820BC
:1052F80003EBC203023300EB4303D3F80034C3F3D8
:105308000903AA1C04EB42125360002B00F0C98069
:1053180004EB45118A8DC96B00F0CBFDC1E030F874
:10532800253023F070031B051B0D20F8253004EBF6
:10533800451393F83232D3B92068B0F8503004EBF3
:10534800451292F8282203EBC203063300EB43030D
:10535800B3F80064C6F3090686B304EB4511334677
:10536800B1F82C22D1F83C1200F015FF26E0206895
:1053780004EB451393F8282230F8223013F4804FB9
:1053880042D0B0F8503003EBC203023300EB4303C2
:10539800B3F80064C6F3090666BB226804EB45133C
:1053A80093F8281232F8213023F0F0031B051B0D67
:1053B80043F4004343F0C00322F8213005F11203FF
:1053C8005B01E1184A6832444A6004EB4511D1F8A0
:1053D8003C223244C1F83C22E3581BB1D1F83812C0
:1053E8008E4228D204EB451393F828122046FFF783
:1053F80085FB5EE704EB45113346B1F82E22D1F860
:105408003C1200F0C8FEC8E7B0F8503003EBC20306
:10541800063300EB4303B3F80064C6F30906002E15
:10542800BBD004EB45113346B1F83022D1F83C1219
:1054380000F0B1FEB1E704EB451191F828122046BF
:10544800FFF774FE35E7206804EB451393F828202E
:1054580030F8223013F0400F00F0B480B0F850302C
:1054680003EBC203023300EB4303D3F80034C3F366
:105478000903AA1C04EB42125360002B40F09B80E6
:10548800226804EB451393F8281032F8213023F0F2
:10549800F0031B051B0D43F4404343F0800322F83F
:1054A80021302268B2F8503004EB451090F82810EB
:1054B80003EBC103023302EB4303D3F80024C2F326
:1054C8000902AB1C5B01E1184A60C16B0A44C26364
:1054D800E358002B40F08F8090F828102046FFF703
:1054E80017FB2068B0F844309BB2ADF8063013F4CF
:1054F800004F00F08880BDF8065015F00F057FF4C6
:10550800CEAEBDF8063013F0100F3FF45CAE038842
:105518009BB2ADF80430BDF8043013F4006F7FF48B
:1055280084AEBDF8043013F4004FDAD0038823F0BA
:1055380070031B051B0D03802068B0F8503094F8E9
:10554800282203EBC203063300EB4303D3F80034ED
:10555800C3F30903C4F84432002B7FF486AE00215C
:105568002046FFF7CBFA2368B3F85020063203EB46
:105578004202D4F838123E297FF685AEC1F34F13A4
:1055880011F01F0F01D1013B9BB26FEAC3636FEAB1
:1055980053439BB2C2F80034226813889BB223F4A9
:1055A800804323F0700383F4405343F4004343F0F3
:1055B8008003138095E704EB4511CA8DC96B00F091
:1055C80078FC5DE7B0F8503003EBC203063300EB1C
:1055D8004303D3F80034C3F30903AA1C04EB4212B3
:1055E8005360002B3FF44CAF04EB45110A8EC96B96
:1055F80000F05FFC44E704EB451595F828102046B9
:10560800FFF7BAFD6DE7002002B070BD10B5044683
:10561800006800F049FC10F4004F45D1206800F004
:1056280043FC10F4806F43D1206800F03DFC10F477
:10563800804F08D02268B2F844309BB223F48043EC
:105648009BB2A2F84430206800F02EFC10F4005FF2
:1056580008D02268B2F844309BB223F400539BB2BE
:10566800A2F84430206800F01FFC10F4805F30D1AD
:10567800206800F019FC10F4006F49D1206800F090
:1056880013FC10F4007F64D1206800F00DFC10F4C6
:10569800807F08D02268B2F844309BB223F480732C
:1056A8009BB2A2F8443010BD2046FFF783FDB5E752
:1056B8002268B2F844309BB223F480639BB2A2F80C
:1056C80044302046FFF733FA00212046FFF7CAFC92
:1056D800AAE72268B2F840309BB223F004039BB2D9
:1056E800A2F840302268B2F840309BB223F0080399
:1056F8009BB2A2F840302046FFF73CFA2268B2F885
:1057080044309BB223F480539BB2A2F84430AFE7F5
:105718002268B2F8403043F00803A2F8403022680B
:10572800B2F844309BB223F400639BB2A2F8443031
:105738002268B2F8403043F00403A2F840302068F1
:1057480000F0B2FB10F4805F98D12046FFF702FA10
:1057580094E72268B2F844309BB223F400739BB2FA
:10576800A2F844302046FFF7DCF98DE738B54AB295
:10577800002A1BDB4B0103F50A73034401249C70C8
:1057880001F07F051D70D20F5A7090F82824A242AC
:1057980018D00446012280F828241946006800F031
:1057A800F9FA4DB1002084F8280438BD01F07F03D0
:1057B8005B0128330344E1E704F22C41206800F040
:1057C80076FBEFE70220F0E710B54AB2002A1ADBB1
:1057D8004B0103F50A73034400249C7001F07F0118
:1057E8001970D20F5A7090F82824012A11D0044653
:1057F800012280F828241946006800F002FB0020E6
:1058080084F8280410BD01F07F035B0128330344AA
:10581800E2E70220F6E711F0800F09D001F07F01DE
:1058280049012831014442B98A728B8000207047AF
:10583800490101F50A710144F5E701228A72CB801A
:105848001B0C0B81F2E784B001A880E80E00002051
:1058580004B07047B0F8403043F43F43A0F84030FC
:1058680000207047B0F8403023F474535B045B0C9D
:10587800A0F84030002070470020704784B038B549
:1058880005AC84E80E000123A0F840300024A0F8FD
:105898004040A0F84440A0F85040FFF7DBFF204606
:1058A800BDE8384004B0704710B4CB78032B0FD84C
:1058B800DFE803F0026D54600A7830F822309BB2BA
:1058C80023F4EC4323F0700343F4007320F82230F0
:1058D8000A7830F8223023F0F0031B051B0D134320
:1058E80043F4004343F0800320F822308B7A002BE6
:1058F80040F0AF804B78002B56D08A885208B0F819
:1059080050300C7803EBC40300EB43035200C3F898
:1059180000240A7830F8223013F0400F0BD030F80A
:10592800223023F0F0031B051B0D43F4004343F022
:10593800C00320F822300A7830F822309BB223F4D2
:10594800E04323F0400383F0200343F4004343F093
:10595800800320F82230002010BC70470A7830F805
:1059680022309BB223F4EC4323F070039BB220F85F
:105978002230ADE70A7830F822309BB223F4EC43AA
:1059880023F0700343F4C06320F82230A0E70A78BC
:1059980030F822309BB223F4EC4323F0700343F435
:1059A800806320F8223093E78A885208B0F8503094
:1059B8000C7803EBC403043300EB43035200C3F831
:1059C8000024B0F850300A7803EBC203063300EB2A
:1059D80043030C693E2C30D9C4F34F1214F01F0F47
:1059E80001D1013A92B26FEAC2626FEA524292B2B0
:1059F800C3F800240A7830F8223013F4804F0BD013
:105A080030F8223023F0F0031B051B0D43F440430C
:105A180043F0800320F822300A7830F822309BB215
:105A280023F4804323F0700383F4405343F400438A
:105A380043F0800320F822308DE7C4F34F0214F0BE
:105A4800010F01D0013292B2920292B2C3F800243F
:105A5800D0E70A7830F8223023F4F8731B051B0DC1
:105A680043F4014343F0800320F82230CA885208E7
:105A7800B0F850300C7803EBC40300EB430352003A
:105A8800C3F800240A895208B0F850300C7803EBA8
:105A9800C403043300EB43035200C3F800244B78DB
:105AA800002B4BD10A7830F8223013F4804F0BD0FA
:105AB80030F8223023F0F0031B051B0D43F440435C
:105AC80043F0800320F822300A7830F8223013F0AF
