:020000040800F2
:1000000000500020A5940008654F0008674F0008C5
:10001000694F00086B4F00086D4F0008000000009A
:100020000000000000000000000000006F4F00080A
:10003000714F000800000000734F0008754F000862
:10004000ED940008ED940008ED9400088D4F000831
:10005000ED940008ED940008ED940008AD4F000801
:10006000ED940008ED940008ED940008ED9400086C
:10007000ED940008ED940008ED940008ED9400085C
:10008000ED940008ED940008ED940008ED9400084C
:100090007D4F0008ED940008ED940008ED940008F1
:1000A000ED940008ED940008ED940008ED9400082C
:1000B000ED940008BD4F0008ED940008ED94000891
:1000C000ED940008ED940008ED940008ED9400080C
:1000D000ED940008ED940008ED940008ED940008FC
:1000E000ED9400089D4F0008ED940008ED94000881
:1000F000ED940008ED940008ED940008ED940008DC
:10010000ED940008ED940008ED940008ED940008CB
:10011000ED940008ED940008ED940008ED940008BB
:10012000ED940008ED940008ED940008ED940008AB
:1001300000000000000000000000000000000000BF
:1001400000000000000000000000000000000000AF
:10015000000000000000000000000000000000009F
:10016000000000000000000000000000000000008F
:10017000000000000000000000000000000000007F
:10018000000000000000000000000000000000006F
:10019000000000000000000000000000000000005F
:1001A000000000000000000000000000000000004F
:1001B000000000000000000000000000000000003F
:1001C000000000000000000000000000000000002F
:1001D000000000000000000000000000000000001F
:0401E0005FF8E0F1F3
:1001E80010B5054C237833B9044B13B10448AFF369
:1001F80000800123237010BDB80300200000000018
:10020800E4D6000808B5034B1BB103490348AFF314
:10021800008008BD00000000BC030020E4D60008F0
:10022800034613F8012B002AFBD1181A013870472E
:1002380010F8012B11F8013B012A28BF9A42F7D088
:10024800D01A704781F0004102E000BF83F00043FC
:1002580030B54FEA41044FEA430594EA050F08BF59
:1002680090EA020F1FBF54EA000C55EA020C7FEA1D
:10027800645C7FEA655C00F0E2804FEA5454D4EB9A
:100288005555B8BF6D420CDD2C4480EA020281EA64
:10029800030382EA000083EA010180EA020281EA9C
:1002A8000303362D88BF30BD11F0004F4FEA0131EE
:1002B8004FF4801C4CEA113102D0404261EB4101FD
:1002C80013F0004F4FEA03334CEA133302D0524283
:1002D80063EB430394EA050F00F0A780A4F101043F
:1002E800D5F1200E0DDB02FA0EFC22FA05F2801879
:1002F80041F1000103FA0EF2801843FA05F359415F
:100308000EE0A5F120050EF1200E012A03FA0EFCDD
:1003180028BF4CF0020C43FA05F3C01851EBE37107
:1003280001F0004507D54FF0000EDCF1000C7EEB24
:1003380000006EEB0101B1F5801F1BD3B1F5001F62
:100348000CD349085FEA30004FEA3C0C04F1010481
:100358004FEA445212F5800F80F09A80BCF1004FAA
:1003680008BF5FEA500C50F1000041EB045141EA2C
:10037800050130BD5FEA4C0C404141EB010111F42D
:10038800801FA4F10104E9D191F0000F04BF0146D8
:100398000020B1FA81F308BF2033A3F10B03B3F1B6
:1003A80020020CDA0C3208DD02F1140CC2F10C0246
:1003B80001FA0CF021FA02F10CE002F11402D8BFA4
:1003C800C2F1200C01FA02F120FA0CFCDCBF41EA70
:1003D8000C019040E41AA2BF01EB0451294330BD3F
:1003E8006FEA04041F3C1CDA0C340EDC04F114041C
:1003F800C4F1200220FA04F001FA02F340EA0300F3
:1004080021FA04F345EA030130BDC4F10C04C4F138
:10041800200220FA02F001FA04F340EA0300294618
:1004280030BD21FA04F0294630BD94F0000F83F462
:10043800801306BF81F480110134013D4EE77FEA45
:10044800645C18BF7FEA655C29D094EA050F08BF91
:1004580090EA020F05D054EA000C04BF1946104672
:1004680030BD91EA030F1EBF0021002030BD5FEAB6
:10047800545C05D14000494128BF41F0004130BDDE
:1004880014F580043CBF01F5801130BD01F0004532
:1004980045F0FE4141F470014FF0000030BD7FEAA5
:1004A800645C1ABF194610467FEA655C1CBF0B46A0
:1004B800024650EA013406BF52EA033591EA030FB7
:1004C80041F4002130BD00BF90F0000F04BF0021AF
:1004D800704730B54FF4806404F132044FF00005E2
:1004E8004FF0000150E700BF90F0000F04BF00215B
:1004F800704730B54FF4806404F1320410F00045C1
:1005080048BF40424FF000013EE700BF42004FEABB
:10051800E2014FEA31014FEA02701FBF12F07F4338
:1005280093F07F4F81F06051704732F07F4208BFEF
:10053800704793F07F4F04BF41F40021704730B5F6
:100548004FF4607401F0004521F000411CE700BF42
:1005580050EA010208BF704730B54FF000050AE0C5
:1005680050EA010208BF704730B511F0004502D5C6
:10057800404261EB41014FF4806404F132045FEAC8
:10058800915C3FF4D8AE4FF003025FEADC0C18BF71
:1005980003325FEADC0C18BF033202EBDC02C2F163
:1005A800200300FA03FC20FA02F001FA03FE40EAF5
:1005B8000E0021FA02F11444BDE600BF70B54FF0F9
:1005C800FF0C4CF4E06C1CEA11541DBF1CEA1355D7
:1005D80094EA0C0F95EA0C0F00F0DEF82C4481EA3F
:1005E800030621EA4C5123EA4C5350EA013518BF5F
:1005F80052EA033541F4801143F4801338D0A0FB4C
:1006080002CE4FF00005E1FB02E506F00042E0FBF8
:1006180003E54FF00006E1FB03569CF0000F18BFFE
:100628004EF0010EA4F1FF04B6F5007F64F54074A6
:1006380004D25FEA4E0E6D4146EB060642EAC62139
:1006480041EA55514FEAC52040EA5E504FEACE2EA6
:10065800B4F1FD0C88BFBCF5E06F1ED8BEF1004FA9
:1006680008BF5FEA500E50F1000041EB045170BD25
:1006780006F0004646EA010140EA020081EA030169
:10068800B4EB5C04C2BFD4EB0C0541EA045170BD65
:1006980041F480114FF0000E013C00F3AB8014F1DF
:1006A800360FDEBF002001F0004170BDC4F1000428
:1006B800203C35DA0C341BDC04F11404C4F12005A9
:1006C80000FA05F320FA04F001FA05F240EA020004
:1006D80001F0004221F0004110EBD37021FA04F63A
:1006E80042EB06015EEA430E08BF20EAD37070BDF4
:1006F800C4F10C04C4F1200500FA04F320FA05F053
:1007080001FA04F240EA020001F0004110EBD37054
:1007180041F100015EEA430E08BF20EAD37070BDC4
:10072800C4F1200500FA05F24EEA020E20FA04F39D
:1007380001FA05F243EA020321FA04F001F000414C
:1007480021FA04F220EA020000EBD3705EEA430EBD
:1007580008BF20EAD37070BD94F0000F0FD101F0EC
:100768000046400041EB010111F4801F08BF013C25
:10077800F7D041EA060195F0000F18BF704703F063
:100788000046520043EB030313F4801F08BF013DEA
:10079800F7D043EA0603704794EA0C0F0CEA1355A6
:1007A80018BF95EA0C0F0CD050EA410618BF52EA60
:1007B8004306D1D181EA030101F000414FF0000066
:1007C80070BD50EA410606BF1046194652EA430674
:1007D80019D094EA0C0F02D150EA013613D195EAE8
:1007E8000C0F05D152EA03361CBF104619460AD130
:1007F80081EA030101F0004141F0FE4141F470013A
:100808004FF0000070BD41F0FE4141F4780170BD29
:1008180070B54FF0FF0C4CF4E06C1CEA11541DBF8E
:100828001CEA135594EA0C0F95EA0C0F00F0A7F890
:10083800A4EB050481EA030E52EA03354FEA0131BD
:1008480000F088804FEA03334FF0805545EA1313D0
:1008580043EA12634FEA022245EA111545EA106598
:100868004FEA00260EF000419D4208BF964244F12F
:10087800FD0404F5407402D25B084FEA3202B61A4E
:1008880065EB03055B084FEA32024FF480104FF422
:10089800002CB6EB020E75EB030E22BFB61A754696
:1008A80040EA0C005B084FEA3202B6EB020E75EB29
:1008B800030E22BFB61A754640EA5C005B084FEA91
:1008C8003202B6EB020E75EB030E22BFB61A75465E
:1008D80040EA9C005B084FEA3202B6EB020E75EB69
:1008E800030E22BFB61A754640EADC0055EA060E2A
:1008F80018D04FEA051545EA16754FEA06164FEA6D
:10090800C30343EA52734FEAC2025FEA1C1CC0D118
:1009180011F4801F0BD141EA00014FF000004FF0A5
:10092800004CB6E711F4801F04BF01430020B4F166
:10093800FD0C88BFBCF5E06F3FF6AFAEB5EB030C1E
:1009480004BFB6EB020C5FEA500C50F1000041EB1B
:10095800045170BD0EF0004E4EEA113114EB5C04E8
:10096800C2BFD4EB0C0541EA045170BD41F48011BB
:100978004FF0000E013C90E645EA060E8DE60CEAC3
:10098800135594EA0C0F08BF95EA0C0F3FF43BAFE0
:1009980094EA0C0F0AD150EA01347FF434AF95EA97
:1009A8000C0F7FF425AF104619462CE795EA0C0F7B
:1009B80006D152EA03353FF4FDAE1046194622E748
:1009C80050EA410618BF52EA43067FF4C5AE50EA22
:1009D80041047FF40DAF52EA43057FF4EBAE12E712
:1009E8004FF0FF3C06E000BF4FF0010C02E000BFF3
:1009F8004FF0010C4DF804CD4FEA410C7FEA6C5CD6
:100A08004FEA430C18BF7FEA6C5C1BD001B050EA78
:100A1800410C0CBF52EA430C91EA030F02BF90EA63
:100A2800020F0020704710F1000F91EA030F58BF22
:100A3800994208BF90422CBFD8176FEAE37040F084
:100A4800010070474FEA410C7FEA6C5C02D150EA22
:100A5800013C07D14FEA430C7FEA6C5CD6D152EADD
:100A6800033CD3D05DF8040B704700BF84461046A2
:100A780062468C461946634600E000BF01B5FFF7A1
:100A8800B7FF002848BF10F1000F01BD4DF808ED71
:100A9800FFF7F4FF0CBF012000205DF808FB00BF42
:100AA8004DF808EDFFF7EAFF34BF012000205DF89C
:100AB80008FB00BF4DF808EDFFF7E0FF94BF0120E9
:100AC80000205DF808FB00BF4DF808EDFFF7CEFFEA
:100AD80094BF012000205DF808FB00BF4DF808ED29
:100AE800FFF7C4FF34BF012000205DF808FB00BFFA
:100AF8004FEA410C7FEA6C5C02D150EA013C0AD112
:100B08004FEA430C7FEA6C5C02D152EA033C02D103
:100B18004FF0000070474FF0010070474FEA410264
:100B280012F5001215D211D56FF47873B3EB625237
:100B380012D94FEAC12343F0004343EA505311F05E
:100B4800004F23FA02F018BF404270474FF00000F0
:100B5800704750EA013005D111F0004008BF6FF02E
:100B6800004070474FF00000704700BF7BB972B972
:100B78000029BEBF00204FF0004106E008BF002852
:100B88001CBF6FF000414FF0FF3000F0A7B9ADF186
:100B9800080C6DE904CE002909DB002B1ADB00F0F4
:100BA80035F8DDF804E0DDE9022304B0704740427F
:100BB80061EB4101002B1BDB00F028F8DDF804E0B5
:100BC800DDE9022304B0404261EB4101524263EB8C
:100BD80043037047524263EB430300F017F8DDF814
:100BE80004E0DDE9022304B0404261EB41017047B3
:100BF800524263EB430300F009F8DDF804E0DDE955
:100C0800022304B0524263EB430370472DE9F047D7
:100C18008C460446089E002B40F086808A42154682
:100C280048D9B2FA82F24AB1C2F1200701FA02F3B6
:100C380020FA07F7954047EA030C94404FEA154E0F
:100C4800BCFBFEF71FFA85F80EFB17C307FB08F974
:100C5800210C41EA0343994509D9EB1807F1FF3103
:100C680080F0E180994540F2DE80023F2B44A3EBFF
:100C78000903B3FBFEF00EFB103300FB08F1A4B22E
:100C880044EA0344A14209D92C1900F1FF3380F04A
:100C9800C880A14240F2C58002382C4440EA07408F
:100CA8000027641A1EB10023D440C6E90043394620
:100CB800BDE8F087002A54D0B2FA82F2002A40F048
:100CC800B4800127491B4FEA15481FFA85F9B1FB83
:100CD800F8FE08FB1E1109FB0EF04FEA144C4CEA13
:100CE8000143984207D9EB180EF1FF3102D298421E
:100CF80000F2EB808E461B1AB3FBF8F008FB1033AA
:100D080009FB00F9A4B244EA0344A14507D92C1908
:100D180000F1FF3302D2A14500F2DB801846A4EBB4
:100D2800090440EA0E40BDE78B4208D9002E75D071
:100D38000027C6E9000138463946BDE8F087B3FA0E
:100D480083F77FB98B4202D3824200F2BC80841AB7
:100D580061EB030301209C46002EA8D0C6E9004C95
:100D6800A5E7FFDEC7F12005BB4022FA05FC4CEAE7
:100D7800030C21FA05F44FEA1C4EB4FBFEF91FFAE6
:100D88008CF80EFB194420FA05F3B94009FB08FA60
:100D980019430B0C43EA0444A24502FA07F200FA8D
:100DA80007F30BD91CEB040409F1FF3080F08980AC
:100DB800A24540F28680A9F102096444A4EB0A0422
:100DC800B4FBFEF00EFB104400FB08FA89B241EABE
:100DD8000444A24508D91CEB040400F1FF316CD28D
:100DE800A2456AD90238644440EA0940A0FB028956
:100DF800A4EB0A044C454146CE4655D352D0002EAA
:100E08006AD05A1A64EB0E0404FA05F522FA07F3BD
:100E1800FC401D43C6E90054002748E737463046E2
:100E280045E718463AE70F4621E79540C2F1200307
:100E380021FA03F04FEA1548B0FBF8F71FFA85F9D5
:100E480008FB170E24FA03FC914007FB09FA4CEA49
:100E58000101080C40EA0E40824504FA02F407D961
:100E6800281807F1FF332AD2824528D9023F28449F
:100E7800A0EB0A00B0FBF8FC08FB1C000CFB09F314
:100E880089B241EA00418B4208D969180CF1FF3058
:100E980011D28B420FD9ACF1020C2944C91A4CEA81
:100EA800074714E74345AAD2B8EB020169EB0C02E5
:100EB80001389646A3E78446F0E7084694E71F46BC
:100EC800D6E781467AE7384646E7AEF1020E2B446C
:100ED80011E702382C4422E73746E8E6704700BF9E
:100EE8004B2901D00020704708B532B101224021BA
:100EF800054806F008FC012008BD002240210248F0
:100F080006F001FC0120F7E70008014030B583B086
:100F1800182919D014461D4619291DD0172902D0A1
:100F2800002003B030BD6CB115F8013B8DF80730D7
:100F3800013CE4B2642301220DF107010A4805F0DF
:100F480055FAF0E70120ECE701221021074806F0E6
:100F5800DAFB00BF0120E4E700BF002210210348AC
:100F680006F0D1FB0120DCE7AC0C002000080140B2
:100F780008B5024809F06EFB08BD00BF34D7000869
:100F880000B597B000230E93119307930893099324
:100F98000A930B9301930293039304930593069387
:100FA8000D230C934FF480320D920123109312936A
:100FB8000F930223139314924FF4E01315930CA884
:100FC80005F048FD60BB0F23079302210891002319
:100FD80009934FF480620A920B9307A805F062FF09
:100FE80008BB11230193002306934FF480730293E7
:100FF80001A806F03BF8C8B906F022F80D4BA3FB90
:101008000030800906F0EAFB042006F0FDFB002210
:1010180011464FF0FF3006F0A1FB17B05DF804FB56
:10102800FFF7A6FFCFE7FFF7A3FFDAE7FFF7A0FF79
:10103800E2E700BFD34D621038B505F0BDFCFFF7FD
:101048009FFF00F07DF803F013FD03F079FD2D4CB0
:1010580001224FF40041204606F055FB00F006F946
:10106800294D2A4B2A4A2B49284607F05FFB284678
:1010780008F0BDF90021284608F0C0F900224021F7
:10108800204606F040FB0A2005F0BAFC0122402168
:10109800204606F038FB00F023F94FF4FA7005F00B
:1010A800AFFC00F02FFE00F055FD03F0CFF903F080
:1010B80009FC03F067FC00F0E7F905F09BFC044627
:1010C80005F098FC284607F016FB03F025FD05E01F
:1010D8000D4807F01DFB05F08DFC044600F060FA92
:1010E80001F0ACF803F0E4F900F0F2FD03F0B0FB16
:1010F800094805F06AFA05F07DFC001B6428EDD963
:10110800E6E700BF00080140600A0020E90E000879
:10111800150F00082CE80008040D002008B5013858
:10112800012806D80B461146184603F001FFC0B245
:1011380008BD08F0D9F9092303604FF0FF30F7E73D
:101148002DE9F04186B00024029403940494059498
:10115800184B9A6942F004029A619B6903F00403F0
:101168000193019B144D01224FF40041284606F0DB
:10117800CAFA4FF4004302930126039604944FF0F1
:101188000208CDF8148002A9284606F0C1F95027B4
:10119800029703960494CDF8148002A9284606F015
:1011A800B7F932463946284606F0ADFA06B0BDE82A
:1011B800F08100BF0010024000080140642804D8F4
:1011C80000EB80004300014A53637047002C014044
:1011D80008B50A20FFF7F2FF08BD000008B5024B6A
:1011E8005878FFF7EBFF08BD3C0B00200268094B5D
:1011F8009A4200D0704782B003F564439A6942F47A
:1012080000629A619B6903F400630193019B02B039
:10121800704700BF002C014000B587B0002302933F
:1012280003930493059302680E4B9A4202D007B0C9
:101238005DF804FB03F564439A6942F004029A617D
:101248009B6903F004030193019B4FF4807302939D
:10125800022303930123059302A9034806F058F9D2
:10126800E5E700BF002C01400008014010B519480F
:10127800194B036011234360002383604FF47A7293
:10128800C26003614361836105F086FAC8B91349F6
:1012980060230B604FF496734B6000228A60CA602B
:1012A8000A614A618A610B4805F0C8FA60B9094CBD
:1012B8002046FFF7B1FF0021204605F03BFB30B97F
:1012C80010BDFFF755FEE2E7FFF752FEEFE7FFF725
:1012D8004FFEF5E7FC0A0020002C0140E00A002040
:1012E80010B582B0084A1378084C516801915278B9
:1012F8000092DB0800221146204607F087F92046B5
:1013080007F006FA02B010BDDCD70008600A00201A
:10131800F8B5194C194D0FCD0FC495E8030084E8B2
:10132800030006F0C3FA164B00241C60154A9A60A5
:101338000122DA60BCB1144B124A1A600024342C22
:1013480017D824F00305114F0F4E31687A5900233E
:101358002144022006F002FBEA593368E3589A4216
:1013680009D10434EBE70A49054806F069FB013462
:10137800E0E706F0B5FAF8BD4C0B0020800B002022
:10138800D803002000F00108D40300203C0B002003
:10139800E803002070B5174E3446174D0FCD0FC423
:1013A8000FCD0FC40FCD0FC42B682360326B134BC6
:1013B8009A4200D170BD344628220021304608F0F8
:1013C800CFF9322373700123B370F3704FF496731F
:1013D800F38040F2D243738140F2BC43B381074BA0
:1013E8003363074B28341868596803C4FFF790FF24
:1013F800E0E700BF3C0B002000F00108AB55FF0000
:101408008C0C002070B51D4C0621204606F078F89B
:1014180005040521204606F073F82843184DA860F6
:101428000821204606F06CF806040721204606F03D
:1014380067F83043E8600A21204606F061F80604A0
:101448000921204606F05CF8304328610221204635
:1014580006F056F84BF6BB33984200D170BD2C46C7
:10146800084D0FCD0FC495E8030084E803004BF640
:10147800BB320221014806F03BF8EFE7980C002048
:10148800800B00204C0B002008B5FFF783FFFFF707
:10149800B9FF0B4B9B7883B1FFF79AFE084B58783E
:1014A800FFF78CFE00F010F900F02CFB03F00AFAAD
:1014B80005F0A0FA034B186008BDFFF78FFEEDE7B3
:1014C8003C0B0020800B0020034B0122DA700349FB
:1014D80009895960DA727047700B00203C0B0020B4
:1014E800044A0023D37053601370D372024A5360C6
:1014F800704700BF700B0020800B002008B51C4B04
:10150800DB78012B11D0012B05D1194B9B78013BBE
:10151800DBB2012B20D905F06DFA164B1B68C01AF7
:101528004EF6602398421CD808BD114A9278013AB9
:10153800D2B2012AE7D80E4A5268002AE3D10C4BEE
:10154800DA709A701A701A735A729A72DA7205F00F
:1015580051FA084B1860E7E7054B5B68002BE3D1AD
:10156800D9E703F065F905F045FA024B1860DBE7A7
:10157800700B00209C0B002000220B2A0CD8D31CD7
:101588009B0003F1804303F5D843044931F8121056
:101598001960013292B2F0E7704700BF800B00205B
:1015A80008B505F027FA354B1B68C01AB0F57A7FE5
:1015B8003AD3334A13780133DBB213701E2B02D9A6
:1015C800134600221A702D4A1369013313612D4AFC
:1015D800934201D9294B1A612B4B5B7A1BB1274ADD
:1015E800936801339360284BDB7A1BB1234AD36895
:1015F8000133D360244BDB7863B1234A5368013B42
:10160800536013B9134600225A601F4B59681F488C
:1016180009F020F81C4B987800F022FB05F0EAF955
:10162800164B1860FFF7A8FFFFF768FF03F010F9E3
:10163800174B1B8873B9174B1B79012B0BD0022B47
:101648000FD00F4B1B780E2B11D9134807F053F806
:1016580000F062FA08BD104807F04DF800F016F9DE
:10166800F8E70D4807F047F800F056FAF2E70A489D
:1016780007F041F800F00AF9ECE700BF800B002002
:10168800980B0020001EF8BB700B0020E4DB00085C
:10169800EC0300203C0B0020600A002010B5094C28
:1016A8000121204607F018FC80231F220021204634
:1016B80007F0DCFB402300224121204607F0F1FB24
:1016C80010BD00BF600A002008B5044807F013F8F1
:1016D80005F090F9024B586008BD00BF600A002071
:1016E800A00B002038B505460E4C0F49204607F0E0
:1016F80015FB0E4B06224421204607F0D1FA0C496F
:10170800204607F00BFB35B10A4B1922542120461D
:1017180007F0C6FA38BD084B19224C21014807F0DA
:10172800BFFAF7E7600A0020B0FC000810DC0008E8
:10173800C848010818DC00081CDC000810B504467D
:1017480009490A4807F0EAFA34B1094B162201217F
:10175800064807F0A5FA10BD064B162201210348DA
:1017680007F09EFAF7E700BFA8520108600A0020B8
:1017780020DC000828DC000810B5044609490A489E
:1017880007F0CCFA34B1094B36220121064807F09C
:1017980087FA10BD064B36220121034807F080FA6C
:1017A800F7E700BFA8520108600A002000DC000823
:1017B80008DC000800B583B00F4B1B7803420ED03D
:1017C8000E4A13785168019152780092DB0826225C
:1017D80048210B4806F01AFF03B05DF804FB094ADC
:1017E80013785168019152780092DB08262248212B
:1017F800034806F00BFFEFE7A00B00208CD700088A
:10180800600A00203CD7000830B583B0E8B1194C15
:101818000021204607F060FB1749204607F07EFAB2
:10182800164D6A681649684608F03CFF6B46362232
:101838006821204607F034FA0121204607F04CFBC6
:101848006B68ABB900222A7312E00A4C0D49204696
:1018580007F064FA0021204607F03EFB0A4B3622C7
:101868006621204607F01CFA0121204607F034FBC8
:1018780003B030BD600A002054310108700B00200D
:10188800F8DB0008602B01081CDC000810B505F027
:10189800B1F8164B5B68C01AC82810D9134A1378D8
:1018A800DB43137053780133DBB253700A2B02D930
:1018B800134600225A7005F09DF80C4B58600C48EE
:1018C80006F019FF0B4C207AFFF70CFF607AFFF740
:1018D80035FFA07AFFF750FFE07AFFF76BFF207B18
:1018E800FFF792FFFFF7DAFE10BD00BFA00B002044
:1018F800600A0020700B002010B586B0214B93F9C8
:10190800073013F0010F33D01E4A92F9063092F9CE
:1019180005201D4903A808F0C5FE1C4C1C4920469B
:1019280007F0FCF90021204607F0D6FA03AB0E2297
:101938000121204607F0B4F90121204607F0CCFA2E
:101948001449204607F0EAF90E4AB2F9003000932C
:1019580092F9023092F903200F4903A808F0A2FE79
:1019680003AB1B220721204607F09AF906B010BDE9
:10197800044A92F9063092F90520084903A808F0AC
:1019880091FECAE78C0C002030DC0008600A0020B9
:1019980044420108E40E010850DC000840DC00085D
:1019A80030B583B00546134C1349204607F0B6F905
:1019B800124B28220221204607F072F90021204606
:1019C80007F08AFA2A460E49684608F06BFE6B460D
:1019D80028221921204607F063F90121204607F043
:1019E8007BFA084B28223721204607F059F903B023
:1019F80030BD00BF600A00208CFF000878DC0008BA
:101A080080DC000888DC000830B583B00546134C3C
:101A18001349204607F082F9124B32220221204650
:101A280007F03EF90021204607F056FA2A460E49EB
:101A3800684608F037FE6B4632221921204607F027
:101A48002FF90121204607F047FA084B32223721A7
:101A5800204607F025F903B030BD00BF600A00201A
:101A68008CFF000860DC000880DC000888DC0008C7
:101A780030B583B00546134C1349204607F04EF99C
:101A8800124B3C220221204607F00AF90021204689
:101A980007F022FA2A460E49684608F003FE6B460C
:101AA8003C221921204607F0FBF80121204607F0C7
:101AB80013FA084B3C223721204607F0F1F803B00F
:101AC80030BD00BF600A00208CFF000868DC0008F9
:101AD80070DC000888DC000810B5094C012120469C
:101AE80007F0FAF980231F220021204607F0BEF9EB
:101AF800402300224121204607F0D3F910BD00BF42
:101B0800600A002010B5034C0023237004F072FF14
:101B1800606010BDA80B002038B5FFF7DDFFFFF7A8
:101B2800EBFE0A4DA8680A4CA4FB0030C00AFFF778
:101B380037FFE868A4FB0030C00AFFF765FF286993
:101B4800A4FB0030C00AFFF793FF38BD800B0020CC
:101B5800C5B3A2912DE9F04387B0002404941D4B2E
:101B68009A6942F010029A619A6902F01002009292
:101B7800009A9A6942F008029A619B6903F0080387
:101B88000193019B4FF03C08CDF808804FF0010904
:101B9800CDF80C90022505950F4F02A9384605F09F
:101BA800B7FC4FF470760296CDF80C900494059526
:101BB8000A4D02A9284605F0ABFC224641463846A4
:101BC80005F0A1FD22463146284605F09CFD07B0E8
:101BD800BDE8F08300100240000C014000100140F5
:101BE80008B528B101220421044805F08CFD08BD80
:101BF80000220421014805F086FDF8E7000C0140A9
:101C080008B528B101220821044805F07CFD08BD6B
:101C180000220821014805F076FDF8E7000C014094
:101C280008B528B101221021044805F06CFD08BD53
:101C380000221021014805F066FDF8E7000C01407C
:101C480008B528B101222021044805F05CFD08BD33
:101C580000222021014805F056FDF8E7000C01405C
:101C680008B528B3022822D1144A536801335360B7
:101C7800C3B1134A01215172032B13D9114B19789F
:101C88000139C9B219701346516001221A7319B982
:101C980000225A609A701A70094B0122DA720A48B7
:101CA80008F0D8FC054B5968084808F0D3FC08BD73
:101CB800FFF716FC034B06221A70F8E7800B00208A
:101CC800700B0020000000208CDC0008B0DC00084D
:101CD80010B5074C207AFFF783FF607AFFF790FF73
:101CE800A07AFFF79DFFE07AFFF7AAFF10BD00BFBB
:101CF800700B0020016042600123037200234372CD
:101D0800C372704770B586B0002403940494059498
:101D1800184B9A6942F010029A619B6903F010030C
:101D28000193019B4FF4705302930123049302A97A
:101D3800114805F0EDFB114E114D2246314628465B
:101D4800FFF7D8FF2246314605F10C00FFF7D2FF16
:101D58002246314605F11800FFF7CCFF22463146EE
:101D680005F12400FFF7C6FF04F044FE054B186098
:101D780006B070BD0010024000100140212000088C
:101D8800B40B0020F00B002010B50446032810D82F
:101D9800DFE800F03F0229554FF480513C4805F038
:101DA800ABFCC0B904EB44039A003A4B134400223D
:101DB8005A72620022449100364B0B445A7A1B7ABD
:101DC8009A425CD0334A0A44D37A0133DBB2D372E5
:101DD800052B4AD010BD04EB44039A002D4B134445
:101DE80001225A72E5E74FF40061294805F084FCA6
:101DF80038B904EB44039A00264B134400225A7264
:101E0800D7E704EB44039A00224B134401225A7289
:101E1800CFE74FF480611E4805F06EFC38B904EB3B
:101E280044039A001B4B134400225A72C1E704EB87
:101E380044039A00174B134401225A72B9E74FF42E
:101E48000051134805F058FC38B904EB44039A00D4
:101E5800104B134400225A72ABE704EB44039A0078
:101E68000C4B134401225A72A3E70A49630018195C
:101E780082000A44507A10720023D372AAE704EB56
:101E88004404A200034B13440022DA72A2E700BF05
:101E980000100140B40B00202DE9F84305468846A0
:101EA800002428E0DFF86891484606F024FC5149F0
:101EB800484606F033FF0021484607F00DF84E4B20
:101EC800642202FB043702373846FEF7A9F9C0F14D
:101ED80016035B0803EB430359003B460C2201F051
:101EE800FE01484606F0DCFE0121484606F0F4FFF4
:101EF80071E00134E4B2112C77D8404804F065FB56
:101F08002746642303FB04F33B4AD35AAB42F0D180
:101F1800642303FB0423DE6D002EEAD0B5F5807F31
:101F280008D0B5F5007F05D0B5F5407F02D0B5F5EE
:101F3800806FB7D1DFF8D890484606F0DCFB2D4912
:101F4800484606F0EBFE0021484606F0C5FF2C4B3C
:101F58000C221821484606F0A3FE0121484606F047
:101F6800BBFF254A642303FB0727023739460020B5
:101F780007F07EFA034618220A21484606F090FE2A
:101F88003946012007F074FA034624220A214846FC
:101F980006F086FE3946022007F06AFA0346302228
:101FA8000A21484606F07CFE3946032007F060FA0D
:101FB80003463C220A21484606F072FE114B1B7864
:101FC800013303EB43039A000F4B02F0FC0201219B
:101FD800484606F065FE0D490D4806F09FFE41464D
:101FE8002046B0470B4B1D8001E005F47F40BDE85B
:101FF800F88300BFDC15010804DD0008040D00208B
:10200800F0DC00080100002000DD000808070108D6
:10201800600A0020EE03002008B503281BD8DFE87B
:1020280000F0834102B77D4B41F270721A807C4BFD
:102038001B8883B1B3F5807F0ED0B3F5007F0BD03A
:10204800B3F5407F08D0B3F5806F1CD00146744BC0
:102058001888FFF721FF08BD72490A780132D2B209
:102068000A70042AF2D90A460121117003F5807317
:102078009BB26B4A1380B3F5806FE7D913464FF4D0
:1020880080721A80E2E7674A13780133DBB2137073
:10209800012BDBD9134601221A70614B4FF4807271
:1020A8001A80D3E75D4B41F270721A805C4B1B8833
:1020B800002BD0D0B3F5807F0ED0B3F5007F0BD0C6
:1020C800B3F5407F08D0B3F5806F1ED00146544B5E
:1020D8001888FFF7E1FEBEE752490A78013AD2B202
:1020E8000A70002AF2D10A4604211170A3F5807300
:1020F8009BB24B4A1380FF2BE8D813464FF48062FB
:102108001A80484B01221A70E0E7464A1378013BCF
:10211800DBB21370002BD9D1134604221A70404B3E
:102128004FF440721A80D1E73D4B1B8893B93E4A61
:10213800138801339BB21380012B8CD913460022DC
:102148001A804FF48073364A138001461846FFF709
:10215800A3FE80E7B3F5807F08D0B3F5007F05D0F4
:10216800B3F5407F02D0B3F5806F0CD12D4A1078BB
:10217800184480B22A4B1880284BC8221A80FF21A5
:10218800FFF78AFE67E701461846FFF785FE62E714
:10219800234B1B88E3B1B3F5807F0DD0B3F5007FE7
:1021A8000AD0B3F5407F07D0B3F5806F04D003F4AD
:1021B8007F431B4A138005E0194B00221A80194BF4
:1021C80001221A700146164B1888FFF765FE42E790
:1021D800164B9B6823F07F4323F0FF03144A934276
:1021E8007FF439AF114B9B78012B7FF434AF0F4A42
:1021F800137BDB43DBB213736BB1FFF765F90D4B50
:1022080000221A7002F0FAFA084B1A7B99780A48E9
:1022180008F020FA1FE7FFF763F9F0E7F003002062
:10222800EC03002001000020F4030020700B0020C4
:1022380000010100980B0020C4DC000838B504F048
:10224800D9FB454B1B68C01A04286BD838BD434BD3
:102258001B88002B34D1424A138801339BB2138068
:10226800642B2DD9134600221A804FF480703B4B03
:1022780018802146FFF710FE22E03A4804F0A5F93D
:1022880005EB45029300384AD3582046984705EB9A
:1022980045039A00344B13441B7A012B33D0013485
:1022A800E4B2032C40D82046FFF76EFD254604EB28
:1022B80044039A002C4B13441B7A0BB9002CC6D04C
:1022C80005EB45039A00284B13441B7A002BDED1FB
:1022D800254B13449B7A002BD9D123498B18012015
:1022E8009872224B41F2707018808A58204B9A429B
:1022F800C3D005EB4502930000221D491A48184433
:10230800FFF7F8FCC3E7184B13449B7A012BC6D19F
:102318000022134B1A8005EB4505A900124B0B440C
:102328009A72BCE70024BCE7104B1B8813B1013B31
:102338000E4A13800D4B1B8813B9084B00221A80D4
:102348000C4B1B8813B1013B0A4A138004F052FB63
:10235800014B18607AE700BFF00B0020EC03002067
:10236800F4030020040D0020B40B0020F203002029
:1023780021200008F003002000207047034B044A86
:102388001168526819605A6000207047580C002084
:102398008C0C0020002070470020704700207047F8
:1023A800F0B583B005460C465A2200219C4807F038
:1023B800D7F9642000FB05F09A4B1D5A9A4B1B88ED
:1023C8009D4202D0994B00221A80012C23D0022C66
:1023D8007DD03CB9954B1B88042B00F2D18001338A
:1023E800924A1380924C9349204606F097FC42F299
:1023F800F13324220521204606F0ECFB8B4B1B8889
:10240800052B00F20A81DFE813F0CE0025016A01EE
:10241800A501E0012502854B1B88052BD7D8DFE8ED
:1024280003F003101D2A3744834B93F90530162B0C
:1024380003DC0133804A5371C9E77F4B00225A718C
:10244800C5E77D4B93F906303A2B03DC01337A4A12
:102458009371BCE7784B00229A71B8E7764B93F9F1
:1024680007303A2B03DC0133734AD371AFE7724B61
:102478000022DA71ABE7704B93F903301E2B03DCB3
:1024880001336D4AD370A2E76B4B0022DA709EE7E6
:10249800694B93F902300B2B03DC0133664A9370C6
:1024A80095E7654B00229A7091E7634BB3F90030CA
:1024B80040F63202934203DC01335F4A138086E719
:1024C8005D4B6FF01C021A7007225A707FE7574B5A
:1024D8001B88052B3FF67DAFDFE803F0030F1B27B2
:1024E8003441554B93F905301BB1013B524A5371A6
:1024F8006FE7514B17225A716BE74F4B93F9063030
:102508001BB1013B4C4A937163E74B4B3B229A71D9
:102518005FE7494B93F907301BB1013B464AD3713A
:1025280057E7454B3B22DA7153E7434B93F90330A6
:10253800012B03DD013B404AD3704AE73E4B1F2283
:10254800DA7046E73C4B93F90230012B03DD013B7F
:10255800394A93703DE7384B0C229A7039E7364B6D
:10256800B3F9003040F2E372934203DD013B324A93
:1025780013802EE7304B33221A7008225A7028E74E
:102588002E482D4B1A685B68026043604379073B0D
:102598004371072102F0DCF9294B3C223021244801
:1025A80006F07EFB1EE7224C2649204606F0B6FBC5
:1025B8000021204606F090FC1F4F194E97F9052080
:1025C8002149304608F06EF8334624221146204649
:1025D80006F066FB0121204606F07EFC97F90730DD
:1025E80097F906201949304608F05CF8334624224A
:1025F8003021204606F054FBB7F90030009397F9D4
:10260800023097F903201249304608F04BF8334658
:1026180030221E21204606F043FB284603B0F0BDB9
:10262800FC0B002004DD0008EE030020B00B0020A6
:10263800600A0020D4590108580C00208C0C002096
:102648007CE50008DC150108F8DB0008B4E50008A3
:1026580084E500089D4E9E49304606F05FFB9D4F7D
:102668009D4C97F905209D49204608F01BF8234604
:1026780024221146304606F013FB0021304606F0AE
:102688002BFC97F906209649204608F00BF82346BC
:1026980024223621304606F003FB0121304606F09D
:1026A8001BFC97F907208F49204607F0FBFF2346BC
:1026B80024224221304606F0F3FAB7F9003000939D
:1026C80097F9023097F903208749204607F0EAFF77
:1026D800234630221E21304606F0E2FA9DE77B4C65
:1026E8007B49204606F01AFB7A4F7B4E97F9063055
:1026F80097F905207D49304607F0D4FF3346242258
:102708001146204606F0CCFA0021204606F0E4FBEC
:1027180097F907207249304607F0C4FF3346242250
:102728004821204606F0BCFA0121204606F0D4FBD9
:10273800B7F90030009397F9023097F903206A49F6
:10274800304607F0AFFF334630221E21204606F000
:10275800A7FA62E75D4C5E49204606F0DFFA5D4F56
:1027680097F907305C4E009397F9063097F90520E2
:102778005F49304607F096FF33462422114620462B
:1027880006F08EFA0021204606F0A6FB97F90320F2
:102798005349304607F086FF334630221E21204633
:1027A80006F07EFA0121204606F096FBB7F90030C4
:1027B80097F902204F49304607F074FF334630221C
:1027C8002A21204606F06CFA27E7404E4049304659
:1027D80006F0A4FA3F4F97F907303F4C009397F95A
:1027E800063097F905204249204607F05BFF23464B
:1027F80024221146304606F053FA97F903203E4941
:10280800204607F04FFF234630221E21304606F0AF
:1028180047FA0021304606F05FFB97F9022030495D
:10282800204607F03FFF234630221146304606F087
:1028380037FA0121304606F04FFBB7F900202F493F
:10284800204607F02FFF234630223C21304606F071
:1028580027FAE2E61D4C1E49204606F05FFA1D4F96
:1028680097F907301C4E009397F9063097F9052021
:102878001F49304607F016FF3346242211462046EA
:1028880006F00EFA97F9023097F903201C493046F2
:1028980007F008FF334630221E21204606F000FAD2
:1028A8000021204606F018FBB7F9002015493046EC
:1028B80007F0F8FE334630224221204606F0F0F9B0
:1028C8000121204606F008FBA7E600BF600A0020A9
:1028D800DC150108580C0020FC0B002094E50008CA
:1028E800F8DB00089CE5000884E50008A4E500087A
:1028F800B0E5000888E50008C0E50008C8E500085C
:10290800D0E5000880DC0008F8B505460C465A22D8
:1029180000218F4806F024FF642000FB05F08D4B52
:102928001D5A8D4B1B889D4212D08C4B19898C4B9C
:1029380019608C4B00221A808B4BA3FB0123DB0808
:102948008A4A137003EB83035A008A1A884B1A7059
:10295800012C2BD0022C46D034B9824B1B88002B7B
:102968005CD101337F4A13807E4B1B88002B00F01B
:102978009F80012B00F0C4807E4E7F4C314620465C
:1029880006F0CCF942F2F73324221921204606F04A
:1029980021F93146204606F0C1F942F2F6332422E5
:1029A8005021204606F016F92846F8BD6D4B1B88C5
:1029B8004BB1012BCED16E4B1B78082B0FD80133AE
:1029C8006B4A1370C6E7694B1B78082B03D8013391
:1029D800664A1370BEE7654B00221A70BAE7644B6B
:1029E80000221A70B6E75F4B1B8843B1012BB3D1A5
:1029F8005F4B1B7873B1013B5D4A1370ACE75B4BCF
:102A08001B781BB1013B594A1370A5E7574B0922A4
:102A18001A70A1E7564B09221A709DE7534B1B7891
:102A280003EB83035A00524B1B7813444C4A136040
:102A38004A4C2381FEF76CFC4F4E5049304606F055
:102A48006DF94F4B3C223021304606F029F9218997
:102A58004C4807F0FFFD01214B4804F04DFE0028CB
:102A680082D1022100F1804000F5883004F044FE54
:102A780000287FF479AF042100F1804000F5883008
:102A880004F03AFE00287FF46FAF404B5B7A13B92D
:102A98003E4B01225A723D4B9B7A13B93B4B0122A4
:102AA8009A723A4B9A7A597A394807F0D3FD5BE71C
:102AB800314C3849204606F031F90021204606F00D
:102AC8000BFA354F224E294B1A783946304607F013
:102AD800E9FD334624223221204606F0E1F801219F
:102AE800204606F0F9F9224B1A783946304607F0A5
:102AF800D9FD334624223E21204606F0D1F83BE793
:102B08001D4C2449204606F009F9234F104E174B57
:102B18001A783946304607F0C5FD3346242232215B
:102B2800204606F0BDF80021204606F0D5F9104BE6
:102B38001A783946304607F0B5FD334624223E213F
:102B4800204606F0ADF80121204606F0C5F913E746
:102B5800FC0B002004DD0008EE0300203C0B0020E5
:102B6800F40B0020B00B0020CDCCCCCC610C0020A5
:102B7800600C0020D4590108600A0020DC15010807
:102B88007CE50008E0E4000800100140700B00201C
:102B980000E5000844EC0008D4E40008F8B5054650
:102BA8000C465A2200213F4806F0DAFD642000FB5B
:102BB80005F03D4B1E5A3D4B1B889E4203D03C4BB3
:102BC800DA783C4B1A60022C2BD0012C34D0394BCC
:102BD8001B68002B3BD0374B1B68012B44D0364D6C
:102BE8003649284606F09AF82E4F3846FDF718FB66
:102BF800C0F11601324B1E2201F0FE01284606F0F4
:102C08004FF83846FDF70CFBC0F116012D4B2D226D
:102C180001F0FE01284606F043F8002C31D030467A
:102C2800F8BD244B1B681BB90133224A1360CCE75B
:102C3800204B00221A60C8E71E4B1B681BB1013BE2
:102C48001C4A1360C3E71B4B01221A60BFE71A4DE9
:102C58001D49284606F062F842F213731E22042129
:102C6800284605F0B7FFB6E7134D1749284606F082
:102C780055F842F213732D220421284605F0AAFFC5
:102C8800ADE70C4B1A780A4BDA70FEF741FB0F4997
:102C9800284606F043F80E4B3C223021284605F022
:102CA800FFFFBCE7FC0B002004DD0008EE0300205A
:102CB8003C0B0020F40B0020600A0020A81F01082C
:102CC80064E5000870E50008D4590108DC1501081E
:102CD8007CE50008F8B504460D465A2200214E4806
:102CE80006F03EFD642000FB04F04C4B1F5A4C4B91
:102CF8001B889F4203D04B4B1A794B4B1A60022D0D
:102D08003BD0012D45D0484B1B68002B4CD0464B7F
:102D18001B68012B55D0444B1B68022B5ED0434CDB
:102D28004349204605F0FAFF3B4E3046FDF778FA56
:102D3800C0F116013F4B1C2201F0FE01204605F0B0
:102D4800AFFF3046FDF76CFAC0F116013A4B282266
:102D580001F0FE01204605F0A3FF3046FDF760FABA
:102D6800C0F11601354B342201F0FE01204605F072
:102D780097FF002D3FD03846F8BD2B4B1B68012B21
:102D880003D9294B00221A60BBE70133264A136096
:102D9800B7E7254B1B681BB1013B234A1360B2E719
:102DA800214B02221A60AEE7204C2549204605F047
:102DB800B5FF42F213731C220421204605F00AFFD6
:102DC800A5E71A4C1E49204605F0A8FF42F21373E6
:102DD80028220421204605F0FDFE9CE7134C1849E3
:102DE800204605F09BFF42F213733422042120464B
:102DF80005F0F0FE93E70C4B1A780A4B1A71FEF7B0
:102E080087FA0B49204605F089FF0E4B3E223021F8
:102E1800204605F045FFAEE7FC0B002004DD000866
:102E2800EE0300203C0B0020F40B0020600A002079
:102E3800DC15010844E500084CE5000858E50008E1
:102E4800D45901087CE500082DE9F04182B0044618
:102E58000D465A2200213F4806F082FC642000FB00
:102E680004F03D4B33F800803C4B1B88984503D059
:102E78003B4B5A783B4B1A603B4C3C49204605F08B
:102E88004DFF4FF4185324220521204605F0A2FED9
:102E9800012D3FD0022D45D0324F3878FEF78EF9FC
:102EA800314C0A2300933B7818221421204605F060
:102EB800D4FB2E49204605F031FF42F2EC33302294
:102EC8002821204605F086FE42F2EB3330224D21C0
:102ED800204605F07FFE1F4E3A682549304607F028
:102EE800E1FB2449204605F019FF3046FDF798F923
:102EF800C0F11600400800EB400041003346302284
:102F080001F0FE01204605F0CBFE9DB1404602B01F
:102F1800BDE8F081134B1B68632BBBD80133114A02
:102F28001360B7E70F4B1B68002BB5D0013B0D4A68
:102F38001360B1E73A780A4B5A70FEF7E9F90D4980
:102F4800204605F0EBFE0C4B3C223021204605F0D4
:102F5800A7FEDBE7FC0B002004DD0008EE030020E1
:102F68003C0B0020F40B0020600A0020D459010813
:102F78003CE50008DC1501087CE50008F8B50546C5
:102F88000C465A220021414806F0EAFB642000FB67
:102F980005F03F4B1E5A3F4B1B889E4203D03E4BC9
:102FA8009A783E4B1A60022C2BD0012C34D03B4B24
:102FB8001B68002B3BD0394B1B68012B46D0384D82
:102FC8003849284605F0AAFE304F3846FDF728F95B
:102FD800C0F11601344B1E2201F0FE01284605F00F
:102FE8005FFE3846FDF71CF9C0F116012F4B2D2264
:102FF80001F0FE01284605F053FE002C35D030467E
:10300800F8BD264B1B681BB90133244A1360CCE773
:10301800224B00221A60C8E7204B1B681BB1013BFA
:103028001E4A1360C3E71D4B01221A60BFE71C4DFF
:103038001F49284605F072FE42F213731E2204212E
:10304800284605F0C7FDFEF7C9F8B4E7144D18493E
:10305800284605F063FE42F213732D220421284608
:1030680005F0B8FDFEF7B4F8A9E70C4B1A780A4B3F
:103078009A70FEF74DF90F49284605F04FFE0E4BA2
:103088003C223021284605F00BFEB8E7FC0B002057
:1030980004DD0008EE0300203C0B0020F40B0020A8
:1030A800600A0020A81F01081CE500082CE500089C
:1030B800D4590108DC1501087CE50008F8B5044678
:1030C8000F465A220021284806F04AFB642000FBDC
:1030D80004F0264B1E5A264B1B889E4202D0254BD5
:1030E80000221A60244B9B68244A934205D94FF466
:1030F800616202FB03F3204A9360214C2149204678
:1031080005F00CFE42F2F03336223721204605F056
:1031180061FD194B9A681C4BA3FB0232124DD20A6F
:103128001A49284607F0BEFA1949204605F0F6FD67
:10313800184B18220C21204605F0B2FD2846FDF751
:103148006FF8C0F11600400800EB400041002B4624
:10315800242201F0FE01204605F0A2FD0FB1304601
:10316800F8BDFEF7D5F8FAE7FC0B002004DD0008EF
:10317800EE030020F40B0020800B0020FF502502F6
:10318800600A0020D4590108C5B3A29114E60008CA
:10319800DC15010820E60008F8B504460F465A2257
:1031A8000021284806F0DCFA642000FB04F0264BD6
:1031B8001E5A264B1B889E4202D0254B00221A60BD
:1031C800244BDB68244A934205D94FF4616202FB21
:1031D80003F3204AD360214C2149204605F09EFD87
:1031E80042F2F03336223721204605F0F3FC194B22
:1031F800DA681C4BA3FB0232124DD20A1A49284640
:1032080007F050FA1949204605F088FD184B182296
:103218000621204605F044FD2846FDF701F8C0F1D7
:103228001600400800EB400041002B46242201F024
:10323800FE01204605F034FD0FB13046F8BDFEF71B
:1032480067F8FAE7FC0B002004DD0008EE03002015
:10325800F40B0020800B0020FF502502600A00209C
:10326800D4590108C5B3A29114E60008DC15010879
:10327800DCE50008F8B504460F465A220021284824
:1032880006F06EFA642000FB04F0264B1E5A264B0B
:103298001B889E4202D0254B00221A60244B1B69D2
:1032A800244A934205D94FF4616202FB03F3204A92
:1032B8001361214C2149204605F030FD42F2F033DC
:1032C80036223721204605F085FC194B1A691C4B1C
:1032D800A3FB0232124DD20A1A49284607F0E2F936
:1032E8001949204605F01AFD184B182206212046D8
:1032F80005F0D6FC2846FCF793FFC0F116004008FD
:1033080000EB400041002B46242201F0FE0120463C
:1033180005F0C6FC0FB13046F8BDFDF7F9FFFAE736
:10332800FC0B002004DD0008EE030020F40B002055
:10333800800B0020FF297515600A0020D459010868
:10334800C5B3A291F0E50008DC150108FCE500080A
:103358002DE9F04182B005460C465A2200219B48CF
:1033680006F0FEF9642000FB05F0994B1D5A994BB5
:103378001B889D420CD00023974A1360974A1380FC
:10338800974A1370974A1370974A1370974A1370A5
:1033980034B9924B1B88022B1DD801338F4A1380F6
:1033A800012C77D0022C00F0AD80914C9149204639
:1033B80005F0B4FC904B18221221204605F070FC51
:1033C800864B1B88032B00F2FD80DFE813F0D0004A
:1033D80025015B019101824B1B78824A1178642296
:1033E80002FB01F24FF47A7101FB03237F4A127842
:1033F80002EB820251000B447B4A12781344764A4E
:1034080013607E4A528993421BD0704F3846FCF7AE
:1034180007FFC0F11600400800EB40004100744E61
:103428003B46242201F0FE01304605F039FC744B7E
:1034380030221221304605F033FC684B00221A80F6
:10344800AEE7704B00229A60FEF796F8FDF760FF32
:103458005E4E3046FCF7E4FEC0F11600400800EB73
:1034680040004100DFF888813346242201F0FE0144
:10347800404605F015FC644F0FCF30607160B260B4
:10348800F36038683061614B30221221404605F004
:1034980007FC85E7514B1B88032B83D8DFE803F033
:1034A800020E1A264E4B1B78082B03D801334C4AC0
:1034B800137077E74A4B00221A7073E7494B1B7861
:1034C800082B03D80133474A13706BE7454B00229A
:1034D8001A7067E7454B1B78082B03D80133434A1A
:1034E80013705FE73F4B00221A705BE73E4B1B7877
:1034F800082B03D801333C4A137053E73A4B002298
:103508001A704FE7354B1B88032B3FF64EAFDFE8A9
:1035180003F0020D1823324B1B781BB1013B304AD4
:10352800137042E72E4B09221A703EE72D4B1B7889
:103538001BB1013B2B4A137037E72A4B09221A703B
:1035480033E72A4B1B781BB1013B284A13702CE741
:10355800264B09221A7028E7234B1B781BB1013B25
:10356800214A137021E7204B09221A701DE7204CCD
:103578002049204605F0D2FB0021204605F0ACFC8E
:10358800124E174B1A782249304607F08BF833460B
:1035980024223021204605F083FB0121204605F036
:1035A8009BFC114B1B780093104B1B780D4A12782B
:1035B8001849304607F076F833462422362120464B
:1035C80005F06EFB284602B0BDE8F081FC0B002038
:1035D80004DD0008EE030020F40B0020B00B0020EF
:1035E800620C0020F80B0020600C0020610C002009
:1035F800600A0020DC150108C0E400083C0B00202C
:10360800B0E40008800B002088E400089CE400086F
:10361800D4E40008D0E400084B4C4C49204605F09F
:103628007DFB4B4F4B4E4C4B1A783946304607F0D2
:1036380039F8334624223021204605F031FB002199
:10364800204605F049FC454B1A783946304607F0C4
:1036580029F8334624223621204605F021FB012192
:10366800204605F039FC3E4B1B783E4A12783E490D
:10367800304607F017F8334624223C21204605F04F
:103688000FFB9FE7304C3149204605F047FB314E90
:10369800324B1B78304A12783349304607F002F82B
:1036A800334624223021204605F0FAFA002120462C
:1036B80005F012FC264F2B4B1A783946304606F097
:1036C800F1FF334624223C21204605F0E9FA012186
:1036D800204605F001FC224B1A783946304606F0A0
:1036E800E1FF334624224221204605F0D9FA69E752
:1036F800154C1649204605F011FB164E194B1B7840
:103708000093164B1B78144A12781849304606F075
:10371800C9FF334624223021204605F0C1FA002192
:10372800204605F0D9FB0E4B1A780949304606F0B9
:10373800B9FF334624224221204605F0B1FA01217F
:10374800204605F0C9FB3DE7600A0020DC150108AA
:10375800D4E40008FC0B0020620C0020F80B0020C9
:10376800600C0020610C0020D8E40008D0E40008B8
:103778002DE9F04182B005460C465A2200219C48AA
:1037880005F0EEFF642000FB05F09A4B1D5A9A4B9A
:103798001B889D420CD00023984A1360984A1380D6
:1037A800984A1370984A1370984A1370984A13707D
:1037B80034B9934B1B88022B1DD80133904A1380D0
:1037C800012C79D0022C00F0AF80924C924920460F
:1037D80005F0A4FA914B18221221204605F060FA50
:1037E800874B1B88032B00F2FF80DFE813F0D20021
:1037F80027015D019301834B1B78834A117864226A
:1038080002FB01F24FF47A7101FB0323804A12781C
:1038180002EB820251000B447C4A12781344774A27
:1038280013607F4A528993421BD0714F3846FCF788
:10383800F7FCC0F11600400800EB40004100754E4F
:103848003B46242201F0FE01304605F029FA754B6B
:1038580030221221304605F023FA694B00221A80E3
:10386800AEE7714B0022DA60FDF786FEFDF750FDEA
:103878005F4E3046FCF7D4FCC0F11600400800EB60
:1038880040004100DFF88C813346242201F0FE011C
:10389800404605F005FA654F0FCF30607160B260A1
:1038A800F36038683061BB88B382614B30220C21E9
:1038B800404605F0F5F983E7514B1B88032B81D867
:1038C800DFE803F0020E1A264E4B1B78082B03D8AC
:1038D80001334C4A137075E74A4B00221A7071E79E
:1038E800494B1B78082B03D80133474A137069E703
:1038F800454B00221A7065E7454B1B78082B03D807
:103908000133434A13705DE73F4B00221A7059E7B1
:103918003E4B1B78082B03D801333C4A137051E700
:103928003A4B00221A704DE7354B1B88032B3FF6A4
:103938004CAFDFE803F0020D1823324B1B781BB1A4
:10394800013B304A137040E72E4B09221A703CE7BE
:103958002D4B1B781BB1013B2B4A137035E72A4BC3
:1039680009221A7031E72A4B1B781BB1013B284A00
:1039780013702AE7264B09221A7026E7234B1B7877
:103988001BB1013B214A13701FE7204B09221A7013
:103998001BE7204C2049204605F0C0F900212046AD
:1039A80005F09AFA124E174B1A782249304606F05B
:1039B80079FE334624223021204605F071F9012191
:1039C800204605F089FA114B1B780093104B1B78A1
:1039D8000D4A12781849304606F064FE3346242210
:1039E8003621204605F05CF9284602B0BDE8F08192
:1039F800FC0B002004DD0008EE030020F40B00207F
:103A0800B00B0020620C0020F80B0020600C002096
:103A1800610C0020600A0020DC150108C0E40008E1
:103A28003C0B0020B0E40008800B002038E40008BC
:103A380050E40008D4E40008D0E400084B4C4C499A
:103A4800204605F06BF94B4F4B4E4C4B1A783946D4
:103A5800304606F027FE334624223021204605F062
:103A68001FF90021204605F037FA454B1A783946E8
:103A7800304606F017FE334624223621204605F04C
:103A88000FF90121204605F027FA3E4B1B783E4AE4
:103A980012783E49304606F005FE334624223C2182
:103AA800204605F0FDF89FE7304C3149204605F0E7
:103AB80035F9314E324B1B78304A1278334930464B
:103AC80006F0F0FD334624223021204605F0E8F8C0
:103AD8000021204605F000FA264F2B4B1A7839466C
:103AE800304606F0DFFD334624223C21204605F00F
:103AF800D7F80121204605F0EFF9224B1A7839460C
:103B0800304606F0CFFD334624224221204605F0F8
:103B1800C7F869E7154C1649204605F0FFF8164E18
:103B2800194B1B780093164B1B78144A12781849C6
:103B3800304606F0B7FD334624223021204605F0F2
:103B4800AFF80021204605F0C7F90E4B1A7809494D
:103B5800304606F0A7FD334624224221204605F0D0
:103B68009FF80121204605F0B7F93DE7600A0020DB
:103B7800DC150108D4E40008FC0B0020620C0020CE
:103B8800F80B0020600C0020610C0020D8E400082D
:103B9800D0E400082DE9F04182B005460C465A22CF
:103BA80000219B4805F0DCFD642000FB05F0994BE3
:103BB8001D5A994B1B889D420CD00023974A1360CD
:103BC800974A1380974A1370974A1370974A13704D
:103BD800974A137034B9924B1B88022B1DD80133B6
:103BE8008F4A1380012C77D0022C00F0AD80914CC5
:103BF8009149204605F092F8904B18221221204650
:103C080005F04EF8864B1B88032B00F2FD80DFE899
:103C180013F0D00025015B019101824B1B78824A89
:103C28001178642202FB01F24FF47A7101FB03233D
:103C38007F4A127802EB820251000B447B4A1278C9
:103C48001344764A13607E4A528993421BD0704FC0
:103C58003846FCF7E5FAC0F11600400800EB4000D2
:103C68004100744E3B46242201F0FE01304605F027
:103C780017F8744B30221221304605F011F8684BC2
:103C880000221A80AEE7704B00221A61FDF774FC1F
:103C9800FDF73EFB5E4E3046FCF7C2FAC0F1160057
:103CA800400800EB40004100DFF8888133462422B9
:103CB80001F0FE01404604F0F3FF644F0FCF30607F
:103CC8007160B260F3603B883382614B3022182107
:103CD800404604F0E5FF85E7514B1B88032B83D84A
:103CE800DFE803F0020E1A264E4B1B78082B03D888
:103CF80001334C4A137077E74A4B00221A7073E776
:103D0800494B1B78082B03D80133474A13706BE7DC
:103D1800454B00221A7067E7454B1B78082B03D8E0
:103D28000133434A13705FE73F4B00221A705BE789
:103D38003E4B1B78082B03D801333C4A137053E7DA
:103D48003A4B00221A704FE7354B1B88032B3FF67E
:103D58004EAFDFE803F0020D1823324B1B781BB17E
:103D6800013B304A137042E72E4B09221A703EE796
:103D78002D4B1B781BB1013B2B4A137037E72A4B9D
:103D880009221A7033E72A4B1B781BB1013B284ADA
:103D980013702CE7264B09221A7028E7234B1B784F
:103DA8001BB1013B214A137021E7204B09221A70ED
:103DB8001DE7204C2049204604F0B0FF0021204692
:103DC80005F08AF8124E174B1A782249304606F049
:103DD80069FC334624223021204604F061FF01218A
:103DE800204605F079F8114B1B780093104B1B788F
:103DF8000D4A12781849304606F054FC33462422FE
:103E08003621204604F04CFF284602B0BDE8F08178
:103E1800FC0B002004DD0008EE030020F40B00205A
:103E2800B00B0020620C0020F80B0020600C002072
:103E3800610C0020600A0020DC150108C0E40008BD
:103E48003C0B0020B0E40008800B002064E400086C
:103E580078E40008D4E40008D0E400084B4C4C494E
:103E6800204604F05BFF4B4F4B4E4C4B1A783946BB
:103E7800304606F017FC334624223021204604F051
:103E88000FFF0021204605F027F8454B1A783946E0
:103E9800304606F007FC334624223621204604F03B
:103EA800FFFE0121204605F017F83E4B1B783E4ADD
:103EB80012783E49304606F0F5FB334624223C2171
:103EC800204604F0EDFE9FE7304C3149204604F0CF
:103ED80025FF314E324B1B78304A12783349304631
:103EE80006F0E0FB334624223021204604F0D8FEB9
:103EF8000021204604F0F0FF264F2B4B1A78394654
:103F0800304606F0CFFB334624223C21204604F0FD
:103F1800C7FE0121204604F0DFFF224B1A783946FC
:103F2800304606F0BFFB334624224221204604F0E7
:103F3800B7FE69E7154C1649204604F0EFFE164E09
:103F4800194B1B780093164B1B78144A12781849A2
:103F5800304606F0A7FB334624223021204604F0E1
:103F68009FFE0021204604F0B7FF0E4B1A7809493E
:103F7800304606F097FB334624224221204604F0BF
:103F88008FFE0121204604F0A7FF3DE7600A0020CC
:103F9800DC150108D4E40008FC0B0020620C0020AA
:103FA800F80B0020600C0020610C0020D8E4000809
:103FB800D0E400082DE9F04182B005460C465A22AB
:103FC80000219F4805F0CCFB642303FB05F39D4AC1
:103FD800D25A9D4B1B889A4215D000239B4A1360E6
:103FE8009B4A13809B4A13709B4A13709B4A137019
:103FF8009B4A13709B4E9C4A03CA306071609B4A6F
:1040080013709B4A137044B9994B1B782BB9984B82
:1040180001221A708E4B00221A80954B1B781BB117
:10402800631E9BB2012B25D9904B1B7833B334B94F
:10403800874B1B88022B58D80133854A1380012CE3
:1040480000F08F80022C00F0C5808A4C8A492046F7
:1040580004F064FE894B18221221204604F020FE49
:104068007B4B1B88032B38D8DFE813F01801440179
:104078007A01B0017D4B01221A70D5E7DFF818826A
:104088007C4E4146304604F049FE764CB4F9003087
:104098006B4F009394F9023094F90320784938461D
:1040A80006F000FB3B4620221221304604F0F8FDC2
:1040B80094F90730009394F9063094F90520714972
:1040C800384606F0EFFA4146304604F027FE3B46F4
:1040D80030221221304604F0E3FD642000FB05F095
:1040E800584B185A02B0BDE8F0815A4B1B785A4A0F
:1040F8001178642202FB01F24FF47A7101FB032369
:10410800574A127802EB820251000B44534A127844
:1041180013444E4A13605C4A928993420ED0554E1E
:104128005549304604F0FAFD584B302212213046EA
:1041380004F0B6FD464B00221A8080E7544A4A4BE9
:104148001068516803C3FDF7E3F84A4E4A49304600
:1041580004F0E4FD4F4B30220021304604F0A0FD6E
:104168006DE73B4B1B88032B3FF66CAFDFE803F092
:10417800020E1A26374B1B78082B03D80133354A11
:1041880013705FE7334B00221A705BE7324B1B78E2
:10419800082B03D80133304A137053E72E4B002203
:1041A8001A704FE72E4B1B78082B03D801332C4A83
:1041B800137047E7284B00221A7043E7274B1B78F8
:1041C800082B03D80133254A13703BE7234B002201
:1041D8001A7037E71E4B1B88032B3FF636AFDFE814
:1041E80003F0020D18231B4B1B781BB1013B194A26
:1041F80013702AE7174B09221A7026E7164B1B780B
:104208001BB1013B144A13701FE7134B09221A70A4
:104218001BE7134B1B781BB1013B114A137014E7C2
:104228000F4B09221A7010E70C4B1B781BB1013B8E
:104238000A4A137009E7094B09221A7005E700BFFB
:10424800FC0B002004DD0008EE030020F40B002026
:10425800B00B0020620C0020F80B0020600C00203E
:10426800610C0020580C0020640B0020570C002023
:10427800560C0020600A0020DC150108C0E4000884
:1042880050DC00080CE400083C0B0020B0E40008F7
:104298008C0C002020E40008E4370108614C6249D6
:1042A800204604F03BFD0021204604F015FE5F4E39
:1042B8005F4B1A785F49304606F0F4F933462422FA
:1042C8003021204604F0ECFC0121204604F004FED5
:1042D800594B1B780093594B1B78594A1278594906
:1042E800304606F0DFF9334624223621204604F012
:1042F800D7FCF2E64B4C4C49204604F00FFD4D4FDD
:104308004A4E4B4B1A783946304606F0CBF93346BD
:1043180024223021204604F0C3FC0021204604F06A
:10432800DBFD474B1A783946304606F0BBF9334671
:1043380024223621204604F0B3FC0121204604F053
:10434800CBFD3D4B1B783D4A12783F49304606F07D
:10435800A9F9334624223C21204604F0A1FCBCE6FE
:10436800304C3149204604F0D9FC304E344B1B7890
:104378002F4A12783449304606F094F933462422FD
:104388003021204604F08CFC0021204604F0A4FDD6
:10439800284F2A4B1A783946304606F083F93346B7
:1043A80024223C21204604F07BFC0121204604F015
:1043B80093FD214B1A783946304606F073F9334697
:1043C80024224221204604F06BFC86E6154C16494F
:1043D800204604F0A3FC154E184B1B780093184B8D
:1043E8001B78134A12781749304606F05BF93346B2
:1043F80024223021204604F053FC0021204604F0FA
:104408006BFD0D4B1A780B49304606F04BF93346D5
:1044180024224221204604F043FC0121204604F0D6
:104428005BFD5AE6600A0020DC150108FC0B002041
:10443800620C0020D4E40008600C0020610C00200D
:10444800F80B0020D0E40008D8E4000810B584B0C8
:104458000024019403943F230093012302936946A7
:10446800104803F055F8104B1C700F4B1B78052BA8
:104478000AD80D4800EB8302002151709170D17069
:10448800117101330370F0E7084B00225A729A72D7
:10449800DA721A721A709A7002F0ACFA024BD8618A
:1044A80004B010BD00100140640C0020700B002007
:1044B80000B585B002F09EFABC4BDB69C01A012832
:1044C80002D805B05DF804FB0821B94803F014F9D7
:1044D80038B9042100F1804000F5883003F00CF968
:1044E800C0B10821B24803F007F940B9042100F12E
:1044F800804000F5883003F0FFF801281BD0082120
:10450800AB4803F0F9F8012819D002F073FAA74B69
:10451800D861D6E7A74B0121197200225A729A7204
:10452800DA729A701B780292019300921346A2489D
:1045380006F090F8E9E79F4B00221A72E5E701219F
:104548009B4803F0D9F840B9022100F1804000F5FA
:10455800883003F0D1F800286CD00121944803F08A
:10456800CBF840B9022100F1804000F5883003F013
:10457800C3F8002875D001218D4803F0BDF8012843
:1045880000F0878001218A4803F0B6F8012800F07E
:10459800A0800121864803F0AFF848B9022100F154
:1045A800804000F5883003F0A7F8002800F0B280BA
:1045B80001217F4803F0A0F848B9022100F18040AA
:1045C80000F5883003F098F8002800F0BB8001213E
:1045D800774803F091F8012800F0CA800121744857
:1045E80003F08AF848B9022100F1804000F58830CC
:1045F80003F082F8012800F0EB8001216C4803F0F9
:104608007BF8002881D1022100F1804000F5883034
:1046180003F072F801287FF478AF0421644803F0AE
:104628006BF801287FF471AF624B00221A720122E5
:104638005A726AE7042100F1804000F5883003F0DF
:104648005BF8012889D15B4B1978002985D10022B4
:104658005A729A721A72DA729A70584805F0FAFF0A
:1046680053E7042100F1804000F5883003F044F856
:10467800012880D14F4B197801297FF47CAF0022A3
:104688001A7201229A7202229A704D4805F0E2FFCE
:104698003BE70221464803F02FF800287FF472AF69
:1046A800042100F1804000F5883003F025F8012846
:1046B8007FF468AF3F4B1B78012B3FF663AF3D4B50
:1046C80000221A720121997219703E4805F0C2FF42
:1046D8001BE70221364803F00FF800287FF459AF92
:1046E800042100F1804000F5883003F005F8002827
:1046F8007FF44FAF2F4B1B78012B7FF44AAF2D4B24
:1047080001211972197099720022DA722E4805F087
:10471800A1FFFAE6042100F1804000F5883002F09C
:10472800EBFF00287FF444AF224B1A78012A7FF46C
:104738003FAF01211972997299700B46234805F011
:1047480089FFE2E6042100F1804000F5883002F09C
:10475800D3FF00287FF43BAF164B1B78002B7FF468
:1047680036AF144B01221A7200225A729A72CCE6A2
:1047780002210F4802F0C0FF00287FF42FAF042168
:1047880000F1804000F5883002F0B6FF00287FF481
:1047980025AF084B1B78002B7FF420AF054B012277
:1047A8001A721A709A720022DA72AEE6640C00204D
:1047B80000100140700B002034E6000894E6000861
:1047C800B0E60008FCE6000828E700086CE70008E7
:1047D8000421084802F090FF00287FF40EAF064B32
:1047E8001B78002B7FF409AF034B01221A725A720F
:1047F8008BE600BF00100140700B002008B5094B84
:1048080000221A71084BDB7803B908BD01224FF466
:104818008071064802F077FF02F0ECF8014B18604F
:10482800F3E700BF840C00203C0B0020000C014083
:1048380008B5054B03221A7100224FF48071034812
:1048480002F061FF08BD00BF840C0020000C01408D
:1048580008B502F0CFF8194A1368C01A1379012B6A
:1048680010D05AB212B1022B1AD008BD6428FCD954
:1048780000224FF48071124802F045FF0F4B0322CB
:104888001A71F2E740F2DC539842EED900224FF455
:1048980080710B4802F037FF084B03221A71E4E7D6
:1048A800B0F57A7FE1D94FF48071054802F031FF05
:1048B80002F0A0F8014B1860D7E700BF840C002075
:1048C800000C014070B586B0002604960E4B9A691C
:1048D80042F008029A619B6903F008030193019B67
:1048E8004FF4807502950123039302230593074C27
:1048F80002A9204602F00CFE32462946204602F064
:1049080002FF06B070BD00BF00100240000C01405D
:1049180000B58BB0B0F90030A3F26C73069390F930
:104928000230013B059390F90330049390F9053068
:10493800039390F90630029390F9073001934FF0F2
:10494800FF33099301A804F0EDFF0BB05DF804FBF9
:1049580038B50D460A4C2268136823F0010313602A
:10496800FFF7D6FF4FF4616101FB0501204602F015
:1049780070FD2268136843F00103136038BD00BF5F
:10498800980C002008B502F035F81D4B18601D483A
:104998001D4B03604FF0FF3343600023836002F038
:1049A800E3FC88B90121174802F0AAFD4AF2A55391
:1049B80098420CD1154B5A6A5B6A154B01221A6052
:1049C800104802F05DFD08BDFCF7D2FAEAE711488D
:1049D8006FF01C030370072343700A2383701123AD
:1049E800C37007214171232383711423C371FFF717
:1049F800AFFF4AF2A5520121024802F079FDDFE734
:104A0800940C0020980C0020002800400010024060
:104A1800E00442428C0C002010B582B0044600919C
:104A280000230193684604F089FD0368E371436835
:104A3800A37183686371C368E37083690133237169
:104A480003690133A370436903F26C73238002B0D6
:104A580010BD000000B583B002F0E8FC0190019998
:104A68000248FFF7D9FF03B05DF804FB8C0C002067
:104A780008B50E480E4B03604FF482734360002361
:104A88008360C360036143614FF40072826128222E
:104A9800C2610362436283620A23C36201F066FC57
:104AA80000B908BDFCF764FAFBE700BFAC0C0020B6
:104AB8000030014000B587B00023029303930493AC
:104AC80005930268124B9A4202D007B05DF804FBC6
:104AD80003F560439A6942F480529A619A6902F434
:104AE80080520092009A9A6942F004029A619B6986
:104AF80003F004030193019BA02302930223039371
:104B08000323059302A9034802F002FDDDE700BF75
:104B1800003001400008014008B50748074B036012
:104B28000323436040F6FF73836001F029FD00B959
:104B380008BDFCF71DFAFBE7040D0020003000401B
:104B480008B500220F49104802F0F2FF70B90F496A
:104B58000D4803F004F860B90D490B4803F0CEFC8A
:104B680050B9094803F002F848B908BDFCF700FA43
:104B7800EDE7FCF7FDF9EFE7FCF7FAF9F1E7FCF7E9
:104B8800F7F9F2E704000020100D00207000002063
:104B980054000020022805D8DFE800F005040200D0
:104BA800012070470220704702680E4B9A4200D0DD
:104BB800704700B583B003F5DA33DA6942F40002CE
:104BC800DA61DB6903F400030193019B00221146BB
:104BD800142002F0C3FD142002F0F4FD03B05DF8C8
:104BE80004FB00BF005C004008B500F22C41D0F87F
:104BF8005C0402F0D5FF08BD08B500EB4113D3F8FB
:104C08003C22D0F85C0402F0F9FF08BD08B500EBBF
:104C18004113DA6BD0F85C0403F026F808BD08B538
:104C2800D0F85C0403F0AAF808BD10B50446836800
:104C3800022B09D10121D4F85C0403F08DF8D4F8D3
:104C48005C0403F06AF810BDFCF792F9F2E7000083
:104C580010B50446D0F85C0403F081F8A36923B1C9
:104C6800024A136943F00603136110BD00ED00E02A
:104C780008B5D0F85C0403F07BF808BD10B504460D
:104C88001D48C0F85C44C4F820021C4B036008238C
:104C980043600223836000238361C361036200F0E1
:104CA800DDF930BB182300221146D4F8200200F0A9
:104CB80030FE582300228021D4F8200200F029FE7B
:104CC800C02300228121D4F8200200F022FE4FF4F4
:104CD800887300220121D4F8200200F01AFE4FF454
:104CE800807300228221D4F8200200F012FE0020F6
:104CF80010BDFCF73DF9D5E7340F0020005C0040FB
:104D080008B5D0F8200200F014FAFFF743FF08BDF9
:104D180010B51C4613462246D0F8200200F034FA9B
:104D2800FFF738FF10BD08B5D0F8200200F055FA9B
:104D3800FFF730FF08BD08B5D0F8200200F094FD59
:104D4800FFF728FF08BD08B5D0F8200200F0BAFD2B
:104D5800FFF720FF08BDD0F8203211F0800F06D1F0
:104D680001F07F0103EB411191F82A02704701F02D
:104D78007F0103EB411191F82A00704708B5D0F87C
:104D8800200200F0EDF9FFF705FF08BD08B5D0F8DF
:104D9800200200F06FFAFFF7FDFE08BD08B5D0F855
:104DA800200200F041FAFFF7F5FE08BD08B5D0F87B
:104DB800200200F058FA08BD00487047F8030020A8
:104DC8007047704712230B8000487047200000206E
:104DD80004230B80004870473400002000239342CE
:104DE80016D230B40BE0373401F8134000015C00F0
:104DF800013400250D550133DBB2934206D2040F6E
:104E0800092CF0D8303401F81340EFE730BC704774
:104E18007047000038B50A4B186804331C6804331F
:104E28001B68C01800D138BD064D0822A91CFFF721
:104E3800D5FF042205F112012046FFF7CFFFF2E764
:104E4800E8F7FF1F3800002008B51A230B80FFF78A
:104E5800E1FF014808BD00BF3800002008B50A4638
:104E680028B90549054803F0FCF9034808BD02497B
:104E7800024803F0F6F9F8E794130020FCE700086D
:104E880010B5044C0A462146034803F0EAF92046C7
:104E980010BD00BF94130020E8E7000808B50A46D3
:104EA80028B90549054803F0DCF9034808BD02495B
:104EB800024803F0D6F9F8E794130020CCE700087D
:104EC80008B50A4628B90549054803F0CAF9034850
:104ED80008BD0249024803F0C4F9F8E7941300201A
:104EE800D8E70008002070470020704710B5054C2F
:104EF8000146204603F011FB204603F02BFB00205F
:104F080010BD00BF100D002010B5064C0022064948
:104F1800204603F0FAFA0549204603F0FEFA00207D
:104F280010BD00BF100D00207C1900209415002032
:104F3800094BD3F81832D3F814320BB1012070475B
:104F480010B50A460146044C204603F0DEFA204616
:104F580003F0E9FA10BD00BF100D00207047FEE70E
:104F6800FEE7FEE7FEE770477047704708B501F0B7
:104F780035FD08BD08B5024800F0C6FB08BD00BFF6
:104F8800340F002008B5024802F090FA08BD00BFAF
:104F9800980C002008B5024802F0AEF908BD00BF21
:104FA800980C002008B5022002F0B8FB022002F09D
:104FB800B4FB08BD7047000082B00E4B9A6942F0FE
:104FC80001029A619A6902F001020092009ADA6974
:104FD80042F08052DA61DB6903F080530193019B50
:104FE800054A536823F0E06343F00073536002B04E
:104FF800704700BF00100240000001400268144BD7
:105008009A4200D0704700B583B002F00DFC114BF6
:10501800DA6942F00062DA61DB6903F00063019348
:10502800019B0D4B01221A6000221146032002F059
:1050380095FB032002F0C6FB00221146292002F04E
:105048008DFB292002F0BEFB03B05DF804FB00BF16
:1050580000280040001002403C044242002866D06C
:10506800F0B587B0044690F829345BB3032384F87D
:105078002934206800F074FC254655F8107B6E46EC
:105088000FCD0FC62B683360231D0ECB384600F0BA
:1050980058FC0021206800F06DFC00230E2B16D868
:1050A80004EB4312012182F8291082F828309386F4
:1050B800002182F82B109163D1639A1C5201A150F0
:1050C8000133EBE780F82834FFF76EFDCEE70023C5
:1050D8000E2B13D804EB4312002182F8291282F810
:1050E8002832938682F82B12C2F83812C2F83C1282
:1050F80003F112025201A1500133E9E7254655F8A0
:10510800107B6E460FCD0FC62B683360231D0ECB68
:10511800384600F031FC002584F82450012384F837
:105128002934206800F03CFF284607B0F0BD012074
:10513800704790F82834012B10D010B5044601218F
:1051480080F82814FFF73DFE206800F027FF20684C
:1051580000F0FEFB002084F8280410BD02207047F0
:1051680090F82834012B0DD010B50446012380F89F
:10517800283480F82410006800F00AFF002084F822
:10518800280410BD0220704738B54DB2002D1CDB35
:1051980001F07F04640104F50A74044401F07F01FE
:1051A8002170ED0F65702261E37090F82834012BAF
:1051B80011D00546012380F828342146006800F004
:1051C800F1FB002085F8280438BD01F07F04640154
:1051D80028340444E2E70220F6E74AB2002A1BDB3F
:1051E80001F07F035B0103F50A73034401F07F01BB
:1051F8001970D20F5A7090F82824012A12D010B5CD
:105208000446012280F828241946006800F05EFD53
:10521800002084F8280410BD01F07F035B012833C7
:105228000344E3E70220704770B501F07F056C0185
:1052380004F50A7101440444C4F83C2205F1120241
:105248005201861883500023736084F8293284F849
:10525800285225B9006800F0BFFE002070BD006824
:1052680000F0BAFEF9E701F00F01123100EB41112D
:105278008888704770B501F07F056C0104F128013A
:1052880001440444E263AA1C520186188350002397
:105298007360012384F8293084F8285025B9006800
:1052A80000F09AFE002070BD006800F095FEF9E756
:1052B80070B582B004460023ADF80630ADF804306E
:1052C8008DE103889BB223F4E14323F070039BB282
:1052D80003802268B2F8503094F8281003EBC10319
:1052E800023302EB4303D3F80034C3F309036364C6
:1052F800E26B1344E36300212046FFF787FC94F830
:105308002430002B00F06B81236C002B40F0678168
:1053180094F82430226843F08003A2F84C3000232C
:1053280084F824305BE1B0F8503094F8282203EB7D
:10533800C203063300EB4303D3F80034C3F3090375
:10534800C4F84432B4F82C2204F22C4100F0A1FF36
:105358002268138823F070031B051B0D1380204659
:10536800FFF742FC3BE1B4F82C22D4F83C1200F0E1
:1053780090FFD4F84422D4F83C321344C4F83C32A9
:105388006BE1C1F34F0311F0010F01D001339BB260
:105398009B029BB2C2F800347CE130F825309BB206
:1053A800ADF80430BDF8043013F4004F35D1BDF822
:1053B800043013F0800F00F01281226832F8253093
:1053C8009BB223F4E14323F070039BB222F825300B
:1053D80004EB451393F83230002B40F0B28020687C
:1053E800B0F8503004EB451292F8282003EBC203C2
:1053F800023300EB4303D3F80034C3F30903AA1CB8
:1054080004EB42125360002B00F0C98004EB4511F5
:105418008A8DC96B00F0CBFDC1E030F8253023F050
:1054280070031B051B0D20F8253004EB451393F87A
:105438003232D3B92068B0F8503004EB451292F8F4
:10544800282203EBC203063300EB4303B3F80064DE
:10545800C6F3090686B304EB45113346B1F82C228E
:10546800D1F83C1200F015FF26E0206804EB451344
:1054780093F8282230F8223013F4804F42D0B0F845
:10548800503003EBC203023300EB4303B3F800646C
:10549800C6F3090666BB226804EB451393F8281285
:1054A80032F8213023F0F0031B051B0D43F40043B1
:1054B80043F0C00322F8213005F112035B01E11823
:1054C8004A6832444A6004EB4511D1F83C22324420
:1054D800C1F83C22E3581BB1D1F838128E4228D2C9
:1054E80004EB451393F828122046FFF785FB5EE787
:1054F80004EB45113346B1F82E22D1F83C1200F0E6
:10550800C8FEC8E7B0F8503003EBC203063300EB1F
:105518004303B3F80064C6F30906002EBBD004EBBE
:1055280045113346B1F83022D1F83C1200F0B1FEF3
:10553800B1E704EB451191F828122046FFF774FEF5
:1055480035E7206804EB451393F8282030F822301B
:1055580013F0400F00F0B480B0F8503003EBC203F2
:10556800023300EB4303D3F80034C3F30903AA1C46
:1055780004EB42125360002B40F09B80226804EB3E
:10558800451393F8281032F8213023F0F0031B0557
:105598001B0D43F4404343F0800322F82130226876
:1055A800B2F8503004EB451090F8281003EBC10313
:1055B800023302EB4303D3F80024C2F30902AB1C05
:1055C8005B01E1184A60C16B0A44C263E358002BCF
:1055D80040F08F8090F828102046FFF717FB2068CE
:1055E800B0F844309BB2ADF8063013F4004F00F029
:1055F8008880BDF8065015F00F057FF4CEAEBDF8D3
:10560800063013F0100F3FF45CAE03889BB2ADF880
:105618000430BDF8043013F4006F7FF484AEBDF895
:10562800043013F4004FDAD0038823F070031B050D
:105638001B0D03802068B0F8503094F8282203EB43
:10564800C203063300EB4303D3F80034C3F3090362
:10565800C4F84432002B7FF486AE00212046FFF7C1
:10566800CBFA2368B3F85020063203EB4202D4F891
:1056780038123E297FF685AEC1F34F1311F01F0F84
:1056880001D1013B9BB26FEAC3636FEA53439BB2FC
:10569800C2F80034226813889BB223F4804323F0B5
:1056A800700383F4405343F4004343F080031380B2
:1056B80095E704EB4511CA8DC96B00F078FC5DE7EE
:1056C800B0F8503003EBC203063300EB4303D3F8C2
:1056D8000034C3F30903AA1C04EB42125360002BE5
:1056E8003FF44CAF04EB45110A8EC96B00F05FFC28
:1056F80044E704EB451595F828102046FFF7BAFD56
:105708006DE7002002B070BD10B50446006800F0D7
:1057180049FC10F4004F45D1206800F043FC10F418
:10572800806F43D1206800F03DFC10F4804F08D012
:105738002268B2F844309BB223F480439BB2A2F8AB
:105748004430206800F02EFC10F4005F08D0226876
:10575800B2F844309BB223F400539BB2A2F8443011
:10576800206800F01FFC10F4805F30D1206800F042
:1057780019FC10F4006F49D1206800F013FC10F4F4
:10578800007F64D1206800F00DFC10F4807F08D001
:105798002268B2F844309BB223F480739BB2A2F81B
:1057A800443010BD2046FFF783FDB5E72268B2F804
:1057B80044309BB223F480639BB2A2F84430204665
:1057C800FFF733FA00212046FFF7CAFCAAE7226850
:1057D800B2F840309BB223F004039BB2A2F84030E9
:1057E8002268B2F840309BB223F008039BB2A2F8BB
:1057F80040302046FFF73CFA2268B2F844309BB2AA
:1058080023F480539BB2A2F84430AFE72268B2F881
:10581800403043F00803A2F840302268B2F8443020
:105828009BB223F400639BB2A2F844302268B2F81A
:10583800403043F00403A2F84030206800F0B2FB87
:1058480010F4805F98D12046FFF702FA94E72268A7
:10585800B2F844309BB223F400739BB2A2F84430F0
:105868002046FFF7DCF98DE738B54AB2002A1BDB82
:105878004B0103F50A73034401249C7001F07F0572
:105888001D70D20F5A7090F82824A24218D00446EE
:10589800012280F828241946006800F0F9FA4DB171
:1058A800002084F8280438BD01F07F035B01283309
:1058B8000344E1E704F22C41206800F076FBEFE7AF
:1058C8000220F0E710B54AB2002A1ADB4B0103F5B3
:1058D8000A73034400249C7001F07F011970D20FF1
:1058E8005A7090F82824012A11D00446012280F821
:1058F80028241946006800F002FB002084F82804D8
:1059080010BD01F07F035B0128330344E2E7022066
:10591800F6E711F0800F09D001F07F014901283125
:10592800014442B98A728B8000207047490101F511
:105938000A710144F5E701228A72CB801B0C0B81A6
:10594800F2E784B001A880E80E00002004B0704798
:10595800B0F8403043F43F43A0F84030002070478F
:10596800B0F8403023F474535B045B0CA0F840306B
:10597800002070470020704784B038B505AC84E833
:105988000E000123A0F840300024A0F84040A0F801
:105998004440A0F85040FFF7DBFF2046BDE8384000
:1059A80004B0704710B4CB78032B0FD8DFE803F0AE
:1059B800026D54600A7830F822309BB223F4EC432D
:1059C80023F0700343F4007320F822300A7830F88B
:1059D800223023F0F0031B051B0D134343F400434F
:1059E80043F0800320F822308B7A002B40F0AF8000
:1059F8004B78002B56D08A885208B0F850300C7873
:105A080003EBC40300EB43035200C3F800240A78F5
:105A180030F8223013F0400F0BD030F8223023F04A
:105A2800F0031B051B0D43F4004343F0C00320F8AB
:105A380022300A7830F822309BB223F4E04323F076
:105A4800400383F0200343F4004343F0800320F82D
:105A58002230002010BC70470A7830F822309BB200
:105A680023F4EC4323F070039BB220F82230ADE717
:105A78000A7830F822309BB223F4EC4323F0700309
:105A880043F4C06320F82230A0E70A7830F82230C7
:105A98009BB223F4EC4323F0700343F4806320F8B3
:105AA800223093E78A885208B0F850300C7803EB1C
:105AB800C403043300EB43035200C3F80024B0F8D6
:105AC80050300A7803EBC203063300EB43030C693A
