:020000040800F2
:100000000050002015B80008A9640008AB6400087F
:10001000AD640008AF640008B1640008000000008F
:10002000000000000000000000000000B3640008B1
:10003000B564000800000000B7640008B964000857
:100040005DB800085DB800085DB80008D16400081C
:100050005DB800085DB800085DB80008F1640008EC
:100060005DB800085DB800085DB800085DB800081C
:100070005DB800085DB800085DB800085DB800080C
:100080005DB800085DB800085DB800085DB80008FC
:10009000C16400085DB800085DB800085DB80008DC
:1000A0005DB800085DB800085DB800085DB80008DC
:1000B0005DB80008016500085DB800085DB800087B
:1000C0005DB800085DB800085DB800085DB80008BC
:1000D0005DB800085DB800085DB800085DB80008AC
:1000E0005DB80008E16400085DB800085DB800086C
:1000F0005DB800085DB800085DB800085DB800088C
:100100005DB800085DB800085DB800085DB800087B
:100110005DB800085DB800085DB800085DB800086B
:100120005DB800085DB800085DB800085DB800085B
:1001300000000000000000000000000000000000BF
:1001400000000000000000000000000000000000AF
:10015000000000000000000000000000000000009F
:10016000000000000000000000000000000000008F
:10017000000000000000000000000000000000007F
:10018000000000000000000000000000000000006F
:10019000000000000000000000000000000000005F
:1001A000000000000000000000000000000000004F
:1001B000000000000000000000000000000000003F
:1001C000000000000000000000000000000000002F
:1001D000000000000000000000000000000000001F
:0401E0005FF8E0F1F3
:1001E80010B5054C237833B9044B13B10448AFF369
:1001F80000800123237010BDB80300200000000018
:1002080054FA000808B5034B1BB103490348AFF380
:10021800008008BD00000000BC03002054FA00085C
:10022800034613F8012B002AFBD1181A013870472E
:1002380010F8012B11F8013B012A28BF9A42F7D088
:10024800D01A704781F0004102E000BF83F00043FC
:1002580030B54FEA41044FEA430594EA050F08BF59
:1002680090EA020F1FBF54EA000C55EA020C7FEA1D
:10027800645C7FEA655C00F0E2804FEA5454D4EB9A
:100288005555B8BF6D420CDD2C4480EA020281EA64
:10029800030382EA000083EA010180EA020281EA9C
:1002A8000303362D88BF30BD11F0004F4FEA0131EE
:1002B8004FF4801C4CEA113102D0404261EB4101FD
:1002C80013F0004F4FEA03334CEA133302D0524283
:1002D80063EB430394EA050F00F0A780A4F101043F
:1002E800D5F1200E0DDB02FA0EFC22FA05F2801879
:1002F80041F1000103FA0EF2801843FA05F359415F
:100308000EE0A5F120050EF1200E012A03FA0EFCDD
:1003180028BF4CF0020C43FA05F3C01851EBE37107
:1003280001F0004507D54FF0000EDCF1000C7EEB24
:1003380000006EEB0101B1F5801F1BD3B1F5001F62
:100348000CD349085FEA30004FEA3C0C04F1010481
:100358004FEA445212F5800F80F09A80BCF1004FAA
:1003680008BF5FEA500C50F1000041EB045141EA2C
:10037800050130BD5FEA4C0C404141EB010111F42D
:10038800801FA4F10104E9D191F0000F04BF0146D8
:100398000020B1FA81F308BF2033A3F10B03B3F1B6
:1003A80020020CDA0C3208DD02F1140CC2F10C0246
:1003B80001FA0CF021FA02F10CE002F11402D8BFA4
:1003C800C2F1200C01FA02F120FA0CFCDCBF41EA70
:1003D8000C019040E41AA2BF01EB0451294330BD3F
:1003E8006FEA04041F3C1CDA0C340EDC04F114041C
:1003F800C4F1200220FA04F001FA02F340EA0300F3
:1004080021FA04F345EA030130BDC4F10C04C4F138
:10041800200220FA02F001FA04F340EA0300294618
:1004280030BD21FA04F0294630BD94F0000F83F462
:10043800801306BF81F480110134013D4EE77FEA45
:10044800645C18BF7FEA655C29D094EA050F08BF91
:1004580090EA020F05D054EA000C04BF1946104672
:1004680030BD91EA030F1EBF0021002030BD5FEAB6
:10047800545C05D14000494128BF41F0004130BDDE
:1004880014F580043CBF01F5801130BD01F0004532
:1004980045F0FE4141F470014FF0000030BD7FEAA5
:1004A800645C1ABF194610467FEA655C1CBF0B46A0
:1004B800024650EA013406BF52EA033591EA030FB7
:1004C80041F4002130BD00BF90F0000F04BF0021AF
:1004D800704730B54FF4806404F132044FF00005E2
:1004E8004FF0000150E700BF90F0000F04BF00215B
:1004F800704730B54FF4806404F1320410F00045C1
:1005080048BF40424FF000013EE700BF42004FEABB
:10051800E2014FEA31014FEA02701FBF12F07F4338
:1005280093F07F4F81F06051704732F07F4208BFEF
:10053800704793F07F4F04BF41F40021704730B5F6
:100548004FF4607401F0004521F000411CE700BF42
:1005580050EA010208BF704730B54FF000050AE0C5
:1005680050EA010208BF704730B511F0004502D5C6
:10057800404261EB41014FF4806404F132045FEAC8
:10058800915C3FF4D8AE4FF003025FEADC0C18BF71
:1005980003325FEADC0C18BF033202EBDC02C2F163
:1005A800200300FA03FC20FA02F001FA03FE40EAF5
:1005B8000E0021FA02F11444BDE600BF70B54FF0F9
:1005C800FF0C4CF4E06C1CEA11541DBF1CEA1355D7
:1005D80094EA0C0F95EA0C0F00F0DEF82C4481EA3F
:1005E800030621EA4C5123EA4C5350EA013518BF5F
:1005F80052EA033541F4801143F4801338D0A0FB4C
:1006080002CE4FF00005E1FB02E506F00042E0FBF8
:1006180003E54FF00006E1FB03569CF0000F18BFFE
:100628004EF0010EA4F1FF04B6F5007F64F54074A6
:1006380004D25FEA4E0E6D4146EB060642EAC62139
:1006480041EA55514FEAC52040EA5E504FEACE2EA6
:10065800B4F1FD0C88BFBCF5E06F1ED8BEF1004FA9
:1006680008BF5FEA500E50F1000041EB045170BD25
:1006780006F0004646EA010140EA020081EA030169
:10068800B4EB5C04C2BFD4EB0C0541EA045170BD65
:1006980041F480114FF0000E013C00F3AB8014F1DF
:1006A800360FDEBF002001F0004170BDC4F1000428
:1006B800203C35DA0C341BDC04F11404C4F12005A9
:1006C80000FA05F320FA04F001FA05F240EA020004
:1006D80001F0004221F0004110EBD37021FA04F63A
:1006E80042EB06015EEA430E08BF20EAD37070BDF4
:1006F800C4F10C04C4F1200500FA04F320FA05F053
:1007080001FA04F240EA020001F0004110EBD37054
:1007180041F100015EEA430E08BF20EAD37070BDC4
:10072800C4F1200500FA05F24EEA020E20FA04F39D
:1007380001FA05F243EA020321FA04F001F000414C
:1007480021FA04F220EA020000EBD3705EEA430EBD
:1007580008BF20EAD37070BD94F0000F0FD101F0EC
:100768000046400041EB010111F4801F08BF013C25
:10077800F7D041EA060195F0000F18BF704703F063
:100788000046520043EB030313F4801F08BF013DEA
:10079800F7D043EA0603704794EA0C0F0CEA1355A6
:1007A80018BF95EA0C0F0CD050EA410618BF52EA60
:1007B8004306D1D181EA030101F000414FF0000066
:1007C80070BD50EA410606BF1046194652EA430674
:1007D80019D094EA0C0F02D150EA013613D195EAE8
:1007E8000C0F05D152EA03361CBF104619460AD130
:1007F80081EA030101F0004141F0FE4141F470013A
:100808004FF0000070BD41F0FE4141F4780170BD29
:1008180070B54FF0FF0C4CF4E06C1CEA11541DBF8E
:100828001CEA135594EA0C0F95EA0C0F00F0A7F890
:10083800A4EB050481EA030E52EA03354FEA0131BD
:1008480000F088804FEA03334FF0805545EA1313D0
:1008580043EA12634FEA022245EA111545EA106598
:100868004FEA00260EF000419D4208BF964244F12F
:10087800FD0404F5407402D25B084FEA3202B61A4E
:1008880065EB03055B084FEA32024FF480104FF422
:10089800002CB6EB020E75EB030E22BFB61A754696
:1008A80040EA0C005B084FEA3202B6EB020E75EB29
:1008B800030E22BFB61A754640EA5C005B084FEA91
:1008C8003202B6EB020E75EB030E22BFB61A75465E
:1008D80040EA9C005B084FEA3202B6EB020E75EB69
:1008E800030E22BFB61A754640EADC0055EA060E2A
:1008F80018D04FEA051545EA16754FEA06164FEA6D
:10090800C30343EA52734FEAC2025FEA1C1CC0D118
:1009180011F4801F0BD141EA00014FF000004FF0A5
:10092800004CB6E711F4801F04BF01430020B4F166
:10093800FD0C88BFBCF5E06F3FF6AFAEB5EB030C1E
:1009480004BFB6EB020C5FEA500C50F1000041EB1B
:10095800045170BD0EF0004E4EEA113114EB5C04E8
:10096800C2BFD4EB0C0541EA045170BD41F48011BB
:100978004FF0000E013C90E645EA060E8DE60CEAC3
:10098800135594EA0C0F08BF95EA0C0F3FF43BAFE0
:1009980094EA0C0F0AD150EA01347FF434AF95EA97
:1009A8000C0F7FF425AF104619462CE795EA0C0F7B
:1009B80006D152EA03353FF4FDAE1046194622E748
:1009C80050EA410618BF52EA43067FF4C5AE50EA22
:1009D80041047FF40DAF52EA43057FF4EBAE12E712
:1009E8004FF0FF3C06E000BF4FF0010C02E000BFF3
:1009F8004FF0010C4DF804CD4FEA410C7FEA6C5CD6
:100A08004FEA430C18BF7FEA6C5C1BD001B050EA78
:100A1800410C0CBF52EA430C91EA030F02BF90EA63
:100A2800020F0020704710F1000F91EA030F58BF22
:100A3800994208BF90422CBFD8176FEAE37040F084
:100A4800010070474FEA410C7FEA6C5C02D150EA22
:100A5800013C07D14FEA430C7FEA6C5CD6D152EADD
:100A6800033CD3D05DF8040B704700BF84461046A2
:100A780062468C461946634600E000BF01B5FFF7A1
:100A8800B7FF002848BF10F1000F01BD4DF808ED71
:100A9800FFF7F4FF0CBF012000205DF808FB00BF42
:100AA8004DF808EDFFF7EAFF34BF012000205DF89C
:100AB80008FB00BF4DF808EDFFF7E0FF94BF0120E9
:100AC80000205DF808FB00BF4DF808EDFFF7CEFFEA
:100AD80094BF012000205DF808FB00BF4DF808ED29
:100AE800FFF7C4FF34BF012000205DF808FB00BFFA
:100AF8004FEA410C7FEA6C5C02D150EA013C0AD112
:100B08004FEA430C7FEA6C5C02D152EA033C02D103
:100B18004FF0000070474FF0010070474FEA410264
:100B280012F5001215D211D56FF47873B3EB625237
:100B380012D94FEAC12343F0004343EA505311F05E
:100B4800004F23FA02F018BF404270474FF00000F0
:100B5800704750EA013005D111F0004008BF6FF02E
:100B6800004070474FF00000704700BF4A0011D2A4
:100B780012F5001211D20DD56FF47873B3EB6252EF
:100B88000ED44FEAC12343F0004343EA505323FAFB
:100B980002F070474FF00000704750EA013002D170
:100BA8004FF0FF3070474FF0000070474FEA4102A6
:100BB800B2F1E04324BFB3F5001CDCF1FE5C0DD9B3
:100BC80001F0004C4FEAC0024CEA5070B2F1004FFD
:100BD80040EB830008BF20F00100704711F0804F00
:100BE80021D113F13872BCBF01F00040704741F4C5
:100BF80080114FEA5252C2F11802C2F1200C10FAC9
:100C08000CF320FA02F018BF40F001004FEAC123AC
:100C18004FEAD32303FA0CFC40EA0C0023FA02F350
:100C28004FEA4303CCE77FEA625307D150EA013326
:100C38001EBF4FF0FE4040F44000704701F00040F6
:100C480040F0FE4040F40000704700BF80F00040D4
:100C580002E000BF81F0004142001FBF5FEA41038C
:100C680092EA030F7FEA226C7FEA236C6AD04FEA8C
:100C78001262D2EB1363C1BFD218414048404140D1
:100C8800B8BF5B42192B88BF704710F0004F40F483
:100C9800000020F07F4018BF404211F0004F41F49F
:100CA800000121F07F4118BF494292EA030F3FD06B
:100CB800A2F1010241FA03FC10EB0C00C3F120037E
:100CC80001FA03F100F0004302D5494260EB40000D
:100CD800B0F5000F13D3B0F1807F06D340084FEA78
:100CE800310102F10102FE2A51D2B1F1004F40EB6D
:100CF800C25008BF20F0010040EA030070474900D5
:100D080040EB000010F4000FA2F10102EDD1B0FA9F
:100D180080FCACF1080CB2EB0C0200FA0CF0AABF94
:100D280000EBC25052421843BCBFD0401843704732
:100D380092F0000F81F4000106BF80F40000013238
:100D4800013BB5E74FEA41037FEA226C18BF7FEA0F
:100D5800236C21D092EA030F04D092F0000F08BF51
:100D68000846704790EA010F1CBF0020704712F038
:100D78007F4F04D1400028BF40F00040704712F177
:100D880000723CBF00F50000704700F0004343F0DC
:100D9800FE4040F4000070477FEA226216BF084612
:100DA8007FEA23630146420206BF5FEA412390EAD5
:100DB800010F40F4800070474FF0000304E000BFCB
:100DC80010F0004348BF40425FEA000C08BF70477C
:100DD80043F0964301464FF000001CE050EA010240
:100DE80008BF70474FF000030AE000BF50EA010255
:100DF80008BF704711F0004302D5404261EB410142
:100E08005FEA010C02BF84460146002043F0B64366
:100E180008BFA3F18053A3F50003BCFA8CF2083A8B
:100E2800A3EBC25310DB01FA02FC634400FA02FC94
:100E3800C2F12002BCF1004F20FA02F243EB02009B
:100E480008BF20F00100704702F1200201FA02FCFD
:100E5800C2F1200250EA4C0021FA02F243EB0200F0
:100E680008BF20EADC7070474FF0FF0C1CEAD05234
:100E78001EBF1CEAD15392EA0C0F93EA0C0F6FD0F5
:100E88001A4480EA010C400218BF5FEA41211ED0D3
:100E98004FF0006343EA501043EA5111A0FB0131BF
:100EA8000CF00040B1F5000F3EBF490041EAD37194
:100EB8005B0040EA010062F17F02FD2A1DD8B3F110
:100EC800004F40EBC25008BF20F00100704790F07F
:100ED800000F0CF0004C08BF49024CEA502040EAD1
:100EE80051207F3AC2BFD2F1FF0340EAC250704797
:100EF80040F400004FF00003013A5DDC12F1190FD5
:100F0800DCBF00F000407047C2F10002410021FA46
:100F180002F1C2F1200200FA02FC5FEA310040F15E
:100F2800000053EA4C0308BF20EADC70704792F0D7
:100F3800000F00F0004C02BF400010F4000F013A0F
:100F4800F9D040EA0C0093F0000F01F0004C02BF0A
:100F5800490011F4000F013BF9D041EA0C018FE779
:100F68000CEAD15392EA0C0F18BF93EA0C0F0AD07F
:100F780030F0004C18BF31F0004CD8D180EA0100A5
:100F880000F00040704790F0000F17BF90F0004F3E
:100F9800084691F0000F91F0004F14D092EA0C0F20
:100FA80001D142020FD193EA0C0F03D14B0218BFB3
:100FB800084608D180EA010000F0004040F0FE40F9
:100FC80040F40000704740F0FE4040F44000704795
:100FD8004FF0FF0C1CEAD0521EBF1CEAD15392EA14
:100FE8000C0F93EA0C0F69D0A2EB030280EA010C04
:100FF80049024FEA402037D04FF0805343EA11119D
:1010080043EA10130CF000408B4238BF5B0042F1FA
:101018007D024FF4000C8B4224BF5B1A40EA0C009F
:10102800B3EB510F24BFA3EB510340EA5C00B3EBD1
:10103800910F24BFA3EB910340EA9C00B3EBD10FBF
:1010480024BFA3EBD10340EADC001B0118BF5FEA11
:101058001C1CE0D1FD2A3FF650AF8B4240EBC2503A
:1010680008BF20F0010070470CF0004C4CEA5020FB
:101078007F32C2BFD2F1FF0340EAC250704740F44A
:1010880000004FF00003013A37E792F0000F00F03C
:10109800004C02BF400010F4000F013AF9D040EABA
:1010A8000C0093F0000F01F0004C02BF490011F44E
:1010B800000F013BF9D041EA0C0195E70CEAD15346
:1010C80092EA0C0F08D142027FF47DAF93EA0C0F2D
:1010D8007FF470AF084676E793EA0C0F04D14B0211
:1010E8003FF44CAF08466EE730F0004C18BF31F0C3
:1010F800004CCAD130F000427FF45CAF31F00043BD
:101108007FF43CAF5FE700BF4FF0FF3C06E000BF55
:101118004FF0010C02E000BF4FF0010C4DF804CD78
:101128004FEA40024FEA41037FEA226C18BF7FEA88
:10113800236C11D001B052EA530C18BF90EA010F8A
:1011480058BFB2EB030088BFC81738BF6FEAE17019
:1011580018BF40F0010070477FEA226C02D15FEAB5
:10116800402C05D17FEA236CE4D15FEA412CE1D021
:101178005DF8040B704700BF844608466146FFE7E8
:101188000FB5FFF7C9FF002848BF10F1000F0FBDCA
:101198004DF808EDFFF7F4FF0CBF012000205DF8C3
:1011A80008FB00BF4DF808EDFFF7EAFF34BF012048
:1011B80000205DF808FB00BF4DF808EDFFF7E0FFE1
:1011C80094BF012000205DF808FB00BF4DF808ED32
:1011D800FFF7D2FF94BF012000205DF808FB00BF95
:1011E8004DF808EDFFF7C8FF34BF012000205DF877
:1011F80008FB00BF42000ED2B2F1FE4F0BD34FF0F6
:101208009E03B3EB126209D44FEA002343F0004374
:1012180023FA02F070474FF00000704712F1610F97
:1012280001D1420202D14FF0FF3070474FF0000069
:10123800704700BF7BB972B90029BEBF00204FF0CC
:10124800004106E008BF00281CBF6FF000414FF0C6
:10125800FF3000F0A7B9ADF1080C6DE904CE002904
:1012680009DB002B1ADB00F035F8DDF804E0DDE9D6
:10127800022304B07047404261EB4101002B1BDBA5
:1012880000F028F8DDF804E0DDE9022304B040426C
:1012980061EB4101524263EB43037047524263EBF7
:1012A800430300F017F8DDF804E0DDE9022304B099
:1012B800404261EB41017047524263EB430300F047
:1012C80009F8DDF804E0DDE9022304B0524263EBDB
:1012D800430370472DE9F0478C460446089E002BCF
:1012E80040F086808A42154648D9B2FA82F24AB15D
:1012F800C2F1200701FA02F320FA07F7954047EAFE
:10130800030C94404FEA154EBCFBFEF71FFA85F814
:101318000EFB17C307FB08F9210C41EA0343994563
:1013280009D9EB1807F1FF3180F0E180994540F2C7
:10133800DE80023F2B44A3EB0903B3FBFEF00EFB58
:10134800103300FB08F1A4B244EA0344A14209D9CE
:101358002C1900F1FF3380F0C880A14240F2C5800B
:1013680002382C4440EA07400027641A1EB10023C3
:10137800D440C6E900433946BDE8F087002A54D076
:10138800B2FA82F2002A40F0B4800127491B4FEAE2
:1013980015481FFA85F9B1FBF8FE08FB1E1109FB79
:1013A8000EF04FEA144C4CEA0143984207D9EB1867
:1013B8000EF1FF3102D2984200F2EB808E461B1AE2
:1013C800B3FBF8F008FB103309FB00F9A4B244EAB8
:1013D8000344A14507D92C1900F1FF3302D2A145D6
:1013E80000F2DB801846A4EB090440EA0E40BDE792
:1013F8008B4208D9002E75D00027C6E9000138466F
:101408003946BDE8F087B3FA83F77FB98B4202D338
:10141800824200F2BC80841A61EB030301209C46DF
:10142800002EA8D0C6E9004CA5E7FFDEC7F12005CD
:10143800BB4022FA05FC4CEA030C21FA05F44FEAFA
:101448001C4EB4FBFEF91FFA8CF80EFB194420FA67
:1014580005F3B94009FB08FA19430B0C43EA0444A5
:10146800A24502FA07F200FA07F30BD91CEB0404B1
:1014780009F1FF3080F08980A24540F28680A9F109
:1014880002096444A4EB0A04B4FBFEF00EFB10440A
:1014980000FB08FA89B241EA0444A24508D91CEBCA
:1014A800040400F1FF316CD2A2456AD902386444C1
:1014B80040EA0940A0FB0289A4EB0A044C454146D6
:1014C800CE4655D352D0002E6AD05A1A64EB0E0479
:1014D80004FA05F522FA07F3FC401D43C6E9005457
:1014E800002748E73746304645E718463AE70F46AB
:1014F80021E79540C2F1200321FA03F04FEA15488D
:10150800B0FBF8F71FFA85F908FB170E24FA03FC5D
:10151800914007FB09FA4CEA0101080C40EA0E4029
:10152800824504FA02F407D9281807F1FF332AD2B2
:10153800824528D9023F2844A0EB0A00B0FBF8FCFA
:1015480008FB1C000CFB09F389B241EA00418B42FD
:1015580008D969180CF1FF3011D28B420FD9ACF1C0
:10156800020C2944C91A4CEA074714E74345AAD292
:10157800B8EB020169EB0C0201389646A3E78446F2
:10158800F0E7084694E71F46D6E781467AE73846EB
:1015980046E7AEF1020E2B4411E702382C4422E74D
:1015A8003746E8E6704700BF4B2901D00020704756
:1015B80008B532B101224021054808F01AFA012085
:1015C80008BD00224021024808F013FA0120F7E77D
:1015D8000008014030B583B0182919D014461D46BB
:1015E80019291DD0172902D0002003B030BD6CB1D5
:1015F80015F8013B8DF80730013CE4B26423012261
:101608000DF107010A4806F0A2FEF0E70120ECE719
:1016180001221021074808F0ECF900BF0120E4E797
:1016280000BF00221021034808F0E3F90120DCE79D
:101638006C0E00200008014008B502480BF0C2F902
:1016480008BD00BFA4FA000800B597B000230E93A8
:1016580011930793089309930A930B9301930293A9
:1016680003930493059306930D230C934FF4803250
:101678000D920123109312930F9302231393149244
:101688004FF4E01315930CA807F04AFB60BB0F2337
:10169800079302210891002309934FF480620A926C
:1016A8000B9307A807F064FD08BB112301930023DF
:1016B80006934FF48073029301A807F04DFEC8B952
:1016C80007F024FE0D4BA3FB0030800908F0FCF95D
:1016D800042008F00FFA002211464FF0FF3008F0FE
:1016E800B3F917B05DF804FBFFF7A6FFCFE7FFF7E4
:1016F800A3FFDAE7FFF7A0FFE2E700BFD34D6210D0
:1017080070B507F0BFFAFFF79FFF00F093F804F0F9
:1017180051FC3748374BC36100F020FA01F05AFA00
:1017280004F0B0FC344C01224FF40041204608F08C
:1017380060F900F015F9314E314B324A32493046E2
:1017480009F0ACF930460AF00AF8002130460AF0F0
:101758000DF800224021204608F04BF90A2007F036
:10176800B5FA01224021204608F043F900F00AFBAF
:101778004FF4FA7007F0AAFA01F060FC01F0DEF805
:1017880004F0B0FA04F00EFB00F0CAFB07F098FA78
:10179800054607F095FA0446304609F063F904F067
:1017A8005DFC09E007F08CFA04460BE0134809F0E9
:1017B80066F907F085FA054607F082FA001BB0F5CE
:1017C8007A7FEFD800F02EFC094800F081FA01F08A
:1017D800A7FA01F0F3FE01F06DF904F049FA0B489D
:1017E80006F0A4FE07F06CFA401B6428E4D9DDE794
:1017F800600A00200054004000080140400B00200F
:10180800B1150008DD150008C40C0108C40E00203D
:1018180008B50138012806D80B461146184604F0C9
:1018280029FEC0B208BD0AF017F8092303604FF07B
:10183800FF30F7E72DE9F04186B0002402940394C5
:1018480004940594184B9A6942F004029A619B69C2
:1018580003F004030193019B144D01224FF400414E
:10186800284608F0C6F84FF4004302930126039671
:1018780004944FF00208CDF8148002A9284607F016
:10188800BDFF5027029703960494CDF8148002A94F
:10189800284607F0B3FF32463946284608F0A9F82B
:1018A80006B0BDE8F08100BF00100240000801400A
:1018B800642804D800EB80004300014A5363704752
:1018C800002C014008B50A20FFF7F2FF08BD000010
:1018D80008B5024B5878FFF7EBFF08BD340C002021
:1018E8000268094B9A4200D0704782B003F56443FE
:1018F8009A6942F400629A619B6903F40063019358
:10190800019B02B0704700BF002C014000B587B0B2
:101918000023029303930493059302680E4B9A42A3
:1019280002D007B05DF804FB03F564439A6942F0FE
:1019380004029A619B6903F004030193019B4FF42D
:1019480080730293022303930123059302A903489A
:1019580007F054FFE5E700BF002C014000080140F4
:1019680010B51948194B03601123436000238360A5
:101978004FF47A72C26003614361836107F046F8ED
:10198800C8B9134960230B604FF496734B6000226B
:101998008A60CA600A614A618A610B4807F088F860
:1019A80060B9094C2046FFF7B1FF0021204607F037
:1019B800FBF830B910BDFFF73FFEE2E7FFF73CFE4A
:1019C800EFE7FFF739FEF5E7DC0B0020002C0140BC
:1019D800C00B0020024B186059609A60704700BF26
:1019E8001C0C00202DE9F8430546294CD4F8049036
:1019F80021684846FFF730F901464846FFF7E8FAFC
:101A080006466061D4F8108041462846FFF722F95F
:101A180001463046FFF728FA01464046FFF71CF911
:101A28000546E0603046FEF771FD02460B46002091
:101A38001849FEF70BFC06460F464846FEF766FDBA
:101A480002460B4630463946FEF7B8FD06460F46B5
:101A580029464046FFF7FEF820F00040FEF756FD05
:101A680080468946A068FEF751FD02460B4640466F
:101A78004946FEF7A3FD02460B4630463946FEF7B7
:101A8800E7FBFFF793F8606025612846BDE8F88317
:101A98001C0C00200000F03F08B541EA801040F21D
:101AA800FC73984201D840F2FD70FFF785F9FEF704
:101AB8002DFD07A3D3E90023FEF7C8FB06A3D3E94E
:101AC8000023FEF7A5FEFFF771F808BDAFF300800D
:101AD8000000000000F49F4087F21ACA6BDEC04085
:101AE80008B541EA8010FFF767F9FEF70FFD0246D7
:101AF8000B4609A1D1E90001FEF7A8FB08A3D3E929
:101B08000023FEF785FE0022074BFEF79FFBFFF739
:101B18004DF808BDAFF300800000000000CCAC40D9
:101B2800BCBBBBBBBB3B2240008056400000000052
:101B380008B5FEF7EBFC06A3D3E90023FEF73EFD4C
:101B48000022054BFEF764FEFFF730F808BD00BF22
:101B58009A9999999999E93F00007E4010B582B009
:101B68000446C369164A934213D0164A93421BD0BF
:101B78000023C4F8013000232361A3614FF07E5095
:101B8800114A0146FFF726FF07F09AF8A06002B055
:101B980010BD04F07DF96423009301230022BE21C7
:101BA8000A4806F0F3F8E3E704F090F96423009399
:101BB80001230022BE21064806F0E8F8D8E700BF56
:101BC80000540040005800400AD7233CC40D0020B0
:101BD800180E0020F0B585B00446C369384A934210
:101BE80004D0384A934236D005B0F0BD364E64234F
:101BF800009301230022BE21304606F0C7F8631C7B
:101C08004FF47A7702970125019500932B4680229D
:101C1800BE21304606F07CF902970195A31C00937B
:101C28002B468122BE21304606F072F902970195B3
:101C3800E31C00932B468222BE21304606F068F949
:101C480002970195043400942B468322BE21304626
:101C580006F05EF9C8E76423009301230022BE2141
:101C6800194806F093F8631C184E4FF47A770297D8
:101C78000125019500932B468022BE21304606F0AF
:101C880047F902970195A31C00932B468122BE2198
:101C9800304606F03DF902970195E31C00932B4668
:101CA8008222BE21304606F033F9029701950434AA
:101CB80000942B468322BE21304606F029F993E78B
:101CC8000054004000580040C40D0020180E0020A9
:101CD800F8B5044606F0F4FFA368C01A642800D8D3
:101CE800F8BD06F0EDFF2046FFF774FF6178A07895
:101CF800FFF7D2FE0546E068FEF708FC06460F46E9
:101D08002846FEF703FC1AA3D3E90023FEF756FC86
:101D180019A3D3E90023FEF77BFD02460B463046A4
:101D28003946FEF795FAFEF741FFE0602378013364
:101D3800DBB223700A2B12D0E1782079FFF7D0FEAE
:101D4800FFF750FEFFF74EFEFFF74CFEA06120693B
:101D5800FFF7EEFE606106F0B3FFA060C0E7084938
:101D6800FFF736F920610023E36000232370E3E7DF
:101D7800A4703D0AD7289040000000403333C33F89
:101D88000000204110B582B0084A1378084C516809
:101D9800019152780092DB0800221146204608F093
:101DA800ABFD204608F06BFE02B010BD4CFB0008EE
:101DB800400B0020F8B5184B184C0FCB84E80F00E7
:101DC80007F0EAFE164B00241C60164A9A600122AE
:101DD800DA60BCB1144B134A1A6000242C2C17D8B3
:101DE80024F00305114F104E31687A59002321441D
:101DF800022007F029FFEA593368E3589A4209D1CB
:101E08000434EBE70A49064807F090FF0134E0E79D
:101E180007F0DCFEF8BD00BF6C0C0020440C00206D
:101E2800D803002000F00108D4030020340C00205F
:101E3800E803002070B5174E3446174D0FCD0FC478
:101E48000FCD0FC495E8070084E80700B26A134B6A
:101E58009A4200D170BD344620220021304609F054
:101E680037FE322373700123B370F3704FF4967307
:101E7800F38040F2D243738140F2BC43B381074BF5
:101E8800B362074B20341868596803C4FFF792FF00
:101E9800E0E700BF340C002000F00108AB55FF005C
:101EA800A40D002070B51B4C0621204607F09EFCAF
:101EB80005040521204607F099FC2843164D686063
:101EC8000821204607F092FC06040721204607F067
:101ED8008DFC3043A8600A21204607F087FC0604E1
:101EE8000921204607F082FC3043E86002212046A1
:101EF80007F07CFC4BF6BB33984200D170BD074B12
:101F08000FCB85E80F004BF6BB320221014807F0E2
:101F180065FCF3E7B00D00206C0C0020440C002099
:101F280008B5FFF787FFFFF7BDFF0B4B9B7883B121
:101F3800FFF7C8FC084B5878FFF7BAFC00F014F913
:101F480000F06EFC03F0CEFE06F0BAFE034B1860FC
:101F580008BDFFF7BDFCEDE7340C00206C0C002039
:101F6800064B01215970064A1289C2EB02129000F1
:101F78005860597200221A729A727047600C0020D9
:101F8800340C0020034B00225A705A605A721A729D
:101F9800DA727047600C002008B5164B5A785B68F7
:101FA800012A08BF002B07D0012A11D183B1114B98
:101FB80000221A729A7214E00E4B00225A70DA72DA
:101FC8005A7203F03FFE06F07BFE0B4B186008E0E8
:101FD80006F076FE084B1B68C01A4EF6602398423E
:101FE80000D808BD03F034FE06F06AFE024B186004
:101FF800F7E700BF600C0020800C002000220BE0F7
:10200800D31C9B0003F1804303F5D843044931F8FE
:1020180012101960013292B2072AF1D9704700BF35
:102028006C0C002008B506F04BFE304B1B68C01A3C
:10203800B0F57A7F31D32E4A13780133DBB21370AF
:102048001E2B02D9134600221A70284AD36801337E
:10205800D360284A934201D9244BDA60264B5B7A35
:102068001BB1224A536801335360234B9B7A1BB13F
:102078001E4A9368013393601F4B5B783BB11E4A3D
:102088005368013B536013B9134600225A6006F0A7
:1020980017FE164B1860FFF7B1FFFFF77DFF03F03F
:1020A800E7FD164B1B8873B9154B1B79012B0BD019
:1020B800022B0FD00E4B1B780E2B11D9114808F0AC
:1020C800D1FC00F013FC08BD0E4808F0CBFC00F072
:1020D800F7F9F8E70B4808F0C5FC00F007FCF2E751
:1020E800084808F0BFFC00F0EBF9ECE76C0C0020A6
:1020F8007C0C0020001EF8BB600C0020EC030020C4
:10210800340C0020400B002070B582B0154C012122
:10211800204609F099F828250095802318220021E7
:10212800204608F034FC802324220021204609F0B0
:1021380055F8012600962B4618222021204609F042
:1021480041F800962B4618224021204609F03AF81B
:1021580000962B4618226021204609F033F802B079
:1021680070BD00BF400B002008B5044808F07AFC99
:1021780006F0A6FD024B586008BD00BF400B0020CA
:10218800840C002030B583B00546134C1349204613
:1021980008F07CFF124B21220921204608F038FF65
:1021A8006DB1104A13785168019152780092DB089A
:1021B80021220021204608F09FFB03B030BD0A4AC7
:1021C80013785168019152780092DB08212200218E
:1021D800014808F091FBF0E7400B0020A47C0108BF
:1021E8002C020108DCFB000854FB000830B583B062
:1021F8000546134C1349204608F048FF124B21228C
:102208002D21204608F004FF6DB1104A137851685B
:10221800019152780092DB0821222021204608F003
:102228006BFB03B030BD0A4A1378516801915278AC
:102238000092DB0821222021014808F05DFBF0E72D
:10224800400B0020A47C0108340201081401010895
:102258008C00010830B583B00546154C1549204659
:1022680008F014FF144B21224B21204608F0D0FE21
:10227800124B1B782B420DD0114A137851680191EB
:1022880052780092DB0826224421204608F034FBCD
:1022980003B030BD0B4A137851680191527800920F
:1022A800DB0826224421024808F026FBF0E700BF9D
:1022B800400B0020A47C0108B0010108840C002018
:1022C800FCFA0008ACFA000830B583B00546214C8A
:1022D8002149204608F0DAFE204B212269212046B8
:1022E80008F096FE0DB30021204608F0ADFF1C490A
:1022F800204608F0CBFE1B4D6A683B321A4BA3FB05
:1023080002325209194968460AF084FB6B463622A4
:102318006821204608F07CFE0121204608F094FF41
:102328006B68ABB90022EA7212E00A4C10492046E9
:1023380008F0ACFE0021204608F086FF0D4B36223F
:102348006621204608F064FE0121204608F07CFF43
:1023580003B030BD400B0020A47C01089C0101089B
:1023680030650108600C002089888888A40101086C
:102378003C5F0108AC010108F0B585B005460C4684
:102388000846FEF71DFD2946FEF70CFF18B120464A
:10239800FEF712FD05463E492846FEF765FD05464F
:1023A8002046FEF709FD01462846FEF711FEFEF716
:1023B80021FFC0B2C0F16400FEF796F821F0004397
:1023C8001946FEF7D3FBC4B267083249324808F011
:1023D8005DFEA4F14703DBB21D2B1AD9A4F11F033C
:1023E800DBB2272B3FD9A4F10B03DBB2132B41D966
:1023F8000A2C14D82949284808F048FE284B5B784D
:10240800052B3ED9274B15221121234808F000FE41
:1024180005E0254B152211211F4808F0F9FD1E4D36
:10242800224B0A220721284608F0F2FD0A260096C8
:10243800362302222B21284608F0A9FA22461C49F5
:1024480002A80AF0E7FA02AB32466221284608F0F1
:10245800DFFD062300933B4604222D21284608F081
:1024680072FA05B0F0BD134B152211210A4808F085
:10247800CFFDD4E7104B15221121074808F0C8FDFD
:10248800CDE70E4B15221121034808F0C1FDC6E720
:102498000000C842C4280108400B00204821010858
:1024A800840C0020EC010108B40101081C02010899
:1024B80024020108C8010108DC010108040201081E
:1024C80010B506F0FDFB174B5B68C01AC82810D979
:1024D800144A1378DB43137053780133DBB253701B
:1024E8000A2B02D9134600225A7006F0E9FB0D4B5D
:1024F80058600D4808F0B6FA0C4C207AFFF742FEF7
:10250800607AFFF773FEA07AFFF7A4FEE07AFFF780
:10251800DBFEFFF7F9FD064BD988064B1869FFF774
:102528002BFF10BD840C0020400B0020600C002005
:10253800340C0020600A002010B586B0214B93F9B6
:10254800073013F0010F33D01E4A92F9063092F982
:1025580005201D4903A80AF05DFA1C4C1C492046B9
:1025680008F094FD0021204608F06EFE03AB0E2211
:102578000121204608F04CFD0121204608F064FEA8
:102588001449204608F082FD0E4AB2F90030009343
:1025980092F9023092F903200F4903A80AF03AFA97
:1025A80003AB1B220721204608F032FD06B010BD00
:1025B800044A92F9063092F90520084903A80AF05E
:1025C80029FACAE7A40D002038020108400B0020B0
:1025D800207601082C370108580201084802010832
:1025E80030B583B00546134C1349204608F04EFD1C
:1025F800124B28220221204608F00AFD002120461D
:1026080008F022FE2A460E4968460AF003FA6B468D
:1026180028221921204608F0FBFC0121204608F059
:1026280013FE084B28223721204608F0F1FC03B09E
:1026380030BD00BF400B002048210108C00201083E
:10264800C8020108D002010830B583B00546134C12
:102658001349204608F01AFD124B32220221204667
:1026680008F0D6FC0021204608F0EEFD2A460E4967
:1026780068460AF0CFF96B4632221921204608F045
:10268800C7FC0121204608F0DFFD084B3222372124
:10269800204608F0BDFC03B030BD00BF400B002051
:1026A8004821010894020108C8020108D002010863
:1026B80030B583B00546134C1349204608F0E6FCB4
:1026C800124B3C220221204608F0A2FC00212046A1
:1026D80008F0BAFD2A460E4968460AF09BF96B468F
:1026E8003C221921204608F093FC0121204608F0DD
:1026F800ABFD084B3C223721204608F089FC03B08B
:1027080030BD00BF400B0020482101089C02010891
:10271800A4020108D002010870B584B006460D462F
:10272800FDF7F4FE28A3D3E90023FEF7D7F900B19B
:10273800274E28492846FEF753FD00B1254D264C63
:102748002649204608F0A2FC0021204608F07CFD1E
:10275800234B07224C21204608F05AFC0121204631
:1027680008F072FD30230A224821204608F036FD81
:102778001C4B13224521204608F04AFC3046FDF741
:10278800C5FE02460B46184901A80AF043F901ABF9
:1027980013225421204608F03BFC144B1C224521EF
:1027A800204608F035FC2846FDF7B0FE02460B46E9
:1027B8000F4901A80AF02EF901AB1C22542120462A
:1027C80008F026FC04B070BD33333333333F8F40F9
:1027D8009AF979440000A040400B002048210108E4
:1027E80068020108740201087802010884020108DD
:1027F8008802010810B5094C0121204608F024FD83
:1028080080231F220021204608F0E8FC40230022F4
:102818004121204608F0FDFC10BD00BF400B002000
:1028280010B5034C0023237006F04AFA606010BD0F
:102838008C0C002030B587B00546254C254920462C
:1028480008F024FC0021204608F0FEFC224B272239
:102858004921204608F0DCFB0121204608F0F4FC61
:1028680030232A224821204608F0B8FC1B4A137856
:102878005168019152780092DB082C2242212046AF
:1028880008F03AF81649204608F000FC2846FDF7FB
:102898003DFE02460B46134903A80AF0BBF803ABFA
:1028A80038225021204608F0B3FB0F49204608F093
:1028B800EDFBB0233C227321204608F043FB432361
:1028C80038227821204608F03DFB07B030BD00BF14
:1028D800400B002048210108AC02010864000108EF
:1028E800F0470108B80201086C7F010838B5FFF706
:1028F80081FFFFF721FE0E4D68680E4CA4FB0030E7
:10290800C00AFFF76DFEA868A4FB0030C00AFFF7F5
:102918009BFEE868A4FB0030C00AFFF7C9FE064C1E
:1029280061692069FFF7F8FEA069FFF783FF38BDEA
:102938006C0C0020C5B3A291600A00202DE9F0417B
:1029480086B0002404941D4B9A6942F010029A61E3
:102958009A6902F010020092009A9A6942F00802FD
:102968009A619B6903F008030193019B3C27029736
:102978004FF00108CDF80C8002250595104E02A9EC
:10298800304606F03BFF4FF4E0730293CDF80C801D
:10299800049405950B4D02A9284606F02FFF224600
:1029A8003946304607F025F822464FF4707128461C
:1029B80007F01FF806B0BDE8F08100BF0010024024
:1029C800000C01400010014008B528B10122042183
:1029D800044807F00EF808BD00220421014807F05A
:1029E80008F8F8E7000C014008B528B101220821D1
:1029F800044806F0FEFF08BD00220821014806F041
:102A0800F8FFF8E7000C014010B500283AD0264B33
:102A18001B78032B46D8DFE803F0020213240022B8
:102A28004021224806F0E5FF214C002220212046C3
:102A380006F0DFFF01221021204606F0DAFF31E020
:102A480000224021194806F0D4FF194C0122202108
:102A5800204606F0CEFF00221021204606F0C9FFCE
:102A680020E001224021114806F0C3FF104C00224B
:102A78002021204606F0BDFF00221021204606F046
:102A8800B8FF0FE000224021084806F0B2FF084CCA
:102A980000222021204606F0ACFF0022102120460B
:102AA80006F0A7FF10BD00BF340C00200010014045
:102AB800000C014010B5054C207AFFF785FF607ABD
:102AC800FFF792FFA07AFFF79FFF10BD600C002070
:102AD80082B00A4BDA6942F00202DA61DA6902F07E
:102AE80002020092009A9A6942F004029A619B6974
:102AF80003F004030193019B02B0704700100240E9
:102B080008B501221146072006F09EFF072006F0AF
:102B1800CFFF022201211D2006F096FF1D2006F09E
:102B2800C7FF08BD00B585B002230093064B01938B
:102B380001230293032303936946044806F05EFECB
:102B480005B05DF804FB00BF00002110000801403B
:102B580000B587B0062006F0ABFF0023029303936D
:102B680004930593009301931848194A0260472279
:102B78004260836040F2F312C26003618023836184
:102B880005F044FFC0B94FF48053029302A90F48DF
:102B980005F0AAFD98B900230093019369460B48F4
:102BA80006F01EF870B90948036800225A6205F059
:102BB8008FFD07B05DF804FBFEF73EFDE3E7FEF787
:102BC8003BFDE8E7FEF738FDEDE700BF980C002075
:102BD8000004004008B5084B00221A705A709A7019
:102BE800DA705A60FFF774FFFFF78AFFFFF79AFF62
:102BF800FFF7AEFF08BD00BFD80C0020054A537888
:102C08000133DBB25370312B02D9134600225A70BC
:102C1800704700BFD80C002010B502213A4806F0D2
:102C2800E1FEF0B9394A517891700023537092F956
:102C380003300133DBB258B2D070A1F11802D2B21E
:102C4800042A0FD8314BFF22DA7001221A700022B1
:102C58009A705A602D4B93F903303D2B40D03E2B90
:102C68004BD010BD294A12784728CCBF0024012434
:102C78000028A8BF012A23D114B30A1FD2B203F037
:102C88000103022A0ED86BB100EBD07040104FF050
:102C9800004222FA00F01D4B5A6802435A60002293
:102CA8009A70D7E70239C9B202298CBF00210121E5
:102CB800002BCFD00029CDD0144B00229A70C9E741
:102CC8001C2994BF00210121002A18BF00210029D6
:102CD800C0D00E4B00229A701A70DA705A60B9E7A9
:102CE8000A494A680A48026090B24881120C0A816F
:102CF800FF2AB4D1074A1080B1E7044B0022DA70EA
:102D08005A601A709A70ACE700080140D80C00208D
:102D1800940C0020E40C002008B5FFF77DFF08BDE7
:102D280008B59F4B1B8845F2AA42934200F09D804C
:102D380034D948F67602934200F040816DD949F2C1
:102D48006A4293427DD04CF63602934240F0898025
:102D5800944B0F221A70944B41F270721A80934B65
:102D68001888B0F5807F09D0B0F5007F06D0B0F59F
:102D7800407F03D0B0F5806F40F049818C4B1B78C1
:102D8800184480B2894B1880874BC8221A80FF21CB
:102D980000F01EFA824B00221A8062E040F6F6022A
:102DA800934276D027D942F6D602934200F0B580F6
:102DB80044F6B602934254D17C4B1888002864D15B
:102DC8007C4B41F270721A804FF48070774B1880F8
:102DD800042100F0FDF9774B1B8813B1013B754ABC
:102DE8001380744B1B8813B9704B00221A806C4BEC
:102DF80000221A8035E0FE2B33D16A4B01221A706B
:102E08006D4BDB7A1BB96C4A937ADB43937202F001
:102E1800FFFE634B00221A8023E047F28E029342A2
:102E28001FD1604B01221A70634BDB7A1BB9624ACF
:102E3800537ADB43537202F0EBFE594B00221A809F
:102E48000FE0584B01221A705B4AD37ADB43DBB29E
:102E5800D3723BB1FFF784F802F0DAFE504B002240
:102E68001A8008BDFFF78EF8F6E74E4B01221A705C
:102E7800514BDB7A1BB9504A137ADB43137202F0C9
:102E8800C7FE474B00221A80EBE7042100F0A0F9A7
:102E9800A1E7454B41F270721A80444B1B8883B1FD
:102EA800B3F5807F11D0B3F5007F0ED0B3F5407F26
:102EB8000BD0B3F5806F21D001213C4B188800F06E
:102EC80087F9374B00221A80CBE739490A78013A4B
:102ED800D2B20A70002AEFD10A4604211170A3F574
:102EE80080739BB2314A1380FF2BE5D813464FF409
:102EF80080621A802E4B03221A70DDE72C4A137861
:102F0800013BDBB21370002BD6D1134604221A7092
:102F1800264B4FF440721A80CEE7234B41F2707271
:102F28001A80224B1B8883B1B3F5807F11D0B3F58B
:102F3800007F0ED0B3F5407F0BD0B3F5806F1FD064
:102F480002211A4B188800F043F9154B00221A8009
:102F580087E717490A780132D2B20A70042AEFD9F2
:102F68000A460121117003F580739BB20F4A138042
:102F7800B3F5806FE4D913464FF480721A80DFE707
:102F88000B4A13780133DBB21370032BD8D91346DD
:102F980001221A70054B4FF480721A80D0E700BFE7
:102FA800E40C00207C0C0020F0030020EC0300203F
:102FB80000000020F2030020600C0020164B41F2B4
:102FC80070721A80154B00221A70154B1B88B3F5C6
:102FD800807F0DD0B3F5007F0AD0B3F5407F07D0CE
:102FE800B3F5806F04D003F47F430D4A138005E0E6
:102FF8000B4B00221A800B4B01221A700221084B3E
:10300800188800F0E5F8084B00221A8029E700210B
:1030180000F0DEF8BEE600BFF00300207C0C0020C4
:10302800EC03002000000020E40C00200160426056
:103038000123037200234372C372704770B586B0D0
:103048000024039404940594184B9A6942F01002E2
:103058009A619B6903F010030193019B4FF470532D
:1030680002930123049302A9114806F0C7FB114EED
:10307800114D224631462846FFF7D8FF22463146F1
:1030880005F10C00FFF7D2FF2246314605F1180082
:10309800FFF7CCFF2246314605F12400FFF7C6FFB3
:1030A80005F00EFE054B186006B070BD001002401A
:1030B8000010014059330008EC0C0020280D0020B6
:1030C80010B50446032810D8DFE800F03F02295560
:1030D8004FF480513C4806F085FCC0B904EB44032A
:1030E8009A003A4B134400225A726200224491001B
:1030F800364B0B445A7A1B7A9A425CD0334A0A44BC
:10310800D37A0133DBB2D372052B4AD010BD04EB5E
:1031180044039A002D4B134401225A72E5E74FF4F9
:103128000061294806F05EFC38B904EB44039A00B4
:10313800264B134400225A72D7E704EB44039A0043
:10314800224B134401225A72CFE74FF480611E4884
:1031580006F048FC38B904EB44039A001B4B1344AF
:1031680000225A72C1E704EB44039A00174B134438
:1031780001225A72B9E74FF40051134806F032FCA5
:1031880038B904EB44039A00104B134400225A72D6
:10319800ABE704EB44039A000C4B134401225A7228
:1031A800A3E70A496300181982000A44507A10728A
:1031B8000023D372AAE704EB4404A200034B134490
:1031C8000022DA72A2E700BF00100140EC0C0020D8
:1031D8002DE9F84305468846002428E0DFF8689181
:1031E800484607F03FFC5149484607F04FFF002189
:1031F800484608F029F84E4B642202FB0437023790
:103208003846FDF70DF8C0F116035B0803EB4303DE
:1032180059003B460C2201F0FE01484607F0F8FE33
:103228000121484608F010F871E00134E4B2132C8B
:1032380077D8404805F07AF92746642303FB04F35E
:103248003B4AD35AAB42F0D1642303FB0423DE6D1F
:10325800002EEAD0B5F5807F08D0B5F5007F05D0FF
:10326800B5F5407F02D0B5F5806FB7D1DFF8D890BB
:10327800484607F0F7FB2D49484607F007FF0021AD
:10328800484607F0E1FF2C4B0C221821484607F06E
:10329800BFFE0121484607F0D7FF254A642303FBF8
:1032A800072702373946002008F09AFA0346182201
:1032B8000A21484607F0ACFE3946012008F090FA8A
:1032C800034624220A21484607F0A2FE3946022076
:1032D80008F086FA034630220A21484607F098FE8D
:1032E8003946032008F07CFA03463C220A21484666
:1032F80007F08EFE114B1B78013303EB43039A0052
:103308000F4B02F0FC020121484607F081FE0D49EF
:103318000D4807F0BBFE41462046B0470B4B1D80C9
:1033280001E005F47F40BDE8F88300BF243E0108B2
:10333800E8020108C40E0020D402010800000020A1
:10334800E4020108502F0108400B0020EE03002082
:1033580008B503282DD8DFE810F0AB0056000400AC
:10336800F1008F4B41F270721A808E4B1B8883B12B
:10337800B3F5807F1ED0B3F5007F1BD0B3F5407F37
:1033880018D0B3F5806F2CD00146864B1888FFF70C
:103398001FFF844B1B8863B9834BDB7A1BB9824AB6
:1033A800537ADB435372814BDB784BBB804B002253
:1033B8001A7008BD7F490A780132D2B20A70042A0D
:1033C800E2D90A460121117003F580739BB2754A50
:1033D8001380B3F5806FD7D913464FF480721A80E3
:1033E800D2E7744A13780133DBB21370032BCBD9BD
:1033F800134601221A706B4B4FF480721A80C3E790
:1034080002F006FCD2E7664B41F270721A80654BF7
:103418001B8883B1B3F5807F1FD0B3F5007F1CD024
:10342800B3F5407F19D0B3F5806F2FD001465D4BBF
:103438001888FFF7CDFE5B4B1B88002BB9D15A4B80
:10344800DB7A1BB9584A937ADB439372574BDB7884
:103458005BBB574B00221A70ABE756490A78013A12
:10346800D2B20A70002AE1D10A4604211170A3F5EC
:1034780080739BB24B4A1380FF2BD7D813464FF467
:1034880080621A804B4B03221A70CFE7494A13789F
:10349800013BDBB21370002BC8D1134604221A700B
:1034A800404B4FF440721A80C0E702F0B1FBD0E7FE
:1034B8003C4B1B8823BB404A138801339BB21380C3
:1034C800C82B11D8384BDB7A1BB9374A137ADB4340
:1034D8001372374B00221A70344BDB78002B3FF401
:1034E80068AF02F095FB64E7134600221A804FF498
:1034F80080732C4A138001461846FFF769FEE1E7FE
:10350800B3F5807F08D0B3F5007F05D0B3F5407FD1
:1035180002D0B3F5806F0CD1264A1078184480B2D7
:10352800204B18801E4BC8221A80FF21FFF750FE3F
:103538003FE701461846FFF74BFE3AE7194B1B8851
:10354800E3B1B3F5807F0DD0B3F5007F0AD0B3F5B2
:10355800407F07D0B3F5806F04D003F47F43114A4E
:10356800138005E00F4B00221A80124B01221A70BB
:1035780001460C4B1888FFF72BFE1AE70A4AD37A44
:10358800DB43DBB2D3723BB1FEF7EAFC084B002207
:103598001A7002F03DFB0CE7FEF7F4FCF6E700BFFB
:1035A800F0030020EC030020600C0020340C002005
:1035B8007C0C002000000020F403002038B505F042
:1035C8007FFB454B1B68C01A04286BD838BD434B9A
:1035D8001B88002B34D1424A138801339BB21380D5
:1035E800642B2DD9134600221A804FF480703B4B70
:1035F80018802146FFF7ECFD22E03A4804F096FFD8
:1036080005EB45029300384AD3582046984705EB06
:1036180045039A00344B13441B7A012B33D00134F1
:10362800E4B2032C40D82046FFF74AFD254604EBB8
:1036380044039A002C4B13441B7A0BB9002CC6D0B8
:1036480005EB45039A00284B13441B7A002BDED167
:10365800254B13449B7A002BD9D123498B18012081
:103668009872224B41F2707018808A58204B9A4207
:10367800C3D005EB4502930000221D491A4818449F
:10368800FFF7D4FCC3E7184B13449B7A012BC6D130
:103698000022134B1A8005EB4505A900124B0B4479
:1036A8009A72BCE70024BCE7104B1B8813B1013B9E
:1036B8000E4A13800D4B1B8813B9084B00221A8041
:1036C8000C4B1B8813B1013B0A4A138005F0F8FA2A
:1036D800014B18607AE700BF280D0020EC0300209A
:1036E800F4030020C40E0020EC0C0020F20300209C
:1036F80059330008F003002000207047034B044AA8
:103708001168526819605A6000207047900D0020B7
:10371800A40D00200020704700207047002070474B
:10372800F0B583B005460C465A2200219C4808F0A3
:10373800CFF9642000FB05F09A4B1D5A9A4B1B8861
:103748009D4202D0994B00221A80012C23D0022CD2
:103758007DD03CB9954B1B88042B00F2D1800133F6
:10376800924A1380924C9349204607F08FFC42F20C
:10377800F13324220521204607F0E4FB8B4B1B88FC
:10378800052B00F20A81DFE813F0CE0025016A015B
:10379800A501E0012502854B1B88052BD7D8DFE85A
:1037A80003F003101D2A3744834B93F90530162B79
:1037B80003DC0133804A5371C9E77F4B00225A71F9
:1037C800C5E77D4B93F906303A2B03DC01337A4A7F
:1037D8009371BCE7784B00229A71B8E7764B93F95E
:1037E80007303A2B03DC0133734AD371AFE7724BCE
:1037F8000022DA71ABE7704B93F903301E2B03DC20
:1038080001336D4AD370A2E76B4B0022DA709EE752
:10381800694B93F902300B2B03DC0133664A937032
:1038280095E7654B00229A7091E7634BB3F9003036
:1038380040F63202934203DC01335F4A138086E785
:103848005D4B6FF01C021A7007225A707FE7574BC6
:103858001B88052B3FF67DAFDFE803F0030F1B271E
:103868003441554B93F905301BB1013B524A537112
:103878006FE7514B17225A716BE74F4B93F906309C
:103888001BB1013B4C4A937163E74B4B3B229A7146
:103898005FE7494B93F907301BB1013B464AD371A7
:1038A80057E7454B3B22DA7153E7434B93F9033013
:1038B800012B03DD013B404AD3704AE73E4B1F22F0
:1038C800DA7046E73C4B93F90230012B03DD013BEC
:1038D800394A93703DE7384B0C229A7039E7364BDA
:1038E800B3F9003040F2E372934203DD013B324A00
:1038F80013802EE7304B33221A7008225A7028E7BB
:103908002E482D4B1A685B68026043604379073B79
:103918004371072102F02CFA294B3C22302124481C
:1039280007F076FB1EE7224C2649204607F0AEFB3F
:103938000021204607F088FC1F4F194E97F90520F3
:103948002149304609F066F83346242211462046BC
:1039580007F05EFB0121204607F076FC97F9073057
:1039680097F906201949304609F054F833462422BD
:103978003021204607F04CFBB7F90030009397F947
:10398800023097F903201249304609F043F83346CC
:1039980030221E21204607F03BFB284603B0F0BD2D
:1039A800340D0020E8020108EE030020E80C002096
:1039B800400B00206C7F0108900D0020A40D002012
:1039C800B00B0108243E0108A4010108E80B010816
:1039D800B80B01089D4E9E49304607F057FB9D4F96
:1039E8009D4C97F905209D49204609F013F8234678
:1039F80024221146304607F00BFB0021304607F021
:103A080023FC97F906209649204609F003F8234637
:103A180024223621304607F0FBFA0121304607F010
:103A280013FC97F907208F49204608F0F3FF234637
:103A380024224221304607F0EBFAB7F90030009310
:103A480097F9023097F903208749204608F0E2FFEA
:103A5800234630221E21304607F0DAFA9DE77B4CD8
:103A68007B49204607F012FB7A4F7B4E97F90630C8
:103A780097F905207D49304608F0CCFF33462422CB
:103A88001146204607F0C4FA0021204607F0DCFB67
:103A980097F907207249304608F0BCFF33462422C4
:103AA8004821204607F0B4FA0121204607F0CCFB54
:103AB800B7F90030009397F9023097F903206A4963
:103AC800304608F0A7FF334630221E21204607F073
:103AD8009FFA62E75D4C5E49204607F0D7FA5D4FD2
:103AE80097F907305C4E009397F9063097F905204F
:103AF8005F49304608F08EFF33462422114620469F
:103B080007F086FA0021204607F09EFB97F903206C
:103B18005349304608F07EFF334630221E212046A6
:103B280007F076FA0121204607F08EFBB7F900303E
:103B380097F902204F49304608F06CFF334630228F
:103B48002A21204607F064FA27E7404E40493046CC
:103B580007F09CFA3F4F97F907303F4C009397F9CD
:103B6800063097F905204249204608F053FF2346BE
:103B780024221146304607F04BFA97F903203E49B4
:103B8800204608F047FF234630221E21304607F022
:103B98003FFA0021304607F057FB97F902203049D9
:103BA800204608F037FF234630221146304607F0FA
:103BB8002FFA0121304607F047FBB7F900202F49BB
:103BC800204608F027FF234630223C21304607F0E4
:103BD8001FFAE2E61D4C1E49204607F057FA1D4F12
:103BE80097F907301C4E009397F9063097F905208E
:103BF8001F49304608F00EFF33462422114620465E
:103C080007F006FA97F9023097F903201C49304665
:103C180008F000FF334630221E21204607F0F8F94D
:103C28000021204607F010FBB7F90020154930465F
:103C380008F0F0FE334630224221204607F0E8F92A
:103C48000121204607F000FBA7E600BF400B00203B
:103C5800243E0108900D0020340D0020C80B0108F7
:103C6800A4010108D00B0108B80B0108D80B010802
:103C7800E40B0108BC0B0108F40B0108FC0B01085C
:103C8800040C0108C8020108F8B505460C465A227A
:103C98000021AC4807F01CFF642000FB05F0AA4B8C
:103CA8001D5AAA4B1B889D4220D0A94BD988A94BE5
:103CB8001960A94B00221A80A84BA3FB0102D20865
:103CC800104602EB820256008A1BA54E3270A3FBF7
:103CD8000023DB0803EB83035A00831AA14A1370FD
:103CE800A14BA3FB01314909A04B1970012C2FD01E
:103CF800022C59D034B9984B1B88012B7DD801333D
:103D0800954A1380944B1B88012B00F0BE801AB291
:103D1800002A00F09180022B00F0EB80944E954C25
:103D28003146204607F0B2F942F2F733242219212E
:103D3800204607F007F93146204607F0A7F942F276
:103D4800F63324225021204607F0FCF82846F8BD17
:103D5800814B1B88012B17D01AB24AB1022BC7D14D
:103D68007F4B1B78082B1BD801337D4A1370BFE7A4
:103D78007E4B1B78082B03D801337C4A1370B7E7B6
:103D88007A4B00221A70B3E7764B1B78082B03D8BE
:103D98000133744A1370ABE7724B00221A70A7E71D
:103DA8006F4B00221A70A3E76B4B1B88012B15D0B1
:103DB8001AB242B1022B9DD1694B1B78CBB1013BA2
:103DC800674A137096E7694B1B781BB1013B674A3A
:103DD80013708FE7654B09221A708BE7614B1B78CC
:103DE8001BB1013B5F4A137084E75E4B09221A70CE
:103DF80080E75B4B09221A707CE75C4B1A78594BB9
:103E08001B7803EB83035900642303FB0212544B12
:103E18001B7813444F4A13604D4AD380FDF7CAFFFD
:103E2800544C5549204607F031F9544B3C22302177
:103E3800204607F0EDF865E74E4C5149204607F05B
:103E480025F90021204607F0FFF93E4E474B1A7826
:103E58004C49304608F0DEFD334624222E21204608
:103E680007F0D6F80121204607F0EEF93C4B1B7805
:103E78003C4A12784449304608F0CCFD33462422A7
:103E88003821204607F0C4F848E73A4C3C49204618
:103E980007F0FCF83B4F2B4E344B1A783946304626
:103EA80008F0B8FD334624222E21204607F0B0F84A
:103EB8000021204607F0C8F92A4B1A7839463046BF
:103EC80008F0A8FD334624223821204607F0A0F840
:103ED8000121204607F0B8F9214B1A7839463046B7
:103EE80008F098FD334624224221204607F090F836
:103EF80014E7204C2249204607F0C8F8114E194B08
:103F08001B781A4A12782049304608F083FD334658
:103F180024222E21204607F07BF80021204607F0B6
:103F280093F90F4B1A781749304608F073FD33465A
:103F380024224221204607F06BF80121204607F091
:103F480083F9EBE6340D0020E8020108EE030020B7
:103F5800340C00202C0D0020E80C0020CDCCCCCC5B
:103F6800980D0020990D00201F85EB51300D002081
:103F78006C7F0108400B0020243E0108B00B0108AB
:103F8800DC1001082C0B0108900B0108F8B5054658
:103F98000C465A220021774807F09AFD642000FB5E
:103FA80005F0754B1D5A754B1B889D4212D0744BFA
:103FB8001989744B1960744B00221A80734BA3FB48
:103FC8000123DB08724A137003EB83035A008A1A31
:103FD800704B1A70012C2AD0022C45D034B96A4B88
:103FE8001B88002B5BD10133674A1380664B1B8803
:103FF800002B6ED0012B00F09480674E674C314641
:10400800204607F043F842F2F733242219212046CC
:1040180006F098FF3146204607F038F842F2F633AA
:1040280024225021204606F08DFF2846F8BD564B25
:104038001B884BB1012BCFD1564B1B78082B0FD8BF
:104048000133544A1370C7E7514B1B78082B03D828
:1040580001334F4A1370BFE74D4B00221A70BBE77C
:104068004C4B00221A70B7E7474B1B8843B1012B12
:10407800B4D1484B1B7873B1013B464A1370ADE786
:10408800434B1B781BB1013B414A1370A6E7404BD9
:1040980009221A70A2E73F4B09221A709EE73C4B8F
:1040A8001B7803EB83035A003A4B1B781344354AB9
:1040B8001360334A1381FDF77DFE384C384920469A
:1040C80006F0E4FF374B3C223021204606F0A0FFE3
:1040D8008CE7324C3449204606F0D8FF00212046B0
:1040E80007F0B2F8314F234E294B1A78394630463B
:1040F80008F090FC334624223221204606F088FF3F
:104108000121204607F0A0F8224B1A78394630469C
:1041180008F080FC334624223E21204606F078FF32
:104128006BE71E4C2049204606F0B0FF1F4F114E8A
:10413800174B1A783946304608F06CFC334624226F
:104148003221204606F064FF0021204607F07CF863
:10415800104B1A783946304608F05CFC3346242266
:104168003E21204606F054FF0121204607F06CF856
:1041780043E700BF340D0020E8020108EE030020E9
:10418800340C00202C0D0020E80C0020CDCCCCCC29
:10419800990D0020980D00206C7F0108400B00202D
:1041A800243E0108B00B0108DC1001082C0B0108A3
:1041B800F8B504460E465A2200215D4807F088FCEF
:1041C800642000FB04F05B4B1F5A5B4B1B889F422B
:1041D80003D05A4B1A785A4B1A60022E4BD0012E34
:1041E80055D0574B1B68002B5CD0554B1B68012BD7
:1041F80065D0534B1B68022B6ED0514B1B68032BA9
:1042080077D0504C5049204606F040FF484D28468C
:10421800FCF706F8C0F116014C4B1A2201F0FE011A
:10422800204606F0F5FE2846FBF7FAFFC0F1160116
:10423800474B242201F0FE01204606F0E9FE2846FD
:10424800FBF7EEFFC0F11601424B2E2201F0FE01F2
:10425800204606F0DDFE2846FBF7E2FFC0F1160116
:104268003D4B382201F0FE01204606F0D1FE002E1B
:104278004CD03846F8BD324B1B68022B03D80133AB
:104288002F4A1360ABE72E4B00221A60A7E72C4B8E
:104298001B681BB1013B2A4A1360A2E7284B022284
:1042A8001A609EE7274C2D49204606F0EFFE42F2A1
:1042B80013731A220421204606F044FE95E7214C88
:1042C8002649204606F0E2FE42F213732422042116
:1042D800204606F037FE8CE71A4C2049204606F0A7
:1042E800D5FE42F213732E220421204606F02AFE40
:1042F80083E7144C1949204606F0C8FE42F21373AE
:1043080038220421204606F01DFE7AE70C4B1A7865
:104318000A4B1A70FDF74EFD0B49204606F0B6FE13
:104328000F4B3F223021204606F072FEA1E700BF66
:10433800340D0020E8020108EE030020340C0020B0
:104348002C0D0020400B0020243E0108700B0108B2
:10435800780B0108800B0108880B01086C7F0108A5
:10436800B00B0108F8B505460C465A2200213F4813
:1043780007F0AEFB642000FB05F03D4B1E5A3D4B99
:104388001B889E4203D03C4BDA783C4B1A60022CC7
:104398002BD0012C34D0394B1B68002B3BD0374B2A
:1043A8001B68012B44D0364D3649284606F06EFE70
:1043B8002E4F3846FBF734FFC0F11601324B1E2250
:1043C80001F0FE01284606F023FE3846FBF728FFD9
:1043D800C0F116012D4B2D2201F0FE01284606F0F2
:1043E80017FE002C31D03046F8BD244B1B681BB992
:1043F8000133224A1360CCE7204B00221A60C8E739
:104408001E4B1B681BB1013B1C4A1360C3E71B4BC7
:1044180001221A60BFE71A4D1D49284606F036FEEC
:1044280042F213731E220421284606F08BFDB6E7DC
:10443800134D1749284606F029FE42F213732D2220
:104448000421284606F07EFDADE70C4B1A780A4B8E
:10445800DA70FDF7AFFC0F49284606F017FE0E4B41
:104468003C223021284606F0D3FDBCE7340D00205D
:10447800E8020108EE030020340C00202C0D002077
:10448800400B002084530108980B0108A40B010875
:104498006C7F0108243E0108B00B0108F8B50446FA
:1044A8000D465A2200214E4807F012FB642000FBFB
:1044B80004F04C4B1F5A4C4B1B889F4203D04B4B6C
:1044C8001A794B4B1A60022D3BD0012D45D0484B31
:1044D8001B68002B4CD0464B1B68012B55D0444B16
:1044E8001B68022B5ED0434C4349204606F0CEFDA4
:1044F8003B4E3046FBF794FEC0F116013F4B1C22A1
:1045080001F0FE01204606F083FD3046FBF788FEE9
:10451800C0F116013A4B282201F0FE01204606F0B0
:1045280077FD3046FBF77CFEC0F11601354B34228F
:1045380001F0FE01204606F06BFD002D3FD0384605
:10454800F8BD2B4B1B68012B03D9294B00221A609D
:10455800BBE70133264A1360B7E7254B1B681BB13D
:10456800013B234A1360B2E7214B02221A60AEE7EF
:10457800204C2549204606F089FD42F213731C227F
:104588000421204606F0DEFCA5E71A4C1E49204609
:1045980006F07CFD42F2137328220421204606F01F
:1045A800D1FC9CE7134C1849204606F06FFD42F2F7
:1045B800137334220421204606F0C4FC93E70C4B05
:1045C8001A780A4B1A71FDF7F5FB0B49204606F0DD
:1045D8005DFD0E4B3E223021204606F019FDAEE768
:1045E800340D0020E8020108EE030020340C0020FE
:1045F8002C0D0020400B0020243E01089C010108DE
:10460800580B0108640B01086C7F0108B00B010806
:104618002DE9F04182B004460D465A2200213F4858
:1046280007F056FA642000FB04F03D4B33F8008095
:104638003C4B1B88984503D03B4B5A783B4B1A6040
:104648003B4C3C49204606F021FD4FF418532422E8
:104658000521204606F076FC012D3FD0022D45D0DD
:10466800324F3878FDF724F9314C0A2300933B7810
:1046780018221421204606F066F92E49204606F035
:1046880005FD42F2EC3330222821204606F05AFC80
:1046980042F2EB3330224D21204606F053FC1F4EE8
:1046A8003A682549304608F0B5F92449204606F00D
:1046B800EDFC3046FBF7B4FDC0F11600400800EBF6
:1046C800400041003346302201F0FE01204606F04A
:1046D8009FFC9DB1404602B0BDE8F081134B1B68BA
:1046E800632BBBD80133114A1360B7E70F4B1B6824
:1046F800002BB5D0013B0D4A1360B1E73A780A4B5D
:104708005A70FDF757FB0D49204606F0BFFC0C4BCD
:104718003C223021204606F07BFCDBE7340D0020EC
:10472800E8020108EE030020340C00202C0D0020C4
:10473800400B00206C7F0108500B0108243E010843
:10474800B00B0108F8B505460C465A22002141482D
:1047580007F0BEF9642000FB05F03F4B1E5A3F4BA3
:104768001B889E4203D03E4B9A783E4B1A60022C1F
:104778002BD0012C34D03B4B1B68002B3BD0394B42
:104788001B68012B46D0384D3849284606F07EFC78
:10479800304F3846FBF744FDC0F11601344B1E225A
:1047A80001F0FE01284606F033FC3846FBF738FDD9
:1047B800C0F116012F4B2D2201F0FE01284606F00C
:1047C80027FC002C35D03046F8BD264B1B681BB99A
:1047D8000133244A1360CCE7224B00221A60C8E751
:1047E800204B1B681BB1013B1E4A1360C3E71D4BDE
:1047F80001221A60BFE71C4D1F49284606F046FCF7
:1048080042F213731E220421284606F09BFBFDF793
:104818005FF8B4E7144D1849284606F037FC42F211
:1048280013732D220421284606F08CFBFDF74AF865
:10483800A9E70C4B1A780A4B9A70FDF7BBFA0F4997
:10484800284606F023FC0E4B3C223021284606F071
:10485800DFFBB8E7340D0020E8020108EE03002072
:10486800340C00202C0D0020400B0020845301083C
:10487800300B0108400B01086C7F0108243E010839
:10488800B00B0108F8B504460F465A220021284803
:1048980007F01EF9642000FB04F0264B1E5A264B35
:1048A8001B889E4202D0254B00221A60244B5B686D
:1048B800244A934205D94FF4616202FB03F3204A6C
:1048C8005360214C2149204606F0E0FB42F2F033C8
:1048D80036223721204606F035FB194B5A681C4B07
:1048E800A3FB0232124DD20A1A49284608F092F860
:1048F8001949204606F0CAFB184B182212212046F7
:1049080006F086FB2846FBF78BFCC0F11600400832
:1049180000EB400041002B46242201F0FE01204616
:1049280006F076FB0FB13046F8BDFDF743FAFAE71B
:10493800340D0020E8020108EE0300202C0D0020B1
:104948006C0C0020FF502502400B00206C7F0108F2
:10495800C5B3A291480C0108243E0108540C010873
:10496800F8B504460F465A220021284807F0B0F847
:10497800642000FB04F0264B1E5A264B1B889E42DF
:1049880002D0254B00221A60244B9B68244A93428C
:1049980005D94FF4616202FB03F3204A9360214C6E
:1049A8002149204606F072FB42F2F03336223721C5
:1049B800204606F0C7FA194B9A681C4BA3FB023233
:1049C800124DD20A1A49284608F024F819492046F7
:1049D80006F05CFB184B18220C21204606F018FB49
:1049E8002846FBF71DFCC0F11600400800EB40000C
:1049F80041002B46242201F0FE01204606F008FB68
:104A08000FB13046F8BDFDF7D5F9FAE7340D0020AF
:104A1800E8020108EE0300202C0D00206C0C002099
:104A2800FF502502400B00206C7F0108C5B3A291FE
:104A3800480C0108243E0108100C0108F8B504468A
:104A48000F465A220021284807F042F8642000FB4C
:104A580004F0264B1E5A264B1B889E4202D0254B3B
:104A680000221A60244BDB68244A934205D94FF48C
:104A7800616202FB03F3204AD360214C214920469E
:104A880006F004FB42F2F03336223721204606F0C6
:104A980059FA194BDA681C4BA3FB0232124DD20AA1
:104AA8001A49284607F0B6FF1949204606F0EEFADB
:104AB800184B18220621204606F0AAFA2846FBF7CA
:104AC800AFFBC0F11600400800EB400041002B4648
:104AD800242201F0FE01204606F09AFA0FB1304672
:104AE800F8BDFDF767F9FAE7340D0020E802010880
:104AF800EE0300202C0D00206C0C0020FF297515FA
:104B0800400B00206C7F0108C5B3A291240C01085A
:104B1800243E0108300C01082DE9F04182B0054619
:104B28000C465A2200219B4806F0D2FF642000FB65
:104B380005F0994B1D5A994B1B889D420CD00023B8
:104B4800974A1360974A1380974A1370974A1370CD
:104B5800974A1370974A137034B9924B1B88022BEB
:104B68001DD801338F4A1380012C77D0022C00F016
:104B7800AD80914C9149204606F088FA904B182256
:104B88001221204606F044FA864B1B88032B00F2BC
:104B9800FD80DFE813F0D00025015B019101824B15
:104BA8001B78824A1178642202FB01F24FF47A7171
:104BB80001FB03237F4A127802EB820251000B4467
:104BC8007B4A12781344764A13607E4A528993428C
:104BD8001BD0704F3846FBF723FBC0F11600400886
:104BE80000EB40004100744E3B46242201F0FE01D8
:104BF800304606F00DFA744B30221221304606F08A
:104C080007FA684B00221A80AEE7704B00225A6000
:104C1800FDF7F4F9FDF7CEF85E4E3046FBF700FBE2
:104C2800C0F11600400800EB40004100DFF8888121
:104C38003346242201F0FE01404606F0E9F9644FAC
:104C48000FCF30607160B260F3603B883382614B94
:104C580030221821404606F0DBF985E7514B1B88C6
:104C6800032B83D8DFE803F0020E1A264E4B1B787D
:104C7800082B03D801334C4A137077E74A4B0022BC
:104C88001A7073E7494B1B78082B03D80133474A3E
:104C980013706BE7454B00221A7067E7454B1B788A
:104CA800082B03D80133434A13705FE73F4B0022B8
:104CB8001A705BE73E4B1B78082B03D801333C4A3C
:104CC800137053E73A4B00221A704FE7354B1B8895
:104CD800032B3FF64EAFDFE803F0020D1823324BEB
:104CE8001B781BB1013B304A137042E72E4B092257
:104CF8001A703EE72D4B1B781BB1013B2B4A1370F2
:104D080037E72A4B09221A7033E72A4B1B781BB165
:104D1800013B284A13702CE7264B09221A7028E712
:104D2800234B1B781BB1013B214A137021E7204B11
:104D380009221A701DE7204C2049204606F0A6F9E2
:104D48000021204606F080FA124E174B1A782249A5
:104D5800304607F05FFE334624223021204606F015
:104D680057F90121204606F06FFA114B1B78009382
:104D7800104B1B780D4A12781849304607F04AFE46
:104D8800334624223621204606F042F9284602B04E
:104D9800BDE8F081340D0020E8020108EE03002090
:104DA8002C0D0020E80C00209A0D0020300D00206A
:104DB800980D0020990D0020400B0020243E01088A
:104DC800180B0108340C0020080B01086C0C00209B
:104DD800E40A0108F80A01082C0B0108280B01084D
:104DE8004B4C4C49204606F051F94B4F4B4E4C4B1F
:104DF8001A783946304607F00DFE33462422302112
:104E0800204606F005F90021204606F01DFA454B1C
:104E18001A783946304607F0FDFD334624223621FC
:104E2800204606F0F5F80121204606F00DFA3E4B23
:104E38001B783E4A12783E49304607F0EBFD334670
:104E480024223C21204606F0E3F89FE7304C314904
:104E5800204606F01BF9314E324B1B78304A127847
:104E68003349304607F0D6FD334624223021204608
:104E780006F0CEF80021204606F0E6F9264F2B4B27
:104E88001A783946304607F0C5FD334624223C21BE
:104E9800204606F0BDF80121204606F0D5F9224B40
:104EA8001A783946304607F0B5FD334624224221A8
:104EB800204606F0ADF869E7154C1649204606F07D
:104EC800E5F8164E194B1B780093164B1B78144ABD
:104ED80012781849304607F09DFD334624223021C8
:104EE800204606F095F80021204606F0ADF90E4B55
:104EF8001A780949304607F08DFD334624224221AD
:104F0800204606F085F80121204606F09DF93DE788
:104F1800400B0020243E01082C0B0108340D002012
:104F28009A0D0020300D0020980D0020990D0020CA
:104F3800900B0108280B01082DE9F04182B00546C5
:104F48000C465A2200219B4806F0C2FD642000FB53
:104F580005F0994B1D5A994B1B889D420CD0002394
:104F6800974A1360974A1380974A1370974A1370A9
:104F7800974A1370974A137034B9924B1B88022BC7
:104F88001DD801338F4A1380012C77D0022C00F0F2
:104F9800AD80914C9149204606F078F8904B182244
:104FA8001221204606F034F8864B1B88032B00F2AA
:104FB800FD80DFE813F0D00025015B019101824BF1
:104FC8001B78824A1178642202FB01F24FF47A714D
:104FD80001FB03237F4A127802EB820251000B4443
:104FE8007B4A12781344764A13607E4A5289934268
:104FF8001BD0704F3846FBF713F9C0F11600400874
:1050080000EB40004100744E3B46242201F0FE01B3
:10501800304605F0FDFF744B30221221304605F072
:10502800F7FF684B00221A80AEE7704B00229A60A7
:10503800FCF7E4FFFCF7BEFE5E4E3046FBF7F0F8E7
:10504800C0F11600400800EB40004100DFF88881FD
:105058003346242201F0FE01404605F0D9FF644F93
:105068000FCF30607160B260F3603B883382614B70
:1050780030221821404605F0CBFF85E7514B1B88AD
:10508800032B83D8DFE803F0020E1A264E4B1B7859
:10509800082B03D801334C4A137077E74A4B002298
:1050A8001A7073E7494B1B78082B03D80133474A1A
:1050B80013706BE7454B00221A7067E7454B1B7866
:1050C800082B03D80133434A13705FE73F4B002294
:1050D8001A705BE73E4B1B78082B03D801333C4A18
:1050E800137053E73A4B00221A704FE7354B1B8871
:1050F800032B3FF64EAFDFE803F0020D1823324BC7
:105108001B781BB1013B304A137042E72E4B092232
:105118001A703EE72D4B1B781BB1013B2B4A1370CD
:1051280037E72A4B09221A7033E72A4B1B781BB141
:10513800013B284A13702CE7264B09221A7028E7EE
:10514800234B1B781BB1013B214A137021E7204BED
:1051580009221A701DE7204C2049204605F096FFC9
:105168000021204606F070F8124E174B1A78224993
:10517800304607F04FFC334624223021204605F004
:1051880047FF0121204606F05FF8114B1B7800937A
:10519800104B1B780D4A12781849304607F03AFC34
:1051A800334624223621204605F032FF284602B035
:1051B800BDE8F081340D0020E8020108EE0300206C
:1051C8002C0D0020E80C00209A0D0020300D002046
:1051D800980D0020990D0020400B0020243E010866
:1051E800180B0108340C0020080B01086C0C002077
:1051F800E40A0108F80A01082C0B0108280B010829
:105208004B4C4C49204605F041FF4B4F4B4E4C4B05
:105218001A783946304607F0FDFB33462422302100
:10522800204605F0F5FE0021204606F00DF8454B16
:105238001A783946304607F0EDFB334624223621EA
:10524800204605F0E5FE0121204605F0FDFF3E4B16
:105258001B783E4A12783E49304607F0DBFB33465E
:1052680024223C21204605F0D3FE9FE7304C3149EB
:10527800204605F00BFF314E324B1B78304A12782E
:105288003349304607F0C6FB3346242230212046F6
:1052980005F0BEFE0021204605F0D6FF264F2B4B19
:1052A8001A783946304607F0B5FB334624223C21AC
:1052B800204605F0ADFE0121204605F0C5FF224B32
:1052C8001A783946304607F0A5FB33462422422196
:1052D800204605F09DFE69E7154C1649204605F065
:1052E800D5FE164E194B1B780093164B1B78144AA3
:1052F80012781849304607F08DFB334624223021B6
:10530800204605F085FE0021204605F09DFF0E4B46
:105318001A780949304607F07DFB3346242242219A
:10532800204605F075FE0121204605F08DFF3DE77A
:10533800400B0020243E01082C0B0108340D0020EE
:105348009A0D0020300D0020980D0020990D0020A6
:10535800900B0108280B01082DE9F04182B00546A1
:105368000C465A2200219B4806F0B2FB642000FB41
:1053780005F0994B1D5A994B1B889D420CD0002370
:10538800974A1360974A1380974A1370974A137085
:10539800974A1370974A137034B9924B1B88022BA3
:1053A8001DD801338F4A1380012C77D0022C00F0CE
:1053B800AD80914C9149204605F068FE904B18222B
:1053C8001221204605F024FE864B1B88032B00F291
:1053D800FD80DFE813F0D00025015B019101824BCD
:1053E8001B78824A1178642202FB01F24FF47A7129
:1053F80001FB03237F4A127802EB820251000B441F
:105408007B4A12781344764A13607E4A5289934243
:105418001BD0704F3846FAF703FFC0F1160040085A
:1054280000EB40004100744E3B46242201F0FE018F
:10543800304605F0EDFD744B30221221304605F060
:10544800E7FD684B00221A80AEE7704B0022DA6055
:10545800FCF7D4FDFCF7AEFC5E4E3046FAF7E0FEF2
:10546800C0F11600400800EB40004100DFF88881D9
:105478003346242201F0FE01404605F0C9FD644F81
:105488000FCF30607160B260F3603B883382614B4C
:1054980030221821404605F0BBFD85E7514B1B889B
:1054A800032B83D8DFE803F0020E1A264E4B1B7835
:1054B800082B03D801334C4A137077E74A4B002274
:1054C8001A7073E7494B1B78082B03D80133474AF6
:1054D80013706BE7454B00221A7067E7454B1B7842
:1054E800082B03D80133434A13705FE73F4B002270
:1054F8001A705BE73E4B1B78082B03D801333C4AF4
:10550800137053E73A4B00221A704FE7354B1B884C
:10551800032B3FF64EAFDFE803F0020D1823324BA2
:105528001B781BB1013B304A137042E72E4B09220E
:105538001A703EE72D4B1B781BB1013B2B4A1370A9
:1055480037E72A4B09221A7033E72A4B1B781BB11D
:10555800013B284A13702CE7264B09221A7028E7CA
:10556800234B1B781BB1013B214A137021E7204BC9
:1055780009221A701DE7204C2049204605F086FDB7
:105588000021204605F060FE124E174B1A7822497A
:10559800304607F03FFA334624223021204605F0F2
:1055A80037FD0121204605F04FFE114B1B78009373
:1055B800104B1B780D4A12781849304607F02AFA22
:1055C800334624223621204605F022FD284602B023
:1055D800BDE8F081340D0020E8020108EE03002048
:1055E8002C0D0020E80C00209A0D0020300D002022
:1055F800980D0020990D0020400B0020243E010842
:10560800180B0108340C0020080B01086C0C002052
:10561800E40A0108F80A01082C0B0108280B010804
:105628004B4C4C49204605F031FD4B4F4B4E4C4BF3
:105638001A783946304607F0EDF9334624223021EE
:10564800204605F0E5FC0021204605F0FDFD454B10
:105658001A783946304607F0DDF9334624223621D8
:10566800204605F0D5FC0121204605F0EDFD3E4B16
:105678001B783E4A12783E49304607F0CBF933464C
:1056880024223C21204605F0C3FC9FE7304C3149D9
:10569800204605F0FBFC314E324B1B78304A12781D
:1056A8003349304607F0B6F93346242230212046E4
:1056B80005F0AEFC0021204605F0C6FD264F2B4B19
:1056C8001A783946304607F0A5F9334624223C219A
:1056D800204605F09DFC0121204605F0B5FD224B32
:1056E8001A783946304607F095F933462422422184
:1056F800204605F08DFC69E7154C1649204605F053
:10570800C5FC164E194B1B780093164B1B78144A90
:1057180012781849304607F07DF9334624223021A3
:10572800204605F075FC0021204605F08DFD0E4B46
:105738001A780949304607F06DF933462422422188
:10574800204605F065FC0121204605F07DFD3DE77A
:10575800400B0020243E01082C0B0108340D0020CA
:105768009A0D0020300D0020980D0020990D002082
:10577800900B0108280B01082DE9F04182B005467D
:105788000C465A2200219F4806F0A2F9642303FB25
:1057980005F39D4AD25A9D4B1B889A4215D0002387
:1057A8009B4A13609B4A13809B4A13709B4A137051
:1057B8009B4A13709B4A13709B4E9C4A03CA3060E5
:1057C80071609B4A13709B4A137044B9994B1B78BC
:1057D8002BB9984B01221A708E4B00221A80954BD8
:1057E8001B781BB1631E9BB2012B25D9904B1B78EC
:1057F80033B334B9874B1B88022B58D80133854AF9
:105808001380012C00F08F80022C00F0C5808A4C98
:105818008A49204605F03AFC894B18221221204675
:1058280005F0F6FB7B4B1B88032B38D8DFE813F019
:10583800180144017A01B0017D4B01221A70D5E7A5
:10584800DFF818827C4E4146304605F01FFC764C46
:10585800B4F900306B4F009394F9023094F90320A7
:105868007849384607F0D6F83B46202212213046C0
:1058780005F0CEFB94F90730009394F9063094F9BB
:1058880005207149384607F0C5F84146304605F00D
:10589800FDFB3B4630221221304605F0B9FB64205F
:1058A80000FB05F0584B185A02B0BDE8F0815A4B7E
:1058B8001B785A4A1178642202FB01F24FF47A717C
:1058C80001FB0323574A127802EB820251000B4472
:1058D800534A127813444E4A13605C4A92899342A1
:1058E8000ED0554E5549304605F0D0FB584B302266
:1058F8001221304605F08CFB464B00221A8080E7C7
:10590800544A4A4B1068516803C3FCF753FA4A4E8D
:105918004A49304605F0BAFB4F4B30220021304649
:1059280005F076FB6DE73B4B1B88032B3FF66CAF0E
:10593800DFE803F0020E1A26374B1B78082B03D832
:105948000133354A13705FE7334B00221A705BE767
:10595800324B1B78082B03D80133304A137053E7B6
:105968002E4B00221A704FE72E4B1B78082B03D8BA
:1059780001332C4A137047E7284B00221A7043E77B
:10598800274B1B78082B03D80133254A13703BE7B4
:10599800234B00221A7037E71E4B1B88032B3FF658
:1059A80036AFDFE803F0020D18231B4B1B781BB141
:1059B800013B194A13702AE7174B09221A7026E788
:1059C800164B1B781BB1013B144A13701FE7134B8E
:1059D80009221A701BE7134B1B781BB1013B114AB4
:1059E800137014E70F4B09221A7010E70C4B1B7841
:1059F8001BB1013B0A4A137009E7094B09221A70C7
:105A080005E700BF340D0020E8020108EE0300207E
:105A18002C0D0020E80C00209A0D0020300D0020ED
:105A2800980D0020990D0020900D0020540C0020A6
:105A38008F0D00208E0D0020400B0020243E010811
:105A4800180B010858020108B80A0108340C002094
:105A5800080B0108A40D0020CC0A0108C06B01083E
:105A6800614C6249204605F011FB0021204605F0F3
:105A7800EBFB5F4E5F4B1A785F49304606F0CAFF72
:105A8800334624223021204605F0C2FA012120465F
:105A980005F0DAFB594B1B780093594B1B78594A90
:105AA80012785949304606F0B5FF3346242236218C
:105AB800204605F0ADFAF2E64B4C4C49204605F07D
:105AC800E5FA4D4F4A4E4B4B1A783946304606F0A8
