:020000040800F2
:100000000050002081950008AD4E0008AF4E00085A
:10001000B14E0008B34E0008B54E000800000000C5
:10002000000000000000000000000000B74E0008C3
:10003000B94E000800000000BB4E0008BD4E00088D
:10004000C9950008C9950008C9950008D54E000853
:10005000C9950008C9950008C9950008F54E000823
:10006000C9950008C9950008C9950008C9950008F8
:10007000C9950008C9950008C9950008C9950008E8
:10008000C9950008C9950008C9950008C9950008D8
:10009000C54E0008C9950008C9950008C995000813
:1000A000C9950008C9950008C9950008C9950008B8
:1000B000C9950008054F0008C9950008C9950008B2
:1000C000C9950008C9950008C9950008C995000898
:1000D000C9950008C9950008C9950008C995000888
:1000E000C9950008E54E0008C9950008C9950008A3
:1000F000C9950008C9950008C9950008C995000868
:10010000C9950008C9950008C9950008C995000857
:10011000C9950008C9950008C9950008C995000847
:10012000C9950008C9950008C9950008C995000837
:1001300000000000000000000000000000000000BF
:1001400000000000000000000000000000000000AF
:10015000000000000000000000000000000000009F
:10016000000000000000000000000000000000008F
:10017000000000000000000000000000000000007F
:10018000000000000000000000000000000000006F
:10019000000000000000000000000000000000005F
:1001A000000000000000000000000000000000004F
:1001B000000000000000000000000000000000003F
:1001C000000000000000000000000000000000002F
:1001D000000000000000000000000000000000001F
:0401E0005FF8E0F1F3
:1001E80010B5054C237833B9044B13B10448AFF369
:1001F80000800123237010BDB80300200000000018
:10020800ACD8000808B5034B1BB103490348AFF34A
:10021800008008BD00000000BC030020ACD8000826
:10022800034613F8012B002AFBD1181A013870472E
:1002380010F8012B11F8013B012A28BF9A42F7D088
:10024800D01A704781F0004102E000BF83F00043FC
:1002580030B54FEA41044FEA430594EA050F08BF59
:1002680090EA020F1FBF54EA000C55EA020C7FEA1D
:10027800645C7FEA655C00F0E2804FEA5454D4EB9A
:100288005555B8BF6D420CDD2C4480EA020281EA64
:10029800030382EA000083EA010180EA020281EA9C
:1002A8000303362D88BF30BD11F0004F4FEA0131EE
:1002B8004FF4801C4CEA113102D0404261EB4101FD
:1002C80013F0004F4FEA03334CEA133302D0524283
:1002D80063EB430394EA050F00F0A780A4F101043F
:1002E800D5F1200E0DDB02FA0EFC22FA05F2801879
:1002F80041F1000103FA0EF2801843FA05F359415F
:100308000EE0A5F120050EF1200E012A03FA0EFCDD
:1003180028BF4CF0020C43FA05F3C01851EBE37107
:1003280001F0004507D54FF0000EDCF1000C7EEB24
:1003380000006EEB0101B1F5801F1BD3B1F5001F62
:100348000CD349085FEA30004FEA3C0C04F1010481
:100358004FEA445212F5800F80F09A80BCF1004FAA
:1003680008BF5FEA500C50F1000041EB045141EA2C
:10037800050130BD5FEA4C0C404141EB010111F42D
:10038800801FA4F10104E9D191F0000F04BF0146D8
:100398000020B1FA81F308BF2033A3F10B03B3F1B6
:1003A80020020CDA0C3208DD02F1140CC2F10C0246
:1003B80001FA0CF021FA02F10CE002F11402D8BFA4
:1003C800C2F1200C01FA02F120FA0CFCDCBF41EA70
:1003D8000C019040E41AA2BF01EB0451294330BD3F
:1003E8006FEA04041F3C1CDA0C340EDC04F114041C
:1003F800C4F1200220FA04F001FA02F340EA0300F3
:1004080021FA04F345EA030130BDC4F10C04C4F138
:10041800200220FA02F001FA04F340EA0300294618
:1004280030BD21FA04F0294630BD94F0000F83F462
:10043800801306BF81F480110134013D4EE77FEA45
:10044800645C18BF7FEA655C29D094EA050F08BF91
:1004580090EA020F05D054EA000C04BF1946104672
:1004680030BD91EA030F1EBF0021002030BD5FEAB6
:10047800545C05D14000494128BF41F0004130BDDE
:1004880014F580043CBF01F5801130BD01F0004532
:1004980045F0FE4141F470014FF0000030BD7FEAA5
:1004A800645C1ABF194610467FEA655C1CBF0B46A0
:1004B800024650EA013406BF52EA033591EA030FB7
:1004C80041F4002130BD00BF90F0000F04BF0021AF
:1004D800704730B54FF4806404F132044FF00005E2
:1004E8004FF0000150E700BF90F0000F04BF00215B
:1004F800704730B54FF4806404F1320410F00045C1
:1005080048BF40424FF000013EE700BF42004FEABB
:10051800E2014FEA31014FEA02701FBF12F07F4338
:1005280093F07F4F81F06051704732F07F4208BFEF
:10053800704793F07F4F04BF41F40021704730B5F6
:100548004FF4607401F0004521F000411CE700BF42
:1005580050EA010208BF704730B54FF000050AE0C5
:1005680050EA010208BF704730B511F0004502D5C6
:10057800404261EB41014FF4806404F132045FEAC8
:10058800915C3FF4D8AE4FF003025FEADC0C18BF71
:1005980003325FEADC0C18BF033202EBDC02C2F163
:1005A800200300FA03FC20FA02F001FA03FE40EAF5
:1005B8000E0021FA02F11444BDE600BF70B54FF0F9
:1005C800FF0C4CF4E06C1CEA11541DBF1CEA1355D7
:1005D80094EA0C0F95EA0C0F00F0DEF82C4481EA3F
:1005E800030621EA4C5123EA4C5350EA013518BF5F
:1005F80052EA033541F4801143F4801338D0A0FB4C
:1006080002CE4FF00005E1FB02E506F00042E0FBF8
:1006180003E54FF00006E1FB03569CF0000F18BFFE
:100628004EF0010EA4F1FF04B6F5007F64F54074A6
:1006380004D25FEA4E0E6D4146EB060642EAC62139
:1006480041EA55514FEAC52040EA5E504FEACE2EA6
:10065800B4F1FD0C88BFBCF5E06F1ED8BEF1004FA9
:1006680008BF5FEA500E50F1000041EB045170BD25
:1006780006F0004646EA010140EA020081EA030169
:10068800B4EB5C04C2BFD4EB0C0541EA045170BD65
:1006980041F480114FF0000E013C00F3AB8014F1DF
:1006A800360FDEBF002001F0004170BDC4F1000428
:1006B800203C35DA0C341BDC04F11404C4F12005A9
:1006C80000FA05F320FA04F001FA05F240EA020004
:1006D80001F0004221F0004110EBD37021FA04F63A
:1006E80042EB06015EEA430E08BF20EAD37070BDF4
:1006F800C4F10C04C4F1200500FA04F320FA05F053
:1007080001FA04F240EA020001F0004110EBD37054
:1007180041F100015EEA430E08BF20EAD37070BDC4
:10072800C4F1200500FA05F24EEA020E20FA04F39D
:1007380001FA05F243EA020321FA04F001F000414C
:1007480021FA04F220EA020000EBD3705EEA430EBD
:1007580008BF20EAD37070BD94F0000F0FD101F0EC
:100768000046400041EB010111F4801F08BF013C25
:10077800F7D041EA060195F0000F18BF704703F063
:100788000046520043EB030313F4801F08BF013DEA
:10079800F7D043EA0603704794EA0C0F0CEA1355A6
:1007A80018BF95EA0C0F0CD050EA410618BF52EA60
:1007B8004306D1D181EA030101F000414FF0000066
:1007C80070BD50EA410606BF1046194652EA430674
:1007D80019D094EA0C0F02D150EA013613D195EAE8
:1007E8000C0F05D152EA03361CBF104619460AD130
:1007F80081EA030101F0004141F0FE4141F470013A
:100808004FF0000070BD41F0FE4141F4780170BD29
:1008180070B54FF0FF0C4CF4E06C1CEA11541DBF8E
:100828001CEA135594EA0C0F95EA0C0F00F0A7F890
:10083800A4EB050481EA030E52EA03354FEA0131BD
:1008480000F088804FEA03334FF0805545EA1313D0
:1008580043EA12634FEA022245EA111545EA106598
:100868004FEA00260EF000419D4208BF964244F12F
:10087800FD0404F5407402D25B084FEA3202B61A4E
:1008880065EB03055B084FEA32024FF480104FF422
:10089800002CB6EB020E75EB030E22BFB61A754696
:1008A80040EA0C005B084FEA3202B6EB020E75EB29
:1008B800030E22BFB61A754640EA5C005B084FEA91
:1008C8003202B6EB020E75EB030E22BFB61A75465E
:1008D80040EA9C005B084FEA3202B6EB020E75EB69
:1008E800030E22BFB61A754640EADC0055EA060E2A
:1008F80018D04FEA051545EA16754FEA06164FEA6D
:10090800C30343EA52734FEAC2025FEA1C1CC0D118
:1009180011F4801F0BD141EA00014FF000004FF0A5
:10092800004CB6E711F4801F04BF01430020B4F166
:10093800FD0C88BFBCF5E06F3FF6AFAEB5EB030C1E
:1009480004BFB6EB020C5FEA500C50F1000041EB1B
:10095800045170BD0EF0004E4EEA113114EB5C04E8
:10096800C2BFD4EB0C0541EA045170BD41F48011BB
:100978004FF0000E013C90E645EA060E8DE60CEAC3
:10098800135594EA0C0F08BF95EA0C0F3FF43BAFE0
:1009980094EA0C0F0AD150EA01347FF434AF95EA97
:1009A8000C0F7FF425AF104619462CE795EA0C0F7B
:1009B80006D152EA03353FF4FDAE1046194622E748
:1009C80050EA410618BF52EA43067FF4C5AE50EA22
:1009D80041047FF40DAF52EA43057FF4EBAE12E712
:1009E8004FF0FF3C06E000BF4FF0010C02E000BFF3
:1009F8004FF0010C4DF804CD4FEA410C7FEA6C5CD6
:100A08004FEA430C18BF7FEA6C5C1BD001B050EA78
:100A1800410C0CBF52EA430C91EA030F02BF90EA63
:100A2800020F0020704710F1000F91EA030F58BF22
:100A3800994208BF90422CBFD8176FEAE37040F084
:100A4800010070474FEA410C7FEA6C5C02D150EA22
:100A5800013C07D14FEA430C7FEA6C5CD6D152EADD
:100A6800033CD3D05DF8040B704700BF84461046A2
:100A780062468C461946634600E000BF01B5FFF7A1
:100A8800B7FF002848BF10F1000F01BD4DF808ED71
:100A9800FFF7F4FF0CBF012000205DF808FB00BF42
:100AA8004DF808EDFFF7EAFF34BF012000205DF89C
:100AB80008FB00BF4DF808EDFFF7E0FF94BF0120E9
:100AC80000205DF808FB00BF4DF808EDFFF7CEFFEA
:100AD80094BF012000205DF808FB00BF4DF808ED29
:100AE800FFF7C4FF34BF012000205DF808FB00BFFA
:100AF8004FEA410C7FEA6C5C02D150EA013C0AD112
:100B08004FEA430C7FEA6C5C02D152EA033C02D103
:100B18004FF0000070474FF0010070474FEA410264
:100B280012F5001215D211D56FF47873B3EB625237
:100B380012D94FEAC12343F0004343EA505311F05E
:100B4800004F23FA02F018BF404270474FF00000F0
:100B5800704750EA013005D111F0004008BF6FF02E
:100B6800004070474FF00000704700BF7BB972B972
:100B78000029BEBF00204FF0004106E008BF002852
:100B88001CBF6FF000414FF0FF3000F0A7B9ADF186
:100B9800080C6DE904CE002909DB002B1ADB00F0F4
:100BA80035F8DDF804E0DDE9022304B0704740427F
:100BB80061EB4101002B1BDB00F028F8DDF804E0B5
:100BC800DDE9022304B0404261EB4101524263EB8C
:100BD80043037047524263EB430300F017F8DDF814
:100BE80004E0DDE9022304B0404261EB41017047B3
:100BF800524263EB430300F009F8DDF804E0DDE955
:100C0800022304B0524263EB430370472DE9F047D7
:100C18008C460446089E002B40F086808A42154682
:100C280048D9B2FA82F24AB1C2F1200701FA02F3B6
:100C380020FA07F7954047EA030C94404FEA154E0F
:100C4800BCFBFEF71FFA85F80EFB17C307FB08F974
:100C5800210C41EA0343994509D9EB1807F1FF3103
:100C680080F0E180994540F2DE80023F2B44A3EBFF
:100C78000903B3FBFEF00EFB103300FB08F1A4B22E
:100C880044EA0344A14209D92C1900F1FF3380F04A
:100C9800C880A14240F2C58002382C4440EA07408F
:100CA8000027641A1EB10023D440C6E90043394620
:100CB800BDE8F087002A54D0B2FA82F2002A40F048
:100CC800B4800127491B4FEA15481FFA85F9B1FB83
:100CD800F8FE08FB1E1109FB0EF04FEA144C4CEA13
:100CE8000143984207D9EB180EF1FF3102D298421E
:100CF80000F2EB808E461B1AB3FBF8F008FB1033AA
:100D080009FB00F9A4B244EA0344A14507D92C1908
:100D180000F1FF3302D2A14500F2DB801846A4EBB4
:100D2800090440EA0E40BDE78B4208D9002E75D071
:100D38000027C6E9000138463946BDE8F087B3FA0E
:100D480083F77FB98B4202D3824200F2BC80841AB7
:100D580061EB030301209C46002EA8D0C6E9004C95
:100D6800A5E7FFDEC7F12005BB4022FA05FC4CEAE7
:100D7800030C21FA05F44FEA1C4EB4FBFEF91FFAE6
:100D88008CF80EFB194420FA05F3B94009FB08FA60
:100D980019430B0C43EA0444A24502FA07F200FA8D
:100DA80007F30BD91CEB040409F1FF3080F08980AC
:100DB800A24540F28680A9F102096444A4EB0A0422
:100DC800B4FBFEF00EFB104400FB08FA89B241EABE
:100DD8000444A24508D91CEB040400F1FF316CD28D
:100DE800A2456AD90238644440EA0940A0FB028956
:100DF800A4EB0A044C454146CE4655D352D0002EAA
:100E08006AD05A1A64EB0E0404FA05F522FA07F3BD
:100E1800FC401D43C6E90054002748E737463046E2
:100E280045E718463AE70F4621E79540C2F1200307
:100E380021FA03F04FEA1548B0FBF8F71FFA85F9D5
:100E480008FB170E24FA03FC914007FB09FA4CEA49
:100E58000101080C40EA0E40824504FA02F407D961
:100E6800281807F1FF332AD2824528D9023F28449F
:100E7800A0EB0A00B0FBF8FC08FB1C000CFB09F314
:100E880089B241EA00418B4208D969180CF1FF3058
:100E980011D28B420FD9ACF1020C2944C91A4CEA81
:100EA800074714E74345AAD2B8EB020169EB0C02E5
:100EB80001389646A3E78446F0E7084694E71F46BC
:100EC800D6E781467AE7384646E7AEF1020E2B446C
:100ED80011E702382C4422E73746E8E6704700BF9E
:100EE8004B2901D00020704708B532B101224021BA
:100EF800054806F076FC012008BD00224021024882
:100F080006F06FFC0120F7E70008014030B583B018
:100F1800182919D014461D4619291DD0172902D0A1
:100F2800002003B030BD6CB115F8013B8DF80730D7
:100F3800013CE4B2642301220DF107010A4805F0DF
:100F4800FFF9F0E70120ECE701221021074806F03D
:100F580048FC00BF0120E4E700BF0022102103483D
:100F680006F03FFC0120DCE7E00D0020000801400E
:100F780008B5024809F0DCFB08BD00BFFCD8000832
:100F880000B597B000230E93119307930893099324
:100F98000A930B9301930293039304930593069387
:100FA8000D230C934FF480320D920123109312936A
:100FB8000F930223139314924FF4E01315930CA884
:100FC80005F0B6FD60BB0F230793022108910023AB
:100FD80009934FF480620A920B9307A805F0D0FF9B
:100FE80008BB11230193002306934FF480730293E7
:100FF80001A806F0A9F8C8B906F090F80D4BA3FBB4
:101008000030800906F058FC042006F06BFC002232
:1010180011464FF0FF3006F00FFC17B05DF804FBE7
:10102800FFF7A6FFCFE7FFF7A3FFDAE7FFF7A0FF79
:10103800E2E700BFD34D621038B505F02BFDFFF78E
:101048009FFF00F07DF803F0B7FC03F01DFD2D4C69
:1010580001224FF40041204606F0C3FB00F006F9D8
:10106800294D2A4B2A4A2B49284607F0CDFB28460A
:1010780008F02BFA0021284608F02EFA0022402119
:10108800204606F0AEFB0A2005F028FD012240218B
:10109800204606F0A6FB00F023F94FF4FA7005F09D
:1010A8001DFD00F0A3FE00F0D3FC03F0E7F903F008
:1010B800ADFB03F00BFC00F0E3F905F009FD044675
:1010C80005F006FD284607F084FB03F0C9FC05E09F
:1010D8000D4807F08BFB05F0FBFC044600F004FA12
:1010E80001F000F900F0D4FD03F0F0F903F054FB2F
:1010F800094805F014FA05F0EBFC001B6428EDD94B
:10110800E6E700BF00080140440B0020E90E000894
:10111800150F0008CCE70008380E002008B5013884
:10112800012806D80B461146184603F0A5FEC0B2A2
:1011380008BD08F047FA092303604FF0FF30F7E7CE
:101148002DE9F04186B00024029403940494059498
:10115800184B9A6942F004029A619B6903F00403F0
:101168000193019B144D01224FF40041284606F0DB
:1011780038FB4FF4004302930126039604944FF082
:101188000208CDF8148002A9284606F02FFA502745
:10119800029703960494CDF8148002A9284606F015
:1011A80025FA32463946284606F01BFB06B0BDE84C
:1011B800F08100BF0010024000080140642804D8F4
:1011C80000EB80004300014A53637047002C014044
:1011D80008B50A20FFF7F2FF08BD000008B5024B6A
:1011E8005878FFF7EBFF08BD200C00200268094B78
:1011F8009A4200D0704782B003F564439A6942F47A
:1012080000629A619B6903F400630193019B02B039
:10121800704700BF002C014000B587B0002302933F
:1012280003930493059302680E4B9A4202D007B0C9
:101238005DF804FB03F564439A6942F004029A617D
:101248009B6903F004030193019B4FF4807302939D
:10125800022303930123059302A9034806F0C6F964
:10126800E5E700BF002C01400008014010B519480F
:10127800194B036011234360002383604FF47A7293
:10128800C26003614361836105F0F2FAC8B913498A
:1012980060230B604FF496734B6000228A60CA602B
:1012A8000A614A618A610B4805F034FB60B9094C50
:1012B8002046FFF7B1FF0021204605F0A7FB30B913
:1012C80010BDFFF755FEE2E7FFF752FEEFE7FFF725
:1012D8004FFEF5E7E00B0020002C0140C40B002076
:1012E80010B582B0084A1378084C516801915278B9
:1012F8000092DB0800221146204607F0F5F9204647
:1013080007F074FA02B010BDA4D90008440B0020FD
:10131800F8B5184C184D0FCD0FC42B68236006F094
:1013280033FB164B00241C60154A9A600122DA60D0
:10133800BCB1144B124A1A600024302C17D824F080
:101348000305114F0F4E31687A59002321440220BA
:1013580006F072FBEA593368E3589A4209D104341B
:10136800EBE70A49054806F0D9FB0134E0E706F047
:1013780025FBF8BD300C0020600C0020D8030020AD
:1013880000F00108D4030020200C0020E80300200E
:1013980070B5174E3446174D0FCD0FC40FCD0FC47F
:1013A80095E80F0084E80F00F26A134B9A4200D1C7
:1013B80070BD344624220021304608F03FFA32231B
:1013C80073700123B370F3704FF49673F38040F297
:1013D800D243738140F2BC43B381074BF362074B9E
:1013E80024341868596803C4FFF792FFE0E700BF88
:1013F800200C002000F00108AB55FF00C00D0020B4
:1014080070B51C4C0621204606F0E8F805040521B5
:10141800204606F0E3F82843174D68600821204667
:1014280006F0DCF806040721204606F0D7F830431A
:10143800A8600A21204606F0D1F8060409212046B2
:1014480006F0CCF83043E8600221204606F0C6F8E2
:101458004BF6BB33984200D170BD2C46074D0FCDDB
:101468000FC42B6823604BF6BB320221014806F0FB
:10147800ADF8F1E7CC0D0020600C0020300C002006
:1014880008B5FFF785FFFFF7BBFF0B4B9B7883B1D0
:10149800FFF79EFE084B5878FFF790FE00F0A0F883
:1014A80000F0AEFA03F0B2F905F012FB034B186036
:1014B80008BDFFF793FEEDE7200C0020600C00202C
:1014C8000022092A0CD8D31C9B0003F1804303F5A2
:1014D800D843044931F812101960013292B2F0E78A
:1014E800704700BF600C002008B505F0F1FA2A4BE0
:1014F8001B68C01AB0F57A7F26D3284A13780133BF
:10150800DBB213701E2B02D9134600221A70224A2E
:10151800D3680133D360224A934201D91E4BDA6063
:10152800204B1B7A1BB11C4A5368013353601D4B77
:10153800DB7A1BB1184A93680133936005F0C8FA47
:10154800154B1860FFF7BCFF03F026F9164B1B88F4
:1015580073B9164B1B79012B0BD0022B0FD00F4BF5
:101568001B780E2B11D9124807F033F900F052FA04
:1015780008BD0F4807F02DF900F014F9F8E70C48FA
:1015880007F027F900F046FAF2E7094807F021F9D1
:1015980000F008F9ECE700BF600C0020740C002094
:1015A800001EF8BB500C0020EC030020200C00208B
:1015B800440B002010B5094C0121204607F0FAFC25
:1015C80080231F220021204607F0BEFC4023002272
:1015D8004121204607F0D3FC10BD00BF440B00207A
:1015E80008B5044807F0F5F805F072FA024B5860A0
:1015F80008BD00BF440B00207C0C002038B5054610
:101608000E4C0F49204607F0F7FB0E4B06224421EB
:10161800204607F0B3FB0C49204607F0EDFB35B137
:101628000A4B19225421204607F0A8FB38BD084B65
:1016380019224C21014807F0A1FBF7E7440B0020D1
:1016480050FC0008C4DD000868480108CCDD00082B
:10165800D0DD000810B5044609490A4807F0CCFB5C
:1016680034B1094B16220121064807F087FB10BD4B
:10167800064B16220121034807F080FBF7E700BF5D
:1016880048520108440B0020D4DD0008DCDD0008C6
:1016980010B5044609490A4807F0AEFB34B1094BB6
:1016A80036220121064807F069FB10BD064B362299
:1016B8000121034807F062FBF7E700BF4852010821
:1016C800440B0020B4DD0008BCDD000800B583B081
:1016D8000F4B1B7803420ED00E4A137851680191C4
:1016E80052780092DB08262248210B4806F0FCFFBE
:1016F80003B05DF804FB094A1378516801915278E8
:101708000092DB0826224821034806F0EDFFEFE7A8
:101718007C0C002054D90008440B002004D9000890
:1017280030B583B0E8B1194C0021204607F042FCDF
:101738001749204607F060FB164D6A681649684647
:1017480009F094F86B4636226821204607F016FB0C
:101758000121204607F02EFC6B68ABB900222A73E2
:1017680012E00A4C0D49204607F046FB00212046AE
:1017780007F020FC0A4B36226621204607F0FEFAC5
:101788000121204607F016FC03B030BD440B0020B1
:10179800F4300108500C0020ACDD0008002B0108D3
:1017A800D0DD000810B505F093F9164B5B68C01A38
:1017B800C82810D9134A1378DB43137053780133C0
:1017C800DBB253700A2B02D9134600225A7005F077
:1017D8007FF90C4B58600C4806F0FBFF0B4C207A45
:1017E800FFF70CFF607AFFF735FFA07AFFF750FF8D
:1017F800E07AFFF76BFF207BFFF792FFFFF7DAFE37
:1018080010BD00BF7C0C0020440B0020500C0020B1
:1018180010B5064C0121204607F0CCFB80231F227F
:101828000021204607F090FB10BD00BF440B0020AC
:1018380030B583B005460F4C0F49204607F0DCFA57
:101848000E4B28221121204607F098FA2A460C4907
:10185800684609F00BF86B4628224B21204607F012
:101868008DFA084B28226921204607F087FA03B031
:1018780030BD00BF440B00202CFF000834DE0008F8
:1018880040DE000848DE000830B583B005460F4C3E
:101898000F49204607F0B0FA0E4B3222112120469C
:1018A80007F06CFA2A460C49684608F0DFFF6B46D9
:1018B80032224B21204607F061FA084B3222692177
:1018C800204607F05BFA03B030BD00BF440B002090
:1018D8002CFF000814DE000840DE000848DE00087F
:1018E80030B583B005460F4C0F49204607F084FAFF
:1018F8000E4B3C221121204607F040FA2A460C499B
:10190800684608F0B3FF6B463C224B21204607F09F
:1019180035FA084B3C226921204607F02FFA03B01C
:1019280030BD00BF440B00202CFF000820DE00085B
:101938002CDE000848DE000810B586B0294B93F964
:10194800073013F0010F43D0264A92F9063092F976
:101958000520254903A808F089FF244C244920467E
:1019680007F04AFA0021204607F024FB03A8FEF7F7
:1019780057FCC0F1190149088900013103AB0E2257
:10198800C9B2204607F0FAF90121204607F012FBF8
:101998001849204607F030FA124AB2F9003000938D
:1019A80092F9023092F90320134903A808F05EFF68
:1019B80003A8FEF735FCC0F116014908C90003ABBE
:1019C8001B2201F0F801204607F0D8F906B010BD37
:1019D800044A92F9063092F90520084903A808F04C
:1019E80045FFBAE7C00D0020E4DD0008440B0020E5
:1019F800E4410108840E010804DE0008F4DD000853
:101A080010B5034C0023237005F062F8606010BD28
:101A1800840C002038B5FFF7FBFEFFF78DFF0A4D59
:101A280068680A4CA4FB0030C00AFFF701FFA868E9
:101A3800A4FB0030C00AFFF727FFE868A4FB0030CA
:101A4800C00AFFF74DFF38BD600C0020C5B3A29156
:101A58002DE9F04387B0002404941F4B9A6942F0A3
:101A680010029A619A6902F010020092009A9A692B
:101A780042F008029A619B6903F008030193019BF5
:101A88004FF03C08CDF808804FF00109CDF80C90D4
:101A980002250595114F02A9384605F0A7FD4FF418
:101AA80070760296CDF80C90049405950C4D02A919
:101AB800284605F09BFD22464146384605F091FE32
:101AC80022463146284605F08CFE05F001F8054B04
:101AD800186007B0BDE8F08300100240000C014018
:101AE80000100140D00A002008B528B101222021A9
:101AF800044805F076FE08BD00222021014805F0C3
:101B080070FEF8E7000C014008B528B10122082151
:101B1800044805F066FE08BD00220821014805F0CA
:101B280060FEF8E7000C014008B528B10122102139
:101B3800044805F056FE08BD00221021014805F0B2
:101B480050FEF8E7000C014008B528B10122042135
:101B5800044805F046FE08BD00220421014805F0AE
:101B680040FEF8E7000C014008B5012837D043B221
:101B7800002B6CD0022831D104F0AAFF3B4B1B6824
:101B8800C01AB0F57A7F29D3394B00221A70394A26
:101B9800136901331361012B17D9374A0121517297
:101BA800042B12D913461973344A1178596011B9A4
:101BB80000229A705A70324808F0BAFD2F4A1378FA
:101BC800013B13702C4B0122DA722A4B19692D48FC
:101BD80008F0AEFD04F07CFF244B186008BD04F04B
:101BE80077FF224B1B68C01AB0F57A7FF6D3204BDB
:101BF80000221A701F4B19690131196101291ED978
:101C08001D4B01225A72072919D91B78934216D005
:101C1800194A012313731C4B1B89536043B91B4B8F
:101C28001B680133184A1381134B00229A705A70AB
:101C3800154A1389013B13810F4B0122DA721148AF
:101C480008F076FD04F044FF084B1860C6E70B4B1C
:101C580005221A70074B00221A610B4B1B89002BB7
:101C6800BCD1094B0A221A81B8E700BFD00A00206C
:101C7800740C0020600C0020500C00208C0C0020FC
:101C88004CDE000870DE0008200C0020900C0020BC
:101C980010B5084C207AFFF727FF607AFFF734FF6A
:101CA800A07AFFF741FFE07AFFF74EFFA078FFF731
:101CB8005BFF10BD500C0020054A53780133DBB29E
:101CC8005370312B02D9134600225A70704700BF57
:101CD800D80C002010B502213A4805F07BFDF0B978
:101CE800394A517891700023537092F903300133C7
:101CF800DBB258B2D070A1F11802D2B2042A0FD8C0
:101D0800314BFF22DA7001221A7000229A705A6051
:101D18002D4B93F903303D2B40D03E2B4BD010BDBB
:101D2800294A12784728CCBF002401240028A8BFDC
:101D3800012A23D114B30A1FD2B203F00103022AE5
:101D48000ED86BB100EBD07040104FF0004222FA71
:101D580000F01D4B5A6802435A6000229A70D7E778
:101D68000239C9B202298CBF00210121002BCFD032
:101D78000029CDD0144B00229A70C9E71C2994BFC2
:101D880000210121002A18BF00210029C0D00E4BD4
:101D980000229A701A70DA705A60B9E70A494A68DC
:101DA8000A48026090B24881120C0A81FF2AB4D115
:101DB800074A1080B1E7044B0022DA705A601A70A3
:101DC8009A70ACE700080140D80C0020940C002061
:101DD800E40C002008B5FFF77DFF08BD01604260F4
:101DE8000123037200234372C372704770B586B033
:101DF8000024039404940594184B9A6942F0100245
:101E08009A619B6903F010030193019B4FF470538F
:101E180002930123049302A9114805F0E7FB114E30
:101E2800114D224631462846FFF7D8FF2246314653
:101E380005F10C00FFF7D2FF2246314605F11800E4
:101E4800FFF7CCFF2246314605F12400FFF7C6FF15
:101E580004F03EFE054B186006B070BD001002404D
:101E68000010014001210008EC0C0020280D002082
:101E780010B50446032810D8DFE800F03F022955C2
:101E88004FF480513C4805F0A5FCC0B904EB44036D
:101E98009A003A4B134400225A726200224491007D
:101EA800364B0B445A7A1B7A9A425CD0334A0A441E
:101EB800D37A0133DBB2D372052B4AD010BD04EBC1
:101EC80044039A002D4B134401225A72E5E74FF45C
:101ED8000061294805F07EFC38B904EB44039A00F8
:101EE800264B134400225A72D7E704EB44039A00A6
:101EF800224B134401225A72CFE74FF480611E48E7
:101F080005F068FC38B904EB44039A001B4B1344F2
:101F180000225A72C1E704EB44039A00174B13449A
:101F280001225A72B9E74FF40051134805F052FCE8
:101F380038B904EB44039A00104B134400225A7238
:101F4800ABE704EB44039A000C4B134401225A728A
:101F5800A3E70A496300181982000A44507A1072EC
:101F68000023D372AAE704EB4404A200034B1344F2
:101F78000022DA72A2E700BF00100140EC0C00203A
:101F88002DE9F84305468846002428E0DFF86091EB
:101F9800484606F01EFC4F49484606F02DFF002132
:101FA800484607F007F84C4B642202FB0437023717
:101FB8003846FEF735F9C0F116035B0803EB430317
:101FC80059003B460C2201F0FE01484606F0D6FEB9
:101FD8000121484606F0EEFF6EE00134E4B2102C11
:101FE80074D83E4804F09BFA2746642303FB04F3A5
:101FF800394AD35AAB42F0D1642303FB0423DE6D84
:10200800002EEAD0B5F5807F05D0B5F5007F02D067
:10201800B5F5407FBAD1DFF8D890484606F0D9FB2D
:102028002C49484606F0E8FE0021484606F0C2FF63
:102038002B4B0C221821484606F0A0FE01214846E9
:1020480006F0B8FF244A642303FB07270237394602
:10205800002007F07BFA034618220A21484606F0BA
:102068008DFE3946012007F071FA034624220A2121
:10207800484606F083FE3946022007F067FA034611
:1020880030220A21484606F079FE3946032007F037
:102098005DFA03463C220A21484606F06FFE114BC2
:1020A8001B78013303EB43039A000F4B02F0FC0249
:1020B8000121484606F062FE0C490D4806F09CFED8
:1020C80041462046B0470B4B1D8001E005F47F4098
:1020D800BDE8F8837C15010834DF0008380E0020BD
:1020E80020DF00080000002030DF0008A8060108F3
:1020F800440B0020EE03002010B50446032800F22C
:10210800C080DFE800F0633302926B4B41F27072DB
:102118001A806A4B1B882BB3B3F5807F0BD0B3F5BD
:10212800007F08D0B3F5407F05D02146634B18885F
:10213800FFF726FFA5E062490A780132D2B20A7099
:10214800042AF2D90A460121117003F580739BB263
:102158005A4A1380B3F5407FE7D913464FF480728B
:102168001A80E2E7574B00221A708AE0524B41F27C
:1021780070721A80514B1B8823B3B3F5807F0BD044
:10218800B3F5007F08D0B3F5407F05D021464B4B0F
:102198001888FFF7F5FE74E049490A78013AD2B287
:1021A8000A70002AF2D10A4604211170A3F580733F
:1021B8009BB2424A1380FF2BE8D813464FF4407273
:1021C8001A80E3E73F4B0F221A705AE03B4B1888FE
:1021D80088B93D4A138801339BB21380C82B50D964
:1021E800134600221A804FF48070344B1880214621
:1021F800FFF7C6FE45E0B0F5807F05D0B0F5007F5B
:1022080002D0B0F5407F0CD12D4B1B78184480B21A
:102218002A4B1880284BC8221A80FF21FFF7B0FEEE
:102228002FE02146FFF7ACFE2BE0244B1B88002B48
:1022380030D0B3F5807F08D0B3F5007F05D0B3F573
:10224800407F02D0B3F5806F1CD11C4B00221A804E
:102258001B4B01221A701D4808F0F0FA2146174B53
:102268001888FFF78DFE1A4B1B7813B1184B002204
:102278001A70174B1978174808F05AFA164808F0D8
:10228800DDFA10BD03F47F430C4A1380134808F0AD
:10229800D5FAE3E74FF48060084B18802146FFF732
:1022A8006FFE0B4C0123237002F05CFA21780C4876
:1022B80008F03EFAE2E700BFF0030020EC0300203C
:1022C80000000020740C0020F4030020A8DE0008A1
:1022D800500C0020CCDE000808DF000884DE00086F
:1022E800DCDE000838B504F0F3FB454B1B68C01A68
:1022F80004286BD838BD434B1B88002B34D1424A85
:10230800138801339BB21380642B2DD91346002206
:102318001A804FF480703B4B18802146FFF730FE3F
:1023280022E03A4804F0FBF805EB45029300384AEE
:10233800D3582046984705EB45039A00344B13447D
:102348001B7A012B33D00134E4B2032C40D8204649
:10235800FFF78EFD254604EB44039A002C4B1344EB
:102368001B7A0BB9002CC6D005EB45039A00284B05
:1023780013441B7A002BDED1254B13449B7A002B88
:10238800D9D123498B1801209872224B41F27070E1
:1023980018808A58204B9A42C3D005EB4502930017
:1023A80000221D491A481844FFF718FDC3E7184BC7
:1023B80013449B7A012BC6D10022134B1A8005EBDC
:1023C8004505A900124B0B449A72BCE70024BCE7F0
:1023D800104B1B8813B1013B0E4A13800D4B1B8811
:1023E80013B9084B00221A800C4B1B8813B1013B10
:1023F8000A4A138004F06CFB014B18607AE700BFAF
:10240800280D0020EC030020F4030020380E0020E3
:10241800EC0C0020F203002001210008F00300204A
:1024280000207047034B044A1168526819605A60CB
:10243800002070478C0D0020C00D00200020704740
:1024480000207047F0B583B005460C465A2200219B
:102458009C4807F0F3F9642000FB05F09A4B1D5ADD
:102468009A4B1B889D4202D0994B00221A80012C5E
:1024780023D0022C7DD03CB9954B1B88042B00F24D
:10248800D1800133924A1380924C9349204606F03A
:10249800B3FC42F2F13324220521204606F008FC61
:1024A8008B4B1B88052B00F20A81DFE813F0CE0066
:1024B80025016A01A501E0012502854B1B88052B32
:1024C800D7D8DFE803F003101D2A3744834B93F96C
:1024D8000530162B03DC0133804A5371C9E77F4B63
:1024E80000225A71C5E77D4B93F906303A2B03DC7D
:1024F80001337A4A9371BCE7784B00229A71B8E7A6
:10250800764B93F907303A2B03DC0133734AD371C6
:10251800AFE7724B0022DA71ABE7704B93F90330E7
:102528001E2B03DC01336D4AD370A2E76B4B0022EC
:10253800DA709EE7694B93F902300B2B03DC013309
:10254800664A937095E7654B00229A7091E7634B52
:10255800B3F9003040F63202934203DC01335F4A9C
:10256800138086E75D4B6FF01C021A7007225A70C1
:102578007FE7574B1B88052B3FF67DAFDFE803F05D
:10258800030F1B273441554B93F905301BB1013B11
:10259800524A53716FE7514B17225A716BE74F4BF1
:1025A80093F906301BB1013B4C4A937163E74B4BDF
:1025B8003B229A715FE7494B93F907301BB1013B06
:1025C800464AD37157E7454B3B22DA7153E7434BF1
:1025D80093F90330012B03DD013B404AD3704AE7EE
:1025E8003E4B1F22DA7046E73C4B93F90230012B31
:1025F80003DD013B394A93703DE7384B0C229A7052
:1026080039E7364BB3F9003040F2E372934203DD09
:10261800013B324A13802EE7304B33221A700822CE
:102628005A7028E72E482D4B1A685B680260436091
:102638004379073B4371072102F02EF9294B3C22CD
:102648003021244806F09AFB1EE7224C26492046F2
:1026580006F0D2FB0021204606F0ACFC1F4F194EB5
:1026680097F905202149304608F000F9334624221D
:102678001146204606F082FB0121204606F09AFC0E
:1026880097F9073097F906201949304608F0EEF80F
:10269800334624223021204606F070FBB7F900307B
:1026A800009397F9023097F903201249304608F051
:1026B800DDF8334630221E21204606F05FFB28460F
:1026C80003B0F0BD300D002034DF0008EE03002019
:1026D800E80C0020440B0020745901088C0D0020E0
:1026E800C00D0020B8E600087C150108ACDD000824
:1026F800F0E60008C0E600089D4E9E49304606F008
:102708007BFB9D4F9D4C97F905209D49204608F07D
:10271800ADF8234624221146304606F02FFB00214F
:10272800304606F047FC97F906209649204608F0FF
:102738009DF8234624223621304606F01FFB01214E
:10274800304606F037FC97F907208F49204608F0F5
:102758008DF8234624224221304606F00FFBB7F9B4
:102768000030009397F9023097F9032087492046F3
:1027780008F07CF8234630221E21304606F0FEFA87
:102788009DE77B4C7B49204606F036FB7A4F7B4E13
:1027980097F9063097F905207D49304608F066F824
:1027A800334624221146204606F0E8FA0021204646
:1027B80006F000FC97F907207249304608F056F8F1
:1027C800334624224821204606F0D8FA0121204623
:1027D80006F0F0FBB7F90030009397F9023097F94B
:1027E80003206A49304608F041F8334630221E215A
:1027F800204606F0C3FA62E75D4C5E49204606F0C3
:10280800FBFA5D4F97F907305C4E009397F9063055
:1028180097F905205F49304608F028F83346242206
:102828001146204606F0AAFA0021204606F0C2FB0F
:1028380097F903205349304608F018F833463022F8
:102848001E21204606F09AFA0121204606F0B2FB26
:10285800B7F9003097F902204F49304608F006F8DA
:10286800334630222A21204606F088FA27E7404ED0
:102878004049304606F0C0FA3F4F97F907303F4CC1
:10288800009397F9063097F905204249204607F04A
:10289800EDFF234624221146304606F06FFA97F9D9
:1028A80003203E49204607F0E1FF234630221E213F
:1028B800304606F063FA0021304606F07BFB97F9B4
:1028C80002203049204607F0D1FF23463022114626
:1028D800304606F053FA0121304606F06BFBB7F993
:1028E80000202F49204607F0C1FF234630223C2113
:1028F800304606F043FAE2E61D4C1E49204606F033
:102908007BFA1D4F97F907301C4E009397F9063054
:1029180097F905201F49304607F0A8FF33462422BF
:102928001146204606F02AFA97F9023097F9032053
:102938001C49304607F09AFF334630221E212046B4
:1029480006F01CFA0021204606F034FBB7F90020F7
:102958001549304607F08AFF334630224221204687
:1029680006F00CFA0121204606F024FBA7E600BF7A
:10297800440B00207C1501088C0D0020300D002030
:10298800D0E60008ACDD0008D8E60008C0E600087C
:10299800E0E60008ECE60008C4E60008FCE60008EB
:1029A80004E700080CE7000840DE0008F8B5054613
:1029B8000C465A220021774806F040FF642000FBAD
:1029C80005F0754B1D5A754B1B889D4212D0744BF0
:1029D8001989744B1960744B00221A80734BA3FB3E
:1029E8000123DB08724A137003EB83035A008A1A27
:1029F800704B1A70012C2AD0022C45D034B96A4B7E
:102A08001B88002B5BD10133674A1380664B1B88F8
:102A1800002B6ED0012B00F09480674E674C314636
:102A2800204606F0E9F942F2F7332422192120461C
:102A380006F03EF93146204606F0DEF942F2F6335A
:102A480024225021204606F033F92846F8BD564B7B
:102A58001B884BB1012BCFD1564B1B78082B0FD8B5
:102A68000133544A1370C7E7514B1B78082B03D81E
:102A780001334F4A1370BFE74D4B00221A70BBE772
:102A88004C4B00221A70B7E7474B1B8843B1012B08
:102A9800B4D1484B1B7873B1013B464A1370ADE77C
:102AA800434B1B781BB1013B414A1370A6E7404BCF
:102AB80009221A70A2E73F4B09221A709EE73C4B85
:102AC8001B7803EB83035A003A4B1B781344354AAF
:102AD8001360334A1381FEF71BFC384C38492046F3
:102AE80006F08AF9374B3C223021204606F046F999
:102AF8008CE7324C3449204606F07EF90021204606
:102B080006F058FA314F234E294B1A783946304689
:102B180007F0ACFE334624223221204606F02EF977
:102B28000121204606F046FA224B1A7839463046EB
:102B380007F09CFE334624223E21204606F01EF96B
:102B48006BE71E4C2049204606F056F91F4F114EE0
:102B5800174B1A783946304607F088FE3346242248
:102B68003221204606F00AF90021204606F022FA12
:102B7800104B1A783946304607F078FE334624223F
:102B88003E21204606F0FAF80121204606F012FA06
:102B980043E700BF300D002034DF0008EE030020BB
:102BA800200C0020900C0020E80C0020CDCCCCCCD0
:102BB800950D0020940D002074590108440B002045
:102BC8007C150108B8E60008E4EB00084CE60008AC
:102BD800F8B505460C465A2200213F4806F02EFE5D
:102BE800642000FB05F03D4B1E5A3D4B1B889E425E
:102BF80003D03C4BDA783C4B1A60022C2BD0012CCA
:102C080034D0394B1B68002B3BD0374B1B68012B4A
:102C180044D0364D3649284606F0EEF82E4F384651
:102C2800FDF7FEFAC0F11601324B1E2201F0FE013B
:102C3800284606F0A3F83846FDF7F2FAC0F1160167
:102C48002D4B2D2201F0FE01284606F097F8002CA6
:102C580031D03046F8BD244B1B681BB90133224ADA
:102C68001360CCE7204B00221A60C8E71E4B1B6894
:102C78001BB1013B1C4A1360C3E71B4B01221A60BE
:102C8800BFE71A4D1D49284606F0B6F842F21373FD
:102C98001E220421284606F00BF8B6E7134D174903
:102CA800284606F0A9F842F213732D22042128467B
:102CB80005F0FEFFADE70C4B1A780A4BDA70FEF709
:102CC80027FB0F49284606F097F80E4B3C22302187
:102CD800284606F053F8BCE7300D002034DF000822
:102CE800EE030020200C0020900C0020440B002054
:102CF800481F0108A0E60008ACE60008745901085E
:102D08007C150108B8E60008F8B504460D465A22B5
:102D180000214E4806F092FD642000FB04F04C4B65
:102D28001F5A4C4B1B889F4203D04B4B1A794B4B75
:102D38001A60022D3BD0012D45D0484B1B68002B53
:102D48004CD0464B1B68012B55D0444B1B68022BBB
:102D58005ED0434C4349204606F04EF83B4E304681
:102D6800FDF75EFAC0F116013F4B1C2201F0FE018F
:102D7800204606F003F83046FDF752FAC0F1160176
:102D88003A4B282201F0FE01204605F0F7FF3046B5
:102D9800FDF746FAC0F11601354B342201F0FE0169
:102DA800204605F0EBFF002D3FD03846F8BD2B4BF1
:102DB8001B68012B03D9294B00221A60BBE701339A
:102DC800264A1360B7E7254B1B681BB1013B234A12
:102DD8001360B2E7214B02221A60AEE7204C254966
:102DE800204606F009F842F213731C2204212046FB
:102DF80005F05EFFA5E71A4C1E49204605F0FCFFCA
:102E080042F2137328220421204605F051FF9CE763
:102E1800134C1849204605F0EFFF42F21373342291
:102E28000421204605F044FF93E70C4B1A780A4B1F
:102E38001A71FEF76DFA0B49204605F0DDFF0E4BBF
:102E48003E223021204605F099FFAEE7300D0020E4
:102E580034DF0008EE030020200C0020900C002036
:102E6800440B00207C15010878E6000880E600087D
:102E78008CE6000874590108B8E600082DE9F0410D
:102E880082B004460D465A2200213F4806F0D6FC7F
:102E9800642000FB04F03D4B33F800803C4B1B885A
:102EA800984503D03B4B5A783B4B1A603B4C3C4906
:102EB800204605F0A1FF4FF418532422052120468F
:102EC80005F0F6FE012D3FD0022D45D0324F38785F
:102ED800FEF774F9314C0A2300933B781822142129
:102EE800204605F028FC2E49204605F085FF42F2D1
:102EF800EC3330222821204605F0DAFE42F2EB338B
:102F080030224D21204605F0D3FE1F4E3A68254950
:102F1800304607F0ABFC2449204605F06DFF3046EB
:102F2800FDF77EF9C0F11600400800EB40004100B3
:102F38003346302201F0FE01204605F01FFF9DB107
:102F4800404602B0BDE8F081134B1B68632BBBD829
:102F58000133114A1360B7E70F4B1B68002BB5D03C
:102F6800013B0D4A1360B1E73A780A4B5A70FEF7F5
:102F7800CFF90D49204605F03FFF0C4B3C2230218C
:102F8800204605F0FBFEDBE7300D002034DF0008AB
:102F9800EE030020200C0020900C0020440B0020A1
:102FA8007459010870E600087C150108B8E60008A5
:102FB800F8B505460C465A220021414806F03EFC69
:102FC800642000FB05F03F4B1E5A3F4B1B889E4276
:102FD80003D03E4B9A783E4B1A60022C2BD0012C22
:102FE80034D03B4B1B68002B3BD0394B1B68012B63
:102FF80046D0384D3849284605F0FEFE304F384651
:10300800FDF70EF9C0F11601344B1E2201F0FE0146
:10301800284605F0B3FE3846FDF702F9C0F116015F
:103028002F4B2D2201F0FE01284605F0A7FE002CAB
:1030380035D03046F8BD264B1B681BB90133244AEE
:103048001360CCE7224B00221A60C8E7204B1B68AC
:103058001BB1013B1E4A1360C3E71D4B01221A60D6
:10306800BFE71C4D1F49284605F0C6FE42F2137300
:103078001E220421284605F01BFEFEF7AFF8B4E730
:10308800144D1849284605F0B7FE42F213732D2255
:103098000421284605F00CFEFEF79AF8A9E70C4B28
:1030A8001A780A4B9A70FEF733F90F49284605F04B
:1030B800A3FE0E4B3C223021284605F05FFEB8E700
:1030C800300D002034DF0008EE030020200C002023
:1030D800900C0020440B0020481F010850E600080F
:1030E80060E60008745901087C150108B8E6000874
:1030F800F8B504460F465A220021284806F09EFBE0
:10310800642000FB04F0264B1E5A264B1B889E4267
:1031180002D0254B00221A60244B5B68244A934254
:1031280005D94FF4616202FB03F3204A5360214C36
:103138002149204605F060FE42F2F033362237215D
:10314800204605F0B5FD194B5A681C4BA3FB02320B
:10315800124DD20A1A49284607F088FB1949204619
:1031680005F04AFE184B18221221204605F006FEEB
:103178002846FDF755F8C0F11600400800EB40005E
:1031880041002B46242201F0FE01204605F0F6FD01
:103198000FB13046F8BDFEF7BBF8FAE7300D002056
:1031A80034DF0008EE030020900C0020600C0020A3
:1031B800FF502502440B002074590108C5B3A291A1
:1031C80050E700087C1501085CE70008F8B50446DC
:1031D8000F465A220021284806F030FB642000FBE5
:1031E80004F0264B1E5A264B1B889E4202D0254BC4
:1031F80000221A60244B9B68244A934205D94FF455
:10320800616202FB03F3204A9360214C2149204666
:1032180005F0F2FD42F2F03336223721204605F060
:1032280047FD194B9A681C4BA3FB0232124DD20A78
:103238001A49284607F01AFB1949204605F0DCFD13
:10324800184B18220C21204605F098FD2846FCF75B
:10325800E7FFC0F11600400800EB400041002B4694
:10326800242201F0FE01204605F088FD0FB130460A
:10327800F8BDFEF74DF8FAE7300D002034DF0008FE
:10328800EE030020900C0020600C0020FF50250267
:10329800440B002074590108C5B3A29150E70008F7
:1032A8007C15010818E70008F8B504460F465A22AD
:1032B8000021284806F0C2FA642000FB04F0264BDF
:1032C8001E5A264B1B889E4202D0254B00221A60AC
:1032D800244BDB68244A934205D94FF4616202FB10
:1032E80003F3204AD360214C2149204605F084FD90
:1032F80042F2F03336223721204605F0D9FC194B2B
:10330800DA681C4BA3FB0232124DD20A1A4928462E
:1033180007F0ACFA1949204605F06EFD184B182243
:103328000621204605F02AFD2846FCF779FFC0F162
:103338001600400800EB400041002B46242201F013
:10334800FE01204605F01AFD0FB13046F8BDFDF725
:10335800DFFFFAE7300D002034DF0008EE0300201D
:10336800900C0020600C0020FF297515440B0020EC
:1033780074590108C5B3A2912CE700087C1501080F
:1033880038E700082DE9F04182B005460C465A227C
:1033980000219B4806F052FA642000FB05F0994B87
:1033A8001D5A994B1B889D420CD00023974A1360E5
:1033B800974A1380974A1370974A1370974A137065
:1033C800974A137034B9924B1B88022B1DD80133CE
:1033D8008F4A1380012C77D0022C00F0AD80914CDD
:1033E8009149204605F008FD904B182212212046ED
:1033F80005F0C4FC864B1B88032B00F2FD80DFE838
:1034080013F0D00025015B019101824B1B78824AA1
:103418001178642202FB01F24FF47A7101FB032355
:103428007F4A127802EB820251000B447B4A1278E1
:103438001344764A13607E4A528993421BD0704FD8
:103448003846FCF7EDFEC0F11600400800EB4000DE
:103458004100744E3B46242201F0FE01304605F03F
:103468008DFC744B30221221304605F087FC684BE6
:1034780000221A80AEE7704B00225A60FEF720F84F
:10348800FDF746FF5E4E3046FCF7CAFEC0F1160057
:10349800400800EB40004100DFF8888133462422D1
:1034A80001F0FE01404605F069FC644F0FCF306023
:1034B8007160B260F3603B883382614B302218211F
:1034C800404605F05BFC85E7514B1B88032B83D8EE
:1034D800DFE803F0020E1A264E4B1B78082B03D8A0
:1034E80001334C4A137077E74A4B00221A7073E78E
:1034F800494B1B78082B03D80133474A13706BE7F5
:10350800454B00221A7067E7454B1B78082B03D8F8
:103518000133434A13705FE73F4B00221A705BE7A1
:103528003E4B1B78082B03D801333C4A137053E7F2
:103538003A4B00221A704FE7354B1B88032B3FF696
:103548004EAFDFE803F0020D1823324B1B781BB196
:10355800013B304A137042E72E4B09221A703EE7AE
:103568002D4B1B781BB1013B2B4A137037E72A4BB5
:1035780009221A7033E72A4B1B781BB1013B284AF2
:1035880013702CE7264B09221A7028E7234B1B7867
:103598001BB1013B214A137021E7204B09221A7005
:1035A8001DE7204C2049204605F026FC0021204636
:1035B80005F000FD124E174B1A782249304607F0E5
:1035C80055F9334624223021204605F0D7FB012146
:1035D800204605F0EFFC114B1B780093104B1B782D
:1035E8000D4A12781849304607F040F9334624222C
:1035F8003621204605F0C2FB284602B0BDE8F0811E
:10360800300D002034DF0008EE030020900C00206D
:10361800E80C0020960D00202C0D0020940D0020B1
:10362800950D0020440B00207C15010838E60008A1
:10363800200C002028E60008600C002004E60008A2
:1036480018E600084CE6000848E600084B4C4C49D0
:10365800204605F0D1FB4B4F4B4E4C4B1A78394660
:10366800304607F003F9334624223021204605F07E
:1036780085FB0021204605F09DFC454B1A7839460C
:10368800304607F0F3F8334624223621204605F069
:1036980075FB0121204605F08DFC3E4B1B783E4A08
:1036A80012783E49304607F0E1F8334624223C219F
:1036B800204605F063FB9FE7304C3149204605F072
:1036C8009BFB314E324B1B78304A127833493046D7
:1036D80007F0CCF8334624223021204605F04EFB73
:1036E8000021204605F066FC264F2B4B1A783946F8
:1036F800304607F0BBF8334624223C21204605F02B
:103708003DFB0121204605F055FC224B1A7839462D
:10371800304607F0ABF8334624224221204605F014
:103728002DFB69E7154C1649204605F065FB164E3A
:10373800194B1B780093164B1B78144A12781849BA
:10374800304607F093F8334624223021204605F00E
:1037580015FB0021204605F02DFC0E4B1A7809496F
:10376800304607F083F8334624224221204605F0EC
:1037780005FB0121204605F01DFC3DE7440B002018
:103788007C1501084CE60008300D0020960D00203D
:103798002C0D0020940D0020950D002098E60008BF
:1037A80048E600082DE9F04182B005460C465A2249
:1037B80000219B4806F042F8642000FB05F0994B75
:1037C8001D5A994B1B889D420CD00023974A1360C1
:1037D800974A1380974A1370974A1370974A137041
:1037E800974A137034B9924B1B88022B1DD80133AA
:1037F8008F4A1380012C77D0022C00F0AD80914CB9
:103808009149204605F0F8FA904B182212212046DB
:1038180005F0B4FA864B1B88032B00F2FD80DFE825
:1038280013F0D00025015B019101824B1B78824A7D
:103838001178642202FB01F24FF47A7101FB032331
:103848007F4A127802EB820251000B447B4A1278BD
:103858001344764A13607E4A528993421BD0704FB4
:103868003846FCF7DDFCC0F11600400800EB4000CC
:103878004100744E3B46242201F0FE01304605F01B
:103888007DFA744B30221221304605F077FA684BE6
:1038980000221A80AEE7704B00229A60FDF710FEF6
:1038A800FDF736FD5E4E3046FCF7BAFCC0F1160057
:1038B800400800EB40004100DFF8888133462422AD
:1038C80001F0FE01404605F059FA644F0FCF306011
:1038D8007160B260F3603B883382614B30221821FB
:1038E800404605F04BFA85E7514B1B88032B83D8DC
:1038F800DFE803F0020E1A264E4B1B78082B03D87C
:1039080001334C4A137077E74A4B00221A7073E769
:10391800494B1B78082B03D80133474A13706BE7D0
:10392800454B00221A7067E7454B1B78082B03D8D4
:103938000133434A13705FE73F4B00221A705BE77D
:103948003E4B1B78082B03D801333C4A137053E7CE
:103958003A4B00221A704FE7354B1B88032B3FF672
:103968004EAFDFE803F0020D1823324B1B781BB172
:10397800013B304A137042E72E4B09221A703EE78A
:103988002D4B1B781BB1013B2B4A137037E72A4B91
:1039980009221A7033E72A4B1B781BB1013B284ACE
:1039A80013702CE7264B09221A7028E7234B1B7843
:1039B8001BB1013B214A137021E7204B09221A70E1
:1039C8001DE7204C2049204605F016FA0021204624
:1039D80005F0F0FA124E174B1A782249304606F0D5
:1039E80045FF334624223021204605F0C7F901213E
:1039F800204605F0DFFA114B1B780093104B1B781B
:103A08000D4A12781849304606F030FF3346242212
:103A18003621204605F0B2F9284602B0BDE8F0810B
:103A2800300D002034DF0008EE030020900C002049
:103A3800E80C0020960D00202C0D0020940D00208D
:103A4800950D0020440B00207C15010838E600087D
:103A5800200C002028E60008600C002004E600087E
:103A680018E600084CE6000848E600084B4C4C49AC
:103A7800204605F0C1F94B4F4B4E4C4B1A7839464E
:103A8800304606F0F3FE334624223021204605F066
:103A980075F90021204605F08DFA454B1A7839460C
:103AA800304606F0E3FE334624223621204605F050
:103AB80065F90121204605F07DFA3E4B1B783E4A08
:103AC80012783E49304606F0D1FE334624223C2186
:103AD800204605F053F99FE7304C3149204605F060
:103AE8008BF9314E324B1B78304A127833493046C5
:103AF80006F0BCFE334624223021204605F03EF96C
:103B08000021204605F056FA264F2B4B1A783946E5
:103B1800304606F0ABFE334624223C21204605F011
:103B28002DF90121204605F045FA224B1A7839462D
:103B3800304606F09BFE334624224221204605F0FB
:103B48001DF969E7154C1649204605F055F9164E3A
:103B5800194B1B780093164B1B78144A1278184996
:103B6800304606F083FE334624223021204605F0F5
:103B780005F90021204605F01DFA0E4B1A7809496F
:103B8800304606F073FE334624224221204605F0D3
:103B9800F5F80121204605F00DFA3DE7440B002019
:103BA8007C1501084CE60008300D0020960D002019
:103BB8002C0D0020940D0020950D002098E600089B
:103BC80048E600082DE9F04182B005460C465A2225
:103BD80000219B4805F032FE642000FB05F0994B5C
:103BE8001D5A994B1B889D420CD00023974A13609D
:103BF800974A1380974A1370974A1370974A13701D
:103C0800974A137034B9924B1B88022B1DD8013385
:103C18008F4A1380012C77D0022C00F0AD80914C94
:103C28009149204605F0E8F8904B182212212046C9
:103C380005F0A4F8864B1B88032B00F2FD80DFE813
:103C480013F0D00025015B019101824B1B78824A59
:103C58001178642202FB01F24FF47A7101FB03230D
:103C68007F4A127802EB820251000B447B4A127899
:103C78001344764A13607E4A528993421BD0704F90
:103C88003846FCF7CDFAC0F11600400800EB4000BA
:103C98004100744E3B46242201F0FE01304605F0F7
:103CA8006DF8744B30221221304605F067F8684BE6
:103CB80000221A80AEE7704B0022DA60FDF700FCA4
:103CC800FDF726FB5E4E3046FCF7AAFAC0F1160057
:103CD800400800EB40004100DFF888813346242289
:103CE80001F0FE01404605F049F8644F0FCF3060FF
:103CF8007160B260F3603B883382614B30221821D7
:103D0800404605F03BF885E7514B1B88032B83D8C9
:103D1800DFE803F0020E1A264E4B1B78082B03D857
:103D280001334C4A137077E74A4B00221A7073E745
:103D3800494B1B78082B03D80133474A13706BE7AC
:103D4800454B00221A7067E7454B1B78082B03D8B0
:103D58000133434A13705FE73F4B00221A705BE759
:103D68003E4B1B78082B03D801333C4A137053E7AA
:103D78003A4B00221A704FE7354B1B88032B3FF64E
:103D88004EAFDFE803F0020D1823324B1B781BB14E
:103D9800013B304A137042E72E4B09221A703EE766
:103DA8002D4B1B781BB1013B2B4A137037E72A4B6D
:103DB80009221A7033E72A4B1B781BB1013B284AAA
:103DC80013702CE7264B09221A7028E7234B1B781F
:103DD8001BB1013B214A137021E7204B09221A70BD
:103DE8001DE7204C2049204605F006F80021204612
:103DF80005F0E0F8124E174B1A782249304606F0C3
:103E080035FD334624223021204604F0B7FF012136
:103E1800204605F0CFF8114B1B780093104B1B7808
:103E28000D4A12781849304606F020FD3346242200
:103E38003621204604F0A2FF284602B0BDE8F081F2
:103E4800300D002034DF0008EE030020900C002025
:103E5800E80C0020960D00202C0D0020940D002069
:103E6800950D0020440B00207C15010838E6000859
:103E7800200C002028E60008600C002004E600085A
:103E880018E600084CE6000848E600084B4C4C4988
:103E9800204604F0B1FF4B4F4B4E4C4B1A78394635
:103EA800304606F0E3FC334624223021204604F055
:103EB80065FF0021204605F07DF8454B1A78394604
:103EC800304606F0D3FC334624223621204604F03F
:103ED80055FF0121204605F06DF83E4B1B783E4A00
:103EE80012783E49304606F0C1FC334624223C2174
:103EF800204604F043FF9FE7304C3149204604F048
:103F08007BFF314E324B1B78304A127833493046AA
:103F180006F0ACFC334624223021204604F02EFF64
:103F28000021204605F046F8264F2B4B1A783946D3
:103F3800304606F09BFC334624223C21204604F000
:103F48001DFF0121204605F035F8224B1A78394625
:103F5800304606F08BFC334624224221204604F0EA
:103F68000DFF69E7154C1649204604F045FF164E2B
:103F7800194B1B780093164B1B78144A1278184972
:103F8800304606F073FC334624223021204604F0E4
:103F9800F5FE0021204605F00DF80E4B1A78094968
:103FA800304606F063FC334624224221204604F0C2
:103FB800E5FE0121204604F0FDFF3DE7440B00200B
:103FC8007C1501084CE60008300D0020960D0020F5
:103FD8002C0D0020940D0020950D002098E6000877
:103FE80048E600082DE9F04182B005460C465A2201
:103FF80000219F4805F022FC642303FB05F39D4A3A
:10400800D25A9D4B1B889A4215D000239B4A1360B5
:104018009B4A13809B4A13709B4A13709B4A1370E8
:104028009B4A13709B4E9C4A03CA306071609B4A3E
:1040380013709B4A137044B9994B1B782BB9984B52
:1040480001221A708E4B00221A80954B1B781BB1E7
:10405800631E9BB2012B25D9904B1B7833B334B91F
:10406800874B1B88022B58D80133854A1380012CB3
:1040780000F08F80022C00F0C5808A4C8A492046C7
:1040880004F0BAFE894B18221221204604F076FE6D
:104098007B4B1B88032B38D8DFE813F01801440149
:1040A8007A01B0017D4B01221A70D5E7DFF818823A
:1040B8007C4E4146304604F09FFE764CB4F9003001
:1040C8006B4F009394F9023094F9032078493846ED
:1040D80006F0CCFB3B4620221221304604F04EFE6F
:1040E80094F90730009394F9063094F90520714942
:1040F800384606F0BBFB4146304604F07DFE3B46A1
:1041080030221221304604F039FE642000FB05F00D
:10411800584B185A02B0BDE8F0815A4B1B785A4ADE
:104128001178642202FB01F24FF47A7101FB032338
:10413800574A127802EB820251000B44534A127814
:1041480013444E4A13605C4A928993420ED0554EEE
:104158005549304604F050FE584B30221221304663
:1041680004F00CFE464B00221A8080E7544A4A4B62
:104178001068516803C3FDF7CBF84A4E4A493046E8
:1041880004F03AFE4F4B30220021304604F0F6FD91
:104198006DE73B4B1B88032B3FF66CAFDFE803F062
:1041A800020E1A26374B1B78082B03D80133354AE1
:1041B80013705FE7334B00221A705BE7324B1B78B2
:1041C800082B03D80133304A137053E72E4B0022D3
:1041D8001A704FE72E4B1B78082B03D801332C4A53
:1041E800137047E7284B00221A7043E7274B1B78C8
:1041F800082B03D80133254A13703BE7234B0022D1
:104208001A7037E71E4B1B88032B3FF636AFDFE8E3
:1042180003F0020D18231B4B1B781BB1013B194AF5
:1042280013702AE7174B09221A7026E7164B1B78DA
:104238001BB1013B144A13701FE7134B09221A7074
:104248001BE7134B1B781BB1013B114A137014E792
:104258000F4B09221A7010E70C4B1B781BB1013B5E
:104268000A4A137009E7094B09221A7005E700BFCB
:10427800300D002034DF0008EE030020900C0020F1
:10428800E80C0020960D00202C0D0020940D002035
:10429800950D00208C0D0020440C00208B0D002073
:1042A8008A0D0020440B00207C15010838E6000820
:1042B80004DE0008D8E50008200C002028E60008E5
:1042C800C00D0020ECE5000884370108614C624904
:1042D800204604F091FD0021204604F06BFE5F4E5D
:1042E8005F4B1A785F49304606F0C0FA33462422FD
:1042F8003021204604F042FD0121204604F05AFEF8
:10430800594B1B780093594B1B78594A12785949D5
:10431800304606F0ABFA334624223621204604F014
:104328002DFDF2E64B4C4C49204604F065FD4D4FFF
:104338004A4E4B4B1A783946304606F097FA3346C0
:1043480024223021204604F019FD0021204604F0E3
:1043580031FE474B1A783946304606F087FA33461D
:1043680024223621204604F009FD0121204604F0CC
:1043780021FE3D4B1B783D4A12783F49304606F0F6
:1043880075FA334624223C21204604F0F7FCBCE6AB
:10439800304C3149204604F02FFD304E344B1B7809
:1043A8002F4A12783449304606F060FA3346242200
:1043B8003021204604F0E2FC0021204604F0FAFDFA
:1043C800284F2A4B1A783946304606F04FFA3346BA
:1043D80024223C21204604F0D1FC0121204604F08F
:1043E800E9FD214B1A783946304606F03FFA334644
:1043F80024224221204604F0C1FC86E6154C1649C9
:10440800204604F0F9FC154E184B1B780093184B06
:104418001B78134A12781749304606F027FA3346B4
:1044280024223021204604F0A9FC0021204604F073
:10443800C1FD0D4B1A780B49304606F017FA334682
:1044480024224221204604F099FC0121204604F050
:10445800B1FD5AE6440B00207C150108300D002000
:10446800960D00204CE60008940D0020950D0020C4
:104478002C0D002048E6000898E6000810B584B026
:104488000024019403943F23009301230293694677
:104498000C4803F0ABF80C4B1C700B4B1B78052B2E
:1044A8000AD8094800EB8302002151709170D1703D
:1044B800117101330370F0E702F00AFB024BD86177
:1044C80004B010BD00100140980D002008B502F09E
:1044D800FFFAA04BDB69C01A012800D808BD0121EA
:1044E8009D4803F077F940B9022100F1804000F5BA
:1044F800883003F06FF9002859D00121964803F05D
:1045080069F940B9022100F1804000F5883003F0D4
:1045180061F9002860D001218F4803F05BF9012878
:104528006BD001218C4803F055F901287DD0012179
:10453800894803F04FF948B9022100F1804000F59D
:10454800883003F047F9002800F08E800121824866
:1045580003F040F948B9022100F1804000F58830A5
:1045680003F038F9002800F0938001217A4803F01D
:1045780031F9012800F0A1800121774803F02AF9D8
:1045880048B9022100F1804000F5883003F022F993
:10459800012800F0B18001216F4803F01BF90028C1
:1045A80000F0BE8002F094FA6A4BD86196E70421C5
:1045B80000F1804000F5883003F00CF901289CD107
:1045C800664B5B78002B98D1644B00225A729A7222
:1045D8001A72DA729A70E5E7042100F1804000F55A
:1045E800883003F0F7F8012895D15C4B5B78012BF4
:1045F80091D15A4B02229A70D4E70221564803F00F
:10460800E9F800288DD1042100F1804000F58830B8
:1046180003F0E0F8012884D1504B00221A720121DE
:10462800997259704E4B1A70BCE702214A4803F040
:10463800D1F800287FF47BAF042100F1804000F519
:10464800883003F0C7F800287FF471AF434B5B78DC
:10465800012B7FF46CAF414B01221A729A7200222F
:10466800DA723F4B1A709DE7042100F1804000F593
:10467800883003F0AFF800287FF468AF374B5B78D9
:10468800012B7FF463AF354B01229A729A7089E748
:10469800042100F1804000F5883003F09BF80028E1
:1046A8007FF463AF2D4B5B78002B7FF45EAF2B4B11
:1046B8000022DA725A729A7274E70221264803F0CD
:1046C80089F800287FF458AF042100F1804000F5F4
:1046D800883003F07FF800287FF44EAF1F4B5B78DB
:1046E800002B7FF449AF1D4B01225A709A720022A9
:1046F800DA721B4B1A7055E70421174803F06AF861
:1047080000287FF448AF154B5B78002B7FF443AF4C
:10471800124B01221A725A72114B00221A7041E789
:10472800022100F1804000F5883003F053F8012899
:104738007FF438AF0421084803F04CF801287FF4CF
:1047480031AF064A0023137201215172044A1370D3
:1047580028E700BF980D002000100140500C0020F1
:10476800740C002008B5094B00221A71084BDB783D
:1047780003B908BD01224FF48071064803F031F8EF
:1047880002F0A6F9014B1860F3E700BFB80D00204E
:10479800200C0020000C014008B502F099F9194AD4
:1047A8001368C01A1379012B10D05AB212B1022B18
:1047B8001AD008BD6428FCD900224FF48071124831
:1047C80003F00FF80F4B03221A71F2E740F2DC53A3
:1047D8009842EED900224FF480710B4803F001F89B
:1047E800084B03221A71E4E7B0F57A7FE1D94FF458
:1047F8008071054802F0FBFF02F06AF9014B18606E
:10480800D7E700BFB80D0020000C014070B586B096
:10481800002604960E4B9A6942F008029A619B6939
:1048280003F008030193019B4FF48075029501235F
:10483800039302230593074C02A9204602F0D6FEF3
:1048480032462946204602F0CCFF06B070BD00BFB4
:1048580000100240000C014000B58BB0B0F90030E8
:10486800A3F26C73069390F90230013B059390F91B
:104878000330049390F90530039390F906300293BE
:1048880090F9073001934FF0FF33099301A805F021
:10489800B7F80BB05DF804FB38B50D460A4C226832
:1048A800136823F001031360FFF7D6FF4FF461612B
:1048B80001FB0501204602F03AFE2268136843F026
:1048C8000103136038BD00BFCC0D002008B502F00D
:1048D800FFF81D4B18601D481D4B03604FF0FF3358
:1048E80043600023836002F0ADFD88B901211748B9
:1048F80002F074FE4AF2A55398420CD1154B5A6A3D
:104908005B6A154B01221A60104802F027FE08BDA9
:10491800FCF72EFBEAE711486FF01C03037007232E
:1049280043700A2383701123C37007214171232325
:1049380083711423C371FFF7AFFF4AF2A552012117
:10494800024802F043FEDFE7C80D0020CC0D00202E
:104958000028004000100240E0044242C00D002040
:1049680010B582B00446009100230193684604F014
:1049780053FE0368E3714368A37183686371C36876
:10498800E37083690133237103690133A3704369B9
:1049980003F26C73238002B010BD000000B583B031
:1049A80002F0B2FD019001990248FFF7D9FF03B068
:1049B8005DF804FBC00D002008B50E480E4B0360DF
:1049C8004FF48273436000238360C36003614361D3
:1049D8004FF4007282612822C261036243628362DB
:1049E8000A23C36201F06CFC00B908BDFCF7C0FAE9
:1049F800FBE700BFE00D00200030014000B587B0A4
:104A0800002302930393049305930268124B9A427E
:104A180002D007B05DF804FB03F560439A6942F4DD
:104A280080529A619A6902F480520092009A9A69B7
:104A380042F004029A619B6903F004030193019B0D
:104A4800A0230293022303930323059302A9034897
:104A580002F0CCFDDDE700BF003001400008014056
:104A680008B50748074B03600323436040F6FF730C
:104A7800836001F02FFD00B908BDFCF779FAFBE768
:104A8800380E00200030004008B500220F491048B9
:104A980003F0BCF870B90F490D4803F0CEF860B9BF
:104AA8000D490B4803F098FD50B9094803F0CCF8BC
:104AB80048B908BDFCF75CFAEDE7FCF759FAEFE7EF
:104AC800FCF756FAF1E7FCF753FAF2E70400002086
:104AD800440E00207000002054000020022805D851
:104AE800DFE800F00504020001207047022070474B
:104AF80002680E4B9A4200D0704700B583B003F5A8
:104B0800DA33DA6942F40002DA61DB6903F400039C
:104B18000193019B00221146142002F08DFE1420FF
:104B280002F0BEFE03B05DF804FB00BF005C00406D
:104B380008B500F22C41D0F85C0403F09FF808BDDA
:104B480008B500EB4113D3F83C22D0F85C0403F01D
:104B5800C3F808BD08B500EB4113DA6BD0F85C0464
:104B680003F0F0F808BD08B5D0F85C0403F074F958
:104B780008BD10B504468368022B09D10121D4F879
:104B88005C0403F057F9D4F85C0403F034F910BD61
:104B9800FCF7EEF9F2E7000010B50446D0F85C0423
:104BA80003F04BF9A36923B1024A136943F00603E2
:104BB800136110BD00ED00E008B5D0F85C0403F007
:104BC80045F908BD10B504461D48C0F85C44C4F852
:104BD80020021C4B036008234360022383600023E8
:104BE8008361C361036200F0E3F930BB182300223C
:104BF8001146D4F8200200F036FE58230022802106
:104C0800D4F8200200F02FFEC02300228121D4F81E
:104C1800200200F028FE4FF4887300220121D4F806
:104C2800200200F020FE4FF4807300228221D4F885
:104C3800200200F018FE002010BDFCF799F9D5E716
:104C480068100020005C004008B5D0F8200200F091
:104C58001AFAFFF743FF08BD10B51C461346224653
:104C6800D0F8200200F03AFAFFF738FF10BD08B577
:104C7800D0F8200200F05BFAFFF730FF08BD08B556
:104C8800D0F8200200F09AFDFFF728FF08BD08B50C
:104C9800D0F8200200F0C0FDFFF720FF08BDD0F8D3
:104CA800203211F0800F06D101F07F0103EB411192
:104CB80091F82A02704701F07F0103EB411191F846
:104CC8002A00704708B5D0F8200200F0F3F9FFF782
:104CD80005FF08BD08B5D0F8200200F075FAFFF707
:104CE800FDFE08BD08B5D0F8200200F047FAFFF72E
:104CF800F5FE08BD08B5D0F8200200F05EFA08BD40
:104D080000487047F80300207047704712230B8053
:104D1800004870472000002004230B80004870479B
:104D2800340000200023934216D230B40BE037340D
:104D380001F8134000015C00013400250D550133D2
:104D4800DBB2934206D2040F092CF0D8303401F8B4
:104D58001340EFE730BC70477047000038B50A4B86
:104D6800186804331C6804331B68C01800D138BDA8
:104D7800064D0822A91CFFF7D5FF042205F11201F0
:104D88002046FFF7CFFFF2E7E8F7FF1F38000020C3
:104D980008B51A230B80FFF7E1FF014808BD00BFE3
:104DA8003800002008B50A4628B90549054803F027
:104DB800C6FA034808BD0249024803F0C0FAF8E7FA
:104DC800C81400209CE7000810B5044C0A46214688
:104DD800034803F0B4FA204610BD00BFC8140020F1
:104DE80088E7000808B50A4628B90549054803F0C8
:104DF800A6FA034808BD0249024803F0A0FAF8E7FA
:104E0800C81400206CE7000808B50A4628B9054907
:104E1800054803F094FA034808BD0249024803F024
:104E28008EFAF8E7C814002078E7000800207047D9
:104E38000020704710B5054C0146204603F0DBFB07
:104E4800204603F0F5FB002010BD00BF440E0020F3
:104E580010B5064C00220649204603F0C4FB05495C
:104E6800204603F0C8FB002010BD00BF440E002000
:104E7800B01A0020C8160020094BD3F81832D3F80E
:104E880014320BB10120704710B50A460146044C94
:104E9800204603F0A8FB204603F0B3FB10BD00BF7B
:104EA800440E00207047FEE7FEE7FEE7FEE7704786
:104EB8007047704708B501F0FFFD08BD08B5024806
:104EC80000F0CCFB08BD00BF6810002008B5024800
:104ED80002F05AFB08BD00BFCC0D002008B50248FF
:104EE80002F078FA08BD00BFCC0D002008B50220FA
:104EF80002F082FC0220FCF76DFF08BD08B50248ED
:104F080001F0ACFB08BD00BF980C002082B00E4B2E
:104F18009A6942F001029A619A6902F001020092CC
:104F2800009ADA6942F08052DA61DB6903F0805353
:104F38000193019B054A536823F0E06343F0007333
:104F4800536002B0704700BF0010024000000140EB
:104F58000268144B9A4200D0704700B583B002F043
:104F6800D1FC114BDA6942F00062DA61DB6903F0C7
:104F780000630193019B0D4B01221A600022114628
:104F8800032002F059FC032002F08AFC002211469B
:104F9800292002F051FC292002F082FC03B05DF8C0
:104FA80004FB00BF00280040001002403C044242BD
:104FB800002866D0F0B587B0044690F829345BB372
:104FC800032384F82934206800F074FC254655F83A
:104FD800107B6E460FCD0FC62B683360231D0ECB9A
:104FE800384600F058FC0021206800F06DFC0023D2
:104FF8000E2B16D804EB4312012182F8291082F8EF
:1050080028309386002182F82B109163D1639A1C73
:105018005201A1500133EBE780F82834FFF768FD0F
:10502800CEE700230E2B13D804EB4312002182F89D
:10503800291282F82832938682F82B12C2F8381285
:10504800C2F83C1203F112025201A1500133E9E700
:10505800254655F8107B6E460FCD0FC62B6833607A
:10506800231D0ECB384600F031FC002584F824506F
:10507800012384F82934206800F03CFF284607B053
:10508800F0BD0120704790F82834012B10D010B5DE
:105098000446012180F82814FFF737FE206800F045
:1050A80027FF206800F0FEFB002084F8280410BDCC
:1050B8000220704790F82834012B0DD010B5044613
:1050C800012380F8283480F82410006800F00AFFD3
:1050D800002084F8280410BD0220704738B54DB26E
:1050E800002D1CDB01F07F04640104F50A740444FC
:1050F80001F07F012170ED0F65702261E37090F877
:105108002834012B11D00546012380F82834214684
:10511800006800F0F1FB002085F8280438BD01F094
:105128007F04640128340444E2E70220F6E74AB227
:10513800002A1BDB01F07F035B0103F50A730344BC
:1051480001F07F011970D20F5A7090F82824012AB3
:1051580012D010B50446012280F8282419460068A8
:1051680000F05EFD002084F8280410BD01F07F03E4
:105178005B0128330344E3E70220704770B501F070
:105188007F056C0104F50A7101440444C4F83C220B
:1051980005F112025201861883500023736084F8C7
:1051A800293284F8285225B9006800F0BFFE002093
:1051B80070BD006800F0BAFEF9E701F00F01123186
:1051C80000EB41118888704770B501F07F056C01CC
:1051D80004F1280101440444E263AA1C5201861820
:1051E800835000237360012384F8293084F8285001
:1051F80025B9006800F09AFE002070BD006800F034
:1052080095FEF9E770B582B004460023ADF8063084
:10521800ADF804308DE103889BB223F4E14323F019
:1052280070039BB203802268B2F8503094F82810BB
:1052380003EBC103023302EB4303D3F80034C3F397
:1052480009036364E26B1344E36300212046FFF71C
:1052580081FC94F82430002B00F06B81236C002B28
:1052680040F0678194F82430226843F08003A2F864
:105278004C30002384F824305BE1B0F8503094F8C7
:10528800282203EBC203063300EB4303D3F80034B0
:10529800C3F30903C4F84432B4F82C2204F22C41B5
:1052A80000F0A1FF2268138823F070031B051B0D73
:1052B80013802046FFF73CFC3BE1B4F82C22D4F8DD
:1052C8003C1200F090FFD4F84422D4F83C32134446
:1052D800C4F83C326BE1C1F34F0311F0010F01D068
:1052E80001339BB29B029BB2C2F800347CE130F8D8
:1052F80025309BB2ADF80430BDF8043013F4004FEC
:1053080035D1BDF8043013F0800F00F01281226807
:1053180032F825309BB223F4E14323F070039BB2AB
:1053280022F8253004EB451393F83230002B40F077
:10533800B2802068B0F8503004EB451292F828206B
:1053480003EBC203023300EB4303D3F80034C3F387
:105358000903AA1C04EB42125360002B00F0C98019
:1053680004EB45118A8DC96B00F0CBFDC1E030F824
:10537800253023F070031B051B0D20F8253004EBA6
:10538800451393F83232D3B92068B0F8503004EBA3
:10539800451292F8282203EBC203063300EB4303BD
:1053A800B3F80064C6F3090686B304EB4511334627
:1053B800B1F82C22D1F83C1200F015FF26E0206845
:1053C80004EB451393F8282230F8223013F4804F69
:1053D80042D0B0F8503003EBC203023300EB430372
:1053E800B3F80064C6F3090666BB226804EB4513EC
:1053F80093F8281232F8213023F0F0031B051B0D17
:1054080043F4004343F0C00322F8213005F11203AE
:105418005B01E1184A6832444A6004EB4511D1F84F
:105428003C223244C1F83C22E3581BB1D1F838126F
:105438008E4228D204EB451393F828122046FFF732
:105448007FFB5EE704EB45113346B1F82E22D1F815
:105458003C1200F0C8FEC8E7B0F8503003EBC203B6
:10546800063300EB4303B3F80064C6F30906002EC5
:10547800BBD004EB45113346B1F83022D1F83C12C9
:1054880000F0B1FEB1E704EB451191F8281220466F
:10549800FFF774FE35E7206804EB451393F82820DE
:1054A80030F8223013F0400F00F0B480B0F85030DC
:1054B80003EBC203023300EB4303D3F80034C3F316
:1054C8000903AA1C04EB42125360002B40F09B8096
:1054D800226804EB451393F8281032F8213023F0A2
:1054E800F0031B051B0D43F4404343F0800322F8EF
:1054F80021302268B2F8503004EB451090F828109B
:1055080003EBC103023302EB4303D3F80024C2F3D5
:105518000902AB1C5B01E1184A60C16B0A44C26313
:10552800E358002B40F08F8090F828102046FFF7B2
:1055380011FB2068B0F844309BB2ADF8063013F484
:10554800004F00F08880BDF8065015F00F057FF475
:10555800CEAEBDF8063013F0100F3FF45CAE0388F2
:105568009BB2ADF80430BDF8043013F4006F7FF43B
:1055780084AEBDF8043013F4004FDAD0038823F06A
:1055880070031B051B0D03802068B0F8503094F899
:10559800282203EBC203063300EB4303D3F800349D
:1055A800C3F30903C4F84432002B7FF486AE00210C
:1055B8002046FFF7C5FA2368B3F85020063203EBFC
:1055C8004202D4F838123E297FF685AEC1F34F1354
:1055D80011F01F0F01D1013B9BB26FEAC3636FEA61
:1055E80053439BB2C2F80034226813889BB223F459
:1055F800804323F0700383F4405343F4004343F0A3
:105608008003138095E704EB4511CA8DC96B00F040
:1056180078FC5DE7B0F8503003EBC203063300EBCB
:105628004303D3F80034C3F30903AA1C04EB421262
:105638005360002B3FF44CAF04EB45110A8EC96B45
:1056480000F05FFC44E704EB451595F82810204668
:10565800FFF7BAFD6DE7002002B070BD10B5044633
:10566800006800F049FC10F4004F45D1206800F0B4
:1056780043FC10F4806F43D1206800F03DFC10F427
:10568800804F08D02268B2F844309BB223F480439C
:105698009BB2A2F84430206800F02EFC10F4005FA2
:1056A80008D02268B2F844309BB223F400539BB26E
:1056B800A2F84430206800F01FFC10F4805F30D15D
:1056C800206800F019FC10F4006F49D1206800F040
:1056D80013FC10F4007F64D1206800F00DFC10F476
:1056E800807F08D02268B2F844309BB223F48073DC
:1056F8009BB2A2F8443010BD2046FFF783FDB5E702
:105708002268B2F844309BB223F480639BB2A2F8BB
:1057180044302046FFF72DFA00212046FFF7CAFC47
:10572800AAE72268B2F840309BB223F004039BB288
:10573800A2F840302268B2F840309BB223F0080348
:105748009BB2A2F840302046FFF736FA2268B2F83A
:1057580044309BB223F480539BB2A2F84430AFE7A5
:105768002268B2F8403043F00803A2F840302268BB
:10577800B2F844309BB223F400639BB2A2F84430E1
:105788002268B2F8403043F00403A2F840302068A1
:1057980000F0B2FB10F4805F98D12046FFF7FCF9C7
:1057A80094E72268B2F844309BB223F400739BB2AA
:1057B800A2F844302046FFF7D6F98DE738B54AB24B
:1057C800002A1BDB4B0103F50A73034401249C7078
:1057D80001F07F051D70D20F5A7090F82824A2425C
:1057E80018D00446012280F828241946006800F0E1
:1057F800F9FA4DB1002084F8280438BD01F07F0380
:105808005B0128330344E1E704F22C41206800F0EF
:1058180076FBEFE70220F0E710B54AB2002A1ADB60
:105828004B0103F50A73034400249C7001F07F01C7
:105838001970D20F5A7090F82824012A11D0044602
:10584800012280F828241946006800F002FB002095
:1058580084F8280410BD01F07F035B01283303445A
:10586800E2E70220F6E711F0800F09D001F07F018E
:1058780049012831014442B98A728B80002070475F
:10588800490101F50A710144F5E701228A72CB80CA
:105898001B0C0B81F2E784B001A880E80E00002001
:1058A80004B07047B0F8403043F43F43A0F84030AC
:1058B80000207047B0F8403023F474535B045B0C4D
:1058C800A0F84030002070470020704784B038B5F9
:1058D80005AC84E80E000123A0F840300024A0F8AD
:1058E8004040A0F84440A0F85040FFF7DBFF2046B6
:1058F800BDE8384004B0704710B4CB78032B0FD8FC
:10590800DFE803F0026D54600A7830F822309BB269
:1059180023F4EC4323F0700343F4007320F822309F
:105928000A7830F8223023F0F0031B051B0D1343CF
:1059380043F4004343F0800320F822308B7A002B95
:1059480040F0AF804B78002B56D08A885208B0F8C8
:1059580050300C7803EBC40300EB43035200C3F848
:1059680000240A7830F8223013F0400F0BD030F8BA
:10597800223023F0F0031B051B0D43F4004343F0D2
:10598800C00320F822300A7830F822309BB223F482
:10599800E04323F0400383F0200343F4004343F043
:1059A800800320F82230002010BC70470A7830F8B5
:1059B80022309BB223F4EC4323F070039BB220F80F
:1059C8002230ADE70A7830F822309BB223F4EC435A
:1059D80023F0700343F4C06320F82230A0E70A786C
:1059E80030F822309BB223F4EC4323F0700343F4E5
:1059F800806320F8223093E78A885208B0F8503044
:105A08000C7803EBC403043300EB43035200C3F8E0
:105A18000024B0F850300A7803EBC203063300EBD9
:105A280043030C693E2C30D9C4F34F1214F01F0FF6
:105A380001D1013A92B26FEAC2626FEA524292B25F
:105A4800C3F800240A7830F8223013F4804F0BD0C2
:105A580030F8223023F0F0031B051B0D43F44043BC
:105A680043F0800320F822300A7830F822309BB2C5
:105A780023F4804323F0700383F4405343F400433A
:105A880043F0800320F822308DE7C4F34F0214F06E
:105A9800010F01D0013292B2920292B2C3F80024EF
:105AA800D0E70A7830F8223023F4F8731B051B0D71
:105AB80043F4014343F0800320F82230CA88520897
:105AC800B0F850300C7803EBC40300EB43035200EA
